:020000040800F2
:100000000050002025180008D5090008D70900086D
:10001000D9090008DB090008DD090008000000001C
:100020000000000000000000000000006918000847
:10003000DF090008000000006918000869180008BE
:10004000691800086918000869180008691800088C
:10005000691800086918000869180008691800087C
:10006000691800086918000869180008691800086C
:10007000691800086918000869180008691800085C
:10008000691800086918000869180008691800084C
:10009000691800086918000869180008691800083C
:1000A000691800086918000869180008691800082C
:1000B000691800086918000869180008691800081C
:1000C000691800086918000869180008691800080C
:1000D00069180008691800086918000869180008FC
:1000E0006918000869180008691800080000000075
:1000F0000000000000000000000000000000000000
:0C01000000000000000000005FF808F1A3
:10010C00032A2DE9F00109D82AB10023CC5CC45490
:10011C0001339342FAD1BDE8F00170470B468218C7
:10012C00014603E02478013301F8014B11F0030F71
:10013C001C46F7D113F003055DD06E42C5F1040CDB
:10014C00ED009B594FEACC0C08E00434A7593B4610
:10015C0007FA0CF748EA070741F8047B571A23FA09
:10016C0005F8032FF1DC03E014F8013B01F8013B27
:10017C008A42F9D8CFE753F8404C41F8404C53F839
:10018C003C4C41F83C4C53F8384C41F8384C53F843
:10019C00344C41F8344C53F8304C41F8304C53F853
:1001AC002C4C41F82C4C53F8284C41F8284C53F863
:1001BC00244C41F8244C53F8204C41F8204C53F873
:1001CC001C4C41F81C4C53F8184C41F8184C53F883
:1001DC00144C41F8144C53F8104C41F8104C53F893
:1001EC000C4C41F80C4C53F8084C41F8084C53F8A3
:1001FC00044C41F8044C561A1D460C464033403111
:10020C003F2EB8DC2B460FE053F8101C44F8101CA2
:10021C0053F80C1C44F80C1C53F8081C44F8081C2C
:10022C0053F8041C44F8041C161B1D4610330F2EE7
:10023C00214604F11004E7DC2B4602E0246841F867
:10024C00044B551A1C46032D03F10403F6DC8FE70F
:10025C0000230D4AF0B50A251C46B1FBF2F707F155
:10026C003006F6B202FB17110A27302E0655B2FBE8
:10027C00F7F200D113B10134013301E000231C4625
:10028C00013DEAD1F0BD00BF00CA9A3BF0B503783E
:10029C00302B04D14378782B04D0582B02D0002378
:1002AC001A4629E08378002B49D000240222835C73
:1002BC000BB90C6023E0A3F14105EDB2052D09D972
:1002CC00A3F16106F6B2052E04D9A3F13006F6B2FD
:1002DC00092E38D8A3F13006F7B2092F01D83346CE
:1002EC0004E0052D01D8373B00E0573B01320B2AC7
:1002FC0029D003EB0414DAE7845C2CB90B600A2ACE
:10030C008CBF00200120F0BD6B2C01D04B2C02D1F6
:10031C000AB19B0205E06D2C01D04D2C04D11AB111
:10032C001B050B600120F0BD303CE5B2092D0AD84D
:10033C0001320B2A05D00A2505FB0343DCE71846DE
:10034C00F0BD0020F0BD0020F0BD000010B5202154
:10035C000446044801F0C7F918B1024B01209B88F0
:10036C00237010BD0038014007B500238DF807300D
:10037C000DF10700FFF7EAFF0028F9D09DF8070000
:10038C000EBD0000014608B5044801F0A7F903486A
:10039C00802101F0A8F90028F9D008BD00380140EF
:1003AC0010B5044601E0FFF7EDFF14F8010B00282F
:1003BC00F9D110BD82B00190019883059B0D800A84
:1003CC0003B1013002B0704770B500F055FE1F4EFE
:1003DC000446336800EA03029A4232D000F046FE2B
:1003EC00336805461C43346000F038FF044630681F
:1003FC00B0F1FF3F03D0C04300F0A8FE044605F067
:10040C000703072B07D005F0010005F0020105F0EA
:10041C00040200F067FE042C11D10D48FFF7C0FF59
:10042C000C48FFF7BDFF0C4B0C4AD96801F4E06196
:10043C0041EA0202D968DA60BFF34F8FFEE7084841
:10044C0000E00848BDE87040FFF7AABF1C00002080
:10045C00C1180008E018000800ED00E00400FA05DF
:10046C002A19000856190008024B9A6801229A6052
:10047C00704700BF0030024030B5002204E050F855
:10048C00044B1D6801321C608A42024BF7D318687A
:10049C0030BD00BF0030024010B54020012101F0FA
:1004AC0075F8084B1C68FFF7DFFFA10801310648FF
:1004BC00FFF7E2FF00210446402001F067F82046D8
:1004CC0010BD00BFFC2400080025000810B50A4828
:1004DC00FFF766FF0948FFF763FF0948FFF760FF66
:1004EC000848FFF75DFF0648FFF75AFF0648BDE8CE
:1004FC001040FFF755BF00BF791900088D1900088F
:10050C000B1C00089119000895190008374B384A44
:10051C001B6870B503F178431B0B0125136015FAAA
:10052C0003F3344C5B42236000F0A6FD2368324C8D
:10053C001840984201D0256001E000232360FFF7AA
:10054C0013FF312802D100F075F8F8E7322802D1F8
:10055C0000F040FAF3E7332819D1284E284B3268C3
:10056C009A420ED1FFF798FF58B9264B264A1B68C2
:10057C00264D13602B60306801F0BBF82B68984750
:10058C00DDE72348FFF70CFFFFF7C0FFD7E756283E
:10059C0002D1FFF79BFF24E0342805D12368012BFF
:1005AC001FD1FFF711FFCAE7682801D0482818D1DE
:1005BC001848FFF7F5FE1848FFF7F2FE1748FFF74B
:1005CC00EFFE1748FFF7ECFE1648FFF7E9FE23682D
:1005DC0013B11548FFF7E4FE1448FFF7E1FE144889
:1005EC0000E00B48FFF7DCFEA9E700BF000000208D
:1005FC00240000201C000020200000200025000802
:10060C000050002004250008300400203404002091
:10061C00B5190008C9190008091A0008471A00087A
:10062C00851A0008C31A0008011B00083F1B0008AC
:10063C00B719000830B585B00A22304901A8304CF2
:10064C00FFF75EFD2F48FFF7ABFE2378012B03D19C
:10065C002D48202100F0DFFE2378043BDBB2012B78
:10066C0007D82948202100F0D3FE2748102100F09C
:10067C00D2FE264800F016FA051E17DD2448FFF7B7
:10068C008FFE2448FFF78CFE294601A8FFF7E0FDFA
:10069C002148FFF785FE01A8FFF782FE1F48FFF7F0
:1006AC007FFE1F48FFF77CFE1E480EE0B5F1FF3FB2
:1006BC0001D11D4809E015F1020F01D11B4804E0DE
:1006CC0015F1030F0CBF1A481A48FFF769FE23787F
:1006DC00012B03D10C48202100F09AFE2378043B17
:1006EC00DBB2012B07D80848202100F094FE064805
:1006FC00102100F08DFE05B030BD00BF6A18000857
:10070C00380400207D1B0008000C0140280000204C
:10071C00BA1B0008400400200D1C0008171C000820
:10072C00201C0008B5190008431C0008801C000898
:10073C009A1C0008B01C000870B586B000F088FC4C
:10074C001D20012100F030FF4FF0FF33ADF81430C5
:10075C008F48002305A98DF8173000F0F7FD8D4860
:10076C0005A900F0F3FD8C4805A900F0EFFD4FF44E
:10077C008040012100F018FF03238DF8163015334B
:10078C008DF8173082484FF4007305A90425ADF895
:10079C00143000F0DBFD4FF480637D4805A9ADF803
:1007AC0014308DF8175000F0D1FD7C48012100F079
:1007BC0035FE4FF48073764805A9ADF814308DF8EA
:1007CC00175000F0C3FD4FF40053714805A9ADF864
:1007DC0014308DF8175000F0B9FD4FF480436E487B
:1007EC0005A9ADF814308DF8175000F0AFFD68482E
:1007FC004FF4807100F006FE694CC8B966484FF49E
:10080C00804100F0FFFD98B94FF40051604800F0B2
:10081C00F9FD012801460BD1624800F0FFFD3023A1
:10082C00ADF8143010238DF817305A4805A922E082
:10083C0057484FF4807100F0E5FD01281FD1564850
:10084C004FF4804100F0DEFD012818D150484FF4E0
:10085C00005100F0D7FD0128054610D1514829461A
:10086C0000F0DCFD3023ADF814304A4814238DF829
:10087C0017300DEB030100F069FD257026E04448AC
:10088C004FF4807100F0BEFD01281DD140484FF49B
:10089C00005100F0B7FD0128054615D13C484FF436
:1008AC00804100F0AFFD78B93E48294600F0B6FD16
:1008BC003023ADF814303748102305A98DF81730C4
:1008CC0000F044FD052300E0002323702378012B66
:1008DC0007D13048202100F09BFD2E48102100F05C
:1008EC009AFD2378043BDBB2012B07D82948202141
:1008FC0000F091FD2748102100F08AFD4FF4E13300
:10090C0001930023ADF80830ADF80A30ADF80C3087
:10091C00ADF8103001A90C232348ADF80E3000F0CF
:10092C0051FE2148012100F0CBFEFFF7CFFD2CE05A
:10093C001D48202100F0D7FE48B11B4B9B88DBB231
:10094C00662B04D11948FFF72BFDFFF7DFFD0134AF
:10095C00174B9C42ECD9174E174B32689A420FD169
:10096C00FFF79AFD044658B9144B154A1B68154DF0
:10097C0013602B60306800F0BCFE2B689847E7E7EB
:10098C000A48FFF70DFDFFF7C1FD0024E0E700BFAB
:10099C0000080140000C0140001001400004300030
:1009AC00380400200001300000380140B51900085F
:1009BC003F420F00002500080050002004250008CD
:1009CC0030040020340400207047FEE7FEE7FEE709
:1009DC00FEE7704710B5204C2048FFF7E1FC237868
:1009EC00012B03D11E48202100F015FD2378043B78
:1009FC00DBB2012B07D81A48202100F009FD18485A
:100A0C00102100F008FDFFF7AFFC43280AD1154870
:100A1C0015494FF45B4200F027FA08B1134802E085
:100A2C00134800E01348FFF7BBFC2378012B03D1DC
:100A3C000B48202100F0ECFC2378043BDBB2012BAB
:100A4C0009D82021064800F0E6FC05481021BDE835
:100A5C00104000F0DDBC10BD38040020D01C000894
:100A6C00000C014000250008061D00081D1D000893
:100A7C00471D00089A1C000808B5FFF783FC0020EE
:100A8C0008BD38B504460D4605E02046FFF75EFC70
:100A9C00013D012804D0002DF7D14FF0FF3038BDB7
:100AAC00002038BD2DE9F04F9D4AADF5846D9D4E6B
:100ABC00002381B00746CDF8183432609946984629
:100ACC001C460DF582600F304FF48011FFF7D9FFF3
:100ADC00002840F021819DF81F34042B44D005D808
:100AEC00012B1CD0022B40F017811AE0412B00F097
:100AFC00F480612B00F0F180182B40F00D810DF586
:100B0C0082600F304FF48011FFF7BBFF002840F0DC
:100B1C0003819DF81F34182B40F0FE8028E08025BF
:100B2C0001E04FF480658DF800304FF0010A0DE0C4
:100B3C0000AA02EB0A004FF48011FFF7A2FF002875
:100B4C0040F0EA800AF1010A1FFA8AFA2B1D53457C
:100B5C00AB46EDDA9DF802209DF80130D243D2B2BB
:100B6C00934240F0D98001E0834603E015B107E0E1
:100B7C000620C4E00620FFF77FFF5C46D846A0E7BE
:100B8C0004F0FF02934203D01520FFF775FFA1E09C
:100B9C00002C64D19DF80330002B5AD022460DF165
:100BAC00030102E08354013101320B785E4813B12A
:100BBC00B2F5807FF6D10023835403E00DF58160FC
:100BCC00C254013311F8012F202A01D0102BF5D17A
:100BDC000DF58462D318002503F8185C0DF58160BF
:100BEC000DF58361FFF752FBDDF81804B0F5803F7B
:100BFC0008DB1820FFF740FF1820FFF73DFF4FF0F0
:100C0C00FF3084E0FFF7D6FB484B494A186015606B
:100C1C009A4691460CE0474A1088326803FB002044
:100C2C0000F070FBD8F8003028700133C8F80030A1
:100C3C00D9F80030DAF80020DFF8F480934203D2C0
:100C4C003D4D2A78042AE6D00620FFF715FF4320F5
:100C5C003BE00620FFF710FFDDF8180457E038469C
:100C6C000DF103012A46FFF74BFA344B4FF0000805
:100C7C001F6099461DE0D9F80030196800F0C2FADF
:100C8C00DAF80020D9F8003010681968884208D0CA
:100C9C001820FFF7F1FE1820FFF7EEFE6FF00100B1
:100CAC0035E00432CAF80020244A0433136008F1FA
:100CBC000408A84508DA1A4BDDF818243068D31854
:100CCC009842DFF860A0D6D30620FFF7D5FE01349A
:100CDC004FF001094FF00008F3E61820FFF7CCFEA7
:100CEC001820FFF7C9FE6FF0020010E008F10108B0
:100CFC00B8F1050F07DD1820FFF7BEFE1820FFF72F
:100D0C00BBFE002003E04320FFF7B6FED9E609B096
:100D1C000DF5806DBDE8F08FB9F1000FE6D1E7E776
:100D2C00FC240008000000204004002028040020BF
:100D3C002C04002006000020040000203C040020AD
:100D4C00F0B501230370013B04464370FF20A070F3
:100D5C0085B0204601E085703B46CD5C9EB225B146
:100D6C0001305F1CB3F5807FF5D1E3180025DD70F1
:100D7C0001A811680436FFF76BFAB6B202E0013530
:100D8C00E254ADB204A94A1912F80C2C73199BB297
:100D9C00002AF4D103E00022E25401339BB2822BEF
:100DAC00F9D905B0F0BD30B5B3F5806F34BF8024F0
:100DBC004FF480649C4238BF2346B4F5806F9BB2DD
:100DCC0001D1022500E001254A70D2438A700D70D2
:100DDC00032204E010F8015B8D54013292B29D1C89
:100DEC009542F7DAA34208D8033302E01A22CA5418
:100DFC0001339BB2A21C9A42F8DA30BD41F48071E7
:100E0C004900400011F4807F18BF013010F4803F7E
:100E1C001CBF80F4805080F0210011F4803FEFD093
:100E2C0080B2704770B504464518002003E014F8F2
:100E3C00011BFFF7E3FFAC4280B2F8D30021FFF7B0
:100E4C00DDFF0021BDE87040FFF7D8BF70B50E463E
:100E5C000546002405E015F8010BFFF70DFE0134E3
:100E6C00A4B2B442F7D370BD2DE9F043ADF5A26D39
:100E7C0083B0019205460022885C0DF58263043331
:100E8C0098540132FF2AF7D103A8194601AAFFF79B
:100E9C0057FF002403A88321FFF7D8FF80210DF111
:100EAC000F00FFF7BFFF0646000AC0B2FFF7E4FDD4
:100EBC00F0B2FFF7E1FD0DF5A260043042F21071C3
:100ECC00FFF7DFFD20B99DF81435062B01D103E0A7
:100EDC000134092CDED95BE0092C59D8019C012680
:100EEC0040E0284603A9F2B223464FF00008FFF772
:100EFC005AFF8DF81485B4F5806F34BF80274FF4FA
:100F0C00806703A8F91CFFF7A1FF39460DF10F000C
:100F1C00FFF788FF8146000AC0B2FFF7ADFD5FFA0C
:100F2C0089F0FFF7A9FD0DF5A26004304749FFF7E2
:100F3C00A8FD78B99DF81435062B0BD1BC4206D907
:100F4C00362E70D00136ED19E41BB6B273E0ED19F4
:100F5C00044670E008F10108B8F10A0FCBD15FFA32
:100F6C0088F063E0002CBCD18DF814450420FFF709
:100F7C0083FD0DF5A260043042F21071FFF781FD84
:100F8C0018B99DF81435062B59D001340A2CEDD123
:100F9C00E0B24BE001238DF80C3006AAFE338DF83D
:100FAC000E308DF814058DF80D000DF10E03763210
:100FBC00002503F8015F9342FAD103A88321FFF7C0
:100FCC0045FF80210DF10F00FFF72CFF0446000AAE
:100FDC00C0B2FFF751FDE0B2FFF74EFD0DF5A26078
:100FEC00043042F21071FFF74CFD20B99DF8143516
:100FFC00062B27D101E0013524E0092D11D804205E
:10100C00FFF73AFD0DF5A260043042F21071FFF7C4
:10101C0038FD18B99DF81435062B07D00135092D6C
:10102C0003D9E8B202E0FF2000E0002047B00DF544
:10103C00806DBDE8F083B8F1090F93D98FE7092CC7
:10104C00A8D9A5E7092DB8D9EBE700BFA086010008
:10105C00034B5A68034A5A605A68034A5A607047ED
:10106C000020024023016745AB89EFCD014BD869C5
:10107C008008704700200240014B186A704700BF7F
:10108C0000200240024BD869C0F34000704700BFFB
:10109C00002002400A4BDA6812F0010F0BD1DA681B
:1010AC0012F0040F09D1D86800F0100000280CBF12
:1010BC00042003207047012070470220704700BFB6
:1010CC000020024010B50446FFF7E4FF012805D1CB
:1010DC0000E0013C002CFCD1052010BD002C08BF09
:1010EC00052010BDF8B5154E0446B368144B4FF4EB
:1010FC000050B360B368134B0D46B3601746FFF74F
:10110C00E1FF042818D1336944F0F80443F01003CC
:10111C003269254333610C4B2F435A884FF40050EE
:10112C005F80FFF7CFFF052806D0326941F6EF73D9
:10113C0002EA030332693361F8BD00BF00200240AC
:10114C0023016745AB89EFCD00F8FF1F10B50446AE
:10115C004FF40050FFF7B6FF04284AD1254BE44367
:10116C0099682549E2B2996099682449FF2A9960E7
:10117C001969186941F01001196108D0204B4FF41E
:10118C00005019891A81FFF79DFF042825D104F41A
:10119C007F431B0AFF2B08D0194A4FF4005051898A
:1011AC005381FFF78FFF042817D104F47F031B0C26
:1011BC00FF2B08D0124A4FF4005091899381FFF70E
:1011CC0081FF042809D1240EFF2C09D00C4B4FF4BD
:1011DC000050DA89DC81FFF775FF052801D110BDBD
:1011EC000420044B41F6EF72196901EA02021969F5
:1011FC001A6110BD0020024023016745AB89EFCD79
:10120C0000F8FF1F73B5002304464FF400500E4640
:10121C000193FFF757FF04281DD10F4D4FF40050D9
:10122C002B692A6943F001032B61B3B22380FFF7CA
:10123C0049FF042808D102340194019B360C1E800E
:10124C004FF40050FFF73EFF2A6941F6FE7302EAA5
:10125C0003032A692B617CBD0020024038B5FFF7DF
:10126C0011FF00280CBFA52500254FF43020FFF7F7
:10127C0029FF04283CD11F4C4FF43020A3681E4B8F
:10128C00A360A3681D4BA3602369226943F020036C
:10129C0023612369226943F040032361FFF712FFA6
:1012AC0004281CD1226941F6DF7302EA0303226988
:1012BC0023612369226943F010032361104B4FF41F
:1012CC0000501A881D80FFF7FDFE052810D02269FA
:1012DC0041F6EF7302EA03032269236138BD052846
:1012EC0006D0226941F6EF7302EA030322692361F7
:1012FC0038BD00BF0020024023016745AB89EFCD0C
:10130C0000F8FF1F38B505464FF43020FFF7DAFE22
:10131C00042817D10C4C4FF430202369226943F078
:10132C0002032361636965612369226943F0400309
:10133C002361FFF7C7FE226941F6FD7302EA03033E
:10134C002269236138BD00BF00200240CB78F0B584
:10135C0013F0100F03F00F0218BF8B784E7818BFE4
:10136C001A430B7843EA062616F0FF0F20D00468C8
:10137C00002301279F4007EA0605BD4213D19F00B9
:10138C004FF00F0C0CFA07FC12FA07F724EA0C04C6
:10139C003C43CF78282F02D14769456103E0482FA1
:1013AC0004BF076905610133082BE2D103680460AF
:1013BC000B784E7843EA0626FF2E22D94468002388
:1013CC0003F108050127AF4007EA0605BD4213D11A
:1013DC009F004FF00F0C0CFA07FC12FA07F724EAE7
:1013EC000C043C43CF78282F02D14769456103E0B8
:1013FC00482F04BF076905610133082BE0D143680E
:10140C004460F0BD836819420CBF00200120704776
:10141C0003690161704743694161704770B50028E9
:10142C00184B00F44012B4BFDB695B68B2F5401F87
:10143C0084B208D1134A23F070635568566825F0BE
:10144C007065556011E010F4801F06D000F4702216
:10145C00120C032515FA02F203E0420D120114FAE4
:10146C0002F223EA020343F0706319B1420D120138
:10147C0094402343034A0028B5BFD1695168D36116
:10148C00536070BD0000014030B53B4A536803F017
:10149C000C03042B05D0082B09D012220BBB0370B4
:1014AC0002E0002303701222427068321DE0536880
:1014BC00516803F470139B0C023311F4803F03D07A
:1014CC00526812F4003F01D02C4A00E02C4A5343DE
:1014DC0003F0FF0202701A0A42701A0C82701B0E83
:1014EC0004E00023427003707A228270224AC37097
:1014FC005368244C03F0F0031B09E15C4578037836
:10150C0043EA0523857843EA0543C57843EA056336
:10151C00CB40190A4171190C8171190E0371C171FB
:10152C00516801F4E061090A615C33FA01F10D0ABA
:10153C00017245720D0C090E8572C172516801F46D
:10154C006051C90A615CCB40190A4173190C817353
:10155C00190E0373C17352680B4902F44042920B8B
:10156C008A5CB3FBF2F31A0A037442741A0C1B0E56
:10157C008274C37430BD00BF0010024000093D00EE
:10158C0000127A000C00002008000020054B11B15D
:10159C005A69104302E05A6922EA00005A695861FC
:1015AC00704700BF00100240054B11B19A691043FF
:1015BC0002E09A6922EA00009A699861704700BFBC
:1015CC000010024030B5038A0D468A7923F440534B
:1015DC00C9791B0442EA01221B0C1343028A0382C1
:1015EC002A7A697A0446838942EA012168792A7940
:1015FC0023F4B05342EA002241EA0202E87AA97AC3
:10160C0023F00C0341EA00211B040A431B0C42EAA1
:10161C000303A289A381A38A697B2A7B23F44073E9
:10162C001B0442EA01221B0C87B0134301A8A28AB7
:10163C00A382FFF729FF214BA2899C4212B20CBF57
:10164C00049B039B002A4FF019012A7868780ADA68
:10165C0042EA0022A878594342EA0042E87842EA7A
:10166C000062520009E042EA0022A878594342EA9B
:10167C000042E87842EA006292006423B1FBF2F186
:10168C00B1FBF3F21201100903FB1011A08900B297
:10169C00002806DAC9003231B1FBF3F303F007037B
:1016AC0005E009013231B1FBF3F303F00F0343EA18
:1016BC00020292B22389228107B030BD003801406A
:1016CC0021B183899BB243F4005304E0838923F452
:1016DC0000531B041B0C828983817047C905C90DFB
:1016EC00838881807047038819420CBF0020012039
:1016FC00704780F308887047434B82B01A681968AA
:10170C0042F001021A605868404A002100EA0202C5
:10171C0058685A601A68186822F0847222F4803271
:10172C001A601A68186822F480221A605A6858687D
:10173C0022F4FE025A609A684FF41F029A600191DB
:10174C0000911A68196842F480321A602E4B1A689C
:10175C0002F400320092019A01320192009A1AB9F5
:10176C00019AB2F5A06FF1D11B6813F4003318BFC6
:10177C0001230093009B012B3FD1254B1A6819685C
:10178C0042F010021A601A68196822F003021A60FB
:10179C001A68196842F002021A601B4B5A685968A1
:1017AC005A605A6859685A605A68596842F480629B
:1017BC005A605A68596822F47C125A605A685968FF
:1017CC0042F4E8125A601A68196842F080721A6082
:1017DC000D4B1A6812F0007FFAD05A68596822F043
:1017EC0003025A605A68596842F002025A60064B6A
:1017FC005B6803F00C03082BF9D1064B9A684FF089
:10180C0000629A6002B07047001002400000FFF8BE
:10181C000020024000ED00E0002103E00A4B5B5881
:10182C004350043109480A4B42189A42F6D3094AEC
:10183C0002E0002342F8043B074B9A42F9D3FFF72E
:10184C005BFFFEF779FF7047642000080000002062
:10185C001C0000201C00002040050020FEE720207A
:10186C0020202020202020200008200800436F6D1D
:10187C006D616E6420737472696E672073697A652A
:10188C00206F766572666C6F770D0A005573657202
:10189C002043616E63656C6C6564200D0A004572B3
:1018AC00726F722C20496E70757420616761696E5D
:1018BC003A200D0A000D0A57726974652050726F38
:1018CC0074656374696F6E2064697361626C6564BE
:1018DC002E2E2E000D0A2E2E2E616E6420612053AA
:1018EC00797374656D2052657365742077696C6CBF
:1018FC002062652067656E65726174656420746F23
:10190C002072652D6C6F616420746865206E65773C
:10191C00206F7074696F6E206279746573000D0AA4
:10192C004572726F723A20466C61736820777269E7
:10193C00746520756E70726F74656374696F6E2058
:10194C006661696C65642E2E2E000D0A466C6173FF
:10195C0068206D656D6F7279206E6F742077726977
:10196C0074652070726F746563746564000D0A4F42
:10197C004F42442D466C6173686C6F6164657220D4
:10198C000044326100363830005475652C203031FB
:10199C00204F637420323031332031343A32373AAD
:1019AC003435202B30323030000D0A4F4F42442D4D
:1019BC00466C6173686C6F616465723E000D0A3D24
:1019CC003D3D3D3D3D3D3D3D3D3D3D3D3D3D3D3D3B
:1019DC003D3D3D3D3D3D3D2048656C70203D3D3DD0
:1019EC003D3D3D3D3D3D3D3D3D3D3D3D3D3D3D3D1B
:1019FC003D3D3D3D3D3D3D3D3D0D0A0A0020204411
:101A0C006F776E6C6F616420496D61676520546FF0
:101A1C00207468652053544D333246313078204958
:101A2C006E7465726E616C20466C617368202D2D2E
:101A3C002D2D2D2D2D20310D0A0A00202055706CD6
:101A4C006F616420496D6167652046726F6D20740B
:101A5C0068652053544D33324631307820496E74CA
:101A6C0065726E616C20466C617368202D2D2D2D76
:101A7C002D2D2D20320D0A0A002020457865637526
:101A8C00746520546865204E65772050726F6772BC
:101A9C00616D202D2D2D2D2D2D2D2D2D2D2D2D2D03
:101AAC002D2D2D2D2D2D2D2D2D2D2D2D2D2D2D2D5A
:101ABC002D20330D0A0A002020426F6F746C6F6169
:101ACC006465722076657273696F6E2073747269C7
:101ADC006E67202D2D2D2D2D2D2D2D2D2D2D2D2DBC
:101AEC002D2D2D2D2D2D2D2D2D2D2D2D2D2D2D2027
:101AFC00560D0A0A00202044697361626C652074DB
:101B0C0068652077726974652070726F7465637490
:101B1C00696F6E202D2D2D2D2D2D2D2D2D2D2D2D37
:101B2C002D2D2D2D2D2D2D2D2D2D2D2D2D20340DFF
:101B3C000A0A003D3D3D3D3D3D3D3D3D3D3D3D3D6C
:101B4C003D3D3D3D3D3D3D3D3D3D3D3D3D3D3D3DB9
:101B5C003D3D3D3D3D3D3D3D3D3D3D3D3D3D3D3DA9
:101B6C003D3D3D3D3D3D3D3D3D3D3D3D3D0D0A0A2F
:101B7C00000D0A57616974696E6720666F72207474
:101B8C0068652066696C6520746F206265207365DA
:101B9C006E74202E2E2E2028707265737320276190
:101BAC002720746F2061626F7274290A0D000A0A73
:101BBC000D2050726F6772616D6D696E6720436F97
:101BCC006D706C65746564205375636365737366BF
:101BDC00756C6C79210A0D2D2D2D2D2D2D2D2D2D66
:101BEC002D2D2D2D2D2D2D2D2D2D2D2D2D2D2D2D19
:101BFC002D2D2D2D2D2D2D0D0A204E616D653A208C
:101C0C00000A0D2053697A653A20002042797465E8
:101C1C00730D0A002D2D2D2D2D2D2D2D2D2D2D2D12
:101C2C002D2D2D2D2D2D2D2D2D2D2D2D2D2D2D2DD8
:101C3C002D2D2D2D0A0D000A0A0D54686520696D95
:101C4C006167652073697A652069732068696768C4
:101C5C006572207468616E2074686520616C6C6FAD
:101C6C00776564207370616365206D656D6F727943
:101C7C00210A0D000A0A0D56657269666963617462
:101C8C00696F6E206661696C6564210A0D000D0A2E
:101C9C000A41626F72746564206279207573657293
:101CAC002E0A0D000A0D4661696C656420746F2064
:101CBC0072656365697665207468652066696C6514
:101CCC00210A0D000A0A0D53656C65637420526578
:101CDC0063656976652046696C65202E2E2E20285A
:101CEC00707265737320616E79206B657920746FE7
:101CFC002061626F7274290A0D0055706C6F6164FB
:101D0C006564466C617368496D6167652E62696EC6
:101D1C00000A0D4572726F72204F636375726564B1
:101D2C00207768696C65205472616E736D69747488
:101D3C00696E672046696C650A0D000A0D46696C70
:101D4C006520547261736D69747465642053756396
:101D5C006365737366756C6C79200A0D0000000066
:10206400FC24000804000004020406080000000028
:0C2074000102030401020304060708092E
:0400000508001825B2
:00000001FF
