:020000040800F2
:10000000005000202D170008E1080008E308000850
:10001000E5080008E7080008E908000800000000FB
:100020000000000000000000000000007117000840
:10003000EB080008000000007117000871170008A5
:100040007117000871170008711700087117000870
:100050007117000871170008711700087117000860
:100060007117000871170008711700087117000850
:100070007117000871170008711700087117000840
:100080007117000871170008711700087117000830
:100090007117000871170008711700087117000820
:1000A0007117000871170008711700087117000810
:1000B0007117000871170008711700087117000800
:1000C00071170008711700087117000871170008F0
:1000D00071170008711700087117000871170008E0
:1000E0007117000871170008711700080000000060
:1000F0000000000000000000000000000000000000
:0C01000000000000000000005FF808F1A3
:10010C00032A2DE9F00109D82AB10023CC5CC45490
:10011C0001339342FAD1BDE8F00170470B468218C7
:10012C00014603E02478013301F8014B11F0030F71
:10013C001C46F7D113F003055DD06E42C5F1040CDB
:10014C00ED009B594FEACC0C08E00434A7593B4610
:10015C0007FA0CF748EA070741F8047B571A23FA09
:10016C0005F8032FF1DC03E014F8013B01F8013B27
:10017C008A42F9D8CFE753F8404C41F8404C53F839
:10018C003C4C41F83C4C53F8384C41F8384C53F843
:10019C00344C41F8344C53F8304C41F8304C53F853
:1001AC002C4C41F82C4C53F8284C41F8284C53F863
:1001BC00244C41F8244C53F8204C41F8204C53F873
:1001CC001C4C41F81C4C53F8184C41F8184C53F883
:1001DC00144C41F8144C53F8104C41F8104C53F893
:1001EC000C4C41F80C4C53F8084C41F8084C53F8A3
:1001FC00044C41F8044C561A1D460C464033403111
:10020C003F2EB8DC2B460FE053F8101C44F8101CA2
:10021C0053F80C1C44F80C1C53F8081C44F8081C2C
:10022C0053F8041C44F8041C161B1D4610330F2EE7
:10023C00214604F11004E7DC2B4602E0246841F867
:10024C00044B551A1C46032D03F10403F6DC8FE70F
:10025C0000230D4AF0B50A251C46B1FBF2F707F155
:10026C003006F6B202FB17110A27302E0655B2FBE8
:10027C00F7F200D113B10134013301E000231C4625
:10028C00013DEAD1F0BD00BF00CA9A3BF0B503783E
:10029C00302B04D14378782B04D0582B02D0002378
:1002AC001A4629E08378002B49D000240222835C73
:1002BC000BB90C6023E0A3F14105EDB2052D09D972
:1002CC00A3F16106F6B2052E04D9A3F13006F6B2FD
:1002DC00092E38D8A3F13006F7B2092F01D83346CE
:1002EC0004E0052D01D8373B00E0573B01320B2AC7
:1002FC0029D003EB0414DAE7845C2CB90B600A2ACE
:10030C008CBF00200120F0BD6B2C01D04B2C02D1F6
:10031C000AB19B0205E06D2C01D04D2C04D11AB111
:10032C001B050B600120F0BD303CE5B2092D0AD84D
:10033C0001320B2A05D00A2505FB0343DCE71846DE
:10034C00F0BD0020F0BD0020F0BD000010B5202154
:10035C000446044801F04BF918B1024B01209B886C
:10036C00237010BD0038014007B500238DF807300D
:10037C000DF10700FFF7EAFF0028F9D09DF8070000
:10038C000EBD0000014608B5044801F02BF90348E6
:10039C00802101F02CF90028F9D008BD003801406B
:1003AC0010B5044601E0FFF7EDFF14F8010B00282F
:1003BC00F9D110BD82B00190019883059B0D800A84
:1003CC0003B1013002B0704770B500F0D9FD1F4E7B
:1003DC000446336800EA03029A4232D000F0CAFDA8
:1003EC00336805461C43346000F0BCFE044630689C
:1003FC00B0F1FF3F03D0C04300F02CFE044605F0E3
:10040C000703072B07D005F0010005F0020105F0EA
:10041C00040200F0EBFD042C11D10D48FFF7C0FFD6
:10042C000C48FFF7BDFF0C4B0C4AD96801F4E06196
:10043C0041EA0202D968DA60BFF34F8FFEE7084841
:10044C0000E00848BDE87040FFF7AABF1C00002080
:10045C00C9170008E817000800ED00E00400FA05D1
:10046C00321800085E18000838B52C4B2C4A1B6853
:10047C00012503F178431B0B136015FA03F3294C88
:10048C005B42236000F07CFD2368274C18409842A7
:10049C0001D0256001E000232360FFF765FF3128C0
:1004AC0002D100F08DF8F8E7322802D100F018FAEA
:1004BC00F3E733280CD11D4B1D4A1B681D4D1360EF
:1004CC002B601D4B186801F098F82B689847E4E7EF
:1004DC00342805D12368012B1CD1FFF775FFDCE70D
:1004EC00682801D0482815D11448FFF759FF144843
:1004FC00FFF756FF1348FFF753FF1348FFF750FF62
:10050C00236813B11148FFF74BFF1148FFF748FF61
:10051C00104800E01048FFF743FFBEE70000002042
:10052C00240000201C0000202000002004240008CF
:10053C003004002034040020002400088118000836
:10054C00C1180008FF1800083D1900087B190008A5
:10055C00B9190008F9190008F7190008024B9A6834
:10056C0001229A60704700BF0030024030B5002273
:10057C0004E050F8044B1D6801321C608A42024BA7
:10058C00F7D3186830BD00BF0030024010B54020D2
:10059C00012100F07FFF084B1C68FFF7DFFFA1086B
:1005AC0001310648FFF7E2FF00210446402000F02D
:1005BC0071FF204610BD00BFFC230008002400087A
:1005CC0030B585B00A222E4901A82E4CFFF798FDB4
:1005DC002D48FFF7E5FE2378012B03D12B48202172
:1005EC0000F09DFE2378022B07D12848202100F033
:1005FC0093FE2648102100F092FE254800F0D4F915
:10060C00051E17DD2348FFF7CBFE2348FFF7C8FE76
:10061C00294601A8FFF71CFE2048FFF7C1FE01A8E0
:10062C00FFF7BEFE1E48FFF7BBFE1E48FFF7B8FEE5
:10063C001D480EE0B5F1FF3F01D11C4809E015F152
:10064C00020F01D11A4804E015F1030F0CBF194831
:10065C001948FFF7A5FE2378012B03D10B48202165
:10066C0000F05AFE2378022B07D10848202100F015
:10067C0056FE0648102100F04FFE05B030BD00BFFD
:10068C0072170008380400200B1A0008000C0140F7
:10069C0028000020481A0008400400209B1A00087B
:1006AC00A51A0008AE1A0008F7190008D11A00089C
:1006BC000E1B0008281B00083E1B0008F0B587B075
:1006CC0000F04AFC1D20012100F0F2FE00274FF043
:1006DC00FF336E4805A9ADF814308DF8177000F093
:1006EC00B9FD6B4805A900F0B5FD6A4805A900F0F5
:1006FC00B1FD4FF48040012100F0DAFE18238DF893
:10070C00173062484FF4007305A903260424ADF892
:10071C0014308DF8166000F09DFD4FF480635B483B
:10072C0005A98DF81740ADF8143000F093FD4FF487
:10073C008073564805A98DF81740ADF8143000F0B9
:10074C0089FD52484FF4807100F0E0FD524C90B995
:10075C005248012100F0E6FD3023ADF814304C482E
:10076C00102305A98DF817308DF8166000F072FD76
:10077C00022323701BE045484FF4807100F0C6FD46
:10078C000128054612D14548294600F0CBFD3023FF
:10079C00ADF8143014233E480DEB03018DF81660B0
:1007AC008DF8173000F056FD257000E02770237887
:1007BC00012B07D13648202100F0AEFD3448102122
:1007CC0000F0ADFD2378022B07D13148202100F039
:1007DC00A6FD2F48102100F09FFD4FF4E13301934B
:1007EC000023ADF80830ADF80A30ADF80C30ADF898
:1007FC00103001A90C232A48ADF80E3000F066FE2B
:10080C000121274800F0E0FE2648FFF7C9FD2648E5
:10081C00FFF7C6FD2548FFF7C3FD2548FFF7C0FDD0
:10082C002248FFF7BDFD2348FFF7BAFD2CE01C481A
:10083C00202100F0DCFE48B1194B9B88DBB2662B03
:10084C0004D11D48FFF7ACFDFFF70EFE01341B4B26
:10085C009C42ECD91A4E1B4B32689A420FD1FFF7CF
:10086C0095FE044658B9184B184A1B68184D13606E
:10087C002B60306800F0C1FE2B689847E7E70E4804
:10088C00FFF78EFDFFF7F0FD0024E0E700080140C4
:10089C00000C014000100140380400200001300021
:1008AC00003801405E1B0008721B0008991A0008F2
:1008BC00751B0008791B0008F71900083F420F0050
:1008CC0000240008005000200424000830040020FC
:1008DC00340400207047FEE7FEE7FEE7FEE77047B2
:1008EC0010B51E4C1E48FFF75BFD2378012B03D17E
:1008FC001C48202100F013FD2378022B07D1194846
:10090C00202100F009FD1748102100F008FDFFF729
:10091C002BFD43280AD1144814494FF45C4200F0D3
:10092C0027FA08B1124802E0124800E01248FFF71B
:10093C0037FD2378012B03D10A48202100F0ECFC71
:10094C002378022B09D12021064800F0E8FC054849
:10095C001021BDE8104000F0DFBC10BD38040020B1
:10096C00991B0008000C014000240008CF1B000854
:10097C00E61B0008101C0008281B000808B5FFF730
:10098C0001FD002008BD38B504460D4605E02046A3
:10099C00FFF7DCFC013D012804D0002DF7D14FF00E
:1009AC00FF3038BD002038BD2DE9F04F9E4AADF523
:1009BC00846D9E4E002381B00746CDF8183432600A
:1009CC00994698461C460DF582600F304FF4801105
:1009DC00FFF7D9FF002840F022819DF81F34042B2B
:1009EC0044D005D8012B1CD0022B40F018811AE002
:1009FC00412B00F0F580612B00F0F280182B40F0B9
:100A0C000E810DF582600F304FF48011FFF7BBFFA4
:100A1C00002840F004819DF81F34182B40F0FF8013
:100A2C0028E0802501E04FF480658DF800304FF010
:100A3C00010A0DE000AA02EB0A004FF48011FFF747
:100A4C00A2FF002840F0EB800AF1010A1FFA8AFA93
:100A5C002B1D5345AB46EDDA9DF802209DF8013075
:100A6C00D243D2B2934240F0DA8001E0834603E0F5
:100A7C0015B107E00620C5E00620FFF77FFF5C46B6
:100A8C00D846A0E704F0FF02934203D01520FFF7ED
:100A9C0075FFA2E0002C65D19DF80330002B5BD0D4
:100AAC0022460DF1030102E08354013101320B782F
:100ABC005F4813B1B2F5807FF6D10023835403E075
:100ACC000DF58160C254013311F8012F202A01D099
:100ADC00102BF5D10DF58462D318002503F8185CA2
:100AEC000DF581600DF58361FFF7D0FBDDF818047F
:100AFC00B0F5803F08DB1820FFF740FF1820FFF708
:100B0C003DFF4FF0FF3085E0FFF754FC494B4A4A5C
:100B1C000130186015609A4691460CE0474A1088DF
:100B2C00326803FB002000F071FBD8F8003028700D
:100B3C000133C8F80030D9F80030DAF80020DFF8BB
:100B4C00F880934203D23E4D2A78042AE6D0062040
:100B5C00FFF714FF43203BE00620FFF70FFFDDF803
:100B6C00180457E038460DF103012A46FFF7C8FA7E
:100B7C00344B4FF000081F6099461DE0D9F8003047
:100B8C00196800F0C3FADAF80020D9F800301068C0
:100B9C001968884208D01820FFF7F0FE1820FFF7DC
:100BAC00EDFE6FF0010035E00432CAF80020254A52
:100BBC000433136008F10408A84508DA1A4BDDF871
:100BCC0018243068D3189842DFF860A0D6D30620DA
:100BDC00FFF7D4FE01344FF001094FF00008F2E6A4
:100BEC001820FFF7CBFE1820FFF7C8FE6FF00200AD
:100BFC0010E008F10108B8F1050F07DD1820FFF728
:100C0C00BDFE1820FFF7BAFE002003E04320FFF7DB
:100C1C00B5FED8E609B00DF5806DBDE8F08FB9F1E1
:100C2C00000FE6D1E7E700BFFC230008000000201E
:100C3C0040040020280400202C0400200600002082
:100C4C00040000203C040020F0B501230370013B9C
:100C5C0004464370FF20A07085B0204601E08570EB
:100C6C003B46CD5C9EB225B101305F1CB3F5807F55
:100C7C00F5D1E3180025DD7001A811680436FFF7E3
:100C8C00E7FAB6B202E00135E254ADB204A94A1952
:100C9C0012F80C2C73199BB2002AF4D103E0002239
:100CAC00E25401339BB2822BF9D905B0F0BD30B5BB
:100CBC00B3F5806F34BF80244FF480649C4238BFFE
:100CCC002346B4F5806F9BB201D1022500E00125CB
:100CDC004A70D2438A700D70032204E010F8015B55
:100CEC008D54013292B29D1C9542F7DAA34208D87A
:100CFC00033302E01A22CA5401339BB2A21C9A425B
:100D0C00F8DA30BD41F480714900400011F4807F65
:100D1C0018BF013010F4803F1CBF80F4805080F06D
:100D2C00210011F4803FEFD080B2704770B50446BB
:100D3C004518002003E014F8011BFFF7E3FFAC4259
:100D4C0080B2F8D30021FFF7DDFF0021BDE8704031
:100D5C00FFF7D8BF70B50E460546002405E015F820
:100D6C00010BFFF70BFE0134A4B2B442F7D370BDF4
:100D7C002DE9F043ADF5A26D83B00192054600223A
:100D8C00885C0DF58263043398540132FF2AF7D145
:100D9C0003A8194601AAFFF757FF002403A88321D3
:100DAC00FFF7D8FF80210DF10F00FFF7BFFF0646BC
:100DBC00000AC0B2FFF7E2FDF0B2FFF7DFFD0DF560
:100DCC00A260043042F21071FFF7DDFD20B99DF8EE
:100DDC001435062B01D103E00134092CDED95BE07C
:100DEC00092C59D8019C012640E0284603A9F2B2EF
:100DFC0023464FF00008FFF75AFF8DF81485B4F521
:100E0C00806F34BF80274FF4806703A8F91CFFF76D
:100E1C00A1FF39460DF10F00FFF788FF8146000A4C
:100E2C00C0B2FFF7ABFD5FFA89F0FFF7A7FD0DF538
:100E3C00A26004304749FFF7A6FD78B99DF8143538
:100E4C00062B0BD1BC4206D9372E70D00136ED19CA
:100E5C00E41BB6B273E0ED19044670E008F101082A
:100E6C00B8F10A0FCBD15FFA88F063E0002CBCD14B
:100E7C008DF814450420FFF781FD0DF5A2600430B8
:100E8C0042F21071FFF77FFD18B99DF81435062B4F
:100E9C0059D001340A2CEDD1E0B24BE001238DF88E
:100EAC000C3006AAFE338DF80E308DF814058DF833
:100EBC000D000DF10E037632002503F8015F93420D
:100ECC00FAD103A88321FFF745FF80210DF10F0014
:100EDC00FFF72CFF0446000AC0B2FFF74FFDE0B24B
:100EEC00FFF74CFD0DF5A260043042F21071FFF7D4
:100EFC004AFD20B99DF81435062B27D101E00135A8
:100F0C0024E0092D11D80420FFF738FD0DF5A2605F
:100F1C00043042F21071FFF736FD18B99DF8143504
:100F2C00062B07D00135092D03D9E8B202E0FF20CA
:100F3C0000E0002047B00DF5806DBDE8F083B8F1FE
:100F4C00090F93D98FE7092CA8D9A5E7092DB8D992
:100F5C00EBE700BFA0860100034B5A68034A5A60B6
:100F6C005A68034A5A6070470020024023016745C3
:100F7C00AB89EFCD014BD869800870470020024047
:100F8C00014B186A704700BF00200240024BD86921
:100F9C00C0F34000704700BF002002400A4BDA68E3
:100FAC0012F0010F0BD1DA6812F0040F09D1D868D6
:100FBC0000F0100000280CBF042003207047012013
:100FCC0070470220704700BF0020024010B5044655
:100FDC00FFF7E4FF012805D100E0013C002CFCD117
:100FEC00052010BD002C08BF052010BDF8B5154E0E
:100FFC000446B368144B4FF40050B360B368134B02
:10100C000D46B3601746FFF7E1FF042818D133698A
:10101C0044F0F80443F010033269254333610C4B60
:10102C002F435A884FF400505F80FFF7CFFF0528FD
:10103C0006D0326941F6EF7302EA03033269336179
:10104C00F8BD00BF0020024023016745AB89EFCDFE
:10105C0000F8FF1F10B504464FF40050FFF7B6FF21
:10106C0004284AD1254BE44399682549E2B299609A
:10107C0099682449FF2A99601969186941F010018F
:10108C00196108D0204B4FF4005019891A81FFF7D1
:10109C009DFF042825D104F47F431B0AFF2B08D0A5
:1010AC00194A4FF4005051895381FFF78FFF0428E0
:1010BC0017D104F47F031B0CFF2B08D0124A4FF4FA
:1010CC00005091899381FFF781FF042809D1240EE8
:1010DC00FF2C09D00C4B4FF40050DA89DC81FFF760
:1010EC0075FF052801D110BD0420044B41F6EF72A9
:1010FC00196901EA020219691A6110BD0020024047
:10110C0023016745AB89EFCD00F8FF1F73B50023B2
:10111C0004464FF400500E460193FFF757FF042886
:10112C001DD10F4D4FF400502B692A6943F0010378
:10113C002B61B3B22380FFF749FF042808D1023496
:10114C000194019B360C1E804FF40050FFF73EFFBC
:10115C002A6941F6FE7302EA03032A692B617CBDFE
:10116C000020024038B5FFF711FF00280CBFA52561
:10117C0000254FF43020FFF729FF04283CD11F4CE9
:10118C004FF43020A3681E4BA360A3681D4BA360D3
:10119C002369226943F0200323612369226943F008
:1011AC0040032361FFF712FF04281CD1226941F68A
:1011BC00DF7302EA0303226923612369226943F086
:1011CC0010032361104B4FF400501A881D80FFF759
:1011DC00FDFE052810D0226941F6EF7302EA0303E5
:1011EC002269236138BD052806D0226941F6EF73C8
:1011FC0002EA03032269236138BD00BF00200240CC
:10120C0023016745AB89EFCD00F8FF1F38B50546C4
:10121C004FF43020FFF7DAFE042817D10C4C4FF4B2
:10122C0030202369226943F00203236163696561FD
:10123C002369226943F040032361FFF7C7FE22694B
:10124C0041F6FD7302EA03032269236138BD00BF36
:10125C0000200240CB78F0B513F0100F03F00F0212
:10126C0018BF8B784E7818BF1A430B7843EA0626C2
:10127C0016F0FF0F20D00468002301279F4007EAD7
:10128C000605BD4213D19F004FF00F0C0CFA07FC62
:10129C0012FA07F724EA0C043C43CF78282F02D12A
:1012AC004769456103E0482F04BF076905610133B5
:1012BC00082BE2D1036804600B784E7843EA0626CB
:1012CC00FF2E22D94468002303F108050127AF4003
:1012DC0007EA0605BD4213D19F004FF00F0C0CFA24
:1012EC0007FC12FA07F724EA0C043C43CF78282FAA
:1012FC0002D14769456103E0482F04BF07690561C6
:10130C000133082BE0D143684460F0BD8368194277
:10131C000CBF0020012070470369016170474369CD
:10132C004161704770B50028184B00F44012B4BFEF
:10133C00DB695B68B2F5401F84B208D1134A23F015
:10134C0070635568566825F07065556011E010F4AF
:10135C00801F06D000F47022120C032515FA02F23D
:10136C0003E0420D120114FA02F223EA020343F0E5
:10137C00706319B1420D120194402343034A0028B3
:10138C00B5BFD1695168D361536070BD0000014095
:10139C0030B53B4A536803F00C03042B05D0082BE3
:1013AC0009D012220BBB037002E00023037012223F
:1013BC00427068321DE05368516803F470139B0C43
:1013CC00023311F4803F03D0526812F4003F01D075
:1013DC002C4A00E02C4A534303F0FF0202701A0A15
:1013EC0042701A0C82701B0E04E0002342700370D2
:1013FC007A228270224AC3705368244C03F0F003A3
:10140C001B09E15C4578037843EA0523857843EAB8
:10141C000543C57843EA0563CB40190A4171190CA1
:10142C008171190E0371C171516801F4E061090AEF
:10143C00615C33FA01F10D0A017245720D0C090E53
:10144C008572C172516801F46051C90A615CCB406C
:10145C00190A4173190C8173190E0373C173526805
:10146C000B4902F44042920B8A5CB3FBF2F31A0A6A
:10147C00037442741A0C1B0E8274C37430BD00BF0B
:10148C000010024000093D0000127A000C00002000
:10149C0008000020054B11B15A69104302E05A694B
:1014AC0022EA00005A695861704700BF00100240E0
:1014BC00054B11B19A69104302E09A6922EA0000C7
:1014CC009A699861704700BF0010024030B5038ADA
:1014DC000D468A7923F44053C9791B0442EA012250
:1014EC001B0C1343028A03822A7A697A0446838985
:1014FC0042EA012168792A7923F4B05342EA0022A6
:10150C0041EA0202E87AA97A23F00C0341EA0021AD
:10151C001B040A431B0C42EA0303A289A381A38A7E
:10152C00697B2A7B23F440731B0442EA01221B0CC7
:10153C0087B0134301A8A28AA382FFF729FF214B8E
:10154C00A2899C4212B20CBF049B039B002A4FF051
:10155C0019012A7868780ADA42EA0022A8785943F5
:10156C0042EA0042E87842EA0062520009E042EAAC
:10157C000022A878594342EA0042E87842EA006225
:10158C0092006423B1FBF2F1B1FBF3F212011009EA
:10159C0003FB1011A08900B2002806DAC900323111
:1015AC00B1FBF3F303F0070305E009013231B1FBA2
:1015BC00F3F303F00F0343EA020292B22389228170
:1015CC0007B030BD0038014021B183899BB243F490
:1015DC00005304E0838923F400531B041B0C828901
:1015EC0083817047C905C90D838881807047038842
:1015FC0019420CBF00200120704780F30888704707
:10160C00434B82B01A68196842F001021A6058689C
:10161C00404A002100EA020258685A601A681868A9
:10162C0022F0847222F480321A601A68186822F44C
:10163C0080221A605A68586822F4FE025A609A682E
:10164C004FF41F029A60019100911A68196842F4D4
:10165C0080321A602E4B1A6802F400320092019A02
:10166C0001320192009A1AB9019AB2F5A06FF1D128
:10167C001B6813F4003318BF01230093009B012B4C
:10168C003FD1254B1A68196842F010021A601A688B
:10169C00196822F003021A601A68196842F00202F3
:1016AC001A601B4B5A6859685A605A6859685A60D4
:1016BC005A68596842F480625A605A68596822F430
:1016CC007C125A605A68596842F4E8125A601A68D7
:1016DC00196842F080721A600D4B1A6812F0007F84
:1016EC00FAD05A68596822F003025A605A6859684D
:1016FC0042F002025A60064B5B6803F00C03082BA5
:10170C00F9D1064B9A684FF000629A6002B07047AC
:10171C00001002400000FFF80020024000ED00E045
:10172C00002103E00A4B5B584350043109480A4B33
:10173C0042189A42F6D3094A02E0002342F8043BCD
:10174C00074B9A42F9D3FFF75BFFFEF7B7FF7047E1
:10175C002C1F0008000000201C0000201C00002092
:10176C0040050020FEE720202020202020202020E3
:10177C000008200800436F6D6D616E6420737472F5
:10178C00696E672073697A65206F766572666C6F17
:10179C00770D0A00557365722043616E63656C6C3E
:1017AC006564200D0A004572726F722C20496E70B0
:1017BC00757420616761696E3A200D0A000D0A5735
:1017CC00726974652050726F74656374696F6E20F2
:1017DC0064697361626C65642E2E2E000D0A2E2EC8
:1017EC002E616E6420612053797374656D2052658F
:1017FC007365742077696C6C2062652067656E6513
:10180C00726174656420746F2072652D6C6F6164F5
:10181C0020746865206E6577206F7074696F6E2018
:10182C006279746573000D0A4572726F723A2046C4
:10183C006C61736820777269746520756E70726F55
:10184C0074656374696F6E206661696C65642E2EB5
:10185C002E000D0A466C617368206D656D6F727990
:10186C00206E6F742077726974652070726F746566
:10187C0063746564000D0A3D3D3D3D3D3D3D3D3D80
:10188C003D3D3D3D3D3D3D3D3D3D3D3D3D3D3D2099
:10189C0048656C70203D3D3D3D3D3D3D3D3D3D3DF4
:1018AC003D3D3D3D3D3D3D3D3D3D3D3D3D3D3D3D5C
:1018BC003D0D0A0A002020446F776E6C6F61642026
:1018CC00496D61676520546F207468652053544DD1
:1018DC0033324631307820496E7465726E616C20FB
:1018EC00466C617368202D2D2D2D2D2D2D20310D45
:1018FC000A0A00202055706C6F616420496D616785
:10190C00652046726F6D207468652053544D3332D8
:10191C004631307820496E7465726E616C20466C6D
:10192C00617368202D2D2D2D2D2D2D20320D0A0AA1
:10193C000020204578656375746520546865204ED9
:10194C0065772050726F6772616D202D2D2D2D2DB6
:10195C002D2D2D2D2D2D2D2D2D2D2D2D2D2D2D2DAB
:10196C002D2D2D2D2D2D2D2D2D20330D0A0A002042
:10197C002044697361626C652074686520777269B4
:10198C0074652070726F74656374696F6E202D2D91
:10199C002D2D2D2D2D2D2D2D2D2D2D2D2D2D2D2D6B
:1019AC002D2D2D2D2D2D2D20340D0A0A003D3D3DC4
:1019BC003D3D3D3D3D3D3D3D3D3D3D3D3D3D3D3D4B
:1019CC003D3D3D3D3D3D3D3D3D3D3D3D3D3D3D3D3B
:1019DC003D3D3D3D3D3D3D3D3D3D3D3D3D3D3D3D2B
:1019EC003D3D3D3D3D3D3D0D0A0A000D0A4F4F4228
:1019FC00442D466C6173686C6F616465723E000DBA
:101A0C000A57616974696E6720666F722074686525
:101A1C002066696C6520746F2062652073656E7436
:101A2C00202E2E2E2028707265737320276127209C
:101A3C00746F2061626F7274290A0D000A0A0D20FE
:101A4C0050726F6772616D6D696E6720436F6D7058
:101A5C006C65746564205375636365737366756C2C
:101A6C006C79210A0D2D2D2D2D2D2D2D2D2D2D2D5E
:101A7C002D2D2D2D2D2D2D2D2D2D2D2D2D2D2D2D8A
:101A8C002D2D2D2D2D0D0A204E616D653A20000A4D
:101A9C000D2053697A653A20002042797465730DE4
:101AAC000A002D2D2D2D2D2D2D2D2D2D2D2D2D2DAA
:101ABC002D2D2D2D2D2D2D2D2D2D2D2D2D2D2D2D4A
:101ACC002D2D0A0D000A0A0D54686520696D616799
:101ADC00652073697A652069732068696768657227
:101AEC00207468616E2074686520616C6C6F77651A
:101AFC0064207370616365206D656D6F7279210A66
:101B0C000D000A0A0D566572696669636174696F26
:101B1C006E206661696C6564210A0D000D0A0A412C
:101B2C00626F7274656420627920757365722E0A17
:101B3C000D000A0D4661696C656420746F20726536
:101B4C006365697665207468652066696C65210A31
:101B5C000D000D0A4F4F42442D466C6173686C6F3B
:101B6C006164657220004432003339320057656479
:101B7C002C203138204170722032303132203130FB
:101B8C003A30383A3234202B30323030000A0A0DD9
:101B9C0053656C6563742052656365697665204690
:101BAC00696C65202E2E2E2028707265737320614F
:101BBC006E79206B657920746F2061626F72742965
:101BCC000A0D0055706C6F61646564466C617368D6
:101BDC00496D6167652E62696E000A0D4572726F00
:101BEC0072204F636375726564207768696C652039
:101BFC005472616E736D697474696E672046696C9A
:101C0C00650A0D000A0D46696C6520547261736D8E
:101C1C006974746564205375636365737366756C5E
:081C2C006C79200A0D00000094
:101F2C00FC23000804000004020406080000000062
:0C1F3C0001020304010203040607080967
:040000050800172DAB
:00000001FF
