:100000002C9D00000050002089BA0008B151000862
:10001000B3510008B5510008B7510008B9510008A4
:1000200000000000000000000000000000000000D0
:10003000B5AA0008BB5100080000000061AB000831
:100040009DAB0008CDBA0008CDBA0008CDBA0008B3
:10005000CDBA0008CDBA0008CDBA0008CDBA000864
:10006000CDBA0008CDBA0008CDBA0008CDBA000854
:10007000CDBA0008CDBA0008CDBA0008CDBA000844
:10008000CDBA00082145000889450008CDBA00080E
:10009000693F00082D3E0008CDBA0008E53E000883
:1000A000CDBA0008CDBA0008CDBA0008CDBA000814
:1000B000CDBA0008CDBA0008CDBA0008CDBA000804
:1000C000CDBA0008CDBA0008CDBA0008CDBA0008F4
:1000D000CDBA0008CDBA0008614B000843480008BB
:1000E000CDBA0008CDBA0008CDBA0008CDBA0008D4
:1000F0000000000000000000000000000000000000
:100100000000000000000000000000005FF808F19F
:100110000000000030B51A4B89B01A68194B002452
:10012000B2FBF3F2013A93FBF0F305A91648ADF8E0
:100130001420ADF81830ADF81A40ADF8164004F0B0
:100140000BFB6023ADF8043001254FF4A17301A926
:100150000D48ADF80A30ADF80650ADF80C4004F08B
:1001600051FB0821084804F0AEFD2146064804F082
:1001700097FC0548294604F0A0FC09B030BD00BF3B
:10018000B400002080841E000004004030B51C4BE9
:1001900089B01A681B4B0024B2FBF3F2013A93FBBF
:1001A000F0F305A94FF08040ADF81420ADF81830F9
:1001B000ADF81A40ADF8164004F0CEFA6023ADF861
:1001C000043001254FF4A17301A94FF08040ADF830
:1001D0000A30ADF80650ADF80C4004F0F3FB0821EE
:1001E0004FF0804004F08BFD21464FF0804004F03A
:1001F00057FC4FF08040294604F05FFC09B030BD49
:10020000B400002080841E0030B5044685B03E480E
:100210000D4602F078FF01A803F07CF801220023CC
:1002200094428DF80A308DF80B308DF80C308DF833
:100230000D308DF80E308DF80F208DF806508DF8AA
:10024000073001D0052C07D102238DF80830DB18C8
:100250008DF80930202326E0022C01D0062C07D18E
:1002600002238DF80830DB188DF8093010231AE0CE
:10027000032C01D0072C04D102238DF80830DB18A1
:100280000EE0042C4FF0020301D0082C05D18DF8AC
:10029000083004238DF8093005E08DF80830042378
:1002A0008DF80930082301A91748ADF8043002F091
:1002B00045FF012214484FF4807103F007FA012230
:1002C00011484FF4007103F001FA01220E484FF477
:1002D000004103F0FBF901220B484FF4806103F069
:1002E000F5F9012208484FF4006103F0EFF902210B
:1002F0000122054803F0EAF9012103480A4603F008
:10030000E5F905B030BD00BF0064004073B54FF49F
:1003100014514FF0006002F00FFD4FF4407002F0F6
:10032000CFFC0124002525230C2601A88DF80430DC
:100330008DF805608DF806508DF8074002F0CAFC74
:10034000142301A88DF804308DF805608DF806405F
:100350008DF8074002F0BEFC1F2301A88DF8043081
:100360008DF805508DF806508DF8074002F0B2FC6C
:10037000202301A88DF804308DF805508DF8064033
:100380008DF8074002F0A6FC7CBD08B51F484FF46D
:10039000807103F067FC01280DD11C484FF4005117
:1003A00003F060FC012806D119484FF4804103F0A6
:1003B00059FC012829D015484FF4807103F052FCF4
:1003C00030B912484FF4005103F04CFC012817D00B
:1003D0000E484FF4807103F045FC012812D10B4800
:1003E0004FF4005103F03EFC01280DD107484FF4B3
:1003F000804103F037FC00280CBF0520002008BD19
:10040000042008BD002008BD002008BD00080140F0
:10041000001001402DE9F041924B86B09248002433
:10042000049304F0E5FE4FF4E1330C228E48694654
:100430000093ADF80A20ADF80440ADF80640ADF8E1
:100440000840ADF80C4004F01FFF8748012104F07C
:100450009BFF854840F22551012204F0A2FFFFF7DF
:1004600055FF81480D2105F000F8059402E0059B39
:1004700001330593059A7D4B9A42F8D900257A48B5
:10048000612104F0F2FF002301E0059B0133059395
:10049000059A049B9A42F8D37348742104F0E5FF4F
:1004A000002301E0059B01330593059A049B9A42C2
:1004B000F8D36D480D2104F0D8FF002301E0059B1F
:1004C00001330593059A049B9A42F8D3002301E077
:1004D000059B01330593059A654B9A42F8D9654F00
:1004E0000024654E3C60604861213460B04604F0F1
:1004F000BCFF059402E0059B01330593059A049B1C
:100500009A42F8D35848742104F0AFFF002301E069
:10051000059B01330593059A049B9A42F8D35248F0
:100520006C2104F0A2FF002301E0059B0133059339
:10053000059A049B9A42F8D34B483F2104F095FF5B
:10054000002301E0059B01330593059A049B9A4221
:10055000F8D345480D2104F088FF002301E0059BF6
:1005600001330593059A049B9A42F8D3002301E0D6
:10057000059B01330593059A404B9A42F8D9404BAD
:1005800000241B78303B072B00F2EE81DFE813F0EC
:1005900008004A009C00DE002301EF016501AA016A
:1005A0003148612104F061FF059402E0059B0133AD
:1005B0000593059A049B9A42F8D32B48742104F0C2
:1005C00054FF002301E0059B01330593059A049B2A
:1005D0009A42F8D324486C2104F047FF002301E03D
:1005E000059B01330593059A049B9A42F8D31E4854
:1005F000352104F03AFF002301E0059B0133059308
:10060000059A049B9A42F8D317480D2104F02DFF58
:10061000002301E0059B01330593059A049B9A4250
:10062000F8D3BDE11048612104F01FFF059402E0FA
:10063000059B01330593059A049B9A42F8D30A4817
:10064000742104F012FF002301E0059B01330593A0
:10065000059A049B9A42F8D303486C2104F005FFE5
:10066000002311E0E0930400003801403F5489006A
:10067000EF490200B4460020B04600201FA1070049
:1006800058460020059B01330593059A049B9A4226
:10069000F8D39348352104F0E8FE002301E0059BE0
:1006A00001330593059A049B9A42F8D38C480D2197
:1006B00004F0DBFE002301E0059B01330593059A5E
:1006C000049B9A42F8D36BE18548612104F0CDFE8A
:1006D000059402E0059B01330593059A049B9A4219
:1006E000F8D37F48742104F0C0FE002301E0059B8D
:1006F00001330593059A049B9A42F8D378486C21FC
:1007000004F0B3FE002301E0059B01330593059A35
:10071000049B9A42F8D37248352104F0A6FE0023C8
:1007200001E0059B01330593059A049B9A42F8D397
:100730006B480D2104F099FE002301E0059B013375
:100740000593059A049B9A42F8D329E164486121F4
:10075000346004F08AFE059402E0059B01330593A2
:10076000059A049B9A42F8D35D48742104F07DFEFB
:10077000002301E0059B01330593059A049B9A42EF
:10078000F8D357486C2104F070FE002301E0059B6C
:1007900001330593059A049B9A42F8D350483521BA
:1007A00004F063FE002301E0059B01330593059AE5
:1007B000049B9A42F8D34A480D2104F056FE0023C8
:1007C00001E0059B01330593059A049B9A42F8D3F7
:1007D00001233360E4E04248612104F046FE0594C1
:1007E00002E0059B01330593059A049B9A42F8D3D6
:1007F0003B48742104F039FE002301E0059B0133DE
:100800000593059A049B9A42F8D335486C2104F06D
:100810002CFE002301E0059B01330593059A049B00
:100820009A42F8D32E48352104F01FFE002301E040
:10083000059B01330593059A049B9A42F8D32848F7
:100840000D2104F012FE002301E0059B0133059306
:10085000059A049B9A42F8D3A2E02148612104F052
:1008600004FE059402E0059B01330593059A049B61
:100870009A42F8D31A48742104F0F7FD002301E0EE
:10088000059B01330593059A049B9A42F8D31448BB
:100890006C2104F0EAFD002301E0059B0133059380
:1008A000059A049B9A42F8D30D48352104F0DDFDEA
:1008B000002301E0059B01330593059A049B9A42AE
:1008C000F8D307480D2104F0D0FD002301E0059B7B
:1008D00001330593059A049B9A42F8D360E000BF68
:1008E000003801408E48612104F0BFFD059402E00C
:1008F000059B01330593059A049B9A42F8D38848D7
:10090000742104F0B2FD002301E0059B013305933F
:10091000059A049B9A42F8D381486C2104F0A5FD06
:10092000002301E0059B01330593059A049B9A423D
:10093000F8D37B48352104F098FD002301E0059BA6
:1009400001330593059A049B9A42F8D374480D210C
:1009500004F08BFD002301E0059B01330593059A0C
:10096000049B9A42F8D31BE00135EDB200E0092563
:10097000AB1E072B05D8DFE803F0070A0D1013188C
:100980001B1E4FF4965318E04FF4165315E04FF426
:10099000964312E04FF416430FE04FF461430CE02E
:1009A0004FF4E1330093062508E04FF4613304E08F
:1009B0004FF4E12301E04FF4E133009358486946D6
:1009C00004F062FC092D7FF45AAD0024C8F8004001
:1009D0003C605348612104F048FD059402E0059B0A
:1009E00001330593059A049B9A42F8D34C4874212D
:1009F00004F03BFD002301E0059B01330593059ABC
:100A0000049B9A42F8D34648622104F02EFD00234D
:100A100001E0059B01330593059A049B9A42F8D3A4
:100A20003F483F2104F021FD002301E0059B0133F5
:100A30000593059A049B9A42F8D339480D2104F096
:100A400014FD002301E0059B01330593059A049BE7
:100A50009A42F8D3002301E0059B01330593059AE0
:100A6000304B9A42F8D90024C8F800403C602C482A
:100A7000612104F0FAFC059402E0059B0133059323
:100A8000059A049B9A42F8D32548742104F0EDFCA2
:100A9000002301E0059B01330593059A049B9A42CC
:100AA000F8D31F486E2104F0E0FC002301E0059B11
:100AB00001330593059A049B9A42F8D318483F21C5
:100AC00004F0D3FC002301E0059B01330593059A54
:100AD000049B9A42F8D312480D2104F0C6FC00236F
:100AE00001E0059B01330593059A049B9A42F8D3D4
:100AF000002301E0059B01330593059A094B9A42B7
:100B0000F8D9094B01221A60084B1C68002C40F0F0
:100B100089810348612104F0A8FC05940BE000BF23
:100B2000003801401FA10700B0460020B846002051
:100B3000059B01330593059A049B9A42F8D391488B
:100B4000742104F092FC002301E0059B013305931E
:100B5000059A049B9A42F8D38A486E2104F085FCDA
:100B6000002301E0059B01330593059A049B9A42FB
:100B7000F8D384483D2104F078FC002301E0059B74
:100B800001330593059A049B9A42F8D37D484F217F
:100B900004F06BFC002301E0059B01330593059AEB
:100BA000049B9A42F8D377484F2104F05EFC00235F
:100BB00001E0059B01330593059A049B9A42F8D303
:100BC0007048422104F051FC002301E0059B0133F1
:100BD0000593059A049B9A42F8D36A48442104F08D
:100BE00044FC002301E0059B01330593059A049B17
:100BF0009A42F8D363482D2104F037FC002301E02A
:100C0000059B01330593059A049B9A42F8D35D48EE
:100C1000432104F02AFC002301E0059B01330593E6
:100C2000059A049B9A42F8D3FFF7AFFB042802D140
:100C30005448752105E0FFF7A8FB052803D151486A
:100C4000492104F012FC002301E0059B01330593C8
:100C5000059A049B9A42F8D3FFF797FB042802D128
:100C60004848702105E0FFF790FB052803D145486F
:100C7000562104F0FAFB002301E0059B01330593A4
:100C8000059A049B9A42F8D33E48202104F0EDFBDC
:100C9000002301E0059B01330593059A049B9A42CA
:100CA000F8D3394C3748617A04F0DFFB002301E0C8
:100CB000059B01330593059A049B9A42F8D331486A
:100CC000A17A04F0D2FB002301E0059B01330593D8
:100CD000059A049B9A42F8D32A48217B04F0C5FB6D
:100CE000002301E0059B01330593059A049B9A427A
:100CF000F8D32448617B04F0B8FB002301E0059B96
:100D000001330593059A049B9A42F8D31D48E17B71
:100D100004F0ABFB002301E0059B01330593059A2A
:100D2000049B9A42F8D31748217C04F09EFB0023D1
:100D300001E0059B01330593059A049B9A42F8D381
:100D400010480D2104F091FB002301E0059B0133C5
:100D50000593059A049B9A42F8D3002301E0059B72
:100D600001330593059A094B9A42F8D9084B094D6E
:100D700000241C602C600348612104F076FB05947C
:100D80000DE000BF00380140000000201FA1070057
:100D9000B4460020B0460020059B01330593059A18
:100DA000049B9A42F8D32148742104F05EFB00238F
:100DB00001E0059B01330593059A049B9A42F8D301
:100DC0001A486E2104F051FB002301E0059B01331A
:100DD0000593059A049B9A42F8D314483F2104F0E6
:100DE00044FB002301E0059B01330593059A049B16
:100DF0009A42F8D30D480D2104F037FB002301E09F
:100E0000059B01330593059A049B9A42F8D300236E
:100E100001E0059B01330593059A054B9A42F8D9E9
:100E200001232B6006B0BDE8F08100BF003801400F
:100E30001FA10700F7B50121A04802F04DFF1D20BA
:100E4000012103F0B3FA4FF0FF33ADF804309C48B2
:100E5000002301A98DF8073002F0ADFE994801A9E1
:100E600002F0A9FE984801A9042502F0A4FE012180
:100E70004FF4804003F09AFA1024032690480DEBBB
:100E800005018DF806608DF80740ADF8045002F0BA
:100E900092FE8B48294602F0F9FE082388480DEBA4
:100EA0000501ADF804308DF8075002F084FE844847
:100EB0000DEB05018DF80740ADF8044002F07BFE14
:100EC0007F48214602F0E2FE48274FF480737C48B9
:100ED0000DEB0501ADF804308DF8077002F06BFEE4
:100EE0004FF4005376480DEB0501ADF804308DF852
:100EF000077002F060FE18238DF8073070484FF439
:100F000000730DEB0501ADF8043002F054FE4FF410
:100F100080636B480DEB0501ADF804308DF8075088
:100F200002F049FE4FF4804367480DEB0501ADF830
:100F300004308DF806608DF8077002F03CFE8DF8E5
:100F40000660FFF722FAA8420ED148F200035E487D
:100F50000DEB05018DF80740ADF8043002F02BFED3
:100F600059484FF400410EE0FFF70FFA05280CD165
:100F70000823544801A98DF80740ADF8043002F069
:100F80001AFE5048082102F081FEFFF7FEF90428FE
:100F900005D14FF48663ADF8043010231CE0FFF751
:100FA000F4F9052810D130231024464801A9ADF8E2
:100FB00004308DF8074002F0FEFD8023ADF80430C8
:100FC0008DF807403E480AE0FFF7DFF9012809D114
:100FD0003023ADF8043014233A488DF8073001A9C6
:100FE00002F0E9FDFFF7D1F905281DD14FF4EA1011
:100FF000002102F071FE4FF4EB10002102F06CFEB4
:101000004FF40063ADF804302D48482301A98DF852
:10101000073002F0D0FD4FF48053ADF804301823B0
:101020008DF80730264817E04FF4EA10012102F04E
:1010300053FE4FF48073ADF804302248482301A9D1
:101040008DF8073002F0B7FD4FF40073ADF80430AF
:101050001C4818238DF8073001A902F0ACFD0121CE
:101060004FF0007003F0AEF9FFF78FF9042811D1AB
:101070000338014603F0A6F91448012102F02CFEC2
:1010800018238DF8073002A94FF4006321F8043DBE
:101090000C480FE0FFF779F905280DD1033801213D
:1010A00003F090F918238DF8073002A94023044873
:1010B00021F8043D02F07FFDFEBD00BF00043000BA
:1010C00000080140000C014000100140000218001F
:1010D0001FB5124804F08CF842F6A00300930023D9
:1010E000ADF80430ADF80630ADF80830ADF80C308E
:1010F00069460C230948ADF80A3004F0C5F801210F
:10110000064804F041F9054840F22551012204F057
:1011100048F9FFF7FBF805B000BD00BF00440040F0
:1011200010B54FF4004086B003F0BCF801214FF435
:10113000007003F03BF9154801F020FE0124002364
:101140004FF46022114801A901938DF808308DF801
:101150000930039204938DF8144001F03DFE0B48D2
:10116000214601F068FE094801F083FE074801F0BE
:1011700085FE0028FAD1054801F084FE034801F0FD
:1011800086FE0028FAD106B010BD00BF0024014041
:1011900008B5FFF74FFEFFF73DF902210320FFF7E7
:1011A00033F8FFF7BDFFFFF7F0F8042804D140F64D
:1011B0001C40FEF7EBFF08BDFFF7E7F8052803D159
:1011C00040F61C40FEF7A6FF08BD13B500212148DC
:1011D00002F06AFE1F4802F0D3FD00214FF4001018
:1011E00003F0F0F84023ADF8043004230DEB0301C5
:1011F00019488DF8073002F0DEFC01A9802316485B
:101200000024ADF8043002F0D6FC102368468DF8B7
:1012100000308DF801408DF802408DF8034001F058
:1012200059FD112368468DF800308DF801408DF886
:10123000024001F04FFD2146084802F00AFC214619
:10124000074802F006FC054802F056FB044802F08D
:1012500053FB1CBD00540040000C01406C000240D8
:10126000800002402DE9F3410820012103F09EF89F
:1012700001214FF4001003F0A5F84023ADF804302D
:1012800003238DF8063001A919332A488DF8073059
:10129000802702F090FC01A92648002601244FF087
:1012A0001008ADF8047002F086FC68468DF80080E6
:1012B0008DF801608DF802608DF8034001F00AFDA1
:1012C000112368468DF800308DF801608DF80260BA
:1012D00001F000FD2146204603F05CF8164802F0BC
:1012E0000BFB164D164B29462B604FF6FF73EB6038
:1012F00011484FF440536B626E60C5F808802E6150
:101300006F61AE61EE612E62AE6202F075FB0D4858
:1013100002F0F2FA29460B4802F06EFB0221224647
:10132000054802F0A2FB07480221224602F09DFB7D
:10133000BDE8FC81000C01406C0002405C460020CE
:1013400010540040800002400B4607492AB9103271
:1013500048608A60CB60054804E048600022044889
:101360008A60CB6002F048BB5C4600206C00024003
:1013700080000240214B37B500241C60204B102018
:101380001C60204B1C60204B1C60204B1C60204BC1
:101390001C60204B1C60204B1C6007F07DF81F4B2D
:1013A000186050B3032313224460C36001340C253A
:1013B00001A88DF804208DF806308DF805508DF8C1
:1013C000074001F087FC142301A88DF804308DF844
:1013D00005508DF806408DF8074001F07BFC162380
:1013E0008DF8043001A8143B8DF805508DF80630B7
:1013F0008DF8074001F06EFC20463EBDE44600201B
:10140000F0460020DC460020E0460020F8460020A0
:10141000EC460020F4460020E84600208C470020DF
:101420007FB5244B1B68DB68053B032B436802D860
:101430000293042301E0019300238DF80C30002374
:101440008DF80D30836801A98DF80E3003691A48B4
:101450001A788DF80F205A788DF810209A788DF828
:101460001120DA788DF812201A798DF813205A7924
:101470008DF814209A798DF81520DB798DF81630C7
:1014800001F0ADFF0D4B0E491A6801328A421A6015
:101490000DDD52101A600B490B4B08681A6800EBFF
:1014A000D07002EBD2724010521008601A60012016
:1014B00007B000BD8C47002000640040F0460020CB
:1014C000A0860100E4460020DC46002070477047FB
:1014D0007AB9012904D1124B483053F8300005E0A5
:1014E000022917D10F4BC000C318586880B24009B9
:1014F0007047012A10D1012904D1094B483053F813
:10150000300005E0022909D1064BC000C318586815
:10151000400D70471046704700207047002070470C
:101520000064004040660040012904D1074B483068
:1015300053F8300005E0022905D1054BC000C3185F
:101540005868C00870470020704700BF0064004022
:101550004066004030B5836887B0023B05460C2BDF
:1015600000F29D81DFE813F01E000D0051009B0189
:101570009B019B019B019B017100EE00D90058016A
:1015800078019E4A002313609D4AC06813609D4AFB
:10159000136010B10221FEF737FE9B4BEA681B680F
:1015A000DA6077E1954A00231360954A1360954A03
:1015B0001360C268032A00F21B81DFE802F0020E0A
:1015C0001321914C02212368187BFEF71DFE23682E
:1015D000EA680D205A6000210FE08B4C012123683E
:1015E000187B03E0884C03212368187BFEF70CFE70
:1015F0002368EA680D205A60012104F095F949E159
:10160000814C00212368187BF0E77C4B00241C6090
:101610007B4BC2681C607B4B012A1C6000F2E88097
:101620000D20214604F080F9E9680E2001290CBF45
:101630000121022104F078F92146EA68234642F2AA
:101640001070009401F076F864E0026940F2FE73D5
:101650009A4200F3CD80C268012A01D1002316E02E
:10166000931E012B13D9131F012B01D8033A07E056
:10167000911F01290BD9A2F10803012B03D8053AC8
:101680008DF8122005E00A2A40F0B28004238DF87C
:101690001230EB68012B07D0032B05D0052B03D0AC
:1016A000072B01D0092B0AD12B699DF812205B0171
:1016B000ADF80A30554BD200D3185B6809E09DF8AD
:1016C0001220534B483253F83230ADF80A302B69B0
:1016D0005B01ADF808309DF812304D4A483352F89E
:1016E0003320DB00120C03F18043ADF80E2003F52C
:1016F000C8435B681B0CADF80C3000248DF8144017
:101700008DF81340ADF81040012302A88DF8153074
:1017100001F087FD08202146BEE0C368013BDBB233
:101720008DF812300269D1005213ADF80820DA00AA
:10173000364BADF80A10D3185A68ADF80E205B6826
:101740001B0C7EE00269B2F5006F51DAC268012A13
:1017500001D1002315E0931E012B12D9131F012B79
:1017600001D8033A07E0911F01290AD9A2F1080321
:10177000012B03D8053A8DF8122004E00A2A37D14C
:1017800004238DF81230EB68012B07D0032B05D012
:10179000052B03D0072B01D0092B0BD12B699DF80A
:1017A00012205B01ADF80E30184BD200D3185B68E5
:1017B0001B0C0AE09DF81220154B483253F83230CA
:1017C0001B0CADF80E302B695B01ADF80C309DF8A9
:1017D00012300F4A483352F83320DB0003F18043C4
:1017E000ADF80A2003F5C8435B68ADF8083084E71C
:1017F000084B08201B680321DB7856E0E4460020F4
:10180000F0460020DC4600208C4700204066004067
:10181000006400403C000020C268264B013AD2B26E
:101820008DF81220483253F83210ADF80A1053F8F0
:1018300032301B0CADF808300369DA00ADF80E2029
:101840005B130024ADF80C3001238DF814308DF8B3
:101850001340ADF8104058E7002400238DF81240E3
:1018600001344FF6E072ADF80A30ADF808308DF86B
:1018700014308DF81330ADF8103002A80123E4B213
:10188000ADF80E20ADF80C208DF8153001F0C9FC34
:101890000E2CE2D1082000210A460B4605E0064B3B
:1018A00008201B6802219B78002204F061F80120C7
:1018B00007B030BD006400403C00002037B5164B37
:1018C00000241C6014230C258DF8043001A8133B60
:1018D0008DF806308DF805508DF8074001F0FAF9C3
:1018E00013238DF8043001A8103B8DF806308DF8D5
:1018F00005508DF8074001F0EDF916238DF80430FE
:1019000001A8143B8DF805508DF806308DF807407E
:1019100001F0E0F93EBD00BFC80000200F2803D150
:10192000024B0E381960704700207047C800002035
:101930007FB50021254801AA019102918DF80C1074
:101940008DF80E108DF817108DF80F108DF81010FF
:101950008DF811108DF812108DF813108DF81410E9
:101960008DF815108DF8161001F0D4FD019911B9FC
:10197000029B002B28D0164B16481A68013282426F
:101980001A600DDD52101A60134B1A6802EBD27206
:1019900052101A60114B1A6802EBD27252101A6080
:1019A0009DF80C200E4B0AB9996001E0029A9A60EA
:1019B0009DF80E20DA6000221A610DF10F025A61C3
:1019C0001B680BB10748984707B000BD0064004092
:1019D000E4460020A0860100F0460020DC460020FE
:1019E000C8000020CC00002010B51E4801F062FEA7
:1019F000102818D01B4801F05DFE202813D019488C
:101A000001F058FE30280ED0164801F053FE402851
:101A100009D0144801F04EFE502804D0114801F0BE
:101A200049FE602803D1104B1A6801321A600D4834
:101A30004FF4004101F0EEFE0A484FF4006101F05E
:101A4000E9FE08484FF4806101F0E4FE05484FF4D8
:101A5000007101F0DFFE03484FF48071BDE81040D3
:101A600001F0D8BE00640040DC4600200C4B0D495C
:101A70001A6801328A421A600DDD52101A600A4952
:101A80000A4B08681A6800EBD07002EBD272401063
:101A9000521008601A600648012101F0BBBE00BF69
:101AA000F0460020A0860100E4460020DC4600202D
:101AB00000640040014B1868704700BFDC460020FE
:101AC00000207047014B00221A607047DC4600205E
:101AD0007047014B18687047E4460020014B1868B6
:101AE000704700BFF0460020014B00221A6070478B
:101AF000E4460020014B00221A607047F0460020A7
:101B000008B50349034801F0EAFD034B186008BD1E
:101B10000400F01000640040E046002008B50349CE
:101B2000034801F0DCFD034B186008BD0200F01013
:101B300000640040EC46002008B50349034801F06A
:101B4000CEFD034B186008BD0100F010006400409A
:101B5000F846002008B5034801F0B3FD024B1860B9
:101B600008BD00BF00640040F446002008B50348EB
:101B700001F0A4FD024B186008BD00BF00640040E6
:101B8000E8460020FFF721BB30B585B0FFF76AFBC0
:101B90000023ADF804304BF6FF73ADF806304FF478
:101BA0008063ADF80A304FF48043ADF80C300B4B36
:101BB000A0250B48012104AC44F8103DADF80850B5
:101BC00002F072F90648694602F0F4F8044801216F
:101BD00002F077F9034B1D8005B030BDE09304009F
:101BE00000540040E00000203F4B2DE9F0411A6016
:101BF00080463E4C3E480E46154603F063FF4FF4C8
:101C00002043236004E023685A1E226003B9FEE7E4
:101C100038484FF4003102F074FA0028F3D1354807
:101C2000012102F068F94FF48053236004E0236837
:101C30005A1E226003B9FEE72E482F4902F04CFAE3
:101C40000028F4D02D4B4FF480572760198829487D
:101C5000C9B2002202F0ABF9294803F033FF276034
:101C600004E023685A1E226003B9FEE72148254993
:101C700002F032FA0028F4D0234803F023FF1D4875
:101C8000310A02F08FF9214803F01CFF4FF4805312
:101C9000236004E023685A1E226003B9FEE715485A
:101CA0001B4902F019FA0028F4D01248F1B202F0F0
:101CB00079F94FF48053236004E023685A1E2260B0
:101CC00003B9FEE70B48124902F006FA0028F4D0E7
:101CD000297800224046FFF737FB0E48012101F02A
:101CE000B8FE0020BDE8F081FC4600202400002062
:101CF000DFBA00080054004001000300E0000020AB
:101D0000F7BA0008820007001FBB00083ABB0008B2
:101D1000840007006C00024013B500232C4CADF882
:101D2000063000934FF42043236004E023685A1EDA
:101D3000226003B9FEE727484FF4003102F0E1F9D1
:101D40000028F3D12348012102F0D5F84FF4805345
:101D5000236004E023685A1E226003B9FEE71D4891
:101D60001D4902F0B9F90028F4D01C4B1948198814
:101D70000022C9B202F01BF94FF42043236015483A
:101D8000838A9BB2ADF8063023685A1E226003B9DD
:101D9000FEE7BDF8063023F47E7323F005035B05F0
:101DA0005B0D002BEBD0BDF8063013F0020F05D011
:101DB0000121038B02F0ACF800201CBD084902F0A1
:101DC000BAF9009B5A1C962B0092BBD1FEE700BFCC
:101DD000240000200054004001000300E000002027
:101DE000000400102DE9F74F4FEA5219934611F005
:101DF0001F07D2B280460E465FFA89F9019202F0BF
:101E00001F0A834D834C61D1B9F1000F25D182485F
:101E100085F800A003F056FE404603F053FE7F48CD
:101E200003F050FE304603F0C7FE7D4803F04AFE43
:101E3000287803F0C1FE404631462A46FFF7D4FE1B
:101E40004FF42043236004E023685A1E226003B944
:101E5000FEE72B78002BF7D1D2E020234046314615
:101E60006B4A2B70FFF7C0FE4FF42043236004E061
:101E700023685A1E226003B9FEE72B78644F002BBB
:101E8000F6D109F1FF3920365FFA89F9FFF744FFEF
:101E9000B6B208F12008B9F1000FDED1BAF1000F97
:101EA00000F0B28087F800A0404631463A46FFF77E
:101EB0009BFE4FF42043236004E023685A1E2260F7
:101EC00003B9FEE72B78002BF7D199E0C7F1200783
:101ED000FFB2B9F1000F40D1BB452CD92A462F7073
:101EE000FFF782FE4FF42043236004E023685A1E6C
:101EF000226003B9FEE72B78DFF81491002BF5D1AF
:101F0000FFF70AFF019AB919D31BDBB289F8003039
:101F100008EB070089B24A46FFF766FE4FF42043FC
:101F2000236004E023685A1E226003B9FEE72B7881
:101F3000002BF7D164E02A4685F800A0FFF754FE95
:101F40004FF42043236004E023685A1E226003B943
:101F5000FEE72B78002BF7D152E02A462F70FFF7CF
:101F600043FE4FF42043236004E023685A1E22609E
:101F700003B9FEE72B78002BF7D1C7EB0B0B1FFA49
:101F80008BFBBE194FEA5B195FFA89F9FFF7C4FEB4
:101F9000B6B247441BE02023384631461C4A2B701A
:101FA000FFF722FE4FF42043236004E023685A1E0B
:101FB000226003B9FEE72B78002BF7D1FFF7ACFEC8
:101FC000203609F1FF39B6B220375FFA89F9B9F145
:101FD000000FE0D11BF01F0B16D0384631460C4ADB
:101FE00085F800B0FFF700FE4FF42043236004E0C3
:101FF00023685A1E226003B9FEE72B78002BF7D125
:1020000003B0BDE8F04F87E603B0BDE8F08F00BF36
:10201000004700202400002062BB00086CBB0008C1
:1020200078BB000810B54FF4001001F02CFD10B380
:102030001148002101F00DFD104C4FF4801001F00B
:1020400031FD4FF42043236004E023685A1E2260D0
:1020500003B9FEE70A480B4902F053F80028F4D010
:102060000748012101F054FF054B9A8A1B8B064B50
:1020700000221B681A7010BD6C0002402400002072
:102080000054004004000010FC46002008B54FF04A
:10209000007001F0F8FC78B10848012101F038FF28
:1020A0000748002101F0D5FC4FF0807001F0FAFCE8
:1020B000044B00221B681A8008BD00BF005400407A
:1020C0008000024004470020FEE772B6704762B607
:1020D0007047734B2DE9F041724C1A604FF4204366
:1020E00006460F461546236004E023685A1E226008
:1020F00003B9FEE76C484FF4003102F002F8002803
:10210000F3D16948012101F0F6FE4FF480532360BA
:1021100004E023685A1E226003B9FEE7624863495F
:1021200001F0DAFF0028F4D0DFF8A0815E48B8F8AB
:1021300000100022C9B201F03AFF4FF4805323602F
:1021400004E023685A1E226003B9FEE75648584946
:1021500001F0C2FF0028F4D05348390A01F022FFF1
:102160004FF48053236004E023685A1E226003B9B1
:10217000FEE74D484F4901F0AFFF0028F4D04A4830
:10218000F9B201F00FFF4FF48053236004E023689D
:102190005A1E226003B9FEE74348474901F0B1FFE8
:1021A0000028F4D04048012101F0A5FE4FF48053EF
:1021B000236004E023685A1E226003B9FEE73A4810
:1021C0003A4901F089FF0028F4D0B8F80010012244
:1021D0003548C9B201F0EBFE2B88012B4FF4805338
:1021E00041D8236004E023685A1E226003B9FEE749
:1021F0002D48324901F085FF0028F4D02A480021FB
:1022000001F093FEFFF761FF27480121038B01F0E6
:102210007FFEFFF75CFF4FF48053236004E02368E8
:102220005A1E226003B9FEE71F48254901F069FFE5
:102230000028F4D01C4801F0B7FE30702B88013B19
:102240002B804FF48053236004E023685A1E2260E1
:1022500003B9FEE71448038813F4007FF5D1012188
:1022600001F063FE19E0236004E023685A1E226037
:1022700003B9FEE70C48134901F02EFF0028F4D003
:10228000298801223046FFF75FF80748012101F055
:1022900025FE0D48012101F0DCFB0020BDE8F081A6
:1022A00004470020240000200054004001000300E7
:1022B00082000700840007000400001002000010E4
:1022C000400000100200030080000240E0000020F7
:1022D00001207047012070477047704713B581682F
:1022E000032902D0042920D10AE0C268012A03D8B8
:1022F00000240094042009E0114B08201B6812E020
:10230000C268012A0BD800240094052021462346E8
:1023100000F010FA08202146224623460BE0084B25
:1023200008201B680321DB7805E0054B08201B68AB
:1023300002219B78002203F01BFB01201CBD00BF83
:102340003C000020704710B5054840F2255103F0CD
:1023500011F920B10248BDE8104003F08AB810BD61
:1023600000440040014B1868704700BFDC46002065
:1023700000207047014B00221A607047DC460020A5
:102380007047014B18687047E4460020014B1868FD
:10239000704700BFF0460020014B00221A607047D2
:1023A000E4460020014B00221A607047F0460020EE
:1023B000014B1868704700BF08470020014B1868A0
:1023C000704700BF14470020014B1868704700BFDA
:1023D00018470020034B1A8812F0800FFAD098801B
:1023E000704700BF0038014008B5054A054B022080
:1023F0001A60012105F064FA034B1860012008BD42
:10240000D1480008100100200C01002030B909E07B
:10241000054A118811F0800FFAD0938010F8013B23
:10242000002BF5D1704700BF003801400D282DE981
:10243000F0476949694C40F0C8802368CA1812F80F
:10244000020C4F2840F0BD8012F8010C4B2840F0E0
:10245000B8806348012505600878612840F0B180A4
:102460004878742840F0AD808878622831D1CB78E4
:102470003F2B40F0A6805B4B12F8105C12F8120C58
:10248000DD7012F80F5C18701D7112F80D5C12F8F7
:10249000110C9D7112F80C5C5870DD7112F80A5C19
:1024A0003A205D7212F8095C98709D7212F8085C0F
:1024B00058711872D8721D73987312F8075C12F86D
:1024C000060C12F8052C5D731A740022D8735A7426
:1024D00077E06C2807D1CB783F2B72D112F8052C0E
:1024E000414B1A706DE06E286BD1C8783F2868D1D7
:1024F00012F8130C4F283D4861D112F8125C4F2D91
:102500005DD112F8115C422D59D112F8105C442DA6
:1025100055D112F80F5C2D2D51D112F80E5C432DC0
:102520004DD112F80D5C752D49D112F80C2C702A82
:1025300045D1CB1813F80B9CB9F1200F3FD1294A94
:1025400013F80A5C92F80980A84538D113F8095CA1
:1025500092F80AC0AC4532D113F8085C177BAF4241
:102560002DD113F8075C567BAE4228D113F806AC88
:10257000D57B554523D113F8053C127C9A421ED1D8
:10258000012303601A4B4F20187058700D38987053
:102590000230D8701738187116305871323098716F
:1025A0009A7305380022D87183F8089083F809805F
:1025B00083F80AC0DF721E735D73DA7301E00023D3
:1025C000036023680D22CA5401E02368C854013314
:1025D0002360BDE8F08700BFC0460020B44600205D
:1025E000B04600200000002058460020B8460020D9
:1025F0001200002013B5019002AC03F071FA0748F5
:1026000003F060FA54F8040D03F0CBFA044803F029
:1026100059FA204603F0C5FA1CBD00BF85BB00086F
:1026200091BB000810B503F05BFA044803F04AFAC6
:10263000034B1868BDE8104003F0B3BA9EBB000816
:1026400000ED00E010B5064C01E0FFF7D3FF204697
:1026500054F8043B002BF8D1BDE81040CAE700BF96
:1026600000F00FE013B5114840F2255102F082FF4F
:10267000D0B10E4802F0FDFE0D4BC0B21B688DF8C4
:10268000070013B9FFF7D2FE0EE00A4B0A4C186898
:102690000DF107010023224605F0B7F9012803D107
:1026A00023680BB105F0BFFF1CBD00BF003801401F
:1026B000B04600200C010020E400002001207047FB
:1026C0000020704710B5FEF763FDBDE81040FFF72E
:1026D0005BBAFDF71BBE024A024BDA60704700BFCF
:1026E0000406FA0500ED00E010B50446FDF74DFEC6
:1026F00004280AD12CB12046FDF748FD4FF0804058
:102700000CE04FF08040214609E0FDF73EFE052831
:102710000CD13CB12046FDF7FDFC0548012102F03B
:10272000BFF910BD0248214602F0BAF910BD00BF42
:1027300000040040032870B5044616467FD004DC30
:10274000012825D042DC58B198E0052800F08C80A3
:10275000C0F2838042F21073984240F08F8054E0C0
:10276000FDF713FE042808D11EB146484FF48061DE
:1027700053E044484FF480617CE0FDF706FE0528F5
:102780000ED116B14048802147E03F48802171E0DA
:10279000FDF7FBFD042803D0FDF7F7FD052804D164
:1027A0000EB1384862E0374863E0FDF7EEFD0128DE
:1027B000054664D126B13348102101F065FA03E0E3
:1027C0003048102101F062FA2C4658E0FDF7DDFD9B
:1027D000042803D0FDF7D9FD052806D116B12948F4
:1027E00020211AE02748202144E0FDF7CEFD0128F2
:1027F000044641D126B12348202101F045FA3EE0AC
:102800002048202101F042FA39E0FDF7BEFD0428FE
:102810000AD12EB11D484FF4004101F035FA2BE0EA
:102820001A484FF4004125E0FDF7AFFD052825D1FA
:1028300016B114480821F0E7124808211AE0FDF704
:10284000A4FD042803D0FDF7A0FD052816D13046CD
:102850004FF0FF31FFF748FF0EE012B10A480421A4
:10286000DBE70948042105E012B107481021D4E74D
:102870000548102101F00AFA012400E00024204656
:1028800070BD00BF000C0140000801400010014075
:1028900037B58168034602290BD001DC29B12FE04E
:1028A000032927D063292BD120E01A4903F04EF8E1
:1028B0001EE0002400941A69C06821462346FFF7F1
:1028C00039FF0128054607D12046214622462346E6
:1028D00003F04EF828461CE00F4B20461B680321EE
:1028E0002246DB7803F044F8204612E0FFF7F3FEBF
:1028F00001200EE0084B00201B680246DB7805E053
:10290000054B00201B6802219B78024603F030F83B
:1029100000203EBD894E00083C000020014610B555
:1029200009480122002300F0D6FA0748012100F0EF
:10293000B2FA0548022100F0C9FB0028F9D002488C
:10294000BDE8104000F018BB0024014010B5402045
:10295000012101F01FFD00F0A3FF084B08490948C1
:10296000C918094BC91A8908013100F0A5FF0021D7
:102970000446402001F00EFD204610BD649C00007E
:10298000C8000020002500080000002007B58A6864
:102990000B46002A40F08A81CA680D2A00F2218184
:1029A000DFE812F00E005A00640093009600A200C7
:1029B000A500B600BD00BF00DC000A010D01160134
:1029C000944803F07FF8FDF7E0FC012807D0FDF7FD
:1029D000DCFC042803D0FDF7D8FC052801D18E4883
:1029E00000E08E4803F06EF88D4803F06BF88D48D8
:1029F00003F068F88A4803F065F8FDF7C6FC012883
:102A000001D189480AE0FDF7C0FC042803D0FDF796
:102A1000BCFC052801D1854800E0854803F052F848
:102A20007F4803F04FF8FDF7B0FC012801D17E4844
:102A30000BE0FDF7AAFC042801D17C4805E0FDF776
:102A4000A4FC05280CBF7B487B4803F03BF8744886
:102A500003F038F8794800E0794803F033F803F0E0
:102A60003FF803B05DF804EB03F096B8FDF78DFC7A
:102A700004280CD10430FFF751FF06F0E7FA5FA3FA
:102A8000D3E9002306F048FB00226E4B0FE0FDF770
:102A90007CFC052817D10330FFF740FF06F0D6FA7B
:102AA00058A3D3E9002306F037FB674B002206F05A
:102AB00033FB56A3D3E9002306F02EFB06F03EFDC0
:102AC0000A2103F023F86148C7E7FFF7ABFDC6E72B
:102AD00003F1580292E803006A4682E80300483393
:102AE0000FCBFFF787FDBAE7FFF7ACFDB7E7584814
:102AF00002F0E8FF0A214FF4884003F007F8554838
:102B000002F0E0FF05F040FD0A2102F0FFFFA6E71A
:102B1000FFF71CFF08B950489FE750489DE7504811
:102B20009BE7504B1B78303B072B15D8DFE803F0B1
:102B30000406080A0C0E10124B488EE74B488CE72F
:102B40004B488AE74B4888E74B4886E74B4884E781
:102B50004B4882E74B4880E74B487EE704214B48CF
:102B600001F094F84FF4967005F038FB04214748C3
:102B700001F08AF8192005F031FB0421434801F0E7
:102B800085F8192005F02AFBFEF7A2FA4048C1217A
:102B900002F06BFC3E48332102F067FC3C48F12117
:102BA00002F063FC3A48812102F05FFC384866215C
:102BB00002F05BFC374850E73448082101E0334815
:102BC000102101F04FF801280CBF3348334844E787
:102BD00004212E4801F046F801280CBF3048314846
:102BE0003BE7314B00201B68024699780B4603B047
:102BF0005DF804EB02F096BFAFF30080333333335C
:102C00003333493F6666666666664A3F00000000E9
:102C100000408F40A9BB0008AFBB0008B3BB000851
:102C200027C00008B6BB0008BABB0008BEBB00083E
:102C3000C7BB0008D2BB0008DEBB0008E2BB00082F
:102C400000000020000026400000144002BC0008E4
:102C500006BC00081DBC000833BC000854BC0008BA
:102C6000120000205846002074BC00087FBC0008F9
:102C70008ABC000896BC0008A2BC0008AEBC0008D4
:102C8000BBBC0008C8BC0008D5BC00080008014057
:102C900000440040E2BC0008FEBC00080BBD000878
:102CA0001BBD000831BD00083C00002003B000BD82
:102CB000704700BF7047FEE7FEE7FEE7FEE770479C
:102CC00040F0BE60024B40F42020D860704700BF47
:102CD00000ED00E0C37810B5EBB1154B4178DB682F
:102CE0008478DB4303F4E0631B0AC3F104029140E0
:102CF0000F22DA4022400A430E4B01781201CB1812
:102D0000D2B283F8002303780122590903F01F038C
:102D100012FA03F307E003780122590903F01F03B5
:102D200012FA03F32031034A42F8213010BD00BFEC
:102D300000ED00E000E100E021F0604121F07F01C2
:102D4000014B01439960704700ED00E0044B11B165
:102D50001A69104302E01A6922EA000018617047FC
:102D600000ED00E0044B04281A680CBF42F0040296
:102D700022F004021A60704710E000E0134B10B517
:102D8000984207D14FF40070012101F027FB4FF466
:102D9000007014E00E4B984207D14FF4806001217F
:102DA00001F01CFB4FF4806009E00A4B98420BD104
:102DB0004FF40040012101F011FB4FF400400021CD
:102DC000BDE8104001F00ABB10BD00BF0024014067
:102DD00000280140003C014043680A6823F4702346
:102DE00023F4807313430A7910B543EA0223436046
:102DF0008A68CB6884681A43094B04EA030342EAF1
:102E000003034A7943EA420383600B7CC26A013BB5
:102E100022F47002DBB242EA0353C36210BD00BF6A
:102E2000FDF7F1FF00230360037143718360C3600A
:102E300001330374704719B1836843F0010302E062
:102E4000836823F001038360704719B1836843F4FA
:102E5000807302E0836823F4807383607047C9B293
:102E600012B14368194302E0436823EA010141605B
:102E70007047836843F00803836070478068C0F33D
:102E8000C0007047836843F0040383607047806824
:102E9000C0F38000704719B1836843F4A00302E0D7
:102EA000836823F4A003836070478068C0F3805078
:102EB00070474368013923F4604343EA4133436078
:102EC000704719B1436843F4006302E0436823F498
:102ED000006343607047092970B54FEA41040BD97C
:102EE00064181E3C0725A540A340C66826EA0505D0
:102EF00045EA0304C4600AE064180725A54013FAF4
:102F000004F4066926EA050545EA04030361062A76
:102F10000CD8013A02EB82021F2393409140446B8C
:102F200024EA030343EA0102426370BD0C2A4FEA1C
:102F300082030BD89A18233A1F2393409140046BC5
:102F400024EA030343EA0102026370BD9A18413A7E
:102F50001F2393409140C46A24EA030343EA010219
:102F6000C26270BD19B1836843F4801302E08368C4
:102F700023F4801383607047C06C80B27047014BAC
:102F8000186870474C24014019B1436843F48063CA
:102F900002E0436823F480634360704719B14368DB
:102FA00043F4805302E0436823F480534360704746
:102FB000836823F4E04341EA03038360704719B157
:102FC000836843F4004302E0836823F40043836092
:102FD000704719B1836843F4021302E0836823F455
:102FE0000213836070478068C0F34050704709291E
:102FF00070B54FEA41040BD964181E3C0725A54063
:10300000A340C66826EA050545EA0304C4600AE051
:1030100064180725A54013FA04F4066926EA050595
:1030200045EA04030361836B03F440146FEA14540C
:1030300012190332D2B202EB82021F249440914053
:1030400023EA04030B43836370BD836B013923F4CC
:10305000401343EA01538363704782B00023019316
:103060000190019BCB180193019B1A6002B070473D
:1030700082B0002301930190019B28335B180193D8
:10308000019B186880B202B07047436823F4400384
:1030900023F4007341EA0303436070474162826294
:1030A0007047436823F01F0341EA030343607047FE
:1030B000054B18B19A6842F4000202E09A6822F4C3
:1030C00000029A60704700BF002401400368194263
:1030D0000CBF002001207047C9430160704743685E
:1030E000006810EA112004D0C9B219420CBF0020B8
:1030F000012070476FEA11210160704701420CBF47
:103100000020012070470C4B10B5984207D14FF0BA
:103110000070012101F06EF94FF0007006E04FF0F1
:103120008060012101F066F94FF080600021BDE868
:10313000104001F05FB900BF00640040036823F055
:1031400002030360036843F001030360002300E00F
:103150000133426812F0010F03D14FF6FF72934220
:10316000F6D1436813F0010359D08B79012B036822
:103170000CBF43F0800323F080030360CB79012B65
:1031800003680CBF43F0400323F0400303600B7A55
:10319000012B03680CBF43F0200323F020030360DE
:1031A0004B7A012B03680CBF43F0100323F010038C
:1031B00003608B7A012B03680CBF43F0080323F0F4
:1031C00008030360CB7A012B03680CBF43F00403B0
:1031D00023F0040303608B78CA789B0743EA0263F9
:1031E0000A7943EA02434A7943EA02530A88013AD8
:1031F0001343C361036823F001030360002300E06D
:103200000133426812F0010F03D04FF6FF72934270
:10321000F6D1406800F0010080F0010070471846C8
:103220007047837A01229A4070B5384BD3F8001268
:1032300041F00101C3F80012D3F81C42D14301EA66
:103240000404C3F81C42047BB4B9D3F80C42C6880A
:1032500001EA0404C3F80C42847A4588483445EAFC
:10326000064543F8345003888488857A43EA044449
:10327000274BED00EB185C60037B012B17D1234B30
:103280000688D3F80C42458842EA0404C3F80C428D
:10329000847A45EA0645483443F83450C388848824
:1032A000857A43EA04441A4BED00EB185C60C47A5B
:1032B000164B24B9D3F8044201EA040403E0D3F81E
:1032C000044242EA0404C3F8044204890F4B1CB9C7
:1032D000D3F81442214005E0012C05D1D3F8141293
:1032E00042EA0101C3F81412437B012B05D1074BBD
:1032F000D3F81C120A43C3F81C22044BD3F8002253
:1033000022F00102C3F8002270BD00BF006400403B
:103310004066004000238371C3710372437283725D
:10332000C3728370C37003330371013B4371012384
:10333000038070470D4BD3F8002242F00102C3F81E
:103340000022D3F8002222F47C5222F00E02C3F8AD
:103350000022D3F8002242EA0022C3F80022D3F868
:10336000002222F00102C3F80022704700640040EE
:1033700019B1036843F4803302E0036823F4803317
:1033800003607047A1B1036843F080030360D0F885
:10339000843143F48073C0F88431D0F8943143F41D
:1033A0008073C0F89431D0F8A43143F4807313E0F3
:1033B000036823F080030360D0F8843123F4807322
:1033C000C0F88431D0F8943123F48073C0F894317C
:1033D000D0F8A43123F48073C0F8A431704770B5DD
:1033E0008268034612F0806F09D1826812F0006F84
:1033F00007D1826812F0805F4BD0022002E00020EB
:1034000000E0012000F1180212019C5804F00104B0
:103410009C500C7A2CB90E684C7A9D5844EA46545C
:1034200005E04E689D5844EAC6042C434D7A2C436F
:103430009C508A7A00F11804240102F00F028A726B
:103440001A19556825F00F05556055688E7A46EAB9
:10345000050555604D7B8A7B2D0445EA0265CA7AD5
:1034600015430A7B45EA022503EB0012C2F8885196
:103470004D7C8E7C2D0445EA0665CE7B097C354368
:1034800045EA0121C2F88C111A5942F001021A5181
:1034900070BD042070BD012906D002D302290BD1D2
:1034A00005E082680E4B04E082680E4B01E0826802
:1034B0000D4B02EA030300E00023094A93420BD0BC
:1034C00001D83BB10AE0074A934205D0064A93422D
:1034D00004D101E0022070470120704700207047AE
:1034E000030000040003000800000310012907D0B6
:1034F00002D302290DD108E0836843F0800302E083
:10350000836843F4004383607047836843F4000397
:103510008360704730B501F11B042301C55805F0E5
:103520000405EDB215721DB9C3585B0D136002E0BE
:10353000C358DB08536024010319045904F0020442
:1035400054725C6804F00F0494725B681B0AD374B5
:1035500000EB0113D3F8B841D472D3F8B841240A70
:103560001473D3F8B841240C5473D3F8B841240E23
:103570009473D3F8BC41D473D3F8BC41240A1474B7
:10358000D3F8BC41240C5474D3F8BC311B0E937493
:1035900021B9C36843F02003C36030BD036943F021
:1035A0002003036130BD21B9C36843F02003C36029
:1035B0007047036943F020030361704709B9C0688D
:1035C00002E0012903D1006900F0030070470020E8
:1035D0007047A9B9036823F0030343F001030360B4
:1035E0004FF6FF7300E0013B426802F00302012A3C
:1035F00001D0002BF7D1406800F0030001282EE035
:10360000012915D1036823F0030303604FF6FF730C
:1036100000E0013B426812F0030F01D0002BF8D10B
:10362000406800F00300D0F1010038BF002070476F
:10363000022918D1036823F0030343F00203036057
:103640004FF6FF7300E0013B426802F00302022ADA
:1036500001D0002BF7D1406800F00300022814BF0E
:1036600000200120704700207047036823F0030307
:1036700043F002030360406800F00300A0F102037E
:10368000584240EB03007047036823F002030360D5
:103690004FF6FF7300E0013B426812F0020F01D0C9
:1036A000002BF8D1406800F00200D0F1010038BFD3
:1036B00000207047806900F0700070478069000E3C
:1036C0007047806900F47F00000C704712B14369B5
:1036D000194302E0436923EA01014161704711F493
:1036E000700F01D083690DE011F0807F01D0436835
:1036F00008E011F0006F01D0836803E011F0007F53
:1037000009D0C36823F07F4323F470030B420CBF3E
:10371000002001207047036923F07F4323F47003E6
:103720000B420CBF0020012070470D4B994202D183
:1037300000238361704721F07F4311F0007F23F461
:10374000700301D0C360704711F0806F01D0036136
:10375000704711F0006F14BF83604360704700BF73
:103760007000F03043690B404DD0402935D00ED861
:10377000042929D004D8012921D0022945D121E0EA
:10378000102925D0202926D008293ED11EE0B1F5E8
:10379000006F32D009D8B1F5007F29D0B1F5806F24
:1037A00029D0B1F5807F30D11FE0B1F5803F16D030
:1037B000B1F5003F16D0B1F5004F26D120E080686A
:1037C00013491FE0C06804E0C06809E0C0680AE06F
:1037D0000069032116E0006902E0006903E0406827
:1037E00008210FE0406810210CE08069012109E008
:1037F0008069022106E0806903E08069702101E0B0
:10380000406804217AE4184670470020704700BFE2
:1038100001010100B1F5807F33D00CD8082924D0F4
:1038200004D801291CD0042936D11CE020291FD03E
:10383000402931D11EE0B1F5006F24D006D8B1F592
:10384000007F1ED0B1F5806F26D11AE0B1F5803F20
:1038500013D0B1F5003F12D0B1F5004F1CD117E0E5
:103860000E4B83607047082300E01023C36070474D
:10387000082300E0102303617047082306E01023AB
:1038800004E0042302E000238361043343607047B3
:103890000023836104334360704700BF01010100CE
:1038A000014B01229A60704700300240014B1860C2
:1038B000186870470030024010B5002303E050F84C
:1038C000044B013314608B42014AF8D3106810BDD9
:1038D00000300240014B1868704700BF00300240C2
:1038E000014B1871704700BF00300240014B18793E
:1038F000704700BF0030024002684FF6FE7302EAD4
:10390000030303600023036043608360C3602E4BA6
:10391000984229D02D4B984230D02D4B984237D029
:103920002C4B98423ED02C4B984206D153F8542C45
:1039300042F4702243F8542C7047284B984206D129
:1039400053F8682C42F4700243F8682C7047244BFB
:10395000984206D153F87C2C42F0706243F87C2CDC
:103960007047204B984206D153F8042C42F00F02C6
:1039700043F8042C70471C4B984206D153F8182C7E
:1039800042F0F00243F8182C7047184B984206D1C9
:1039900053F82C2C42F4706243F82C2C7047144BD3
:1039A000984206D153F8402C42F4704243F8402C20
:1039B0007047104B984205D153F8542C42F47022B2
:1039C00043F8542C704700BF080002401C0002401E
:1039D0003000024044000240580002406C000240A7
:1039E00080000240080402401C04024030040240EF
:1039F00044040240580402408A6810B50C6A036807
:103A000044EA02020C6923F4FE4322434C6923F08A
:103A1000F00322438C692243CC6922434C6A22433F
:103A20008C6A224342EA03030360CB6843600B685D
:103A300083604B68C36010BD0023036043608360F4
:103A4000C360036143618361C36103624362836254
:103A5000704719B1036843F0010304E002684FF6B0
:103A6000FE7302EA03030360704712B1036819434F
:103A700002E0036823EA010101607047416070477A
:103A8000406880B2704710F0805F14BF034B044B56
:103A90001B6803420CBF0020012070470004024055
:103AA0000000024010F0805F14BF024B024B5860D0
:103AB000704700BF000402400000024010F0805F29
:103AC00014BF044B044B1B6803420CBF00200120B1
:103AD000704700BF000402400000024010F0805F09
:103AE00014BF024B024B5860704700BF00040240F5
:103AF00000000240234B10B5984205D1042001215B
:103B000000F06CFC042036E01F4B984205D10820E1
:103B1000012100F063FC08202DE01C4B984205D1E8
:103B20001020012100F05AFC102024E0184B98428C
:103B300005D12020012100F051FC20201BE0154B75
:103B4000984205D14020012100F048FC402012E0BD
:103B5000114B984205D18020012100F03FFC8020CC
:103B600009E00E4B98420BD14FF48070012100F018
:103B700035FC4FF480700021BDE8104000F02EBCF1
:103B800010BD00BF00080140000C014000100140C2
:103B90000014014000180140001C014000200140B9
:103BA0000120014610B500F019FC01200021BDE8FC
:103BB000104000F013BCCB78F0B513F0100F03F0F9
:103BC0000F020E881CBF8B781A4316F0FF0F1DD012
:103BD0000468002301279F4007EA0605BD4211D172
:103BE0009F004FF00F0C0CFA07FC12FA07F724EABB
:103BF0000C043C43CF78282F01D1456102E0482FC7
:103C000008BF05610133082BE4D104600E88FF2E44
:103C10001FD94468002303F108050127AF4007EAD4
:103C20000605BD4211D19F004FF00F0C0CFA07FCA6
:103C300012FA07F724EA0C043C43CF78282F01D16D
:103C4000456102E0482F08BF05610133082BE2D12E
:103C50004460F0BD4FF0FF33038002238370DB1814
:103C6000C3707047836819420CBF00200120704761
:103C7000806880B27047C36819420CBF00200120E1
:103C80007047C06880B270470161704741617047FA
:103C90000AB10161704741617047C160704741F4EA
:103CA000803383618161836183698369704710B563
:103CB000054A4FF68073146841EA001104EA0303D1
:103CC00041EA0303136010BD00000140014B18607E
:103CD000704700BF1C00204230B50028174B00F48D
:103CE0004014B4BFDB695B68B4F5401F82B207D1F2
:103CF000124C23F07063656825F07065656011E013
:103D000010F4801F06D000F47024240C032515FA4B
:103D100004F403E0440D240112FA04F423EA04033A
:103D200043F0706319B1410D09018A401343034AFE
:103D30000028B4BFD361536030BD00BF0000014014
:103D400001F0030230B592000F24944010FA02F201
:103D5000074B8908023153F8215025EA040443F83F
:103D6000214053F8214042EA040443F8214030BD89
:103D700000000140014B1860704700BFDC0020428A
:103D80000B4B10B5984207D14FF40010012100F001
:103D900031FB4FF4001006E04FF48000012100F0E9
:103DA00029FB4FF480000021BDE8104000F022BB49
:103DB00000540040F0B587B00446868801A80D463F
:103DC000304F00F09DFA039826F03F063604B0FB12
:103DD000F7F7360CBFB247EA0606A68021882A68A4
:103DE00021F00101284B0904090C9A4221800AD8CC
:103DF0005300B0FBF3F301379BB2BFB22784032B10
:103E000098BF042322E0E9884BF6FF73994205D15D
:103E100002EB4202B0FBF2F39BB206E019235343DC
:103E2000B0FBF3F39BB243F480431A05120D0AB9B9
:103E300043F001034FF4967257434FF47A7297FBA5
:103E4000F2F70137BFB243F400432784A3832388EA
:103E500069899BB243F0010323802388AA8823F455
:103E6000806323F00A031B0441EA02021B0C134384
:103E70009BB223802A89AB8942EA03039BB2238148
:103E800007B0F0BD40420F00A086010041F2883328
:103E90000360002383804BF6FF72038143814FF45C
:103EA0008043C2808381704721B103889BB243F075
:103EB000010304E0038823F001031B041B0C0380AF
:103EC000704721B183889BB243F4006304E0838888
:103ED00023F400631B041B0C8380704721B183888B
:103EE0009BB243F4805304E0838823F480531B0483
:103EF0001B0C8380704721B103889BB243F480730D
:103F000004E0038823F480731B041B0C03807047B8
:103F100021B103889BB243F4007304E0038823F4C7
:103F200000731B041B0C0380704721B103889BB2F4
:103F300043F4806304E0038823F480631B041B0CB8
:103F400003807047838901F0FE0123F0FE031B0408
:103F50001B0C41EA03038381704721B183899BB223
:103F600043F0010304E0838923F001031B041B0CCD
:103F70008381704721B103889BB243F0400304E082
:103F8000038823F040031B041B0C038070471AB105
:103F900083889BB2194303E083889BB223EA010123
:103FA0008180704701827047008AC0B2704712B1A9
:103FB00041F0010101E001F0FE010182704782B091
:103FC000002301930190019BCB180193019B18885A
:103FD00080B202B0704731B103886FEA43436FEAA1
:103FE00053439BB202E003885B045B0C0380704781
:103FF000B1F5006F04D103889BB243F4006304E081
:10400000038823F400631B041B0C03807047B1F585
:10401000005F04D103889BB243F4005304E003889B
:1040200023F400531B041B0C0380704721B1038849
:104030009BB243F4805304E0038823F480531B04B1
:104040001B0C03807047B1F5006F04D103889BB24D
:1040500043F4006304E0038823F400631B041B0C97
:104060000380704721B103889BB243F0200304E032
:10407000038823F020031B041B0C03807047008B74
:1040800080B2000A704721B103889BB243F010034D
:1040900004E0038823F010031B041B0C038070470B
:1040A00021B903889BB243F0800304E0038823F026
:1040B00080031B041B0C03807047B1F5804F05D0B3
:1040C000838B23F480431B041B0C03E0838B9BB284
:1040D00043F4804383837047838A008B9BB243EA17
:1040E0000040084020F07F40431A584240EB030054
:1040F0007047838A008B9BB243EA004020F07F40E8
:10410000704782B00023019300930B0F009001933E
:10411000019B21F07F4113B1009B143302E0009B0F
:10412000090C18330093009B1B6819420CBF002038
:10413000012002B07047C94389B2818270478388E9
:10414000808A9BB280B2084006D001F0E06113EA99
:1041500011410CBF002001207047C94389B2818200
:10416000704700BF0D4B1A6842F001021A6059688F
:104170000B4A01EA02025A601A6822F0847222F4A1
:1041800080321A601A6822F480221A605A6822F477
:10419000FE025A604FF41F029A60704700100240FE
:1041A0000000FFF80C4BB0F5803F1A6822F4803213
:1041B0001A601A6822F480221A6003D0B0F5802FAA
:1041C00009D104E01A6842F480321A6070471A6814
:1041D00042F4A0221A60704700100240034B1A6894
:1041E00022F0F80242EAC0021A6070470010024052
:1041F000014B1860704700BF00004242044B5A68F0
:1042000022F47C1240EA02020A435A60704700BF5F
:1042100000100240014B1860704700BF600042422E
:10422000034B5A6822F0030240EA02025A607047C8
:1042300000100240024B586800F00C00704700BFAD
:1042400000100240034B5A6822F0F00240EA0202DA
:104250005A60704700100240034B5A6822F4E06233
:1042600040EA02025A60704700100240034B5A684D
:1042700022F4605242EAC0025A60704700100240C5
:10428000044B11B11A78104302E01A7822EA0000B8
:104290001870704709100240014B1860704700BF4A
:1042A000D8004242034B5A6822F4404240EA0202DC
:1042B0005A60704700100240064B002201281A7015
:1042C0001A7002D0042804D101E01870704705224A
:1042D0001A70704720100240014B1860704700BFF1
:1042E00080044242024B1A6A40EA02021A62704794
:1042F00000100240014B1860704700BF3C0442426E
:1043000010B5204B5A6802F00C02042A01D0082A8A
:1043100002D01D4B036011E05A68596802F4701214
:10432000920C023211F4803F03D05B6813F4003F1B
:1043300001D0164B00E0144B5A430260114A144B53
:104340005168046801F0F0010909595C34FA01F17F
:104350004160546804F4E064240A1C5D31FA04F4FA
:104360008460546804F46054E40A1C5DE140C16058
:10437000526802F4404203EB92331B7CB1FBF3F131
:10438000016110BD0010024000127A0000093D00DA
:1043900028000020044B11B15A69104302E05A6909
:1043A00022EA00005861704700100240044B11B12E
:1043B0009A69104302E09A6922EA00009861704706
:1043C00000100240044B11B1DA69104302E0DA69CF
:1043D00022EA0000D861704700100240044B11B17E
:1043E000DA68104302E0DA6822EA0000D860704719
:1043F00000100240044B11B11A69104302E01A691F
:1044000022EA00001861704700100240014B18605A
:10441000704700BF40044242014B1860704700BF24
:104420004C004242014B1870704700BF0710024019
:104430004309012B074A01D1136803E0022B0CBF8B
:10444000136A536A00F01F0033FA00F000F0010015
:10445000704700BF0010024007B5002301933120D0
:10446000FFF7E6FF019B01330193019BB3F5A06FBA
:1044700001D00028F3D03120FFF7DAFF003818BF51
:1044800001200EBD024B5A6A42F080725A62704798
:1044900000100240034B9B6818420CBF0020012013
:1044A000704700BF00100240014B1870704700BFFA
:1044B0000A10024030B5048C24F001042404240CBA
:1044C0000484048B058C24F0F3042404240C42EAB5
:1044D000040444EA0314104BADB29842A4B20ED0C7
:1044E0000E4B98420BD0B0F1804F08D00C4B984245
:1044F00005D00C4B984202D00B4B984202D125F0CC
:10450000020501E025F00A0545F0010545EA010133
:104510000483018430BD00BF002C01400034014001
:104520000004004000080040000C004030B5048C3E
:1045300024F010042404240C0484048B058C24F43B
:1045400040742405240D44EA022444EA0334124B47
:10455000ADB29842A4B20ED0104B98420BD0B0F13D
:10456000804F08D00E4B984205D00E4B984202D097
:104570000D4B984207D125F0200545F0100545EA7E
:10458000011189B205E025F0A00545F0100545EAC6
:1045900001010483018430BD002C0140003401403E
:1045A0000004004000080040000C00405A4B10B5C9
:1045B000984207D14FF400600121FFF70FFF4FF43D
:1045C0000060A2E0B0F1804F05D101200146FFF765
:1045D00011FF012007E0514B984209D1022001212F
:1045E000FFF708FF02200021BDE81040FFF702BFDF
:1045F0004B4B984205D104200121FFF7FBFE04201C
:10460000F1E7484B984205D108200121FFF7F2FE5F
:104610000820E8E7444B984205D110200121FFF71C
:10462000E9FE1020DFE7414B984205D1202001210F
:10463000FFF7E0FE2020D6E73D4B984207D14FF42C
:1046400000500121FFF7CAFE4FF400505DE0394BE6
:10465000984207D14FF400200121FFF7BFFE4FF42D
:10466000002052E0344B984207D14FF480100121D2
:10467000FFF7B4FE4FF4801047E0304B984207D16B
:104680004FF400100121FFF7A9FE4FF400103CE0A9
:104690002B4B984205D140200121FFF7ABFE402073
:1046A000A1E7284B984205D180200121FFF7A2FE07
:1046B000802098E7244B984207D14FF48070012165
:1046C000FFF798FE4FF480708DE7204B984207D19A
:1046D0004FF480300121FFF781FE4FF4803014E069
:1046E0001B4B984207D14FF400300121FFF776FEB3
:1046F0004FF4003009E0174B98420BD14FF4802063
:104700000121FFF76BFE4FF480200021BDE810402F
:10471000FFF764BE10BD00BF002C01400004004044
:1047200000080040000C0040001000400014004051
:1047300000340140004C0140005001400054014051
:1047400000180040001C00400020004000400140D4
:104750000044014000480140204A038890429BB237
:104760000ED01F4A90420BD0B0F1804F08D01D4AA6
:10477000904205D01C4A904202D01C4A904206D179
:104780004FF68F7203EA02024B8842EA0303184A8B
:10479000904209D0174A904206D04FF6FF4203EAF2
:1047A0000202CB8842EA030303808B8883850B884F
:1047B00003850A4B98420BD0094B984208D00E4B08
:1047C000984205D00D4B984202D00D4B984201D132
:1047D0000B7A038601238382704700BF002C0140BF
:1047E000003401400004004000080040000C00407C
:1047F000001000400014004000400140004401400F
:1048000000480140038C70B523F001031B041B0C0E
:104810000384038C8488028B0D8822F073021204B7
:10482000120C2A434E880D8923F002031B0446EA2A
:1048300005051B0CADB245EA0303164DA4B2A84210
:104840000BD0154DA84208D0144DA84205D0144DE8
:10485000A84202D0134DA84215D14FF6F77503EACE
:1048600005054B89CE891D434FF6FB7305EA03030B
:104870008D882B434FF6FF4504EA05058C8946EAEF
:104880000404A4B22C4384800283CA8882860384F1
:1048900070BD00BF002C01400034014000400140C9
:1048A0000044014000480140038C30B523F0100360
:1048B0001B041B0C0384038C8288048B0D8824F456
:1048C000E6442404240C23F0200344EA05241B04BA
:1048D0000D891B0C43EA05134D8892B243EA051378
:1048E000134DA4B2A8429BB202D0124DA84219D1D6
:1048F0004FF67F7503EA05054B8945EA03154FF628
:10490000BF7305EA03038D8843EA05134FF2FF35B1
:1049100002EA05058A899BB245EA8205CA8945EA09
:10492000820292B28280CA8804830287038430BDE7
:10493000002C014000340140038C30B523F4807317
:104940001B041B0C0384038C8288848B0D8824F049
:1049500073042404240C23F400731B042C430D89DA
:104960001B0C43EA05234D8892B243EA0523134DFD
:104970009BB2A84202D0124DA84219D14FF2FF7546
:1049800003EA05054B8945EA03254FF6FF3305EA9F
:1049900003038D8843EA05234CF6FF7502EA0505FB
:1049A0008A899BB245EA0215CA8945EA021292B287
:1049B0008280CA8884838287038430BD002C0140B2
:1049C00000340140038C30B523F480531B041B0CCE
:1049D0000384038C8488828B0D8822F4E6421204BF
:1049E000120C23F4005342EA05221B040D891B0C10
:1049F00043EA05334D88A4B243EA05330B4D92B226
:104A0000A8429BB202D00A4DA84207D14BF6FF75CF
:104A100004EA05058C8945EA8414A4B28480828363
:104A2000CA88A0F84020038430BD00BF002C01409C
:104A3000003401404A880B8842EA03038A88134302
:104A4000CA8813430A8913434A8913438A89134343
:104A50009BB2A0F8443070474FF0FF3383800023AF
:104A60000380C38043800372704700230380438028
:104A70008380C380038143818381C3817047002386
:104A80000122038043808280C3800381704700231A
:104A9000038043808380C380038143818381704787
:104AA00021B103889BB243F0010304E0038823F0A3
:104AB00001031B041B0C0380704739B1B0F844306C
:104AC0006FEA43436FEA53439BB203E0B0F84430CC
:104AD0005B045B0CA0F8443070471AB183899BB229
:104AE000194303E083899BB223EA01018181704766
:104AF000818270470A43A0F8482070471AB1838921
:104B00009BB2194303E083899BB223EA01018181AF
:104B10007047038923F007031B041B0C03817047B4
:104B200010B50489E4B241EA040442EA040444EA08
:104B30000324A4B2048110BD10B50446FFF7F0FFB2
:104B400023899BB243F48043238110BD10B50446F2
:104B5000FFF7E6FF238923F077031B041B0C43F0C8
:104B60007703238110BD018582827047038823F07B
:104B700070031B041B0C41EA030303807047038985
:104B800023F070031B041B0C41EA030303817047ED
:104B900038B50D46602D0446114603D10122FFF7BA
:104BA000C5FC02E00122FFF785FC20462946FFF7FD
:104BB000E6FF23899BB243F00703238138BD10B57C
:104BC0000446FFF7DCFF23899BB243F007032381F0
:104BD00010BD70B50489068B058C26F4407625F04F
:104BE000220526F003062D0424F0070436042D0CBC
:104BF0002404360C42EA0505240C46F4807645EA86
:104C00000315214346F00106ADB2018106830584F8
:104C100070BD038B23F070031B041B0C41EA0303DC
:104C200003837047038B23F4E0431B041B0C43EA0C
:104C300001239BB203837047838B23F070031B0413
:104C40001B0C41EA030383837047838B23F4E04307
:104C50001B041B0C43EA01239BB28383704721B1E1
:104C600003889BB243F0800304E0038823F08003B1
:104C70001B041B0C0380704721B183889BB243F057
:104C8000040304E0838823F004031B041B0C8380CB
:104C9000704721B183889BB243F0080304E0838806
:104CA00023F008031B041B0C8380704721B1838809
:104CB0009BB243F0010304E0838823F001031B044B
:104CC0001B0C83807047038B23F008031B041B0C11
:104CD00041EA030303837047038B23F400631B043F
:104CE0001B0C43EA01239BB203837047838B23F0A1
:104CF00008031B041B0C41EA030383837047838B67
:104D000023F400631B041B0C43EA01239BB283833F
:104D10007047038B23F004031B041B0C41EA0303BD
:104D200003837047038B23F480631B041B0C43EA4B
:104D300001239BB203837047838B23F004031B047E
:104D40001B0C41EA030383837047838B23F4806346
:104D50001B041B0C43EA01239BB283837047038B24
:104D600023F080031B041B0C41EA030303837047F9
:104D7000038B5B045B0C43EA01239BB20383704704
:104D8000838B23F080031B041B0C41EA0303838302
:104D90007047838B5B045B0C43EA01239BB28383E4
:104DA0007047038C23F002031B041B0C41EA03032E
:104DB00003847047038C23F008031B041B0C41EA97
:104DC000030303847047038C23F020031B041B0C94
:104DD00043EA01139BB203847047038C23F08003E2
:104DE0001B041B0C43EA01139BB203847047038C22
:104DF00023F400731B041B0C43EA01239BB20384BE
:104E00007047038C23F400631B041B0C43EA01234B
:104E10009BB203847047038C23F400531B041B0CC8
:104E200043EA01339BB20384704701238B4012FA9B
:104E300001F110B5048CA4B224EA03030384038CAB
:104E400041EA03039BB2038410BD04238B4012FA92
:104E500001F110B5048CA4B224EA03030384038C8B
:104E600041EA03039BB2038410BD30B501248C409A
:104E7000058C00F11803ADB225EA0404048409B1DD
:104E8000082906D14908C85820F07000C850C858F1
:104E900009E0043989B24908C858120220F4E040F8
:104EA000C850C85892B240EA0202CA5030BD21B17F
:104EB00003889BB243F0020304E0038823F002035B
:104EC0001B041B0C0380704721B103889BB243F085
:104ED000040304E0038823F004031B041B0C038079
:104EE000704721B183889BB243F0800304E083883C
:104EF00023F080031B041B0C83807047038823F07E
:104F000008031B041B0C038003889BB241EA0303C4
:104F100003807047838823F070031B041B0C83807D
:104F200083889BB241EA030383807047038923F09F
:104F300007031B041B0C038103899BB241EA030393
:104F400003817047038923F080031B041B0C03813A
:104F500003899BB241EA0303038170478184704750
:104F600081857047818670470187704781877047C8
:104F7000A0F840107047038B23F00C031B041B0C9C
:104F80000383038B9BB241EA030303837047038BC4
:104F900023F440631B041B0C0383038B9BB243EA83
:104FA00001239BB2038370472DE9F0410C46A28890
:104FB0004988B4F800E0054600290CBF0227002705
:104FC000012A14BF012602262389BEF1000F10D149
:104FD000FFF770FA2846E188FFF7CDFF28463946EB
:104FE00032462389FFF7A2FAE1882846BDE8F0415E
:104FF000CDE7FFF79BFA2846E188FFF7C8FF284670
:10500000394632462389FFF755FAE1882846BDE83C
:10501000F041B0E7838B23F00C031B041B0C83834C
:10502000838B9BB241EA030383837047838B23F412
:1050300040631B041B0C8383838B9BB243EA0123D5
:105040009BB2838370470B882DE9F0410D460446DF
:105050004988AA883BB92B89FFF72CFAE9882046B2
:10506000BDE8F04187E7042B07D12B89FFF75EFAF3
:10507000E9882046BDE8F04189E7082B8C46B5F861
:10508000088039D1068C394B26F480763604360CEC
:105090000684808B278C20F0F3000004000C40EA8B
:1050A000081080B29C42BFB240EA02020ED0304BE0
:1050B0009C420BD0B4F1804F08D02E4B9C4205D0BF
:1050C0002D4B9C4202D02D4B9C4207D127F40076F9
:1050D00046EA0C26B6B246F4807606E04FF2FF565A
:1050E00007EA060641F480710E43E9882046A28350
:1050F0002684BDE8F0418DE7008C20F48050000448
:10510000000C2084A38B278C23F440731B051B0DFC
:1051100043EA0223154A43EA08339442BFB29BB2E2
:105120000ED0134A94420BD0B4F1804F08D0114AEC
:10513000944205D0104A944202D0104A944207D1BA
:1051400027F4005242EA0C3292B242F4805206E056
:1051500047F6FF5207EA020241F480510A43E98808
:105160002046A3832284BDE8F0415FE7002C014084
:10517000003401400004004000080040000C0040E2
:10518000038823F440731B041B0C038003889BB229
:1051900041EA030303807047808E80B27047008F1E
:1051A00080B27047808F80B27047B0F8400080B204
:1051B0007047808C80B27047008D80B27047038A40
:1051C00019420CBF002001207047C94389B20182F7
:1051D0007047038A828911EA030092B203D0114218
:1051E0000CBF002001207047C94389B2018270477B
:1051F000204B10B598420BD101214FF48040FFF7AE
:10520000EDF84FF480400021BDE81040FFF7E6B80C
:10521000194B984207D14FF400300121FFF7EAF80B
:105220004FF400301FE0154B984207D14FF4802017
:105230000121FFF7DFF84FF4802014E0104B984273
:1052400007D14FF400200121FFF7D4F84FF40020DC
:1052500009E00C4B98420BD14FF480100121FFF76D
:10526000C9F84FF480100021BDE81040FFF7C2B824
:1052700010BD00BF0038014000440040004800401D
:10528000004C00400050004030B5038ACA8823F427
:1052900040531B041B0C134303820D468389098969
:1052A000AA8823F4B05341EA0202698923F00C036F
:1052B0000A431B041B0C92B242EA03038381838AD4
:1052C000AA8923F440731B041B0C87B013430446C4
:1052D000838201A8FFF714F8184BA2899C4212B2EE
:1052E0000CBF049B039B002A4FF019012A6802DAC5
:1052F0005943520001E0594392006423B1FBF2F19B
:10530000B1FBF3F21201100903FB1011A08900B2E6
:10531000002806DAC9003231B1FBF3F303F00703CA
:1053200005E009013231B1FBF3F303F00F0343EA67
:10533000020292B2228107B030BD00BF00380140A6
:105340004FF4165303600C2200238380C380038133
:105350004281838170470A8810B54C88038A44EAE9
:1053600002028C88C98823F4706322431B040A4319
:105370001B0C92B242EA0303038210BD0023038098
:1053800043808380C380704721B183899BB243F4FB
:10539000005304E0838923F400531B041B0C838116
:1053A0007047CBB210B55B09012401F01F0114FA5C
:1053B00001F1A34201D10C3004E0022B01D11030E5
:1053C00000E014301AB1036843EA010102E0036807
:1053D00023EA0101016010BD1AB1838A9BB219430F
:1053E00003E0838A9BB223EA010181827047038A2A
:1053F00023F00F031B041B0C0382038A9BB241EAB8
:10540000030303827047838923F400631B041B0C8E
:10541000838183899BB241EA03038381704721B171
:1054200083899BB243F0020304E0838923F00203E3
:105430001B041B0C83817047038A23F020031B0489
:105440001B0C0382038A9BB241EA03030382704769
:1054500021B1038A9BB243F4804304E0038A23F41E
:1054600080431B041B0C03827047C905C90D818052
:1054700070478088C005C00D704783899BB243F098
:10548000010383817047038BDBB20383038B9BB2E1
:1054900043EA012303837047038B03F47F430383B1
:1054A000038B9BB241EA03030383704721B1838AD4
:1054B0009BB243F0200304E0838A23F020031B0403
:1054C0001B0C8382704721B1838A9BB243F0100387
:1054D00004E0838A23F010031B041B0C83827047B3
:1054E00021B1838A9BB243F0080304E0838A23F04E
:1054F00008031B041B0C8382704731B183896FEA58
:1055000043436FEA53439BB202E083895B045B0C25
:105510008381704721B1838A9BB243F4006304E026
:10552000838A23F400631B041B0C83827047838AE5
:1055300023F004031B041B0C8382838A9BB241EA81
:1055400003038382704721B1838A9BB243F0020335
:1055500004E0838A23F002031B041B0C8382704740
:10556000038819420CBF002001207047C94389B24B
:105570000180704710B5CCB20122640901F01F030D
:105580009A40012C01D1838903E0022C0CBF038ACD
:10559000838A9BB202EA0303028892B243B1090AEA
:1055A000012313FA01F111420CBF0020012010BDAC
:1055B000184610BD090A01238B40DB439BB20380D0
:1055C000704700BF08B5084B00221968072000F09B
:1055D000A1F9064B07201968002200F09BF90A2068
:1055E00002F0FCFDEFE700BF08010020E80000200A
:1055F0001FB500F025F8012400F010F900F0FCF8C8
:1056000000F016FE00F020FC00F0CEFB00F062F887
:1056100000230849802208480193029303930094D1
:1056200002F0DCFA02F0A2FC00F01FF8204604B001
:1056300010BD00BF4ABD0008C17A0008FDF738BBA5
:1056400010B5FDF73FF80120002102F039F9054AB5
:10565000106030B100210A460B46BDE8104002F050
:1056600064B910BD1C4700207047FDF734B803280B
:105670001FB503461EDC01291CDC104A52F820002D
:10568000C0B10F4A52F82120A2B10E4A13600E4B4E
:105690000122196000920D4A0D49019200220292E6
:1056A0000392803202F09AFA012814BF6FF00100D1
:1056B000002001E04FF0FF3005B000BD884600201B
:1056C000984600202447002020470020BC460020A8
:1056D0004FBD000810B5FCF7F1FF074C2060FCF748
:1056E000EFFF064B014618602068FFF7C0FFBDE8DA
:1056F0001040FCF7EEBF00BF2447002020470020E9
:105700008368F7B5012B044619D0022B59D1002527
:105710000095C068294622692B46FDF70BF8012841
:10572000064606D129462A462B4600F021F9354681
:1057300051E02A4B01200421E2681B6932E0C26873
:10574000274E0369274C032A3260236033DC012B88
:1057500031DC254951F82220002A2CD0234A52F866
:10576000233043B3224B002219681020214F00F050
:10577000D1F8002138684FF4FA620B4602F06EF956
:105780000128054626D100210A460B46386802F05A
:10579000CCF821683068FFF76AFF014628B928462F
:1057A0000A460B4600F0E4F815E00C4B2846294663
:1057B00000225B680AE0094B012003210022DB681C
:1057C00004E0064B01209B680221002200F0D0F883
:1057D000002500E000E02846FEBD00BF3C000020A0
:1057E00024470020204700208846002098460020BB
:1057F000080100201C470020074B002210B51A604A
:105800005A609A60DA6001F0A5FF01F0D3F8BDE8B4
:10581000104001F0F3B800BF88460020024B002280
:105820001A605A6000F0EEBE9846002070B5064639
:1058300001F10C000D4602F02FFE044650B1056048
:105840003EB135B10C30606031462A4603F010F8A5
:1058500000E06660204670BD70B50D46064690B10A
:1058600099B101F10C0002F017FE044670B140F846
:105870000C5B2A466060314602F0FAFF636803F170
:1058800014021A6102E0044600E00C46204670BD96
:1058900070B50546D8B18068143002F0FDFD0446AD
:1058A000A0B12E460FCE26460FC604F1140020618B
:1058B000AA68296902F0DCFFA96820461431FFF7C5
:1058C000CBFF0546204602F03FFE00E00546284695
:1058D00070BD08B102F038BE704738B505460C20DF
:1058E00002F0DAFD044630B1284602F0D5FDA06092
:1058F000002808BF0024204638BD10B5044640B13A
:10590000806808B102F020FE2046BDE8104002F099
:105910001BBE10BD07B50192002200901346084639
:10592000694602F002F80EBD13B5044602A840F81D
:10593000041D0421FFF77AFF024620B1024B2046E6
:105940001968FFF7E7FF1CBDE800002010B50C4602
:105950001821FFF76BFF024630B1044B8460596891
:105960000B20BDE81040D5E710BD00BFE8000020C7
:105970001FB5009001916846102102920393FFF732
:1059800055FF054B02468360044B06205968FFF71C
:10599000C1FF05B000BD00BF89800008E8000020FD
:1059A00007B501920022009013460846694602F0AE
:1059B0002CF80EBD1FB5009001916846102102928F
:1059C0000393FFF733FF054B02468360044B062029
:1059D0005968FFF7E5FF05B000BD00BF89800008EA
:1059E000E800002013B500230C46694602F036F8A3
:1059F000012803BF019B0098236000201CBD05E027
:105A00000B78027801F8012900F8013B8142F7D8B0
:105A10007047054B0A0901F00F019A5C5B5C02704C
:105A20004370002383707047CEBA000838B504462F
:105A30000D460234090AFFF7ECFF2046E9B2FFF7F2
:105A4000E8FF0023A37038BD38B504460D46043482
:105A5000090CFFF7EBFF2046A9B2FFF7E7FF002391
:105A6000237138BD931E212BF7B505460C4617460A
:105A700003D900230B7003B0F0BD80EAE071A1EB05
:105A8000E071264600E019463A46684602F0CCFE30
:105A9000019A0B49009B8A5C314601F8012B0E46A6
:105AA000002BF0D1002D02DA2D3301F8013B002349
:105AB00001F80139204603B0BDE8F0409FE700BF80
:105AC000B0BD000810B540B1044602E0034B1B68AE
:105AD000984714F8010B0028F8D110BD10010020E0
