:10000000B0A0000000500020D9BD0008114F00082A
:10001000134F0008154F0008174F0008194F00082C
:1000200000000000000000000000000000000000D0
:100030000DAF00081B4F00080000000095AF00083E
:10004000D9AF00081DBE00081DBE00081DBE000877
:100050001DBE00081DBE00081DBE00081DBE000814
:100060001DBE00081DBE00081DBE00081DBE000804
:100070001DBE00081DBE00081DBE00081DBE0008F4
:100080001DBE0008C13F0008294000081DBE000831
:10009000113A0008DD3800081DBE00088D3900083F
:1000A0001DBE00081DBE00081DBE00081DBE0008C4
:1000B0001DBE00081DBE00081DBE00081DBE0008B4
:1000C0001DBE00081DBE00081DBE00081DBE0008A4
:1000D0001DBE00081DBE00082D470008E3420008B1
:1000E0001DBE00081DBE00081DBE00081DBE000884
:1000F0000000000000000000000000000000000000
:100100000000000000000000000000005FF808F19F
:100110000000000030B5044685B03E480D4602F0B0
:10012000A2FE01A802F0A6FF0122002394428DF84E
:100130000A308DF80B308DF80C308DF80D308DF8BD
:100140000E308DF80F208DF806508DF8073001D055
:10015000052C07D102238DF80830DB188DF8093003
:10016000202326E0022C01D0062C07D102238DF893
:100170000830DB188DF8093010231AE0032C01D069
:10018000072C04D102238DF80830DB180EE0042C74
:100190004FF0020301D0082C05D18DF8083004235C
:1001A0008DF8093005E08DF8083004238DF809300A
:1001B000082301A91748ADF8043002F06FFE0122B0
:1001C00014484FF4807103F031F9012211484FF4C3
:1001D000007103F02BF901220E484FF4004103F0A7
:1001E00025F901220B484FF4806103F01FF9012229
:1001F00008484FF4006103F019F902210122054873
:1002000003F014F9012103480A4603F00FF905B081
:1002100030BD00BF0064004073B54FF414514FF07F
:10022000006002F039FC4FF4407002F0F9FB012449
:10023000002525230C2601A88DF804308DF80560D3
:100240008DF806508DF8074002F0F4FB142301A846
:100250008DF804308DF805608DF806408DF8074064
:1002600002F0E8FB1F2301A88DF804308DF805503B
:100270008DF806508DF8074002F0DCFB202301A822
:100280008DF804308DF805508DF806408DF8074044
:1002900002F0D0FB7CBD08B51F484FF4807103F01D
:1002A00091FB01280DD11C484FF4005103F08AFB4B
:1002B000012806D119484FF4804103F083FB01283F
:1002C00029D015484FF4807103F07CFB30B91248F7
:1002D0004FF4005103F076FB012817D00E484FF47D
:1002E000807103F06FFB012812D10B484FF40051CD
:1002F00003F068FB01280DD107484FF4804103F05B
:1003000061FB00280CBF0520002008BD042008BDAB
:10031000002008BD002008BD000801400010014079
:10032000F7B50121B34803F087FB1D20012103F03D
:10033000EDFE4FF0FF33ADF80430AF48002301A9C4
:100340008DF8073003F0E7FAAC4801A903F0E3FAAF
:10035000AB4801A9042503F0DEFA01214FF48040E7
:1003600003F0D4FE10240326A3480DEB05018DF8FD
:1003700006608DF80740ADF8045003F0CCFA9E48B3
:10038000294603F033FB08239B480DEB0501ADF82C
:1003900004308DF8075003F0BEFA97480DEB0501C5
:1003A0008DF80740ADF8044003F0B5FA92482146B5
:1003B00003F01CFB48274FF480738F480DEB0501B9
:1003C000ADF804308DF8077003F0A5FA4FF4005330
:1003D00089480DEB0501ADF804308DF8077003F086
:1003E0009AFA18238DF8073083484FF400730DEB09
:1003F0000501ADF8043003F08EFA4FF480637E48B7
:100400000DEB0501ADF804308DF8075003F083FAC9
:100410004FF480437A480DEB0501ADF804308DF8B8
:1004200006608DF8077003F076FA8DF80660FFF726
:1004300032FFA8420ED148F2000371480DEB0501CE
:100440008DF80740ADF8043003F065FA6C484FF4BE
:1004500000410EE0FFF71FFF05280CD10823674875
:1004600001A98DF80740ADF8043003F054FA634851
:10047000082103F0BBFAFFF70EFF042805D14FF463
:100480008663ADF8043010231CE0FFF704FF052855
:1004900010D130231024594801A9ADF804308DF84B
:1004A000074003F038FA8023ADF804308DF8074098
:1004B00051480AE0FFF7EFFE012809D13023ADF8DB
:1004C000043014234D488DF8073001A903F023FAB6
:1004D000FFF7E1FE04280ED14FF40053ADF80430CD
:1004E0004748102301A98DF8073003F014FA444857
:1004F0004FF4005111E0FFF7CEFE05280FD148F26E
:100500000003ADF804303C48102301A98DF80730F2
:1005100003F001FA38484FF4004103F065FAFFF7A1
:10052000BAFE05281DD14FF4EA10002103F084FA29
:100530004FF4EB10002103F07FFA4FF40063ADF8A5
:1005400004302D48482301A98DF8073003F0E3F962
:100550004FF48053ADF8043018238DF80730264847
:1005600017E04FF4EA10012103F066FA4FF48073AC
:10057000ADF804302148482301A98DF8073003F075
:10058000CAF94FF40073ADF804301C4818238DF8F5
:10059000073001A903F0BFF901214FF0007003F00B
:1005A000C1FDFFF778FE042811D10338014603F09E
:1005B000B9FD1448012103F03FFA18238DF80730E4
:1005C00002A94FF4006321F8043D0C480FE0FFF747
:1005D00062FE05280DD10338012103F0A3FD182385
:1005E0008DF8073002A94023034821F8043D03F0A9
:1005F00092F9FEBD0004300000080140000C0140EB
:1006000000100140000218001FB5124804F0A0FCC1
:1006100042F6A00300930023ADF80430ADF8063095
:10062000ADF80830ADF80C3069460C230948ADF838
:100630000A3004F0D9FC0121064804F055FD0548B4
:1006400040F22551012204F05CFDFFF7E5FD05B005
:1006500000BD00BF0044004010B54FF4004086B01C
:1006600003F0D0FC01214FF4007003F04FFD15485A
:1006700002F034FA012400234FF46022114801A94A
:1006800001938DF808308DF80930039204938DF8AA
:10069000144002F051FA0B48214602F07CFA094856
:1006A00002F097FA074802F099FA0028FAD10548B3
:1006B00002F098FA034802F09AFA0028FAD106B03C
:1006C00010BD00BF0024014030B51C4B89B01A6832
:1006D0001B4B0024B2FBF3F2013A93FBF0F305A9A4
:1006E0004FF08040ADF81420ADF81830ADF81A4046
:1006F000ADF8164003F0E0FE6023ADF804300125AC
:100700004FF4A17301A94FF08040ADF80A30ADF865
:100710000650ADF80C4004F005F808214FF0804079
:1007200004F09DF921464FF0804004F069F84FF045
:100730008040294604F071F809B030BDBC000020AB
:1007400080841E0030B51A4B89B01A68194B0024FA
:10075000B2FBF3F2013A93FBF0F305A91648ADF8AA
:100760001420ADF81830ADF81A40ADF8164003F07B
:10077000A3FE6023ADF8043001254FF4A17301A955
:100780000D48ADF80A30ADF80650ADF80C4003F056
:10079000E9FE0821084804F046F92146064804F01D
:1007A0002FF80548294604F038F809B030BD00BFDD
:1007B000BC00002080841E000004004010B5FFF73C
:1007C000AFFD00F02FF902210320FFF7A3FCFFF794
:1007D00043FFFFF760FD042804D140F61C40BDE84C
:1007E000104071E7FFF757FD052804D140F61C4083
:1007F000BDE81040A6E710BD13B50021214803F065
:1008000003FA204803F06CF900214FF4001003F0C4
:1008100089FC4023ADF8043004230DEB03011A4892
:100820008DF8073003F077F801A9802316480024DB
:10083000ADF8043003F06FF8102368468DF80030EF
:100840008DF801408DF802408DF8034002F0F2F877
:10085000112368468DF800308DF801408DF8024074
:1008600002F0E8F82146094802F0A3FF21460848B3
:1008700002F09FFF054802F0EFFE054802F0ECFE93
:100880001CBD00BF00540040000C01406C00024041
:10089000800002402DE9F3410820012103F036FCDD
:1008A00001214FF4001003F03DFC4023ADF804306B
:1008B00003238DF8063001A919332A488DF8073033
:1008C000802703F028F801A92648002601244FF0CC
:1008D0001008ADF8047003F01EF868468DF800802B
:1008E0008DF801608DF802608DF8034002F0A2F8E7
:1008F000112368468DF800308DF801608DF8026094
:1009000002F098F82146204603F0F4FB164802F066
:10091000A3FE164D164B29462B604FF6FF73EB6076
:1009200011484FF440536B626E60C5F808802E6129
:100930006F61AE61EE612E62AE6202F00DFF0D4896
:1009400002F08AFE29460B4802F006FF02212246E9
:10095000054802F03AFF07480221224602F035FF1F
:10096000BDE8FC81000C01406C0002408C46002078
:1009700010540040800002400B4607492AB910324B
:1009800048608A60CB60054804E048600022044863
:100990008A60CB6002F0E0BE8C4600206C00024012
:1009A0008000024042F68163434301E000BF013B07
:1009B000002BFBD1704710B504460548802104F098
:1009C0007FFC0028F9D02046BDE81040EAE700BFD0
:1009D0000038014010B561210446114804F0F5FBD0
:1009E0002820FFF7E8FF74210D4804F0EEFB2820D3
:1009F000FFF7E1FF6C210A4804F0E7FB2820FFF72E
:100A0000DAFF2146064804F0E0FB2820FFF7D3FF79
:100A100003480D2104F0D9FB6420BDE81040CAE76B
:100A200000380140F0B5BE4B87B0BE48059304F0D6
:100A30008FFA4FF4E13300220193BA480C2301A945
:100A4000ADF80E30ADF80820ADF80A20ADF80C2056
:100A5000ADF8102004F0C8FAB248012104F044FBBC
:100A60000122B04840F2255104F04BFBFFF7D4FBC4
:100A7000AC480D2104F0A9FB40F2DC50FFF792FFD7
:100A800000246121A74804F0A0FB2820FFF793FF72
:100A90007421A44804F099FB2820FFF78CFFA24F93
:100AA0000D21A048002604F090FBA04D6420FFF724
:100AB00082FF61213E609B482E6004F086FB282067
:100AC000FFF779FF7421974804F07FFB2820FFF798
:100AD00072FF7121934804F078FB2820FFF76BFF29
:100AE0003F21904804F071FB2820FFF764FF0D219F
:100AF0008C4804F06AFB6420FFF75DFF61213E60D3
:100B000088482E6004F061FB2820FFF754FF742111
:100B1000844804F05AFB2820FFF74DFF6C218148E0
:100B200004F053FB2820FFF746FF3F217D4804F0E7
:100B30004CFB2820FFF73FFF7A480D2104F045FBCE
:100B40006420FFF738FF7A4B3E461B78303B072B7B
:100B500009D8DFE803F004040404040B040435207E
:100B6000FFF738FF1BE00134E4B200E00924A31EC4
:100B7000072B05D8DFE803F0070A0D1013181B1E1A
:100B80004FF4965318E04FF4165315E04FF4964384
:100B900012E04FF416430FE04FF461430CE04FF4C2
:100BA000E1330193062408E04FF4613304E04FF48D
:100BB000E12301E04FF4E13301935A4801A904F025
:100BC00013FA092C7FF45DAF0D21564804F0FDFAAD
:100BD000093C2820FFF7EFFE6121524834602C6069
:100BE00004F0F3FA2820FFF7E6FE74214D4804F0E4
:100BF000ECFA2820FFF7DFFE62214A4804F0E5FA0C
:100C00002820FFF7D8FE3F21464804F0DEFA2820CE
:100C1000FFF7D1FE0D21434804F0D7FA6420FFF717
:100C2000CAFE61213F4834602C6004F0CEFA2820CF
:100C3000FFF7C1FE74213B4804F0C7FA2820FFF7F4
:100C4000BAFE6E21374804F0C0FA2820FFF7B3FE41
:100C50003F21344804F0B9FA2820FFF7ACFE3148B0
:100C60000D2104F0B2FA6420FFF7A5FE314B1B689A
:100C7000002B40F0E1802C4A612113602B4A294867
:100C8000136004F0A2FA2820FFF795FE742125488E
:100C900004F09BFA2820FFF78EFE6E21214804F015
:100CA00094FA2820FFF787FE3D211E4804F08DFAB4
:100CB0002820FFF780FE4F211A4804F086FA2820EA
:100CC000FFF779FE4F21174804F07FFA2820FFF73D
:100CD00072FE4221134804F078FA2820FFF76BFED9
:100CE0004421104804F071FA2820FFF764FE2D21FA
:100CF0000C4804F06AFA2820FFF75DFE43210948FA
:100D000004F063FA2820FFF756FEFFF7C4FA042820
:100D100003D0FFF7C0FA01280ED10248752111E077
:100D2000E093040000380140E8460020E04600203F
:100D300088460020EC460020FFF7ADFA052803D1D5
:100D40003F48492104F041FA2820FFF734FEFFF71D
:100D5000A2FA042803D0FFF79EFA012802D13848EE
:100D6000702105E0FFF797FA052803D13448562192
:100D700004F02BFA2820334CFFF71DFE20213048C9
:100D800004F023FA2820FFF716FE617A2C4804F0BD
:100D90001CFA2820FFF70FFEA17A294804F015FA63
:100DA0002820FFF708FE217B254804F00EFA2820B2
:100DB000FFF701FE617B224804F007FA2820FFF7C5
:100DC000FAFDE17B1E4804F000FA2820FFF7F3FD4E
:100DD000217C1B4804F0F9F92820FFF7ECFD0D21D8
:100DE000174804F0F2F96420FFF7E5FD00233360B3
:100DF000612113482B6004F0E8F92820FFF7DBFDA0
:100E000074210F4804F0E1F92820FFF7D4FD6E218A
:100E10000B4804F0DAF92820FFF7CDFD3F21084800
:100E200004F0D3F92820FFF7C6FD05480D2104F092
:100E3000CCF96420FFF7BFFD01232B6007B0F0BDA4
:100E400000380140000000200C23434301E000BFB4
:100E5000013B002BFBD17047214B37B500241C60B0
:100E6000204B10201C60204B1C60204B1C60204B32
:100E70001C60204B1C60204B1C60204B1C6007F04A
:100E800007FD1F4B186050B3032313224460C36057
:100E900001340C2501A88DF804208DF806308DF85A
:100EA00005508DF8074001F0C5FD142301A88DF809
:100EB00004308DF805508DF806408DF8074001F09C
:100EC000B9FD16238DF8043001A8143B8DF80550A8
:100ED0008DF806308DF8074001F0ACFD20463EBD90
:100EE0001847002024470020104700201447002006
:100EF0002C47002020470020284700201C470020C6
:100F0000C04700207FB51B4B1B68DB68053B032BEC
:100F1000436802D80293042301E0019300238DF873
:100F20000C3000238DF80D3083688DF80E30036986
:100F30001A788DF80F205A788DF810209A788DF84D
:100F40001120DA788DF812201A798DF813205A7949
:100F50008DF814209A798DF81520DB798DF81630EC
:100F6000054801A902F0EBF80328F9D8012007B0E1
:100F700000BD00BFC04700200064004070477047BC
:100F80007AB9012904D1124B483053F8300005E0FA
:100F9000022917D10F4BC000C318586880B240090E
:100FA0007047012A10D1012904D1094B483053F868
:100FB000300005E0022909D1064BC000C31858686B
:100FC000400D704710467047002070470020704762
:100FD0000064004040660040012904D1074B4830BE
:100FE00053F8300005E0022905D1054BC000C318B5
:100FF0005868C00870470020704700BF0064004078
:101000004066004030B5836887B0023B05460C2B34
:1010100000F29D81DFE813F01E000D0051009B01DE
:101020009B019B019B019B017100EE00D9005801BF
:1010300078019E4A002313609D4AC06813609D4A50
:10104000136010B10221FFF765F89B4BEA681B683B
:10105000DA6077E1954A00231360954A1360954A58
:101060001360C268032A00F21B81DFE802F0020E5F
:101070001321914C02212368187BFFF74BF823685A
:10108000EA680D205A6000210FE08B4C0121236893
:10109000187B03E0884C03212368187BFFF73AF89C
:1010A0002368EA680D205A60012104F0EFFA49E153
:1010B000814C00212368187BF0E77C4B00241C60E6
:1010C0007B4BC2681C607B4B012A1C6000F2E880ED
:1010D0000D20214604F0DAFAE9680E2001290CBF40
:1010E0000121022104F0D2FA2146EA68234642F2A5
:1010F0001070009401F006F964E0026940F2FE739A
:101100009A4200F2CD80C268012A01D1002316E084
:10111000931E012B13D9131F012B01D8033A07E0AB
:10112000911F01290BD9A2F10803012B03D8053A1D
:101130008DF8122005E00A2A40F0B28004238DF8D1
:101140001230EB68012B07D0032B05D0052B03D001
:10115000072B01D0092B0AD12B699DF812205B01C6
:10116000ADF80A30554BD200D3185B6809E09DF802
:101170001220534B483253F83230ADF80A302B6905
:101180005B01ADF808309DF812304D4A483352F8F3
:101190003320DB00120C03F18043ADF80E2003F581
:1011A000C8435B681B0CADF80C3000248DF814406C
:1011B0008DF81340ADF81040012302A88DF81530CA
:1011C00001F0DFFE08202146BEE0C368013BDBB230
:1011D0008DF812300269D100520BADF80820DA0008
:1011E000364BADF80A10D3185A68ADF80E205B687C
:1011F0001B0C7EE00269B2F5006F51D2C268012A71
:1012000001D1002315E0931E012B12D9131F012BCE
:1012100001D8033A07E0911F01290AD9A2F1080376
:10122000012B03D8053A8DF8122004E00A2A37D1A1
:1012300004238DF81230EB68012B07D0032B05D067
:10124000052B03D0072B01D0092B0BD12B699DF85F
:1012500012205B01ADF80E30184BD200D3185B683A
:101260001B0C0AE09DF81220154B483253F832301F
:101270001B0CADF80E302B695B01ADF80C309DF8FE
:1012800012300F4A483352F83320DB0003F1804319
:10129000ADF80A2003F5C8435B68ADF8083084E771
:1012A000084B08201B680321DB7856E01847002014
:1012B0002447002010470020C0470020406600401F
:1012C000006400403C000020C268264B013AD2B2C4
:1012D0008DF81220483253F83210ADF80A1053F846
:1012E00032301B0CADF808300369DA00ADF80E207F
:1012F0005B0B0024ADF80C3001238DF814308DF811
:101300001340ADF8104058E7002400238DF8124038
:1013100001344FF6E072ADF80A30ADF808308DF8C0
:1013200014308DF81330ADF8103002A80123E4B268
:10133000ADF80E20ADF80C208DF8153001F021FE2F
:101340000E2CE2D1082000210A460B4605E0064B90
:1013500008201B6802219B78002204F0BBF90120C1
:1013600007B030BD006400403C00002037B5164B8C
:1013700000241C6014230C258DF8043001A8133BB5
:101380008DF806308DF805508DF8074001F052FBBE
:1013900013238DF8043001A8103B8DF806308DF82A
:1013A00005508DF8074001F045FB16238DF80430F9
:1013B00001A8143B8DF805508DF806308DF80740D4
:1013C00001F038FB3EBD00BFD00000200F2803D144
:1013D000024B0E381960704700207047D000002083
:1013E0007FB50021234801AA019102918DF80C10CC
:1013F0008DF80E108DF817108DF80F108DF8101055
:101400008DF811108DF812108DF813108DF814103E
:101410008DF815108DF8161001F02CFF019909B9FF
:10142000029B2BB3144B15481A68013282421A6092
:1014300009D952081A60124B1A6852081A60114BE7
:101440001A6852081A609DF80C200F4B0AB999606F
:1014500001E0029A9A609DF80E20DA6000221A617B
:101460000DF10F025A611B6813B10848012198471A
:1014700007B000BD0064004018470020A0860100AE
:101480002447002010470020D0000020D400002076
:1014900010B51E4801F0BEFF102818D01B4801F0FF
:1014A000B9FF202813D0194801F0B4FF30280ED01E
:1014B000164801F0AFFF402809D0144801F0AAFFF8
:1014C000502804D0114801F0A5FF602803D1104B2B
:1014D0001A6801321A600D484FF4004102F04AF8D0
:1014E0000A484FF4006102F045F808484FF4806163
:1014F00002F040F805484FF4007102F03BF8034851
:101500004FF48071BDE8104002F034B80064004030
:10151000104700200A4B0B491A6801328A421A60B0
:1015200009D952081A600849084B08681A68400827
:10153000520808601A600648012102F01BB800BF7B
:1015400024470020A08601001847002010470020F3
:1015500000640040014B1868704700BF104700202E
:1015600000207047014B00221A607047104700208E
:101570007047014B1868704718470020014B1868E6
:10158000704700BF24470020014B00221A607047BB
:1015900018470020014B00221A60704724470020A2
:1015A00008B50349034801F04AFF034B186008BD22
:1015B0000400F010006400401447002008B50349FF
:1015C000034801F03CFF034B186008BD0200F01017
:1015D000006400402047002008B50349034801F09B
:1015E0002EFF034B186008BD0100F010006400409E
:1015F0002C47002008B5034801F013FF024B186088
:1016000008BD00BF006400402847002008B503481B
:1016100001F004FF024B186008BD00BF00640040E9
:101620001C470020FFF7E8B830B585B0FFF732F966
:101630000023ADF804304BF6FF73ADF806304FF4DD
:101640008063ADF80A304FF48043ADF80C300B4B9B
:10165000A0250B48012104AC44F8103DADF808501A
:1016600002F0D2FA0648694602F054FA0448012111
:1016700002F0D7FA034B1D8005B030BDE0930400A3
:1016800000540040E80000203F4B2DE9F0411A6073
:1016900080463E4C3E480E46154604F0C7F84FF4CF
:1016A0002043236004E023685A1E226003B9FEE74A
:1016B00038484FF4003102F0D4FB0028F3D135480C
:1016C000012102F0C8FA4FF48053236004E023683C
:1016D0005A1E226003B9FEE72E482F4902F0ACFBE8
:1016E0000028F4D02D4B4FF48057276019882948E3
:1016F000C9B2002202F00BFB294804F097F82760DA
:1017000004E023685A1E226003B9FEE721482549F8
:1017100002F092FB0028F4D0234804F087F81D481B
:10172000310A02F0EFFA214804F080F84FF48053B8
:10173000236004E023685A1E226003B9FEE71548BF
:101740001B4902F079FB0028F4D01248F1B202F0F4
:10175000D9FA4FF48053236004E023685A1E2260B4
:1017600003B9FEE70B48124902F066FB0028F4D0EB
:10177000297800224046FFF7FFF80E48012102F0C9
:1017800018F80020BDE8F081304700202400002038
:101790002FBE00080054004001000300E8000020B4
:1017A00047BE0008820007006FBE00088ABE00081E
:1017B000840007006C00024013B500232C4CADF8E8
:1017C000063000934FF42043236004E023685A1E40
:1017D000226003B9FEE727484FF4003102F041FBD5
:1017E0000028F3D12348012102F035FA4FF4805349
:1017F000236004E023685A1E226003B9FEE71D48F7
:101800001D4902F019FB0028F4D01C4B1948198817
:101810000022C9B202F07BFA4FF42043236015483E
:10182000838A9BB2ADF8063023685A1E226003B942
:10183000FEE7BDF8063023F47E7323F005035B0555
:101840005B0D002BEBD0BDF8063013F0020F05D076
:101850000121038B02F00CFA00201CBD084902F0A4
:101860001AFB009B5A1C962B0092BBD1FEE700BFCF
:10187000240000200054004001000300E800002084
:10188000000400102DE9F74F4FEA5219934611F06A
:101890001F07D2B280460E465FFA89F9019202F024
:1018A0001F0A834D834C61D1B9F1000F25D18248C5
:1018B00085F800A003F0BAFF404603F0B7FF7F4869
:1018C00003F0B4FF304604F02BF87D4803F0AEFF80
:1018D000287804F025F8404631462A46FFF7D4FE22
:1018E0004FF42043236004E023685A1E226003B9AA
:1018F000FEE72B78002BF7D1D2E02023404631467B
:101900006B4A2B70FFF7C0FE4FF42043236004E0C6
:1019100023685A1E226003B9FEE72B78644F002B20
:10192000F6D109F1FF3920365FFA89F9FFF744FF54
:10193000B6B208F12008B9F1000FDED1BAF1000FFC
:1019400000F0B28087F800A0404631463A46FFF7E3
:101950009BFE4FF42043236004E023685A1E22605C
:1019600003B9FEE72B78002BF7D199E0C7F12007E8
:10197000FFB2B9F1000F40D1BB452CD92A462F70D8
:10198000FFF782FE4FF42043236004E023685A1ED1
:10199000226003B9FEE72B78DFF81491002BF5D114
:1019A000FFF70AFF019AB919D31BDBB289F800309F
:1019B00008EB070089B24A46FFF766FE4FF4204362
:1019C000236004E023685A1E226003B9FEE72B78E7
:1019D000002BF7D164E02A4685F800A0FFF754FEFB
:1019E0004FF42043236004E023685A1E226003B9A9
:1019F000FEE72B78002BF7D152E02A462F70FFF735
:101A000043FE4FF42043236004E023685A1E226003
:101A100003B9FEE72B78002BF7D1C7EB0B0B1FFAAE
:101A20008BFBBE194FEA5B195FFA89F9FFF7C4FE19
:101A3000B6B247441BE02023384631461C4A2B707F
:101A4000FFF722FE4FF42043236004E023685A1E70
:101A5000226003B9FEE72B78002BF7D1FFF7ACFE2D
:101A6000203609F1FF39B6B220375FFA89F9B9F1AA
:101A7000000FE0D11BF01F0B16D0384631460C4A40
:101A800085F800B0FFF700FE4FF42043236004E028
:101A900023685A1E226003B9FEE72B78002BF7D18A
:101AA00003B0BDE8F04F87E603B0BDE8F08F00BF9C
:101AB0003447002024000020B2BE0008BCBE00084D
:101AC000C8BE000810B54FF4001001F08CFE10B332
:101AD0001148002101F06DFE104C4FF4801001F010
:101AE00091FE4FF42043236004E023685A1E2260D5
:101AF00003B9FEE70A480B4902F0B3F90028F4D015
:101B00000748012102F0B4F8054B9A8A1B8B064B5B
:101B100000221B681A7010BD6C00024024000020D7
:101B200000540040040000103047002008B54FF07A
:101B3000007001F058FE78B10848012102F098F8D1
:101B40000748002101F035FE4FF0807001F05AFE89
:101B5000044B00221B681A8008BD00BF00540040DF
:101B60008000024038470020FEE772B6704762B638
:101B70007047734B2DE9F041724C1A604FF42043CB
:101B800006460F461546236004E023685A1E22606D
:101B900003B9FEE76C484FF4003102F062F9002807
:101BA000F3D16948012102F056F84FF480532360C5
:101BB00004E023685A1E226003B9FEE762486349C5
:101BC00002F03AF90028F4D0DFF8A0815E48B8F8B6
:101BD00000100022C9B202F09AF84FF4805323603B
:101BE00004E023685A1E226003B9FEE756485849AC
:101BF00002F022F90028F4D05348390A02F082F8A2
:101C00004FF48053236004E023685A1E226003B916
:101C1000FEE74D484F4902F00FF90028F4D04A483A
:101C2000F9B202F06FF84FF48053236004E02368A8
:101C30005A1E226003B9FEE74348474902F011F9F2
:101C40000028F4D04048012102F005F84FF48053F9
:101C5000236004E023685A1E226003B9FEE73A4875
:101C60003A4902F0E9F80028F4D0B8F8001001224F
:101C70003548C9B202F04BF82B88012B4FF4805342
:101C800041D8236004E023685A1E226003B9FEE7AE
:101C90002D48324902F0E5F80028F4D02A48002106
:101CA00001F0F3FFFFF761FF27480121038B01F0EB
:101CB000DFFFFFF75CFF4FF48053236004E02368ED
:101CC0005A1E226003B9FEE71F48254902F0C9F8F1
:101CD0000028F4D01C4802F017F830702B88013B24
:101CE0002B804FF48053236004E023685A1E226047
:101CF00003B9FEE71448038813F4007FF5D10121EE
:101D000001F0C3FF19E0236004E023685A1E22603B
:101D100003B9FEE70C48134902F08EF80028F4D00E
:101D2000298801223046FEF727FE0748012101F0ED
:101D300085FF0D48012101F03CFD0020BDE8F08148
:101D40003847002024000020005400400100030018
:101D50008200070084000700040000100200001049
:101D6000400000100200030080000240E800002054
:101D700001207047012070477047704713B5816894
:101D8000032902D0042920D10AE0C268012A03D81D
:101D900000240094042009E0114B08201B6812E085
:101DA000C268012A0BD8002400940520214623464E
:101DB00000F0A8FA08202146224623460BE0084BF3
:101DC00008201B680321DB7805E0054B08201B6811
:101DD00002219B78002203F07DFC01201CBD00BF86
:101DE0003C000020704710B5054840F2255103F033
:101DF00071FA20B10248BDE8104003F0EAB910BD05
:101E000000440040014B1868704700BF1047002095
:101E100000207047014B00221A60704710470020D5
:101E20007047014B1868704718470020014B18682D
:101E3000704700BF24470020014B00221A60704702
:101E400018470020014B00221A60704724470020E9
:101E5000014B1868704700BF3C470020014B1868D1
:101E6000704700BF48470020014B1868704700BF0B
:101E70004C470020034B1A8812F0800FFAD098804C
:101E8000704700BF0038014008B5064A064B0220E3
:101E90001A600121002205F034FC044B1860012077
:101EA00008BD00BF71430008180100201401002084
:101EB00030B909E0054A118811F0800FFAD09380FB
:101EC00010F8013B002BF5D1704700BF00380140EE
:101ED0000D282DE9F0410746AC4CAD4D40F06A812C
:101EE0002178612940F0628194F80180B8F1740F83
:101EF00040F05C81A678622E33D1E3783F2B40F02E
:101F000055812A68A34BA21812F80C0C12F80E1C6B
:101F1000D87012F80B0C1970187112F8090C12F81D
:101F20000D1C987112F8080C5970D87112F8060C33
:101F30003A21587212F8050C9970987212F8040C34
:101F400059711972D9721873997312F8030C12F837
:101F5000021C12F8012C58731A740022D9735A7497
:101F600024E16C2E0AD1E3783F2B40F01F812B68CF
:101F7000E31813F8012C884B1A7017E1712E2DD13C
:101F8000E3783F2B40F012812B68E31813F8053CEF
:101F9000302B40F00B81814803F017F92820FEF721
:101FA0000AFD41467D4803F010F92820FEF703FDA5
:101FB00031467A4803F009F92820FEF7FCFC31216C
:101FC000764803F002F92820FEF7F5FC73483946FD
:101FD00003F0FBF86420FEF7EEFCE7E06E2E40F025
:101FE000E580E3783F2B40F0E180FEF754F90128CB
:101FF0006B4E03D0FEF74FF9042846D12A68A31888
:1020000013F80F1C4F2940D113F80E1C4F293CD157
:1020100013F80D1C422938D113F80C1C442934D173
:1020200013F80B1C2D2930D113F80A1C43292CD18D
:1020300013F8091C752928D113F8081C702924D11C
:1020400013F8071C202920D1524913F8060C4B7AAB
:1020500098421AD1A31813F8050C0A46897A8842C7
:1020600013D113F8040C117B88420ED113F8030C22
:10207000517B884209D113F8020CD17B884204D1EC
:1020800013F8011C137C99424BD0FEF704F9012888
:1020900040F08A802A68A31813F80F1C4F2940F0DB
:1020A000838013F80E1C4F297ED113F80D1C422992
:1020B0007AD113F80C1C442976D113F80B1C2D2966
:1020C00072D113F80A1C43296ED113F8091C49294F
:1020D0006AD113F8081C562966D113F8073C202B47
:1020E00062D12C4BA21812F8060C597A88425BD1A7
:1020F00012F8050C997A884256D112F8040C197B13
:10210000884251D112F8030C597B88424CD112F805
:10211000020CD97B884247D112F8012C1B7C9A42D1
:1021200042D12A680123A21812F80F1C33601D4BFC
:10213000197012F80E1C597012F80D1C997012F8D3
:102140000C1CD97012F80B1C197112F80A1C597169
:1021500012F8091C997112F8081CD97112F8071CA1
:10216000197212F8061C597212F8051C997212F8AD
:10217000041CD97212F8031C197312F8021C12F80D
:10218000012C59739A730022DA730FE0F446002091
:10219000E84600200000002088460020003801406A
:1021A000EC46002012000020002333602B680D2233
:1021B000E25401E02B68E05401332B60BDE8F0816C
:1021C00013B5019002AC03F03FFB074803F02EFB70
:1021D00054F8040D03F099FB044803F027FB204654
:1021E00003F093FB1CBD00BFD5BE0008E1BE000894
:1021F00010B503F029FB044803F018FB034B1868E3
:10220000BDE8104003F081BBEEBE000800ED00E029
:1022100010B5064C01E0FFF7D3FF204654F8043B0D
:10222000002BF8D1BDE81040CAE700BF00F00FE076
:1022300013B5114840F2255103F04CF8D0B10E48C7
:1022400002F0C7FF0D4BC0B21B688DF8070013B931
:10225000FFF73EFE0EE00A4B0A4C18680DF107012D
:102260000023224605F0DFFA012803D123680BB1D1
:1022700006F0E1FB1CBD00BF00380140E046002035
:1022800014010020EC000020000000000120704735
:102290000020704710B5FEF791FABDE81040FFF737
:1022A000C3B9FDF7B9BF024A024BDA60704700BFFD
:1022B0000406FA0500ED00E010B50446FDF7EBFF5B
:1022C00004280AD12CB12046FEF7FEF94FF08040D9
:1022D0000CE04FF08040214609E0FDF7DCFF0528C7
:1022E0000CD13CB12046FEF72DFA0548012102F041
:1022F00087FA10BD0248214602F082FA10BD00BFE5
:1023000000040040032870B5044616467AD003D86E
:10231000012826D043D80CE0052800F088807FD320
:10232000062800F08B8042F21073984240F0A5809E
:1023300054E0FDF7B0FF042808D11EB150484FF417
:10234000806183E04E484FF4806192E0FDF7A3FF87
:1023500005280ED116B14B48802177E049488021ED
:1023600087E0FDF798FF042803D0FDF794FF0528C8
:1023700004D10EB142485CE041485DE0FDF78BFFBF
:10238000012805467AD126B13D48102101F02CFBE9
:1023900003E03B48102101F029FB2C466EE0FDF7DD
:1023A0007AFF042803D0FDF776FF052806D116B181
:1023B000334820214AE0324820215AE0FDF76BFFE4
:1023C0000128044657D126B12D48202101F00CFBED
:1023D00054E02B48202101F009FB4FE0FDF75BFFA3
:1023E000042804D10EB128483DE027483FE0FDF71E
:1023F00052FF052841D116B12148082126E0204886
:10240000082136E0FDF747FF042803D0FDF743FF1E
:10241000052832D130464FF0FF31FFF74DFF2AE05B
:1024200012B11848042111E01648042121E012B12C
:10243000144810210AE0134810211AE0FDF72BFF81
:1024400004280AD12EB110484FF4005101F0CCFA03
:1024500011E00D484FF400510BE0FDF71CFF05287B
:102460000BD11EB107484FF40041EFE705484FF488
:10247000004101F0BBFA012400E00024204670BDB9
:10248000000C01400008014000100140F7B58168D0
:102490000546032900F0CB8004D849B1022940F059
:1024A000CC8009E0042921D0632940F0C680BAE03D
:1024B000674903F0FDF8B8E0002400942A69C06879
:1024C00021462346FFF71EFF0128054607D1204677
:1024D00021462246234603F0FDF82C46B6E05D4B2C
:1024E00020461B6803212246DB7899E002695A4B9B
:1024F0009A4200F2A280002421462246234606206A
:102500000094FFF7FFFEFA20FEF74CFA234621461F
:10251000012206200094FFF7F5FE40F6C410FEF7F6
:1025200041FAEB68002B75D14C4E0D214C483360BD
:1025300002F04BFE6420FEF73EFA6121484802F0AB
:1025400044FE2820FEF737FA7421454802F03DFE8C
:102550002820FEF730FA0D21414802F036FE6420B3
:10256000FEF729FA61213E4802F02FFE2820FEF7EF
:1025700022FA74213A4802F028FE2820FEF71BFABE
:102580007021374802F021FE2820FEF714FA344863
:102590003D2102F01AFE2820FEF70DFA314F0834D3
:1025A0002B69B3FBF7F262B10A227A43B3FBF2F173
:1025B00002FB1131B1FBF7F13031294889B202F049
:1025C00004FE0A232820B7FBF3F7FEF7F4F9013CD9
:1025D000E6D10D21224802F0F8FDC820FEF7EBF904
:1025E00021462246234606200094FFF78BFEFA2060
:1025F000FEF7D8F921462346012206200094FFF772
:1026000081FE01244FF4FA70FEF7CCF903F078F95B
:1026100034601BE00F4B20461B6802219B7822464A
:1026200003F058F812E0FFF73EFE01240EE0094BDC
:1026300000201B680246DB7805E0064B00201B6883
:1026400002219B78024603F045F800242046FEBD97
:10265000D54B00083C000020FFE0F505E0460020D7
:102660000038014080969800014610B509480122C3
:10267000002300F0E0FA0748012100F0BCFA054809
:10268000022100F0D3FB0028F9D00248BDE8104039
:1026900000F022BB0024014010B54020012101F0D0
:1026A00029FD00F0ADFF084B08490948C918094B3E
:1026B000C91A8908013100F0AFFF0021044640200B
:1026C00001F018FD204610BDE09F0000D000002062
:1026D000002500080000002007B58A680B46002A84
:1026E00040F09281CA680D2A00F22981DFE812F0D9
:1026F0000E005A0064009B009E00AA00AD00BE00C0
:10270000C500C700E400120115011E01974803F03F
:102710008DF8FDF7C0FD012807D0FDF7BCFD0428AA
:1027200003D0FDF7B8FD052801D1914800E091489C
:1027300003F07CF8904803F079F8904803F076F8BD
:102740008D4803F073F8FDF7A6FD012801D18C48F0
:102750000AE0FDF7A0FD042803D0FDF79CFD052845
:1027600001D1884800E0884803F060F8824803F00F
:102770005DF8FDF790FD012801D181480BE0FDF7E0
:102780008AFD042801D17F4805E0FDF784FD052876
:102790000CBF7E487E4803F049F8774803F046F8BE
:1027A0007C4800E07C4803F041F803F04DF803B0AA
:1027B0005DF804EB03F0A4B8FDF76DFD042803D029
:1027C000FDF769FD01280CD10820FFF74DFF06F049
:1027D000E5FD60A3D3E9002306F046FE00226F4B1F
:1027E0000FE0FDF758FD052818D10330FFF73CFF37
:1027F00006F0D4FD59A3D3E9002306F035FE684B5B
:10280000002206F031FE57A3D3E9002306F02CFE88
:1028100007F03CF80A2103F02DF802E0614803F0CC
:1028200005F86148BFE7FFF7E3FCBEE703F1580294
:1028300092E803006A4682E8030048330FCBFFF7B3
:10284000BFFCB2E7FFF7E4FCAFE7584802F0EEFF49
:102850000A214FF4884003F00DF8554802F0E6FFD6
:1028600006F0AAF80A2103F005F89EE7FFF714FF27
:1028700008B9504897E7504895E7504893E7504BC0
:102880001B78303B072B15D8DFE803F00406080A55
:102890000C0E10124B4886E74B4884E74B4882E702
:1028A0004B4880E74B487EE74B487CE74B487AE74C
:1028B0004B4878E74B4876E704214B4801F096F8FF
:1028C0004FF4967005F058FC0421474801F08CF84D
:1028D000192005F051FC0421434801F087F8192024
:1028E00005F04AFCFDF790FE4048C12102F06DFC66
:1028F0003E48332102F069FC3C48F12102F065FCBE
:102900003A48812102F061FC3848662102F05DFC02
:10291000374848E73448082101E03348102101F0E6
:1029200051F801280CBF334833483CE704212E48B6
:1029300001F048F801280CBF3048314833E7314BEB
:1029400000201B68024699780B4603B05DF804EB43
:1029500002F09CBF333333333333493F66666666D8
:1029600066664A3F0000000000408F40F9BE000844
:10297000FFBE000803BF00086FC3000806BF0008C1
:102980000ABF00080EBF000817BF000822BF0008DA
:102990002EBF000832BF00080000002000002640C3
:1029A0000000144050BF000852BF000856BF000886
:1029B0006DBF000883BF0008A4BF000812000020FC
:1029C00088460020C4BF0008CFBF0008DABF000857
:1029D000E6BF0008F2BF0008FEBF00080BC00008F9
:1029E00018C0000825C0000800080140004400404D
:1029F00032C000084EC000085BC000086BC0000871
:102A000081C000083C00002003B000BD704700BF3B
:102A1000AFF300807047FEE7FEE7FEE7FEE7704792
:102A200040F0BE60024B40F42020D860704700BFE9
:102A300000ED00E0C37810B5EBB1154B4178DB68D1
:102A40008478DB4303F4E0631B0AC3F10402914082
:102A50000F22DA4022400A430E4B01781201CB18B4
:102A6000D2B283F8002303780122590903F01F032F
:102A700012FA03F307E003780122590903F01F0358
:102A800012FA03F32031034A42F8213010BD00BF8F
:102A900000ED00E000E100E021F0604121F07F0165
:102AA000014B01439960704700ED00E0044B11B108
:102AB0001A69104302E01A6922EA0000186170479F
:102AC00000ED00E0044B04281A680CBF42F0040239
:102AD00022F004021A60704710E000E0134B10B5BA
:102AE000984207D14FF40070012101F027FB4FF409
:102AF000007014E00E4B984207D14FF48060012122
:102B000001F01CFB4FF4806009E00A4B98420BD1A6
:102B10004FF40040012101F011FB4FF4004000216F
:102B2000BDE8104001F00ABB10BD00BF0024014009
:102B300000280140003C014043680A6823F47023E8
:102B400023F4807313430A7910B543EA02234360E8
:102B50008A68CB6884681A43094B04EA030342EA93
:102B600003034A7943EA420383600B7CC26A013B58
:102B700022F47002DBB242EA0353C36210BD00BF0D
:102B8000FDF7F1FF00230360037143718360C360AD
:102B900001330374704719B1836843F0010302E005
:102BA000836823F001038360704719B1836843F49D
:102BB000807302E0836823F4807383607047C9B236
:102BC00012B14368194302E0436823EA01014160FE
:102BD0007047836843F00803836070478068C0F3E0
:102BE000C0007047836843F00403836070478068C7
:102BF000C0F38000704719B1836843F4A00302E07A
:102C0000836823F4A003836070478068C0F380501A
:102C100070474368013923F4604343EA413343601A
:102C2000704719B1436843F4006302E0436823F43A
:102C3000006343607047092970B54FEA41040BD91E
:102C400064181E3C0725A540A340C66826EA050572
:102C500045EA0304C4600AE064180725A54013FA96
:102C600004F4066926EA050545EA04030361062A19
:102C70000CD8013A02EB82021F2393409140446B2F
:102C800024EA030343EA0102426370BD0C2A4FEABF
:102C900082030BD89A18233A1F2393409140046B68
:102CA00024EA030343EA0102026370BD9A18413A21
:102CB0001F2393409140C46A24EA030343EA0102BC
:102CC000C26270BD19B1836843F4801302E0836867
:102CD00023F4801383607047C06C80B27047014B4F
:102CE000186870474C24014019B1436843F480636D
:102CF00002E0436823F480634360704719B143687E
:102D000043F4805302E0436823F4805343607047E8
:102D1000836823F4E04341EA03038360704719B1F9
:102D2000836843F4004302E0836823F40043836034
:102D3000704719B1836843F4021302E0836823F4F7
:102D40000213836070478068C0F3405070470929C0
:102D500070B54FEA41040BD964181E3C0725A54005
:102D6000A340C66826EA050545EA0304C4600AE0F4
:102D700064180725A54013FA04F4066926EA050538
:102D800045EA04030361836B03F440146FEA1454AF
:102D900012190332D2B202EB82021F2494409140F6
:102DA00023EA04030B43836370BD836B013923F46F
:102DB000401343EA01538363704782B000230193B9
:102DC0000190019BCB180193019B1A6002B07047E0
:102DD00082B0002301930190019B28335B1801937B
:102DE000019B186880B202B07047436823F4400327
:102DF00023F4007341EA0303436070474162826237
:102E00007047436823F01F0341EA030343607047A0
:102E1000054B18B19A6842F4000202E09A6822F465
:102E200000029A60704700BF002401400368194205
:102E30000CBF002001207047C94301607047436800
:102E4000006810EA112004D0C9B219420CBF00205A
:102E5000012070476FEA11210160704701420CBFE9
:102E60000020012070470C4B10B5984207D14FF05D
:102E70000070012101F06EF94FF0007006E04FF094
:102E80008060012101F066F94FF080600021BDE80B
:102E9000104001F05FB900BF00640040036823F0F8
:102EA00002030360036843F001030360002300E0B2
:102EB0000133426812F0010F03D14FF6FF729342C3
:102EC000F6D1436813F0010359D08B79012B0368C5
:102ED0000CBF43F0800323F080030360CB79012B08
:102EE00003680CBF43F0400323F0400303600B7AF8
:102EF000012B03680CBF43F0200323F02003036081
:102F00004B7A012B03680CBF43F0100323F010032E
:102F100003608B7A012B03680CBF43F0080323F096
:102F200008030360CB7A012B03680CBF43F0040352
:102F300023F0040303608B78CA789B0743EA02639B
:102F40000A7943EA02434A7943EA02530A88013A7A
:102F50001343C361036823F001030360002300E00F
:102F60000133426812F0010F03D04FF6FF72934213
:102F7000F6D1406800F0010080F00100704718466B
:102F80007047837A01229A4070B5384BD3F800120B
:102F900041F00101C3F80012D3F81C42D14301EA09
:102FA0000404C3F81C42047BB4B9D3F80C42C688AD
:102FB00001EA0404C3F80C42847A4588483445EA9F
:102FC000064543F8345003888488857A43EA0444EC
:102FD000274BED00EB185C60037B012B17D1234BD3
:102FE0000688D3F80C42458842EA0404C3F80C4230
:102FF000847A45EA0645483443F83450C3888488C7
:10300000857A43EA04441A4BED00EB185C60C47AFD
:10301000164B24B9D3F8044201EA040403E0D3F8C0
:10302000044242EA0404C3F8044204890F4B1CB969
:10303000D3F81442214005E0012C05D1D3F8141235
:1030400042EA0101C3F81412437B012B05D1074B5F
:10305000D3F81C120A43C3F81C22044BD3F80022F5
:1030600022F00102C3F8002270BD00BF00640040DE
:103070004066004000238371C37103724372837200
:10308000C3728370C37003330371013B4371012327
:10309000038070470D4BD3F8002242F00102C3F8C1
:1030A0000022D3F8002222F47C5222F00E02C3F850
:1030B0000022D3F8002242EA0022C3F80022D3F80B
:1030C000002222F00102C3F8002270470064004091
:1030D00019B1036843F4803302E0036823F48033BA
:1030E00003607047A1B1036843F080030360D0F828
:1030F000843143F48073C0F88431D0F8943143F4C0
:103100008073C0F89431D0F8A43143F4807313E095
:10311000036823F080030360D0F8843123F48073C4
:10312000C0F88431D0F8943123F48073C0F894311E
:10313000D0F8A43123F48073C0F8A431704770B57F
:103140008268034612F0806F09D1826812F0006F26
:1031500007D1826812F0805F4BD0022002E000208D
:1031600000E0012000F1180212019C5804F0010453
:103170009C500C7A2CB90E684C7A9D5844EA4654FF
:1031800005E04E689D5844EAC6042C434D7A2C4312
:103190009C508A7A00F11804240102F00F028A720E
:1031A0001A19556825F00F05556055688E7A46EA5C
:1031B000050555604D7B8A7B2D0445EA0265CA7A78
:1031C00015430A7B45EA022503EB0012C2F8885139
:1031D0004D7C8E7C2D0445EA0665CE7B097C35430B
:1031E00045EA0121C2F88C111A5942F001021A5124
:1031F00070BD042070BD012906D002D302290BD175
:1032000005E082680E4B04E082680E4B01E08268A4
:103210000D4B02EA030300E00023094A93420BD05E
:1032200001D83BB10AE0074A934205D0064A9342CF
:1032300004D101E002207047012070470020704750
:10324000030000040003000800000310012907D058
:1032500002D302290DD108E0836843F0800302E025
:10326000836843F4004383607047836843F400033A
:103270008360704730B501F11B042301C55805F088
:103280000405EDB215721DB9C3585B0D136002E061
:10329000C358DB08536024010319045904F00204E5
:1032A00054725C6804F00F0494725B681B0AD37458
:1032B00000EB0113D3F8B841D472D3F8B841240A13
:1032C0001473D3F8B841240C5473D3F8B841240EC6
:1032D0009473D3F8BC41D473D3F8BC41240A14745A
:1032E000D3F8BC41240C5474D3F8BC311B0E937436
:1032F00021B9C36843F02003C36030BD036943F0C4
:103300002003036130BD21B9C36843F02003C360CB
:103310007047036943F020030361704709B9C0682F
:1033200002E0012903D1006900F00300704700208A
:103330007047A9B9036823F0030343F00103036056
:103340004FF6FF7300E0013B426802F00302012ADE
:1033500001D0002BF7D1406800F0030001282EE0D7
:10336000012915D1036823F0030303604FF6FF73AF
:1033700000E0013B426812F0030F01D0002BF8D1AE
:10338000406800F00300D0F1010038BF0020704712
:10339000022918D1036823F0030343F002030360FA
:1033A0004FF6FF7300E0013B426802F00302022A7D
:1033B00001D0002BF7D1406800F00300022814BFB1
:1033C00000200120704700207047036823F00303AA
:1033D00043F002030360406800F00300A0F1020321
:1033E000584240EB03007047036823F00203036078
:1033F0004FF6FF7300E0013B426812F0020F01D06C
:10340000002BF8D1406800F00200D0F1010038BF75
:1034100000207047806900F0700070478069000EDE
:103420007047806900F47F00000C704712B1436957
:10343000194302E0436923EA01014161704711F435
:10344000700F01D083690DE011F0807F01D04368D7
:1034500008E011F0006F01D0836803E011F0007FF5
:1034600009D0C36823F07F4323F470030B420CBFE1
:10347000002001207047036923F07F4323F4700389
:103480000B420CBF0020012070470D4B994202D126
:1034900000238361704721F07F4311F0007F23F404
:1034A000700301D0C360704711F0806F01D00361D9
:1034B000704711F0006F14BF83604360704700BF16
:1034C0007000F03043690B404DD0402935D00ED804
:1034D000042929D004D8012921D0022945D121E08D
:1034E000102925D0202926D008293ED11EE0B1F58B
:1034F000006F32D009D8B1F5007F29D0B1F5806FC7
:1035000029D0B1F5807F30D11FE0B1F5803F16D0D2
:10351000B1F5003F16D0B1F5004F26D120E080680C
:1035200013491FE0C06804E0C06809E0C0680AE011
:103530000069032116E0006902E0006903E04068C9
:1035400008210FE0406810210CE08069012109E0AA
:103550008069022106E0806903E08069702101E052
:10356000406804217AE4184670470020704700BF85
:1035700001010100B1F5807F33D00CD8082924D097
:1035800004D801291CD0042936D11CE020291FD0E1
:10359000402931D11EE0B1F5006F24D006D8B1F535
:1035A000007F1ED0B1F5806F26D11AE0B1F5803FC3
:1035B00013D0B1F5003F12D0B1F5004F1CD117E088
:1035C0000E4B83607047082300E01023C3607047F0
:1035D000082300E0102303617047082306E010234E
:1035E00004E0042302E00023836104334360704756
:1035F0000023836104334360704700BF0101010071
:10360000014B01229A60704700300240014B186064
:10361000186870470030024010B5002303E050F8EE
:10362000044B013314608B42014AF8D3106810BD7B
:1036300000300240014B1868704700BF0030024064
:10364000014B1871704700BF00300240014B1879E0
:10365000704700BF0030024002684FF6FE7302EA76
:10366000030303600023036043608360C3602E4B49
:10367000984229D02D4B984230D02D4B984237D0CC
:103680002C4B98423ED02C4B984206D153F8542CE8
:1036900042F4702243F8542C7047284B984206D1CC
:1036A00053F8682C42F4700243F8682C7047244B9E
:1036B000984206D153F87C2C42F0706243F87C2C7F
:1036C0007047204B984206D153F8042C42F00F0269
:1036D00043F8042C70471C4B984206D153F8182C21
:1036E00042F0F00243F8182C7047184B984206D16C
:1036F00053F82C2C42F4706243F82C2C7047144B76
:10370000984206D153F8402C42F4704243F8402CC2
:103710007047104B984205D153F8542C42F4702254
:1037200043F8542C704700BF080002401C000240C0
:103730003000024044000240580002406C00024049
:1037400080000240080402401C0402403004024091
:1037500044040240580402408A6810B50C6A0368A9
:1037600044EA02020C6923F4FE4322434C6923F02D
:10377000F00322438C692243CC6922434C6A2243E2
:103780008C6A224342EA03030360CB6843600B6800
:1037900083604B68C36010BD002303604360836097
:1037A000C360036143618361C361036243628362F7
:1037B000704719B1036843F0010304E002684FF653
:1037C000FE7302EA03030360704712B103681943F2
:1037D00002E0036823EA010101607047416070471D
:1037E000406880B2704710F0805F14BF034B044BF9
:1037F0001B6803420CBF00200120704700040240F8
:103800000000024010F0805F14BF024B024B586072
:10381000704700BF000402400000024010F0805FCB
:1038200014BF044B044B1B6803420CBF0020012053
:10383000704700BF000402400000024010F0805FAB
:1038400014BF024B024B5860704700BF0004024097
:1038500000000240234B10B5984205D104200121FD
:1038600000F06CFC042036E01F4B984205D1082084
:10387000012100F063FC08202DE01C4B984205D18B
:103880001020012100F05AFC102024E0184B98422F
:1038900005D12020012100F051FC20201BE0154B18
:1038A000984205D14020012100F048FC402012E060
:1038B000114B984205D18020012100F03FFC80206F
:1038C00009E00E4B98420BD14FF48070012100F0BB
:1038D00035FC4FF480700021BDE8104000F02EBC94
:1038E00010BD00BF00080140000C01400010014065
:1038F0000014014000180140001C0140002001405C
:103900000120014610B500F019FC01200021BDE89E
:10391000104000F013BCCB78F0B513F0100F03F09B
:103920000F020E881CBF8B781A4316F0FF0F1DD0B4
:103930000468002301279F4007EA0605BD4211D114
:103940009F004FF00F0C0CFA07FC12FA07F724EA5D
:103950000C043C43CF78282F01D1456102E0482F69
:1039600008BF05610133082BE4D104600E88FF2EE7
:103970001FD94468002303F108050127AF4007EA77
:103980000605BD4211D19F004FF00F0C0CFA07FC49
:1039900012FA07F724EA0C043C43CF78282F01D110
:1039A000456102E0482F08BF05610133082BE2D1D1
:1039B0004460F0BD4FF0FF33038002238370DB18B7
:1039C000C3707047836819420CBF00200120704704
:1039D000806880B27047C36819420CBF0020012084
:1039E0007047C06880B2704701617047416170479D
:1039F0000AB10161704741617047C160704741F48D
:103A0000803383618161836183698369704710B505
:103A1000054A4FF68073146841EA001104EA030373
:103A200041EA0303136010BD00000140014B186020
:103A3000704700BF1C00204230B50028174B00F42F
:103A40004014B4BFDB695B68B4F5401F82B207D194
:103A5000124C23F07063656825F07065656011E0B5
:103A600010F4801F06D000F47024240C032515FAEE
:103A700004F403E0440D240112FA04F423EA0403DD
:103A800043F0706319B1410D09018A401343034AA1
:103A90000028B4BFD361536030BD00BF00000140B7
:103AA00001F0030230B592000F24944010FA02F2A4
:103AB000074B8908023153F8215025EA040443F8E2
:103AC000214053F8214042EA040443F8214030BD2C
:103AD00000000140014B1860704700BFDC0020422D
:103AE0000B4B10B5984207D14FF40010012100F0A4
:103AF00031FB4FF4001006E04FF48000012100F08C
:103B000029FB4FF480000021BDE8104000F022BBEB
:103B100000540040F0B587B00446868801A80D46E1
:103B2000304F00F09DFA039826F03F063604B0FBB4
:103B3000F7F7360CBFB247EA0606A68021882A6846
:103B400021F00101284B0904090C9A4221800AD86E
:103B50005300B0FBF3F301379BB2BFB22784032BB2
:103B600098BF042322E0E9884BF6FF73994205D100
:103B700002EB4202B0FBF2F39BB206E0192353437F
:103B8000B0FBF3F39BB243F480431A05120D0AB95C
:103B900043F001034FF4967257434FF47A7297FB48
:103BA000F2F70137BFB243F400432784A38323888D
:103BB00069899BB243F0010323802388AA8823F4F8
:103BC000806323F00A031B0441EA02021B0C134327
:103BD0009BB223802A89AB8942EA03039BB22381EB
:103BE00007B0F0BD40420F00A086010041F28833CB
:103BF0000360002383804BF6FF72038143814FF4FF
:103C00008043C2808381704721B103889BB243F017
:103C1000010304E0038823F001031B041B0C038051
:103C2000704721B183889BB243F4006304E083882A
:103C300023F400631B041B0C8380704721B183882D
:103C40009BB243F4805304E0838823F480531B0425
:103C50001B0C8380704721B103889BB243F48073AF
:103C600004E0038823F480731B041B0C038070475B
:103C700021B103889BB243F4007304E0038823F46A
:103C800000731B041B0C0380704721B103889BB297
:103C900043F4806304E0038823F480631B041B0C5B
:103CA00003807047838901F0FE0123F0FE031B04AB
:103CB0001B0C41EA03038381704721B183899BB2C6
:103CC00043F0010304E0838923F001031B041B0C70
:103CD0008381704721B103889BB243F0400304E025
:103CE000038823F040031B041B0C038070471AB1A8
:103CF00083889BB2194303E083889BB223EA0101C6
:103D00008180704701827047008AC0B2704712B14B
:103D100041F0010101E001F0FE010182704782B033
:103D2000002301930190019BCB180193019B1888FC
:103D300080B202B0704731B103886FEA43436FEA43
:103D400053439BB202E003885B045B0C0380704723
:103D5000B1F5006F04D103889BB243F4006304E023
:103D6000038823F400631B041B0C03807047B1F528
:103D7000005F04D103889BB243F4005304E003883E
:103D800023F400531B041B0C0380704721B10388EC
:103D90009BB243F4805304E0038823F480531B0454
:103DA0001B0C03807047B1F5006F04D103889BB2F0
:103DB00043F4006304E0038823F400631B041B0C3A
:103DC0000380704721B103889BB243F0200304E0D5
:103DD000038823F020031B041B0C03807047008B17
:103DE00080B2000A704721B103889BB243F01003F0
:103DF00004E0038823F010031B041B0C03807047AE
:103E000021B903889BB243F0800304E0038823F0C8
:103E100080031B041B0C03807047B1F5804F05D055
:103E2000838B23F480431B041B0C03E0838B9BB226
:103E300043F4804383837047838A008B9BB243EAB9
:103E40000040084020F07F40431A584240EB0300F6
:103E50007047838A008B9BB243EA004020F07F408A
:103E6000704782B00023019300930B0F00900193E1
:103E7000019B21F07F4113B1009B143302E0009BB2
:103E8000090C18330093009B1B6819420CBF0020DB
:103E9000012002B07047C94389B28182704783888C
:103EA000808A9BB280B2084006D001F0E06113EA3C
:103EB00011410CBF002001207047C94389B28182A3
:103EC000704700BF0D4B1A6842F001021A60596832
:103ED0000B4A01EA02025A601A6822F0847222F444
:103EE00080321A601A6822F480221A605A6822F41A
:103EF000FE025A604FF41F029A60704700100240A1
:103F00000000FFF80C4BB0F5803F1A6822F48032B5
:103F10001A601A6822F480221A6003D0B0F5802F4C
:103F200009D104E01A6842F480321A6070471A68B6
:103F300042F4A0221A60704700100240034B1A6836
:103F400022F0F80242EAC0021A60704700100240F4
:103F5000014B1860704700BF00004242044B5A6892
:103F600022F47C1240EA02020A435A60704700BF02
:103F700000100240014B1860704700BF60004242D1
:103F8000034B5A6822F0030240EA02025A6070476B
:103F900000100240024B586800F00C00704700BF50
:103FA00000100240034B5A6822F0F00240EA02027D
:103FB0005A60704700100240034B5A6822F4E062D6
:103FC00040EA02025A60704700100240034B5A68F0
:103FD00022F4605242EAC0025A6070470010024068
:103FE000044B11B11A78104302E01A7822EA00005B
:103FF0001870704709100240014B1860704700BFED
:10400000D8004242034B5A6822F4404240EA02027E
:104010005A60704700100240064B002201281A70B7
:104020001A7002D0042804D101E0187070470522EC
:104030001A70704720100240014B1860704700BF93
:1040400080044242024B1A6A40EA02021A62704736
:1040500000100240014B1860704700BF3C04424210
:1040600010B5204B5A6802F00C02042A01D0082A2D
:1040700002D01D4B036011E05A68596802F47012B7
:10408000920C023211F4803F03D05B6813F4003FBE
:1040900001D0164B00E0144B5A430260114A144BF6
:1040A0005168046801F0F0010909595C34FA01F122
:1040B0004160546804F4E064240A1C5D31FA04F49D
:1040C0008460546804F46054E40A1C5DE140C160FB
:1040D000526802F4404203EB92331B7CB1FBF3F1D4
:1040E000016110BD0010024000127A0000093D007D
:1040F00028000020044B11B15A69104302E05A69AC
:1041000022EA00005861704700100240044B11B1D0
:104110009A69104302E09A6922EA000098617047A8
:1041200000100240044B11B1DA69104302E0DA6971
:1041300022EA0000D861704700100240044B11B120
:10414000DA68104302E0DA6822EA0000D8607047BB
:1041500000100240044B11B11A69104302E01A69C1
:1041600022EA00001861704700100240014B1860FD
:10417000704700BF40044242014B1860704700BFC7
:104180004C004242014B1870704700BF07100240BC
:104190004309012B074A01D1136803E0022B0CBF2E
:1041A000136A536A00F01F0033FA00F000F00100B8
:1041B000704700BF0010024007B500230193312073
:1041C000FFF7E6FF019B01330193019BB3F5A06F5D
:1041D00001D00028F3D03120FFF7DAFF003818BFF4
:1041E00001200EBD024B5A6A42F080725A6270473B
:1041F00000100240034B9B6818420CBF00200120B6
:10420000704700BF00100240014B1870704700BF9C
:104210000A10024030B5048C24F001042404240C5C
:104220000484048B058C24F0F3042404240C42EA57
:10423000040444EA0314104BADB29842A4B20ED069
:104240000E4B98420BD0B0F1804F08D00C4B9842E7
:1042500005D00C4B984202D00B4B984202D125F06E
:10426000020501E025F00A0545F0010545EA0101D6
:104270000483018430BD00BF002C014000340140A4
:104280000004004000080040000C004030B5048CE1
:1042900024F010042404240C0484048B058C24F4DE
:1042A00040742405240D44EA022444EA0334124BEA
:1042B000ADB29842A4B20ED0104B98420BD0B0F1E0
:1042C000804F08D00E4B984205D00E4B984202D03A
:1042D0000D4B984207D125F0200545F0100545EA21
:1042E000011189B205E025F0A00545F0100545EA69
:1042F00001010483018430BD002C014000340140E1
:104300000004004000080040000C00405A4B10B56B
:10431000984207D14FF400600121FFF70FFF4FF4DF
:104320000060A2E0B0F1804F05D101200146FFF707
:1043300011FF012007E0514B984209D102200121D1
:10434000FFF708FF02200021BDE81040FFF702BF81
:104350004B4B984205D104200121FFF7FBFE0420BE
:10436000F1E7484B984205D108200121FFF7F2FE02
:104370000820E8E7444B984205D110200121FFF7BF
:10438000E9FE1020DFE7414B984205D120200121B2
:10439000FFF7E0FE2020D6E73D4B984207D14FF4CF
:1043A00000500121FFF7CAFE4FF400505DE0394B89
:1043B000984207D14FF400200121FFF7BFFE4FF4D0
:1043C000002052E0344B984207D14FF48010012175
:1043D000FFF7B4FE4FF4801047E0304B984207D10E
:1043E0004FF400100121FFF7A9FE4FF400103CE04C
:1043F0002B4B984205D140200121FFF7ABFE402016
:10440000A1E7284B984205D180200121FFF7A2FEA9
:10441000802098E7244B984207D14FF48070012107
:10442000FFF798FE4FF480708DE7204B984207D13C
:104430004FF480300121FFF781FE4FF4803014E00B
:104440001B4B984207D14FF400300121FFF776FE55
:104450004FF4003009E0174B98420BD14FF4802005
:104460000121FFF76BFE4FF480200021BDE81040D2
:10447000FFF764BE10BD00BF002C014000040040E7
:1044800000080040000C00400010004000140040F4
:1044900000340140004C01400050014000540140F4
:1044A00000180040001C0040002000400040014077
:1044B0000044014000480140204A038890429BB2DA
:1044C0000ED01F4A90420BD0B0F1804F08D01D4A49
:1044D000904205D01C4A904202D01C4A904206D11C
:1044E0004FF68F7203EA02024B8842EA0303184A2E
:1044F000904209D0174A904206D04FF6FF4203EA95
:104500000202CB8842EA030303808B8883850B88F1
:1045100003850A4B98420BD0094B984208D00E4BAA
:10452000984205D00D4B984202D00D4B984201D1D4
:104530000B7A038601238382704700BF002C014061
:10454000003401400004004000080040000C00401E
:1045500000100040001400400040014000440140B1
:1045600000480140038C70B523F001031B041B0CB1
:104570000384038C8488028B0D8822F0730212045A
:10458000120C2A434E880D8923F002031B0446EACD
:1045900005051B0CADB245EA0303164DA4B2A842B3
:1045A0000BD0154DA84208D0144DA84205D0144D8B
:1045B000A84202D0134DA84215D14FF6F77503EA71
:1045C00005054B89CE891D434FF6FB7305EA0303AE
:1045D0008D882B434FF6FF4504EA05058C8946EA92
:1045E0000404A4B22C4384800283CA888286038494
:1045F00070BD00BF002C014000340140004001406C
:104600000044014000480140038C30B523F0100302
:104610001B041B0C0384038C8288048B0D8824F4F8
:10462000E6442404240C23F0200344EA05241B045C
:104630000D891B0C43EA05134D8892B243EA05131A
:10464000134DA4B2A8429BB202D0124DA84219D178
:104650004FF67F7503EA05054B8945EA03154FF6CA
:10466000BF7305EA03038D8843EA05134FF2FF3554
:1046700002EA05058A899BB245EA8205CA8945EAAC
:10468000820292B28280CA8804830287038430BD8A
:10469000002C014000340140038C30B523F48073BA
:1046A0001B041B0C0384038C8288848B0D8824F0EC
:1046B00073042404240C23F400731B042C430D897D
:1046C0001B0C43EA05234D8892B243EA0523134DA0
:1046D0009BB2A84202D0124DA84219D14FF2FF75E9
:1046E00003EA05054B8945EA03254FF6FF3305EA42
:1046F00003038D8843EA05234CF6FF7502EA05059E
:104700008A899BB245EA0215CA8945EA021292B229
:104710008280CA8884838287038430BD002C014054
:1047200000340140038C30B523F480531B041B0C70
:104730000384038C8488828B0D8822F4E642120461
:10474000120C23F4005342EA05221B040D891B0CB2
:1047500043EA05334D88A4B243EA05330B4D92B2C8
:10476000A8429BB202D00A4DA84207D14BF6FF7572
:1047700004EA05058C8945EA8414A4B28480828306
:10478000CA88A0F84020038430BD00BF002C01403F
:10479000003401404A880B8842EA03038A881343A5
:1047A000CA8813430A8913434A8913438A891343E6
:1047B0009BB2A0F8443070474FF0FF338380002352
:1047C0000380C380438003727047002303804380CB
:1047D0008380C380038143818381C3817047002329
:1047E0000122038043808280C380038170470023BD
:1047F000038043808380C38003814381838170472A
:1048000021B103889BB243F0010304E0038823F045
:1048100001031B041B0C0380704739B1B0F844300E
:104820006FEA43436FEA53439BB203E0B0F844306E
:104830005B045B0CA0F8443070471AB183899BB2CB
:10484000194303E083899BB223EA01018181704708
:10485000818270470A43A0F8482070471AB18389C3
:104860009BB2194303E083899BB223EA0101818152
:104870007047038923F007031B041B0C0381704757
:1048800010B50489E4B241EA040442EA040444EAAB
:104890000324A4B2048110BD10B50446FFF7F0FF55
:1048A00023899BB243F48043238110BD10B5044695
:1048B000FFF7E6FF238923F077031B041B0C43F06B
:1048C0007703238110BD018582827047038823F01E
:1048D00070031B041B0C41EA030303807047038928
:1048E00023F070031B041B0C41EA03030381704790
:1048F00038B50D46602D0446114603D10122FFF75D
:10490000C5FC02E00122FFF785FC20462946FFF79F
:10491000E6FF23899BB243F00703238138BD10B51E
:104920000446FFF7DCFF23899BB243F00703238192
:1049300010BD70B50489068B058C26F4407625F0F1
:10494000220526F003062D0424F0070436042D0C5E
:104950002404360C42EA0505240C46F4807645EA28
:104960000315214346F00106ADB20181068305849B
:1049700070BD038B23F070031B041B0C41EA03037F
:1049800003837047038B23F4E0431B041B0C43EAAF
:1049900001239BB203837047838B23F070031B04B6
:1049A0001B0C41EA030383837047838B23F4E043AA
:1049B0001B041B0C43EA01239BB28383704721B184
:1049C00003889BB243F0800304E0038823F0800354
:1049D0001B041B0C0380704721B183889BB243F0FA
:1049E000040304E0838823F004031B041B0C83806E
:1049F000704721B183889BB243F0080304E08388A9
:104A000023F008031B041B0C8380704721B18388AB
:104A10009BB243F0010304E0838823F001031B04ED
:104A20001B0C83807047038B23F008031B041B0CB3
:104A300041EA030303837047038B23F400631B04E1
:104A40001B0C43EA01239BB203837047838B23F043
:104A500008031B041B0C41EA030383837047838B09
:104A600023F400631B041B0C43EA01239BB28383E2
:104A70007047038B23F004031B041B0C41EA030360
:104A800003837047038B23F480631B041B0C43EAEE
:104A900001239BB203837047838B23F004031B0421
:104AA0001B0C41EA030383837047838B23F48063E9
:104AB0001B041B0C43EA01239BB283837047038BC7
:104AC00023F080031B041B0C41EA0303038370479C
:104AD000038B5B045B0C43EA01239BB203837047A7
:104AE000838B23F080031B041B0C41EA03038383A5
:104AF0007047838B5B045B0C43EA01239BB2838387
:104B00007047038C23F002031B041B0C41EA0303D0
:104B100003847047038C23F008031B041B0C41EA39
:104B2000030303847047038C23F020031B041B0C36
:104B300043EA01139BB203847047038C23F0800384
:104B40001B041B0C43EA01139BB203847047038CC4
:104B500023F400731B041B0C43EA01239BB2038460
:104B60007047038C23F400631B041B0C43EA0123EE
:104B70009BB203847047038C23F400531B041B0C6B
:104B800043EA01339BB20384704701238B4012FA3E
:104B900001F110B5048CA4B224EA03030384038C4E
:104BA00041EA03039BB2038410BD04238B4012FA35
:104BB00001F110B5048CA4B224EA03030384038C2E
:104BC00041EA03039BB2038410BD30B501248C403D
:104BD000058C00F11803ADB225EA0404048409B180
:104BE000082906D14908C85820F07000C850C85894
:104BF00009E0043989B24908C858120220F4E0409B
:104C0000C850C85892B240EA0202CA5030BD21B121
:104C100003889BB243F0020304E0038823F00203FD
:104C20001B041B0C0380704721B103889BB243F027
:104C3000040304E0038823F004031B041B0C03801B
:104C4000704721B183889BB243F0800304E08388DE
:104C500023F080031B041B0C83807047038823F020
:104C600008031B041B0C038003889BB241EA030367
:104C700003807047838823F070031B041B0C838020
:104C800083889BB241EA030383807047038923F042
:104C900007031B041B0C038103899BB241EA030336
:104CA00003817047038923F080031B041B0C0381DD
:104CB00003899BB241EA03030381704781847047F3
:104CC000818570478186704701877047818770476B
:104CD000A0F840107047038B23F00C031B041B0C3F
:104CE0000383038B9BB241EA030303837047038B67
:104CF00023F440631B041B0C0383038B9BB243EA26
:104D000001239BB2038370472DE9F0410C46A28832
:104D10004988B4F800E0054600290CBF02270027A7
:104D2000012A14BF012602262389BEF1000F10D1EB
:104D3000FFF770FA2846E188FFF7CDFF284639468D
:104D400032462389FFF7A2FAE1882846BDE8F04100
:104D5000CDE7FFF79BFA2846E188FFF7C8FF284612
:104D6000394632462389FFF755FAE1882846BDE8DF
:104D7000F041B0E7838B23F00C031B041B0C8383EF
:104D8000838B9BB241EA030383837047838B23F4B5
:104D900040631B041B0C8383838B9BB243EA012378
:104DA0009BB2838370470B882DE9F0410D46044682
:104DB0004988AA883BB92B89FFF72CFAE988204655
:104DC000BDE8F04187E7042B07D12B89FFF75EFA96
:104DD000E9882046BDE8F04189E7082B8C46B5F804
:104DE000088039D1068C394B26F480763604360C8F
:104DF0000684808B278C20F0F3000004000C40EA2E
:104E0000081080B29C42BFB240EA02020ED0304B82
:104E10009C420BD0B4F1804F08D02E4B9C4205D061
:104E20002D4B9C4202D02D4B9C4207D127F400769B
:104E300046EA0C26B6B246F4807606E04FF2FF56FC
:104E400007EA060641F480710E43E9882046A283F2
:104E50002684BDE8F0418DE7008C20F480500004EA
:104E6000000C2084A38B278C23F440731B051B0D9F
:104E700043EA0223154A43EA08339442BFB29BB285
:104E80000ED0134A94420BD0B4F1804F08D0114A8F
:104E9000944205D0104A944202D0104A944207D15D
:104EA00027F4005242EA0C3292B242F4805206E0F9
:104EB00047F6FF5207EA020241F480510A43E988AB
:104EC0002046A3832284BDE8F0415FE7002C014027
:104ED000003401400004004000080040000C004085
:104EE000038823F440731B041B0C038003889BB2CC
:104EF00041EA030303807047808E80B27047008FC1
:104F000080B27047808F80B27047B0F8400080B2A6
:104F10007047808C80B27047008D80B27047038AE2
:104F200019420CBF002001207047C94389B2018299
:104F30007047038A828911EA030092B203D01142BA
:104F40000CBF002001207047C94389B2018270471D
:104F5000204B10B598420BD101214FF48040FFF750
:104F6000EDF84FF480400021BDE81040FFF7E6B8AF
:104F7000194B984207D14FF400300121FFF7EAF8AE
:104F80004FF400301FE0154B984207D14FF48020BA
:104F90000121FFF7DFF84FF4802014E0104B984216
:104FA00007D14FF400200121FFF7D4F84FF400207F
:104FB00009E00C4B98420BD14FF480100121FFF710
:104FC000C9F84FF480100021BDE81040FFF7C2B8C7
:104FD00010BD00BF003801400044004000480040C0
:104FE000004C00400050004030B5038ACA8823F4CA
:104FF00040531B041B0C134303820D46838909890C
:10500000AA8823F4B05341EA0202698923F00C0311
:105010000A431B041B0C92B242EA03038381838A76
:10502000AA8923F440731B041B0C87B01343044666
:10503000838201A8FFF714F8184BA2899C4212B290
:105040000CBF049B039B002A4FF019012A6802DA67
:105050005943520001E0594392006423B1FBF2F13D
:10506000B1FBF3F21201100903FB1011A08900B289
:10507000002806DAC9003231B1FBF3F303F007036D
:1050800005E009013231B1FBF3F303F00F0343EA0A
:10509000020292B2228107B030BD00BF0038014049
:1050A0004FF4165303600C2200238380C3800381D6
:1050B0004281838170470A8810B54C88038A44EA8C
:1050C00002028C88C98823F4706322431B040A43BC
:1050D0001B0C92B242EA0303038210BD002303803B
:1050E00043808380C380704721B183899BB243F49E
:1050F000005304E0838923F400531B041B0C8381B9
:105100007047CBB210B55B09012401F01F0114FAFE
:1051100001F1A34201D10C3004E0022B01D1103087
:1051200000E014301AB1036843EA010102E00368A9
:1051300023EA0101016010BD1AB1838A9BB21943B1
:1051400003E0838A9BB223EA010181827047038ACC
:1051500023F00F031B041B0C0382038A9BB241EA5A
:10516000030303827047838923F400631B041B0C31
:10517000838183899BB241EA03038381704721B114
:1051800083899BB243F0020304E0838923F0020386
:105190001B041B0C83817047038A23F020031B042C
:1051A0001B0C0382038A9BB241EA0303038270470C
:1051B00021B1038A9BB243F4804304E0038A23F4C1
:1051C00080431B041B0C03827047C905C90D8180F5
:1051D00070478088C005C00D704783899BB243F03B
:1051E000010383817047038BDBB20383038B9BB284
:1051F00043EA012303837047038B03F47F43038354
:10520000038B9BB241EA03030383704721B1838A76
:105210009BB243F0200304E0838A23F020031B04A5
:105220001B0C8382704721B1838A9BB243F0100329
:1052300004E0838A23F010031B041B0C8382704755
:1052400021B1838A9BB243F0080304E0838A23F0F0
:1052500008031B041B0C8382704731B183896FEAFA
:1052600043436FEA53439BB202E083895B045B0CC8
:105270008381704721B1838A9BB243F4006304E0C9
:10528000838A23F400631B041B0C83827047838A88
:1052900023F004031B041B0C8382838A9BB241EA24
:1052A00003038382704721B1838A9BB243F00203D8
:1052B00004E0838A23F002031B041B0C83827047E3
:1052C000038819420CBF002001207047C94389B2EE
:1052D0000180704710B5CCB20122640901F01F03B0
:1052E0009A40012C01D1838903E0022C0CBF038A70
:1052F000838A9BB202EA0303028892B243B1090A8D
:10530000012313FA01F111420CBF0020012010BD4E
:10531000184610BD090A01238B40DB439BB2038072
:10532000704700BF08B5084B00221968072000F03D
:10533000A3F9064B07201968002200F09DF90A2006
:1053400002F01AFFEFE700BF10010020F00000207C
:105350001FB500F025F8012400F012F900F0FEF866
:1053600000F018FE00F022FC00F0CEFB00F064F824
:105370000023084980220848019302930393009474
:1053800002F0F2FB02F0B0FD00F021F8204604B07C
:1053900010BD00BF9AC0000821780008FDF736BB99
:1053A00010B5FCF777FF03220120002102F0A9F9D4
:1053B000054A106030B100210A460B46BDE8104096
:1053C00002F0BFB910BD00BF504700207047FCF786
:1053D0006ABF03281FB503461ED801291CD8104AEE
:1053E00052F82000C0B10F4A52F82120A2B10E4A53
:1053F00013600E4B0122196000920D4A0D49019273
:10540000002202920392803202F0AEFB012814BF08
:105410006FF00100002001E04FF0FF3005B000BD4B
:10542000B8460020C84600205847002054470020B6
:10543000F04600209FC0000810B5FCF727FF074C7E
:105440002060FCF725FF064B014618602068FFF737
:10545000C0FFBDE81040FCF724BF00BF5847002044
:10546000544700208368F7B5012B044619D0022B5E
:1054700059D100250095C068294622692B46FCF7C2
:1054800041FF0128064606D129462A462B4600F050
:1054900021F9354651E02A4B01200421E2681B69BD
:1054A00032E0C268274E0369274C032A326023602A
:1054B00033D8012B31D8254951F82220002A2CD08D
:1054C000234A52F8233043B3224B0022196810209C
:1054D000214F00F0D1F8002138684FF4FA620B46F2
:1054E00002F0D2F90128054626D100210A460B46D2
:1054F000386802F026F921683068FFF76AFF014634
:1055000028B928460A460B4600F0E4F815E00C4B93
:105510002846294600225B680AE0094B0120032146
:105520000022DB6804E0064B01209B680221002278
:1055300000F0D0F8002500E000E02846FEBD00BFE6
:105540003C0000205847002054470020B846002067
:10555000C84600201001002050470020074B0022C1
:1055600010B51A605A609A60DA6001F0DFFF01F04E
:10557000D9F8BDE8104001F0F9B800BFB8460020E6
:10558000024B00221A605A6000F0EEBEC8460020AE
:1055900070B5064601F10C000D4603F079F904469A
:1055A00050B105603EB135B10C30606031462A46DD
:1055B00003F0A0FB00E06660204670BD70B50D46AC
:1055C000064690B199B101F10C0003F061F904466F
:1055D00070B140F80C5B2A466060314603F08AFBEC
:1055E000636803F114021A6102E0044600E00C460D
:1055F000204670BD70B50546D8B18068143003F000
:1056000047F90446A0B12E460FCE26460FC604F138
:1056100014002061AA68296903F06CFBA968204680
:105620001431FFF7CBFF0546204603F0A1F900E057
:105630000546284670BD08B103F09AB9704738B5E1
:1056400005460C2003F024F9044630B1284603F047
:105650001FF9A060002808BF0024204638BD10B5FF
:10566000044640B1806808B103F082F92046BDE8E5
:10567000104003F07DB910BD07B5019200220090E3
:1056800013460846694602F05CF80EBD13B50446A1
:1056900002A840F8041D0421FFF77AFF024620B15A
:1056A000024B20461968FFF7E7FF1CBDF000002001
:1056B00010B50C461821FFF76BFF024630B1044BC2
:1056C000846059680B20BDE81040D5E710BD00BFCD
:1056D000F00000201FB50090019168461021029251
:1056E0000393FFF755FF054B02468360044B0620EA
:1056F0005968FFF7C1FF05B000BD00BFF17D00088C
:10570000F00000201FB5002301900292084603AA72
:1057100001A9039302F087F805B000BD1FB5009002
:1057200001916846102102920393FFF731FF054B68
:1057300002468360044B06205968FFF7E3FF05B07B
:1057400000BD00BFF17D0008F000002013B500236C
:105750000C46694602F098F8012803BF019B0098A7
:10576000236000201CBD05E00B78027801F80129B8
:1057700000F8013B8142F7D87047054B0A0901F058
:105780000F019A5C5B5C027043700023837070476A
:105790001EBE000838B504460D460234090AFFF75C
:1057A000ECFF2046E9B2FFF7E8FF0023A37038BD05
:1057B00038B504460D460434090CFFF7EBFF2046CC
:1057C000A9B2FFF7E7FF0023237138BD931E212BF9
:1057D000F7B505460C46174603D900230B7003B0F6
:1057E000F0BD80EAE071A1EBE071264600E01946C9
:1057F0003A46684603F05AFA019A0B49009B8A5CC4
:10580000314601F8012B0E46002BF0D1002D02DAB3
:105810002D3301F8013B002301F80139204603B084
:10582000BDE8F0409FE700BF00C1000810B540B1DF
:10583000044602E0034B1B68984714F8010B00284C
:10584000F8D110BD18010020064B1B68012B02D0B7
:10585000022B04D101E0044802E0044800E00448BF
:10586000E4E700BF5000002028C1000825C100085F
:1058700027C100080A4610B50349FFF7A7FF0248F1
:10588000BDE81040D2E700BF5C4700202DE9F041A1
:10589000044615461E460F46D1B11248FFF7C6FF13
:1058A0000A212046FFF7E6FF0F48FFF7BFFF0A2156
:1058B0003846FFF7DFFF0C48FFF7B8FF28460A21FC
:1058C000FFF7D8FF3EB10848FFF7B0FF304600E0D1
:1058D0000648FFF7ABFFFFF7B7FF0548BDE8F0410B
:1058E000A4E700BF2AC100086FC3000833C1000845
:1058F00035C100080B4608689A684968DB68C5E747
:105900000020014602460346C0E7014610B50348A1
:10591000FFF74EFF0148BDE8104087E75C470020D5
:10592000014610B50348FFF735FF0248BDE81040B7
:105930007CE700BF5C470020014610B50348FFF735
:105940001CFF0248BDE8104070E700BF5C47002024
:105950002DE9F04F6A4B99B01868002800F0CA8012
:1059600001230493674B00241E680B94756830680C
:10597000294612940294059409940C94109413945B
:10598000FCF79AFCA146A2464FF0020B5C494FF08F
:10599000FF32086817A9FFF7D9FE0028F6D00738AC
:1059A000082800F2A380DFE800F005A1A1A1A173FF
:1059B0008593980002AA0AF1010A17A9134698696B
:1059C00040B10138986128B99868022802D101389D
:1059D00098601861D86808B10138D8601C338B42D0
:1059E000EDD1BAF1640F0DDD89F001099368012B47
:1059F00003D1D3680BB9C2F800901C328A42F5D1AA
:105A00004FF0000A02AC4FF0000827682FB1E3689E
:105A1000D3F1010338BF002300E03B4662689342A4
:105A200014D02FB1E268D2F1010238BF002200E0A9
:105A30003A46002140460B460091FCF763FC27B133
:105A4000E768D7F1010738BF002767602369012B9A
:105A500001D1013B23616369012B01D1013B6361EA
:105A600008F101081C34B8F1030FCED1002E3DD04F
:105A7000013D3BD1083675682DB928462946FCF70B
:105A80001BFC2E4632E030682946FCF715FC2DE061
:105A90001C2318A903FB0B13022243F8502C013AD4
:105AA00043F8582C093243F84C2C4FF47A7243F8DF
:105AB000402C1BE0179B18A95B681A681C2303FB8A
:105AC0000B13012A0CBF0222002243F8502C0DE0D8
:105AD000179B5B68D3F800B008E002230493013BF6
