:10000000E89100000050002039AA0008414500088E
:100010004345000845450008474500084945000894
:1000200000000000000000000000000000000000D0
:10003000759200084B45000800000000219300085D
:100040005D9300087DAA00087DAA00087DAA00082B
:100050007DAA00087DAA00087DAA00087DAA0008E4
:100060007DAA00087DAA00087DAA00087DAA0008D4
:100070007DAA00087DAA00087DAA00087DAA0008C4
:100080007DAA0008C53B00082D3C00087DAA000899
:100090007DAA0008AD3600087DAA00087DAA0008E8
:1000A0007DAA00087DAA00087DAA00087DAA000894
:1000B0007DAA00087DAA00087DAA00087DAA000884
:1000C0007DAA00087DAA00087DAA00087DAA000874
:1000D0007DAA00087DAA0008014100087DAA000849
:1000E0007DAA00087DAA00087DAA00087DAA000854
:1000F0000000000000000000000000000000000000
:100100000000000000000000000000005FF808F19F
:100110000000000010B51A4B88B01A68194B002473
:10012000B2FBF3F3013B4FF4217205A94FF080407D
:10013000ADF81820ADF81430ADF81A40ADF81640FF
:1001400003F088FD60230122ADF80430ADF80620ED
:100150004FF4A173022201A94FF08040ADF80A309C
:10016000ADF80C2003F0ACFE08214FF0804004F005
:1001700044F84FF08040214603F010FF08B010BD56
:10018000B400002080841E0030B5044689B03B488E
:100190000D4602F036FA05A802F03AFB01220023D0
:1001A00094428DF81A308DF81B308DF81C308DF884
:1001B0001D308DF81E308DF81F208DF816508DF8EB
:1001C000173001D0052C07D102238DF81830DB1829
:1001D0008DF81930202216E0022C01D0062C07D110
:1001E00002238DF81830DB188DF8193010231FE02A
:1001F000032C01D0072C09D102238DF81830DB180D
:100200008DF819300822ADF8142013E0042C4FF0BB
:10021000020301D0082C05D18DF8183004238DF885
:10022000193005E08DF8183004238DF819300823B3
:10023000ADF8143005A9114802F0FEF9012400239D
:100240004EF2000201A8ADF80420ADF808208DF8A8
:100250000E308DF80F308DF81040ADF80630ADF847
:100260000A30ADF80C308DF8114002F058FA03480E
:100270000221224602F0A8FC09B030BD0064004013
:1002800073B54FF410514FF0006001F0D3FF4FF4FD
:10029000407001F093FF0124002525230C2601A8BE
:1002A0008DF804308DF805608DF806508DF8074004
:1002B00001F08EFF142301A88DF804308DF805603D
:1002C0008DF806408DF8074001F082FF1F2301A83A
:1002D0008DF804308DF805508DF806508DF80740E4
:1002E00001F076FF202301A88DF804308DF8055029
:1002F0008DF806408DF8074001F06AFF7CBD1FB500
:10030000114804F0F3F942F6A00300930023ADF87E
:100310000430ADF80630ADF80830ADF80C30694661
:100320000C230948ADF80A3004F02CFA01210648E4
:1003300004F0A8FA044840F22551012204F0AFFA73
:10034000FFF79EFF05B000BD004400402DE9F041DD
:10035000924B86B092480024049304F0C7F94FF4FE
:10036000E1330C228E4869460093ADF80A20ADF8BF
:100370000440ADF80640ADF80840ADF80C4004F07C
:1003800001FA8748012104F07DFA854840F22551A1
:10039000012204F084FAFFF773FF81480D2104F075
:1003A000E2FA059402E0059B01330593059A7D4B23
:1003B0009A42F8D900257A48612104F0D4FA002342
:1003C00001E0059B01330593059A049B9A42F8D3FB
:1003D0007348742104F0C7FA002301E0059B013340
:1003E0000593059A049B9A42F8D36D480D2104F0B9
:1003F000BAFA002301E0059B01330593059A049B9B
:100400009A42F8D3002301E0059B01330593059A36
:10041000654B9A42F8D9654F0024654E3C606048B0
:1004200061213460B04604F09EFA059402E0059B19
:1004300001330593059A049B9A42F8D358487421D6
:1004400004F091FA002301E0059B01330593059A1E
:10045000049B9A42F8D352486C2104F084FA00239A
:1004600001E0059B01330593059A049B9A42F8D35A
:100470004B483F2104F077FA002301E0059B01334C
:100480000593059A049B9A42F8D345480D2104F040
:100490006AFA002301E0059B01330593059A049B4A
:1004A0009A42F8D3002301E0059B01330593059A96
:1004B000404B9A42F8D9404B00241B78303B072B25
:1004C00000F2EE81DFE813F008004A009C00DE0035
:1004D0002301EF016501AA013148612104F043FACB
:1004E000059402E0059B01330593059A049B9A420B
:1004F000F8D32B48742104F036FA002301E0059B61
:1005000001330593059A049B9A42F8D324486C2141
:1005100004F029FA002301E0059B01330593059AB5
:10052000049B9A42F8D31E48352104F01CFA00239C
:1005300001E0059B01330593059A049B9A42F8D389
:1005400017480D2104F00FFA002301E0059B013349
:100550000593059A049B9A42F8D3BDE110486121A6
:1005600004F001FA059402E0059B01330593059A16
:10057000049B9A42F8D30A48742104F0F4F900234A
:1005800001E0059B01330593059A049B9A42F8D339
:1005900003486C2104F0E7F9002311E0E093040024
:1005A000003801403F548900EF490200DC4B002035
:1005B000D84B00201FA107008C4B0020059B013366
:1005C0000593059A049B9A42F8D39348352104F089
:1005D000CAF9002301E0059B01330593059A049BAA
:1005E0009A42F8D38C480D2104F0BDF9002301E0B4
:1005F000059B01330593059A049B9A42F8D36BE15E
:100600008548612104F0AFF9059402E0059B0133B0
:100610000593059A049B9A42F8D37F48742104F00D
:10062000A2F9002301E0059B01330593059A049B81
:100630009A42F8D378486C2104F095F9002301E040
:10064000059B01330593059A049B9A42F8D372489F
:10065000352104F088F9002301E0059B013305935F
:10066000059A049B9A42F8D36B480D2104F07BF95C
:10067000002301E0059B01330593059A049B9A42F0
:10068000F8D329E164486121346004F06CF90594E1
:1006900002E0059B01330593059A049B9A42F8D327
:1006A0005D48742104F05FF9002301E0059B0133EC
:1006B0000593059A049B9A42F8D357486C2104F09D
:1006C00052F9002301E0059B01330593059A049B31
:1006D0009A42F8D35048352104F045F9002301E04F
:1006E000059B01330593059A049B9A42F8D34A4827
:1006F0000D2104F038F9002301E0059B0133059337
:10070000059A049B9A42F8D301233360E4E04248FF
:10071000612104F028F9059402E0059B013305935B
:10072000059A049B9A42F8D33B48742104F01BF9C4
:10073000002301E0059B01330593059A049B9A422F
:10074000F8D335486C2104F00EF9002301E0059B35
:1007500001330593059A049B9A42F8D32E4835211C
:1007600004F001F9002301E0059B01330593059A8C
:10077000049B9A42F8D328480D2104F0F4F8002392
:1007800001E0059B01330593059A049B9A42F8D337
:10079000A2E02148612104F0E6F8059402E0059BFF
:1007A00001330593059A049B9A42F8D31A487421A1
:1007B00004F0D9F8002301E0059B01330593059A65
:1007C000049B9A42F8D314486C2104F0CCF800231F
:1007D00001E0059B01330593059A049B9A42F8D3E7
:1007E0000D48352104F0BFF8002301E0059B0133DB
:1007F0000593059A049B9A42F8D307480D2104F00B
:10080000B2F8002301E0059B01330593059A049B90
:100810009A42F8D360E000BF003801408E48612161
:1008200004F0A1F8059402E0059B01330593059AB5
:10083000049B9A42F8D38848742104F094F800236A
:1008400001E0059B01330593059A049B9A42F8D376
:1008500081486C2104F087F8002301E0059B0133F7
:100860000593059A049B9A42F8D37B48352104F0FE
:100870007AF8002301E0059B01330593059A049B58
:100880009A42F8D374480D2104F06DF8002301E07A
:10089000059B01330593059A049B9A42F8D31BE00C
:1008A0000135EDB200E00925AB1E072B05D8DFE8C6
:1008B00003F0070A0D1013181B1E4FF4965318E08F
:1008C0004FF4165315E04FF4964312E04FF41643DD
:1008D0000FE04FF461430CE04FF4E1330093062541
:1008E00008E04FF4613304E04FF4E12301E04FF4FA
:1008F000E13300935848694603F044FF092D7FF423
:100900005AAD0024C8F800403C605348612104F00F
:100910002AF8059402E0059B01330593059A049B90
:100920009A42F8D34C48742104F01DF8002301E0EA
:10093000059B01330593059A049B9A42F8D34648D8
:10094000622104F010F8002301E0059B01330593B8
:10095000059A049B9A42F8D33F483F2104F003F8DC
:10096000002301E0059B01330593059A049B9A42FD
:10097000F8D339480D2103F0F6FF002301E0059B71
:1009800001330593059A049B9A42F8D3002301E0B2
:10099000059B01330593059A304B9A42F8D9002400
:1009A000C8F800403C602C48612103F0DCFF05944E
:1009B00002E0059B01330593059A049B9A42F8D304
:1009C0002548742103F0CFFF002301E0059B01338C
:1009D0000593059A049B9A42F8D31F486E2103F0B1
:1009E000C2FF002301E0059B01330593059A049B98
:1009F0009A42F8D318483F2103F0B5FF002301E0E5
:100A0000059B01330593059A049B9A42F8D312483B
:100A10000D2103F0A8FF002301E0059B013305939E
:100A2000059A049B9A42F8D3002301E0059B013309
:100A30000593059A094B9A42F8D9094B01221A608D
:100A4000084B1C68002C40F073810348612103F0BF
:100A50008AFF05940BE000BF003801401FA107008A
:100A6000D84B0020E04B0020059B01330593059AED
:100A7000049B9A42F8D39348742103F074FF002337
:100A800001E0059B01330593059A049B9A42F8D334
:100A90008C486E2103F067FF002301E0059B0133C2
:100AA0000593059A049B9A42F8D386483D2103F0AA
:100AB0005AFF002301E0059B01330593059A049B2F
:100AC0009A42F8D37F484F2103F04DFF002301E005
:100AD000059B01330593059A049B9A42F8D3794804
:100AE0004F2103F040FF002301E0059B01330593F4
:100AF000059A049B9A42F8D37248422103F033FFCF
:100B0000002301E0059B01330593059A049B9A425B
:100B1000F8D36C48442103F026FF002301E0059B35
:100B200001330593059A049B9A42F8D365482D2119
:100B300003F019FF002301E0059B01330593059A9B
:100B4000049B9A42F8D35F48432103F00CFF002333
:100B500001E0059B01330593059A049B9A42F8D363
:100B60005848752103F0FFFE002301E0059B013387
:100B70000593059A049B9A42F8D35248702103F0DA
:100B8000F2FE002301E0059B01330593059A049BC7
:100B90009A42F8D34B48202103F0E5FE002301E000
:100BA000059B01330593059A049B9A42F8D3464C62
:100BB0004448617A03F0D7FE002301E0059B01332E
:100BC0000593059A049B9A42F8D33E48A17A03F014
:100BD000CAFE002301E0059B01330593059A049B9F
:100BE0009A42F8D33748217B03F0BDFE002301E091
:100BF000059B01330593059A049B9A42F8D331482B
:100C0000617B03F0B0FE002301E0059B01330593F7
:100C1000059A049B9A42F8D32A48E17B03F0A3FE8D
:100C2000002301E0059B01330593059A049B9A423A
:100C3000F8D32448217C03F096FE002301E0059BB5
:100C400001330593059A049B9A42F8D31D480D2160
:100C500003F089FE002301E0059B01330593059A0B
:100C6000049B9A42F8D3002301E0059B01330593CE
:100C7000059A164B9A42F8D9154B164D00241C6064
:100C80002C601048612103F06EFE059402E0059B84
:100C900001330593059A049B9A42F8D309487421BD
:100CA00003F061FE002301E0059B01330593059AE3
:100CB000049B9A42F8D303486E2103F054FE0023AC
:100CC0000CE000BF00380140000000201FA1070019
:100CD000DC4B0020D84B0020059B01330593059A7F
:100CE000049B9A42F8D314483F2103F03CFE0023B2
:100CF00001E0059B01330593059A049B9A42F8D3C2
:100D00000D480D2103F02FFE002301E0059B013368
:100D10000593059A049B9A42F8D3002301E0059BB2
:100D200001330593059A054B9A42F8D901232B60AC
:100D300006B0BDE8F08100BF003801401FA10700E8
:100D400008B54FF48071044802F00AFAD0F10100AE
:100D500038BF002008BD00BF0008014037B50120A2
:100D6000014602F0ADFD1D20012102F09DFD4FF076
:100D7000FF33ADF804305848002301A98DF807303F
:100D800002F097F9554801A902F093F9544801A9D6
:100D9000042502F08EF94FF48040012102F084FD19
:100DA00003244FF480734C480DEB0501ADF804307B
:100DB0008DF806408DF8075002F07BF918238DF866
:100DC000073045484FF400730DEB0501ADF80430D2
:100DD00002F06FF94FF480633F480DEB05018DF889
:100DE0000750ADF8043002F064F93B484FF48071CD
:100DF0008DF8064002F0B4F970B93A48012102F0CA
:100E0000E9F94FF48663ADF8043010238DF807300C
:100E100032480DEB050112E04FF480712E4802F0CC
:100E20009FF9012801460CD12E4802F0D3F9302356
:100E3000ADF80430294814238DF8073001A902F0D9
:100E400038F901214FF4EA1002F0C4F94FF480732D
:100E5000ADF804302148482301A98DF80730182443
:100E600002F027F94FF4007301A91C48ADF80430D3
:100E70008DF8074002F01DF9FFF762FF01280146D7
:100E80000CD1194802F0A6F94FF40063134801A9E8
:100E90008DF80740ADF8043002F00BF901214FF056
:100EA000007002F00DFD03238DF80630FFF748FFB8
:100EB00001280FD1102302A98DF8073048F2000352
:100EC00021F8043D064802F0F4F805484FF40041CB
:100ED00002F05AF93EBD00BF00080140000C01407D
:100EE00000100140000130000002180010B54FF45E
:100EF000004086B002F054FC01214FF4007002F073
:100F0000D3FC154801F0B8F9012400234FF4602206
:100F1000114801A901938DF808308DF8093003922A
:100F200004938DF8144001F0D5F90B48214601F0E7
:100F300000FA094801F01BFA074801F01DFA0028E1
:100F4000FAD1054801F01CFA034801F01EFA002806
:100F5000FAD106B010BD00BF0024014008B5FFF76C
:100F6000FDFEFFF7F3F9FFF7CAF902210320FFF7AF
:100F70000BF9FFF7BBFFFFF7CDF808BD13B5002154
:100F8000214802F00FFA204802F078F900214FF4CE
:100F9000001002F095FC4023ADF8043004230DEB63
:100FA00003011A488DF8073002F083F801A9802365
:100FB00016480024ADF8043002F07BF81023684690
:100FC0008DF800308DF801408DF802408DF8034017
:100FD00001F0FEF8112368468DF800308DF80140CD
:100FE0008DF8024001F0F4F82146094801F0AFFF06
:100FF0002146084801F0ABFF054801F0FBFE05481B
:1010000001F0F8FE1CBD00BF00540040000C014080
:101010006C000240800002402DE9F34108200121CC
:1010200002F042FC01214FF4001002F049FC402381
:10103000ADF8043003238DF8063001A919332A488E
:101040008DF80730802702F034F801A926480026E1
:1010500001244FF01008ADF8047002F02AF8684639
:101060008DF800808DF801608DF802608DF80340E6
:1010700001F0AEF8112368468DF800308DF801605C
:101080008DF8026001F0A4F82146204602F000FC31
:10109000164801F0AFFE164D164B29462B604FF651
:1010A000FF73EB6011484FF440536B626E60C5F8FC
:1010B00008802E616F61AE61EE612E62AE6201F05A
:1010C00019FF0D4801F096FE29460B4801F012FF6A
:1010D00002212246054801F046FF07480221224628
:1010E00001F041FFBDE8FC81000C01406C000240B2
:1010F000904B002010540040800002400B460749EE
:101100002AB9103248608A60CB60054804E0486024
:10111000002204488A60CB6001F0ECBE904B0020B6
:101120006C0002408000024008B5102005F014FE5B
:10113000044B186020B1002343600333C3600120D7
:1011400008BD00BF804C00207FB51A4B1B68DB68D0
:10115000053B032B036802D80293042301E00193AB
:1011600000238DF80C3000238DF80D30436801A961
:101170008DF80E30C36810481A788DF80F205A7811
:101180008DF810209A788DF81120DA788DF81220D9
:101190001A798DF813205A798DF814209A798DF8E0
:1011A0001520DB798DF8163001F097FB012007B090
:1011B00000BD00BF804C0020006400407047836881
:1011C00037B5032B054604D0042B39D0022B54D15C
:1011D00009E0C06810B10221FEF7D6FF2C4BEA6887
:1011E0001B68DA6029E0C268032A40D8DFE802F011
:1011F000020E1318264C02212368187BFEF7C4FF49
:101200002368EA680D205A60002114E0204C012177
:101210002368187B08E01E4C03212368187B03E039
:101220001B4C00212368187BFEF7AEFF2368EA6899
:101230000D205A60012103F0D0FD0820002113E0A9
:10124000C268012A13D80CBF1146022100240E20C7
:1012500003F0C3FD214642F21070EA682346009471
:1012600000F0A0FD082021460A460B460BE0094B82
:1012700008201B680321DB7805E0064B08201B686B
:1012800002219B78002203F0CDFD01203EBD00BF6E
:10129000804C00203C00002070470F2803D1034BF6
:1012A0000E38196070470020704700BFD00500203D
:1012B0007FB50021194801AA019102918DF80C1007
:1012C0008DF80E108DF817108DF80F108DF8101086
:1012D0008DF811108DF812108DF813108DF8141070
:1012E0008DF815108DF8161001F092FB019B0BB9CB
:1012F000029A82B19DF80C10094A01B1029B536019
:101300009DF80E30074893600023D3600DF10F0362
:1013100013611368984707B000BD00BF0064004028
:10132000D0050020D4050020FFF728BE30B585B0D9
:10133000FFF772FE0023ADF804304BF6FF73ADF8F3
:1013400006304FF48063ADF80A304FF48043ADF8B7
:101350000C300B4BA0250B48012104AC44F8103D88
:10136000ADF8085002F01EF80648694601F0A0FFEB
:101370000448012102F023F8034B1D8005B030BD65
:10138000E093040000540040E40500203F4B2DE9A9
:10139000F0411A6080463E4C3E480E46154603F02A
:1013A000EBFD4FF42043236004E023685A1E2260C3
:1013B00003B9FEE738484FF4003102F020F9002865
:1013C000F3D13548012102F014F84FF48053236023
:1013D00004E023685A1E226003B9FEE72E482F4915
:1013E00002F0F8F80028F4D02D4B4FF48057276016
:1013F00019882948C9B2002202F057F8294803F099
:10140000BBFD276004E023685A1E226003B9FEE793
:101410002148254902F0DEF80028F4D0234803F0E3
:10142000ABFD1D48310A02F03BF8214803F0A4FD52
:101430004FF48053236004E023685A1E226003B9EE
:10144000FEE715481B4902F0C5F80028F4D0124801
:10145000F1B202F025F84FF48053236004E02368D2
:101460005A1E226003B9FEE70B48124902F0B2F897
:101470000028F4D0297800224046FFF73FFE0E48AE
:10148000012101F064FD0020BDE8F081044C002042
:10149000240000208FAA000800540040010003002F
:1014A000E4050020A7AA000882000700CFAA0008D0
:1014B000EAAA0008840007006C00024013B500236C
:1014C0002C4CADF8063000934FF42043236004E029
:1014D00023685A1E226003B9FEE727484FF4003103
:1014E00002F08DF80028F3D12348012101F081FF9B
:1014F0004FF48053236004E023685A1E226003B92E
:10150000FEE71D481D4902F065F80028F4D01C4B89
:10151000194819880022C9B201F0C7FF4FF42043CF
:1015200023601548838A9BB2ADF8063023685A1EA3
:10153000226003B9FEE7BDF8063023F47E7323F082
:1015400005035B055B0D002BEBD0BDF8063013F0F7
:10155000020F05D00121038B01F058FF00201CBDB4
:10156000084902F066F8009B5A1C962B0092BBD1EA
:10157000FEE700BF240000200054004001000300EB
:10158000E4050020000400102DE9F74F4FEA52193E
:10159000934611F01F07D2B280460E465FFA89F9D2
:1015A000019202F01F0A834D834C61D1B9F1000F03
:1015B00025D1824885F800A003F0DEFC404603F008
:1015C000DBFC7F4803F0D8FC304603F04FFD7D483C
:1015D00003F0D2FC287803F049FD404631462A4604
:1015E000FFF7D4FE4FF42043236004E023685A1E23
:1015F000226003B9FEE72B78002BF7D1D2E020233D
:10160000404631466B4A2B70FFF7C0FE4FF4204333
:10161000236004E023685A1E226003B9FEE72B789A
:10162000644F002BF6D109F1FF3920365FFA89F9B2
:10163000FFF744FFB6B208F12008B9F1000FDED180
:10164000BAF1000F00F0B28087F800A040463146A2
:101650003A46FFF79BFE4FF42043236004E02368E3
:101660005A1E226003B9FEE72B78002BF7D199E0D0
:10167000C7F12007FFB2B9F1000F40D1BB452CD90B
:101680002A462F70FFF782FE4FF42043236004E0C8
:1016900023685A1E226003B9FEE72B78DFF8149105
:1016A000002BF5D1FFF70AFF019AB919D31BDBB262
:1016B00089F8003008EB070089B24A46FFF766FE5A
:1016C0004FF42043236004E023685A1E226003B9CC
:1016D000FEE72B78002BF7D164E02A4685F800A0BE
:1016E000FFF754FE4FF42043236004E023685A1EA2
:1016F000226003B9FEE72B78002BF7D152E02A468F
:101700002F70FFF743FE4FF42043236004E023686B
:101710005A1E226003B9FEE72B78002BF7D1C7EBE6
:101720000B0B1FFA8BFBBE194FEA5B195FFA89F9A5
:10173000FFF7C4FEB6B247441BE0202338463146CB
:101740001C4A2B70FFF722FE4FF42043236004E075
:1017500023685A1E226003B9FEE72B78002BF7D1CD
:10176000FFF7ACFE203609F1FF39B6B220375FFA39
:1017700089F9B9F1000FE0D11BF01F0B16D03846E4
:1017800031460C4A85F800B0FFF700FE4FF42043C5
:10179000236004E023685A1E226003B9FEE72B7819
:1017A000002BF7D103B0BDE8F04F87E603B0BDE8EA
:1017B000F08F00BF084C00202400002012AB00086E
:1017C0001CAB000828AB000810B54FF4001001F066
:1017D000D8FB10B31148002101F0B9FB104C4FF4B5
:1017E000801001F0DDFB4FF42043236004E0236808
:1017F0005A1E226003B9FEE70A480B4901F0FFFEBA
:101800000028F4D00748012101F000FE054B9A8A18
:101810001B8B064B00221B681A7010BD6C00024027
:10182000240000200054004004000010044C00205C
:1018300008B54FF0007001F0A4FB78B10848012111
:1018400001F0E4FD0748002101F081FB4FF08070BA
:1018500001F0A6FB044B00221B681A8008BD00BFE4
:1018600000540040800002400C4C0020FEE772B69D
:10187000704762B67047734B2DE9F041724C1A60A5
:101880004FF4204306460F461546236004E02368C4
:101890005A1E226003B9FEE76C484FF4003101F094
:1018A000AEFE0028F3D16948012101F0A2FD4FF4FA
:1018B0008053236004E023685A1E226003B9FEE7C8
:1018C0006248634901F086FE0028F4D0DFF8A08169
:1018D0005E48B8F800100022C9B201F0E6FD4FF4EE
:1018E0008053236004E023685A1E226003B9FEE798
:1018F0005648584901F06EFE0028F4D05348390A82
:1019000001F0CEFD4FF48053236004E023685A1E9B
:10191000226003B9FEE74D484F4901F05BFE002805
:10192000F4D04A48F9B201F0BBFD4FF48053236074
:1019300004E023685A1E226003B9FEE74348474982
:1019400001F05DFE0028F4D04048012101F051FD76
:101950004FF48053236004E023685A1E226003B9C9
:10196000FEE73A483A4901F035FE0028F4D0B8F8CD
:10197000001001223548C9B201F097FD2B88012BD8
:101980004FF4805341D8236004E023685A1E22603C
:1019900003B9FEE72D48324901F031FE0028F4D0AA
:1019A0002A48002101F03FFDFFF761FF2748012190
:1019B000038B01F02BFDFFF75CFF4FF48053236096
:1019C00004E023685A1E226003B9FEE71F48254938
:1019D00001F015FE0028F4D01C4801F063FD3070C2
:1019E0002B88013B2B804FF48053236004E0236855
:1019F0005A1E226003B9FEE71448038813F4007FDF
:101A0000F5D1012101F00FFD19E0236004E0236806
:101A10005A1E226003B9FEE70C48134901F0DAFDB3
:101A20000028F4D0298801223046FFF767FB0748D9
:101A3000012101F0D1FC0D48012101F088FA0020BC
:101A4000BDE8F0810C4C0020240000200054004030
:101A5000010003008200070084000700040000105A
:101A6000020000104000001002000300800002404D
:101A7000E4050020034B1A8812F0800FFAD09880FA
:101A8000704700BF0038014008B5054A054B0220E9
:101A90001A60012104F074FB034B1860012008BD9B
:101AA000713E0008180600201406002030B909E035
:101AB000054A118811F0800FFAD0938010F8013B8D
:101AC000002BF5D1704700BF003801400D282DE9EB
:101AD000F0476949694C40F0C8802368CA1812F879
:101AE000020C4F2840F0BD8012F8010C4B2840F04A
:101AF000B8806348012505600878612840F0B1800E
:101B00004878742840F0AD808878622831D1CB784D
:101B10003F2B40F0A6805B4B12F8105C12F8120CC1
:101B2000DD7012F80F5C18701D7112F80D5C12F860
:101B3000110C9D7112F80C5C5870DD7112F80A5C82
:101B40003A205D7212F8095C98709D7212F8085C78
:101B500058711872D8721D73987312F8075C12F8D6
:101B6000060C12F8052C5D731A740022D8735A748F
:101B700077E06C2807D1CB783F2B72D112F8052C77
:101B8000414B1A706DE06E286BD1C8783F2868D140
:101B900012F8130C4F283D4861D112F8125C4F2DFA
:101BA0005DD112F8115C422D59D112F8105C442D10
:101BB00055D112F80F5C2D2D51D112F80E5C432D2A
:101BC0004DD112F80D5C752D49D112F80C2C702AEC
:101BD00045D1CB1813F80B9CB9F1200F3FD1294AFE
:101BE00013F80A5C92F80980A84538D113F8095C0B
:101BF00092F80AC0AC4532D113F8085C177BAF42AB
:101C00002DD113F8075C567BAE4228D113F806ACF1
:101C1000D57B554523D113F8053C127C9A421ED141
:101C2000012303601A4B4F20187058700D389870BC
:101C30000230D870173818711630587132309871D8
:101C40009A7305380022D87183F8089083F80980C8
:101C500083F80AC0DF721E735D73DA7301E000233C
:101C6000036023680D22CA5401E02368C85401337D
:101C70002360BDE8F08700BFE84B0020DC4B00206C
:101C8000D84B0020000000208C4B0020E04B0020AF
:101C90001200002013B5019002AC03F07BF9074855
:101CA00003F06AF954F8040D03F0D5F9044803F081
:101CB00063F9204603F0CFF91CBD00BF35AB000827
:101CC00041AB000810B503F065F9044803F054F97E
:101CD000034B1868BDE8104003F0BDB94EAB0008D7
:101CE00000ED00E010B5064C01E0FFF7D3FF204601
:101CF00054F8043B002BF8D1BDE81040CAE700BF00
:101D000000F00FE013B5114840F2255102F0B0FE8B
:101D1000D0B10E4802F02BFE0D4BC0B21B688DF8FF
:101D2000070013B9FFF7D2FE0EE00A4B0A4C186801
:101D30000DF107010023224604F0C7FA012803D160
:101D400023680BB105F0CFF81CBD00BF003801407F
:101D5000D84B002014060020E80500200120704721
:101D60000020704710B5FFF7F9F8BDE81040FFF705
:101D7000DDBAFEF785BA024A024BDA60704700BF4F
:101D80000406FA0500ED00E008B5014628B14FF061
:101D90008040012102F002F908BD4FF0804002F0BE
:101DA000FDF808BD022870B50446164638D003DC9D
:101DB00048B1012869D11BE003285BD042F21073BF
:101DC000984262D146E0FEF7BBFF0128044608D1E5
:101DD0001EB12F484FF4806145E02D484FF48061DB
:101DE00029E016B12A4810212BE0294810212DE0C6
:101DF000FEF7A6FF012805460BD126B12448102185
:101E000001F0C0F903E02248102101F0BDF92C4691
:101E10003CE016B11E48102125E01D4810210AE0C3
:101E2000FEF78EFF0128044608D116B1184820217C
:101E300019E01748202101F0A7F927E026B114483E
:101E4000202101F09FF903E01148202101F09CF9C5
:101E500001241BE0FEF774FF0128044615D12EB1C2
:101E60000C484FF4004101F08DF90FE009484FF4A0
:101E70000041E0E7FEF764FF0128044605D1304643
:101E80004FF0FF31FFF780FF00E00024204670BDD7
:101E9000000C01400010014037B58168034602295B
:101EA0000BD001DC29B12FE0032927D063292BD1E6
:101EB00020E01A4902F0A4FF1EE0002400941A69F1
:101EC000C06821462346FFF76DFF0128054607D16C
:101ED000204621462246234602F0A4FF28461CE065
:101EE0000F4B20461B6803212246DB7802F09AFF45
:101EF000204612E0FFF73FFF01200EE0084B0020D4
:101F00001B680246DB7805E0054B00201B680221B8
:101F10009B78024602F086FF00203EBD91430008F8
:101F20003C000020014610B509480122002300F0C2
:101F300050FA0748012100F02CFA0548022100F070
:101F400043FB0028F9D00248BDE8104000F092BAE7
:101F50000024014010B54020012101F099FC00F05F
:101F60001DFF084B08490948C918094BC91A8908B7
:101F7000013100F01FFF00210446402001F088FCE1
:101F8000204610BD1C8C0000CC0500200024000859
:101F9000000000208B6810B5002B40F09180CB68CA
:101FA000092B00F28380DFE803F005212A40434734
:101FB0004A5B6264474802F0DFFF474802F0DCFFFB
:101FC000464802F0D9FF464802F0D6FF434802F0E7
:101FD000D3FFFEF7B5FE0028CCBF4248424802F0CE
:101FE000CBFF3E4802F0C8FF404800E0404802F006
:101FF000C3FF02F0CFFFBDE8104003F027B8082070
:10200000FFF790FF06F07AF82EA3D3E9002306F03D
:10201000DBF82EA3D3E9002306F0D6F806F0E6FAA3
:102020000A2102F0CDFF3348E1E7FFF74BFEE0E77E
:102030003148FFF72FFEDCE7FFF754FED9E72F48C2
:1020400002F09AFF0A214FF4884002F0B9FF2C48B1
:1020500002F092FF04F0F8FE0A2102F0B1FFC8E797
:10206000FFF778FF08B92748C1E72748BFE72748A7
:10207000BDE7274B1B78303B072B15D8DFE803F073
:102080000406080A0C0E10122248B0E72248AEE7F8
:102090002248ACE72248AAE72248A8E72248A6E758
:1020A0002248A4E72248A2E72248A0E7224B0020CA
:1020B0001B68024699780B46BDE8104002F08CBFC1
:1020C00010BD00BF333333333333493F00000000CA
:1020D0000088C34059AB00085FAB00083FAF000861
:1020E00062AB000866AB00086FAB000873AB00087A
:1020F0000000002093AB00080024000897AB000804
:10210000AEAB0008C4AB0008E5AB0008120000202D
:102110008C4B002005AC000810AC00081BAC00087C
:1021200027AC000833AC00083FAC00084CAC0008FA
:1021300059AC000866AC00083C000020704700BFA6
:10214000AFF300807047FEE7FEE7FEE7FEE770476B
:1021500008B504F0EDFF162303604FF0FF3008BD13
:1021600000207047184670470020704708B50A4B9A
:102170001A680AB9094A1A6018686B4641189942E8
:1021800006D904F0D5FF0C2303604FF0FF3008BDE3
:10219000014B196008BD00BFEC050020844C0020F5
:1021A00010B51046144600213C2205F03DFB4FF4CB
:1021B00000536360002010BD0120704740F0BE60F6
:1021C000024B40F42020D860704700BF00ED00E0D3
:1021D000C37810B5EBB1154B4178DB688478DB43ED
:1021E00003F4E0631B0AC3F1040291400F22DA40BA
:1021F00022400A430E4B01781201CB18D2B283F869
:10220000002303780122590903F01F0312FA03F394
:1022100007E003780122590903F01F0312FA03F3C0
:102220002031034A42F8213010BD00BF00ED00E02C
:1022300000E100E021F0604121F07F01014B01430A
:102240009960704700ED00E0044B11B11A6910432A
:1022500002E01A6922EA00001861704700ED00E010
:10226000044B04281A680CBF42F0040222F0040256
:102270001A60704710E000E0134B10B5984207D188
:102280004FF40070012101F027FB4FF4007014E0BF
:102290000E4B984207D14FF48060012101F01CFBE6
:1022A0004FF4806009E00A4B98420BD14FF4004094
:1022B000012101F011FB4FF400400021BDE8104066
:1022C00001F00ABB10BD00BF0024014000280140FE
:1022D000003C014043680A6823F4702323F48073B0
:1022E00013430A7910B543EA022343608A68CB6836
:1022F00084681A43094B04EA030342EA03034A7958
:1023000043EA420383600B7CC26A013B22F4700201
:10231000DBB242EA0353C36210BD00BFFDF7F1FF19
:1023200000230360037143718360C360013303744E
:10233000704719B1836843F0010302E0836823F01A
:1023400001038360704719B1836843F4807302E02E
:10235000836823F4807383607047C9B212B1436805
:10236000194302E0436823EA010141607047836832
:1023700043F00803836070478068C0F3C000704773
:10238000836843F00403836070478068C0F3800073
:10239000704719B1836843F4A00302E0836823F413
:1023A000A003836070478068C0F380507047436823
:1023B000013923F4604343EA41334360704719B164
:1023C000436843F4006302E0436823F4006343601E
:1023D0007047092970B54FEA41040BD964181E3CB7
:1023E0000725A540A340C66826EA050545EA03047B
:1023F000C4600AE064180725A54013FA04F40669CE
:1024000026EA050545EA04030361062A0CD8013AC9
:1024100002EB82021F2393409140446B24EA0303A2
:1024200043EA0102426370BD0C2A4FEA82030BD8D3
:102430009A18233A1F2393409140046B24EA030324
:1024400043EA0102026370BD9A18413A1F23934088
:102450009140C46A24EA030343EA0102C26270BDE8
:1024600019B1836843F4801302E0836823F4801376
:1024700083607047C06C80B27047014B186870472A
:102480004C24014019B1436843F4806302E043687F
:1024900023F480634360704719B1436843F4805369
:1024A00002E0436823F4805343607047836823F459
:1024B000E04341EA03038360704719B1836843F442
:1024C000004302E0836823F400438360704719B13E
:1024D000836843F4021302E0836823F402138360E9
:1024E00070478068C0F340507047092970B54FEAC3
:1024F00041040BD964181E3C0725A540A340C668BB
:1025000026EA050545EA0304C4600AE064180725C5
:10251000A54013FA04F4066926EA050545EA040312
:102520000361836B03F440146FEA145412190332ED
:10253000D2B202EB82021F249440914023EA0403AA
:102540000B43836370BD836B013923F4401343EA6B
:1025500001538363704782B0002301930190019B74
:10256000CB180193019B1A6002B0704782B0002320
:1025700001930190019B28335B180193019B18681C
:1025800080B202B07047436823F4400323F4007321
:1025900041EA0303436070474162826270474368C7
:1025A00023F01F0341EA030343607047054B18B152
:1025B0009A6842F4000202E09A6822F400029A60EB
:1025C000704700BF00240140036819420CBF00207F
:1025D00001207047C943016070474368006810EAF2
:1025E000112004D0C9B219420CBF0020012070474D
:1025F0006FEA11210160704701420CBF00200120E9
:1026000070470C4B10B5984207D14FF00070012174
:1026100001F06EF94FF0007006E04FF0806001218C
:1026200001F066F94FF080600021BDE8104001F034
:102630005FB900BF00640040036823F00203036039
:10264000036843F001030360002300E001334268A4
:1026500012F0010F03D14FF6FF729342F6D1436897
:1026600013F0010359D08B79012B03680CBF43F0A1
:10267000800323F080030360CB79012B03680CBF38
:1026800043F0400323F0400303600B7A012B0368FF
:102690000CBF43F0200323F0200303604B7A012B8F
:1026A00003680CBF43F0100323F0100303608B7A20
:1026B000012B03680CBF43F0080323F008030360F9
:1026C000CB7A012B03680CBF43F0040323F004030F
:1026D00003608B78CA789B0743EA02630A7943EA6E
:1026E00002434A7943EA02530A88013A1343C36119
:1026F000036823F001030360002300E00133426814
:1027000012F0010F03D04FF6FF729342F6D14068EA
:1027100000F0010080F00100704718467047837A8E
:1027200001229A4070B5384BD3F8001241F00101F4
:10273000C3F80012D3F81C42D14301EA0404C3F8E1
:102740001C42047BB4B9D3F80C42C68801EA0404E5
:10275000C3F80C42847A4588483445EA064543F874
:10276000345003888488857A43EA0444274BED007B
:10277000EB185C60037B012B17D1234B0688D3F841
:102780000C42458842EA0404C3F80C42847A45EAC4
:102790000645483443F83450C3888488857A43EA30
:1027A00004441A4BED00EB185C60C47A164B24B954
:1027B000D3F8044201EA040403E0D3F8044242EAF5
:1027C0000404C3F8044204890F4B1CB9D3F8144223
:1027D000214005E0012C05D1D3F8141242EA010191
:1027E000C3F81412437B012B05D1074BD3F81C12FD
:1027F0000A43C3F81C22044BD3F8002222F0010242
:10280000C3F8002270BD00BF006400404066004075
:1028100000238371C371037243728372C372837026
:10282000C37003330371013B43710123038070477D
:102830000D4BD3F8002242F00102C3F80022D3F876
:10284000002222F47C5222F00E02C3F80022D3F8B8
:10285000002242EA0022C3F80022D3F8002222F02C
:102860000102C3F8002270470064004019B10368F8
:1028700043F4803302E0036823F48033036070473D
:10288000A1B1036843F080030360D0F8843143F4BE
:102890008073C0F88431D0F8943143F48073C0F869
:1028A0009431D0F8A43143F4807313E0036823F02B
:1028B00080030360D0F8843123F48073C0F884313E
:1028C000D0F8943123F48073C0F89431D0F8A43157
:1028D00023F48073C0F8A431704770B58268034652
:1028E00012F0806F09D1826812F0006F07D1826800
:1028F00012F0805F4BD0022002E0002000E00120B7
:1029000000F1180212019C5804F001049C500C7A4A
:102910002CB90E684C7A9D5844EA465405E04E683E
:102920009D5844EAC6042C434D7A2C439C508A7A25
:1029300000F11804240102F00F028A721A19556876
:1029400025F00F05556055688E7A46EA05055560F5
:102950004D7B8A7B2D0445EA0265CA7A15430A7BC2
:1029600045EA022503EB0012C2F888514D7C8E7CAB
:102970002D0445EA0665CE7B097C354345EA0121F5
:10298000C2F88C111A5942F001021A5170BD04208C
:1029900070BD012906D002D302290BD105E082685F
:1029A0000E4B04E082680E4B01E082680D4B02EA98
:1029B000030300E00023094A93420BD001D83BB146
:1029C0000AE0074A934205D0064A934204D101E047
:1029D0000220704701207047002070470300000468
:1029E0000003000800000310012907D002D30229C8
:1029F0000DD108E0836843F0800302E0836843F46C
:102A0000004383607047836843F40003836070472A
:102A100030B501F11B042301C55805F00405EDB2E2
:102A200015721DB9C3585B0D136002E0C358DB0873
:102A3000536024010319045904F0020454725C68C1
:102A400004F00F0494725B681B0AD37400EB01134B
:102A5000D3F8B841D472D3F8B841240A1473D3F828
:102A6000B841240C5473D3F8B841240E9473D3F8AE
:102A7000BC41D473D3F8BC41240A1474D3F8BC41CC
:102A8000240C5474D3F8BC311B0E937421B9C36861
:102A900043F02003C36030BD036943F020030361AA
:102AA00030BD21B9C36843F02003C3607047036998
:102AB00043F020030361704709B9C06802E00129AF
:102AC00003D1006900F00300704700207047A9B9E6
:102AD000036823F0030343F0010303604FF6FF7321
:102AE00000E0013B426802F00302012A01D0002B02
:102AF000F7D1406800F0030001282EE0012915D12C
:102B0000036823F0030303604FF6FF7300E0013B0B
:102B1000426812F0030F01D0002BF8D1406800F09A
:102B20000300D0F1010038BF00207047022918D1FE
:102B3000036823F0030343F0020303604FF6FF73BF
:102B400000E0013B426802F00302022A01D0002BA0
:102B5000F7D1406800F00300022814BF00200120D4
:102B6000704700207047036823F0030343F002031B
:102B70000360406800F00300A0F10203584240EBFC
:102B800003007047036823F0020303604FF6FF73EE
:102B900000E0013B426812F0020F01D0002BF8D197
:102BA000406800F00200D0F1010038BF00207047FB
:102BB000806900F0700070478069000E704780697E
:102BC00000F47F00000C704712B14369194302E022
:102BD000436923EA01014161704711F4700F01D08C
:102BE00083690DE011F0807F01D0436808E011F0A7
:102BF000006F01D0836803E011F0007F09D0C36843
:102C000023F07F4323F470030B420CBF002001200C
:102C10007047036923F07F4323F470030B420CBF1A
:102C20000020012070470D4B994202D1002383619F
:102C3000704721F07F4311F0007F23F4700301D02F
:102C4000C360704711F0806F01D00361704711F0CD
:102C5000006F14BF83604360704700BF7000F030A6
:102C600043690B404DD0402935D00ED8042929D0D6
:102C700004D8012921D0022945D121E0102925D0ED
:102C8000202926D008293ED11EE0B1F5006F32D0B0
:102C900009D8B1F5007F29D0B1F5806F29D0B1F501
:102CA000807F30D11FE0B1F5803F16D0B1F5003FF5
:102CB00016D0B1F5004F26D120E0806813491FE0FF
:102CC000C06804E0C06809E0C0680AE00069032148
:102CD00016E0006902E0006903E0406808210FE0A7
:102CE000406810210CE08069012109E0806902211F
:102CF00006E0806903E08069702101E040680421FA
:102D00007AE4184670470020704700BF01010100B7
:102D1000B1F5807F33D00CD8082924D004D80129FC
:102D20001CD0042936D11CE020291FD0402931D1E4
:102D30001EE0B1F5006F24D006D8B1F5007F1ED09B
:102D4000B1F5806F26D11AE0B1F5803F13D0B1F50F
:102D5000003F12D0B1F5004F1CD117E00E4B83603D
:102D60007047082300E01023C3607047082300E089
:102D7000102303617047082306E0102304E00423B6
:102D800002E00023836104334360704700238361C2
:102D900004334360704700BF01010100014B012271
:102DA0009A60704700300240014B18601868704705
:102DB0000030024010B5002303E050F8044B01330B
:102DC00014608B42014AF8D3106810BD00300240F5
:102DD000014B1868704700BF00300240014B18716A
:102DE000704700BF00300240014B1879704700BFA8
:102DF0000030024002684FF6FE7302EA03030360EC
:102E00000023036043608360C3602E4B984229D047
:102E10002D4B984230D02D4B984237D02C4B9842B6
:102E20003ED02C4B984206D153F8542C42F47022D9
:102E300043F8542C7047284B984206D153F8682C1D
:102E400042F4700243F8682C7047244B984206D134
:102E500053F87C2C42F0706243F87C2C7047204B76
:102E6000984206D153F8042C42F00F0243F8042C88
:102E700070471C4B984206D153F8182C42F0F002D0
:102E800043F8182C7047184B984206D153F82C2C55
:102E900042F4706243F82C2C7047144B984206D1D0
:102EA00053F8402C42F4704243F8402C7047104BCA
:102EB000984205D153F8542C42F4702243F8542C14
:102EC000704700BF080002401C0002403000024072
:102ED00044000240580002406C0002408000024062
:102EE000080402401C040240300402404404024032
:102EF000580402408A6810B50C6A036844EA02026A
:102F00000C6923F4FE4322434C6923F0F00322436F
:102F10008C692243CC6922434C6A22438C6A224347
:102F200042EA03030360CB6843600B6883604B682D
:102F3000C36010BD0023036043608360C36003610E
:102F400043618361C361036243628362704719B165
:102F5000036843F0010304E002684FF6FE7302EADF
:102F600003030360704712B10368194302E003686A
:102F700023EA01010160704741607047406880B2F8
:102F8000704710F0805F14BF034B044B1B68034273
:102F90000CBF0020012070470004024000000240E6
:102FA00010F0805F14BF024B024B5860704700BFA7
:102FB000000402400000024010F0805F14BF044B88
:102FC000044B1B6803420CBF00200120704700BF68
:102FD000000402400000024010F0805F14BF024B6A
:102FE000024B5860704700BF0004024000000240DE
:102FF000234B10B5984205D10420012100F06CFC50
:10300000042036E01F4B984205D10820012100F032
:1030100063FC08202DE01C4B984205D110200121B3
:1030200000F05AFC102024E0184B984205D12020D3
:10303000012100F051FC20201BE0154B984205D1E6
:103040004020012100F048FC402012E0114B984242
:1030500005D18020012100F03FFC802009E00E4BCB
:1030600098420BD14FF48070012100F035FC4FF4F1
:1030700080700021BDE8104000F02EBC10BD00BFE4
:1030800000080140000C0140001001400014014004
:1030900000180140001C01400020014001200146B1
:1030A00010B500F019FC01200021BDE8104000F02F
:1030B00013BCCB78F0B513F0100F03F00F020E889D
:1030C0001CBF8B781A4316F0FF0F1DD00468002335
:1030D00001279F4007EA0605BD4211D19F004FF02E
:1030E0000F0C0CFA07FC12FA07F724EA0C043C4315
:1030F000CF78282F01D1456102E0482F08BF056134
:103100000133082BE4D104600E88FF2E1FD94468D8
:10311000002303F108050127AF4007EA0605BD4279
:1031200011D19F004FF00F0C0CFA07FC12FA07F7B1
:1031300024EA0C043C43CF78282F01D1456102E0FA
:10314000482F08BF05610133082BE2D14460F0BD70
:103150004FF0FF33038002238370DB18C370704786
:10316000836819420CBF002001207047806880B23C
:103170007047C36819420CBF002001207047C06827
:1031800080B2704701617047416170470AB10161C7
:10319000704741617047C160704741F4803383617B
:1031A0008161836183698369704710B5054A4FF671
:1031B0008073146841EA001104EA030341EA03033F
:1031C000136010BD00000140014B1860704700BF44
:1031D0001C00204230B50028174B00F44014B4BF47
:1031E000DB695B68B4F5401F82B207D1124C23F053
:1031F0007063656825F07065656011E010F4801FEC
:1032000006D000F47024240C032515FA04F403E01E
:10321000440D240112FA04F423EA040343F070631A
:1032200019B1410D09018A401343034A0028B4BF74
:10323000D361536030BD00BF0000014001F00302C4
:1032400030B592000F24944010FA02F2074B89081F
:10325000023153F8215025EA040443F8214053F881
:10326000214042EA040443F8214030BD00000140FF
:10327000014B1860704700BFDC0020420B4B10B5BB
:10328000984207D14FF40010012100F031FB4FF4B8
:10329000001006E04FF48000012100F029FB4FF4FC
:1032A00080000021BDE8104000F022BB0054004027
:1032B000F0B587B00446868801A80D46304F00F06F
:1032C0009DFA039826F03F063604B0FBF7F7360C5C
:1032D000BFB247EA0606A68021882A6821F00101CC
:1032E000284B0904090C9A4221800AD85300B0FBEC
:1032F000F3F301379BB2BFB22784032B98BF04239B
:1033000022E0E9884BF6FF73994205D102EB4202B5
:10331000B0FBF2F39BB206E019235343B0FBF3F387
:103320009BB243F480431A05120D0AB943F001031E
:103330004FF4967257434FF47A7297FBF2F70137C6
:10334000BFB243F400432784A383238869899BB2D7
:1033500043F0010323802388AA8823F4806323F0A9
:103360000A031B0441EA02021B0C13439BB2238095
:103370002A89AB8942EA03039BB2238107B0F0BDDF
:1033800040420F00A086010041F288330360002311
:1033900083804BF6FF72038143814FF48043C280E8
:1033A0008381704721B103889BB243F0010304E09D
:1033B000038823F001031B041B0C0380704721B119
:1033C00083889BB243F4006304E0838823F40063A2
:1033D0001B041B0C8380704721B183889BB243F48C
:1033E000805304E0838823F480531B041B0C8380E8
:1033F000704721B103889BB243F4807304E00388D3
:1034000023F480731B041B0C0380704721B10388D5
:103410009BB243F4007304E0038823F400731B049D
:103420001B0C0380704721B103889BB243F4806377
:1034300004E0038823F480631B041B0C03807047A3
:10344000838901F0FE0123F0FE031B041B0C41EAFB
:1034500003038381704721B183899BB243F0010349
:1034600004E0838923F001031B041B0C8381704754
:1034700021B103889BB243F0400304E0038823F0AA
:1034800040031B041B0C038070471AB183889BB256
:10349000194303E083889BB223EA010181807047CE
:1034A00001827047008AC0B2704712B141F0010139
:1034B00001E001F0FE010182704782B00023019318
:1034C0000190019BCB180193019B188880B202B038
:1034D000704731B103886FEA43436FEA53439BB2AD
:1034E00002E003885B045B0C03807047B1F5006F5A
:1034F00004D103889BB243F4006304E0038823F4FF
:1035000000631B041B0C03807047B1F5005F04D1FE
:1035100003889BB243F4005304E0038823F4005370
:103520001B041B0C0380704721B103889BB243F43A
:10353000805304E0038823F480531B041B0C038096
:103540007047B1F5006F04D103889BB243F4006368
:1035500004E0038823F400631B041B0C0380704702
:1035600021B103889BB243F0200304E0038823F0D9
:1035700020031B041B0C03807047008B80B2000AE1
:10358000704721B103889BB243F0100304E0038825
:1035900023F010031B041B0C0380704721B9038820
:1035A0009BB243F0800304E0038823F080031B04F4
:1035B0001B0C03807047B1F5804F05D0838B23F43B
:1035C00080431B041B0C03E0838B9BB243F48043BA
:1035D00083837047838A008B9BB243EA0040084094
:1035E00020F07F40431A584240EB03007047838A23
:1035F000008B9BB243EA004020F07F40704782B0CE
:103600000023019300930B0F00900193019B21F085
:103610007F4113B1009B143302E0009B090C183367
:103620000093009B1B6819420CBF0020012002B0D0
:103630007047C94389B2818270478388808A9BB270
:1036400080B2084006D001F0E06113EA11410CBFDE
:10365000002001207047C94389B28182704700BFB2
:103660000D4B1A6842F001021A6059680B4A01EAD0
:1036700002025A601A6822F0847222F480321A60C0
:103680001A6822F480221A605A6822F4FE025A60F4
:103690004FF41F029A607047001002400000FFF8CC
:1036A0000C4BB0F5803F1A6822F480321A601A6819
:1036B00022F480221A6003D0B0F5802F09D104E0F3
:1036C0001A6842F480321A6070471A6842F4A022E5
:1036D0001A60704700100240034B1A6822F0F8028B
:1036E00042EAC0021A60704700100240014B1860A5
:1036F000704700BF00004242044B5A6822F47C121B
:1037000040EA02020A435A60704700BF00100240BC
:10371000014B1860704700BF60004242034B5A687B
:1037200022F0030240EA02025A6070470010024091
:10373000024B586800F00C00704700BF00100240B8
:10374000034B5A6822F0F00240EA02025A607047C6
:1037500000100240034B5A6822F4E06240EA020281
:103760005A60704700100240034B5A6822F46052BE
:1037700042EAC0025A60704700100240044B11B187
:103780001A78104302E01A7822EA00001870704795
:1037900009100240014B1860704700BFD800424238
:1037A000034B5A6822F4404240EA02025A607047D2
:1037B00000100240064B002201281A701A7002D035
:1037C000042804D101E01870704705221A70704770
:1037D00020100240014B1860704700BF8004424235
:1037E000024B1A6A40EA02021A6270470010024055
:1037F000014B1860704700BF3C04424210B5204B9B
:103800005A6802F00C02042A01D0082A02D01D4B8B
:10381000036011E05A68596802F47012920C023287
:1038200011F4803F03D05B6813F4003F01D0164BC6
:1038300000E0144B5A430260114A144B516804686B
:1038400001F0F0010909595C34FA01F14160546852
:1038500004F4E064240A1C5D31FA04F484605468C2
:1038600004F46054E40A1C5DE140C160526802F453
:10387000404203EB92331B7CB1FBF3F1016110BDBD
:103880000010024000127A0000093D0028000020CC
:10389000044B11B15A69104302E05A6922EA000050
:1038A0005861704700100240044B11B19A691043EF
:1038B00002E09A6922EA0000986170470010024015
:1038C000044B11B1DA69104302E0DA6922EA000020
:1038D000D861704700100240044B11B1DA68104300
:1038E00002E0DA6822EA0000D86070470010024067
:1038F000044B11B11A69104302E01A6922EA000070
:103900001861704700100240014B1860704700BFFB
:1039100040044242014B1860704700BF4C004242D5
:10392000014B1870704700BF071002404309012B7C
:10393000074A01D1136803E0022B0CBF136A536AD4
:1039400000F01F0033FA00F000F00100704700BFE4
:103950000010024007B5002301933120FFF7E6FF76
:10396000019B01330193019BB3F5A06F01D00028A7
:10397000F3D03120FFF7DAFF003818BF01200EBD69
:10398000024B5A6A42F080725A627047001002403D
:10399000034B9B6818420CBF00200120704700BFFA
:1039A00000100240014B1870704700BF0A1002401F
:1039B00030B5048C24F001042404240C0484048B0A
:1039C000058C24F0F3042404240C42EA040444EAA1
:1039D0000314104BADB29842A4B20ED00E4B9842D5
:1039E0000BD0B0F1804F08D00C4B984205D00C4B57
:1039F000984202D00B4B984202D125F0020501E01B
:103A000025F00A0545F0010545EA0101048301841A
:103A100030BD00BF002C01400034014000040040D4
:103A200000080040000C004030B5048C24F0100465
:103A30002404240C0484048B058C24F44074240591
:103A4000240D44EA022444EA0334124BADB29842F6
:103A5000A4B20ED0104B98420BD0B0F1804F08D0DA
:103A60000E4B984205D00E4B984202D00D4B984217
:103A700007D125F0200545F0100545EA011189B26E
:103A800005E025F0A00545F0100545EA0101048395
:103A9000018430BD002C014000340140000400408E
:103AA00000080040000C00405A4B10B5984207D166
:103AB0004FF400600121FFF70FFF4FF40060A2E018
:103AC000B0F1804F05D101200146FFF711FF012021
:103AD00007E0514B984209D102200121FFF708FF6E
:103AE00002200021BDE81040FFF702BF4B4B984277
:103AF00005D104200121FFF7FBFE0420F1E7484B2C
:103B0000984205D108200121FFF7F2FE0820E8E7DE
:103B1000444B984205D110200121FFF7E9FE102007
:103B2000DFE7414B984205D120200121FFF7E0FE5D
:103B30002020D6E73D4B984207D14FF40050012199
:103B4000FFF7CAFE4FF400505DE0394B984207D1B1
:103B50004FF400200121FFF7BFFE4FF4002052E098
:103B6000344B984207D14FF480100121FFF7B4FE87
:103B70004FF4801047E0304B984207D14FF40010CB
:103B80000121FFF7A9FE4FF400103CE02B4B9842B7
:103B900005D140200121FFF7ABFE4020A1E7284BD3
:103BA000984205D180200121FFF7A2FE802098E7EE
:103BB000244B984207D14FF480700121FFF798FE03
:103BC0004FF480708DE7204B984207D14FF480303E
:103BD0000121FFF781FE4FF4803014E01B4B984227
:103BE00007D14FF400300121FFF776FE4FF400308B
:103BF00009E0174B98420BD14FF480200121FFF7C9
:103C00006BFE4FF480200021BDE81040FFF764BE3A
:103C100010BD00BF002C014000040040000800401F
:103C2000000C00400010004000140040003401402F
:103C3000004C014000500140005401400018004079
:103C4000001C0040002000400040014000440140B2
:103C500000480140204A038890429BB20ED01F4A80
:103C600090420BD0B0F1804F08D01D4A904205D051
:103C70001C4A904202D01C4A904206D14FF68F72E5
:103C800003EA02024B8842EA0303184A904209D031
:103C9000174A904206D04FF6FF4203EA0202CB8851
:103CA00042EA030303808B8883850B8803850A4BD4
:103CB00098420BD0094B984208D00E4B984205D041
:103CC0000D4B984202D00D4B984201D10B7A0386DE
:103CD00001238382704700BF002C01400034014063
:103CE0000004004000080040000C004000100040AC
:103CF00000140040004001400044014000480140E1
:103D0000038C70B523F001031B041B0C0384038C8C
:103D10008488028B0D8822F073021204120C2A434D
:103D20004E880D8923F002031B0446EA05051B0C8F
:103D3000ADB245EA0303164DA4B2A8420BD0154D0F
:103D4000A84208D0144DA84205D0144DA84202D074
:103D5000134DA84215D14FF6F77503EA05054B89B7
:103D6000CE891D434FF6FB7305EA03038D882B4371
:103D70004FF6FF4504EA05058C8946EA0404A4B21F
:103D80002C4384800283CA888286038470BD00BF6E
:103D9000002C01400034014000400140004401403B
:103DA00000480140038C30B523F010031B041B0CAA
:103DB0000384038C8288048B0D8824F4E644240455
:103DC000240C23F0200344EA05241B040D891B0C5A
:103DD00043EA05134D8892B243EA0513134DA4B28A
:103DE000A8429BB202D0124DA84219D14FF67F755E
:103DF00003EA05054B8945EA03154FF6BF7305EA4B
:103E000003038D8843EA05134FF2FF3502EA0505E7
:103E10008A899BB245EA8205CA8945EA820292B242
:103E20008280CA8804830287038430BD002C01404D
:103E300000340140038C30B523F480731B041B0C49
:103E40000384038C8288848B0D8824F073042404FB
:103E5000240C23F400731B042C430D891B0C43EA30
:103E600005234D8892B243EA0523134D9BB2A84225
:103E700002D0124DA84219D14FF2FF7503EA050591
:103E80004B8945EA03254FF6FF3305EA03038D8886
:103E900043EA05234CF6FF7502EA05058A899BB2C1
:103EA00045EA0215CA8945EA021292B28280CA889E
:103EB00084838287038430BD002C0140003401409C
:103EC000038C30B523F480531B041B0C0384038C38
:103ED0008488828B0D8822F4E6421204120C23F4AB
:103EE000005342EA05221B040D891B0C43EA0533EB
:103EF0004D88A4B243EA05330B4D92B2A8429BB25F
:103F000002D00A4DA84207D14BF6FF7504EA050519
:103F10008C8945EA8414A4B284808283CA88A0F87C
:103F20004020038430BD00BF002C0140003401401C
:103F30004A880B8842EA03038A881343CA881343DA
:103F40000A8913434A8913438A8913439BB2A0F811
:103F5000443070474FF0FF33838000230380C380D9
:103F60004380037270470023038043808380C380B3
:103F7000038143818381C381704700230122038031
:103F800043808280C3800381704700230380438085
:103F90008380C380038143818381704721B103887B
:103FA0009BB243F0010304E0038823F001031B04E8
:103FB0001B0C0380704739B1B0F844306FEA4343BB
:103FC0006FEA53439BB203E0B0F844305B045B0CF0
:103FD000A0F8443070471AB183899BB2194303E0BB
:103FE00083899BB223EA01018181704781827047F6
:103FF0000A43A0F8482070471AB183899BB219433D
:1040000003E083899BB223EA010181817047038920
:1040100023F007031B041B0C0381704710B50489B0
:10402000E4B241EA040442EA040444EA0324A4B2E8
:10403000048110BD10B50446FFF7F0FF23899BB241
:1040400043F48043238110BD10B50446FFF7E6FF1B
:10405000238923F077031B041B0C43F07703238190
:1040600010BD018582827047038823F070031B0412
:104070001B0C41EA030303807047038923F070039C
:104080001B041B0C41EA03030381704738B50D463E
:10409000602D0446114603D10122FFF7C5FC02E062
:1040A0000122FFF785FC20462946FFF7E6FF23891A
:1040B0009BB243F00703238138BD10B50446FFF7D8
:1040C000DCFF23899BB243F00703238110BD70B549
:1040D0000489068B058C26F4407625F0220526F00F
:1040E00003062D0424F0070436042D0C2404360C9A
:1040F00042EA0505240C46F4807645EA031521437F
:1041000046F00106ADB201810683058470BD038BC4
:1041100023F070031B041B0C41EA03030383704765
:10412000038B23F4E0431B041B0C43EA01239BB2E3
:1041300003837047838B23F070031B041B0C41EA3D
:10414000030383837047838B23F4E0431B041B0C1E
:1041500043EA01239BB28383704721B103889BB25A
:1041600043F0800304E0038823F080031B041B0C4E
:104170000380704721B183889BB243F0040304E0BD
:10418000838823F004031B041B0C8380704721B138
:1041900083889BB243F0080304E0838823F008037C
:1041A0001B041B0C8380704721B183889BB243F0B2
:1041B000010304E0838823F001031B041B0C8380AC
:1041C0007047038B23F008031B041B0C41EA030315
:1041D00003837047038B23F400631B041B0C43EA27
:1041E00001239BB203837047838B23F008031B04D6
:1041F0001B0C41EA030383837047838B23F4006322
:104200001B041B0C43EA01239BB283837047038B7F
:1042100023F004031B041B0C41EA030303837047D0
:10422000038B23F480631B041B0C43EA01239BB222
:1042300003837047838B23F004031B041B0C41EAA8
:10424000030383837047838B23F480631B041B0C5D
:1042500043EA01239BB283837047038B23F08003DF
:104260001B041B0C41EA030303837047038B5B04AD
:104270005B0C43EA01239BB203837047838B23F0DB
:1042800080031B041B0C41EA030383837047838B69
:104290005B045B0C43EA01239BB283837047038C6E
:1042A00023F002031B041B0C41EA03030384704741
:1042B000038C23F008031B041B0C41EA0303038453
:1042C0007047038C23F020031B041B0C43EA0113EB
:1042D0009BB203847047038C23F080031B041B0CE8
:1042E00043EA01139BB203847047038C23F40073E9
:1042F0001B041B0C43EA01239BB203847047038C0D
:1043000023F400631B041B0C43EA01239BB20384C8
:104310007047038C23F400531B041B0C43EA013346
:104320009BB20384704701238B4012FA01F110B550
:10433000048CA4B224EA03030384038C41EA03033C
:104340009BB2038410BD04238B4012FA01F110B517
:10435000048CA4B224EA03030384038C41EA03031C
:104360009BB2038410BD30B501248C40058C00F154
:104370001803ADB225EA0404048409B1082906D162
:104380004908C85820F07000C850C85809E00439DE
:1043900089B24908C858120220F4E040C850C858F1
:1043A00092B240EA0202CA5030BD21B103889BB2EA
:1043B00043F0020304E0038823F002031B041B0CF8
:1043C0000380704721B103889BB243F0040304E0EB
:1043D000038823F004031B041B0C0380704721B1E6
:1043E00083889BB243F0800304E0838823F080033A
:1043F0001B041B0C83807047038823F008031B04F5
:104400001B0C038003889BB241EA030303807047BF
:10441000838823F070031B041B0C838083889BB26A
:1044200041EA030383807047038923F007031B04D9
:104430001B0C038103899BB241EA0303038170478C
:10444000038923F080031B041B0C038103899BB2A7
:1044500041EA030303817047818470478185704777
:10446000818670470187704781877047A0F84010A8
:104470007047038B23F00C031B041B0C0383038B7B
:104480009BB241EA030303837047038B23F4406329
:104490001B041B0C0383038B9BB243EA01239BB2D7
:1044A000038370472DE9F0410C46A2884988B4F88F
:1044B00000E0054600290CBF02270027012A14BF8F
:1044C000012602262389BEF1000F10D1FFF770FAF2
:1044D0002846E188FFF7CDFF284639463246238932
:1044E000FFF7A2FAE1882846BDE8F041CDE7FFF7E3
:1044F0009BFA2846E188FFF7C8FF2846394632462E
:104500002389FFF755FAE1882846BDE8F041B0E776
:10451000838B23F00C031B041B0C8383838B9BB2C4
:1045200041EA030383837047838B23F440631B04B6
:104530001B0C8383838B9BB243EA01239BB283834F
:1045400070470B882DE9F0410D4604464988AA883A
:104550003BB92B89FFF72CFAE9882046BDE8F041EA
:1045600087E7042B07D12B89FFF75EFAE9882046FD
:10457000BDE8F04189E7082B8C46B5F8088039D1B1
:10458000068C394B26F480763604360C0684808BF4
:10459000278C20F0F3000004000C40EA081080B2E1
:1045A0009C42BFB240EA02020ED0304B9C420BD07C
:1045B000B4F1804F08D02E4B9C4205D02D4B9C422D
:1045C00002D02D4B9C4207D127F4007646EA0C26F8
:1045D000B6B246F4807606E04FF2FF5607EA0606CA
:1045E00041F480710E43E9882046A2832684BDE809
:1045F000F0418DE7008C20F480500004000C2084F2
:10460000A38B278C23F440731B051B0D43EA022365
:10461000154A43EA08339442BFB29BB20ED0134A04
:1046200094420BD0B4F1804F08D0114A944205D087
:10463000104A944202D0104A944207D127F4005203
:1046400042EA0C3292B242F4805206E047F6FF5240
:1046500007EA020241F480510A43E9882046A38315
:104660002284BDE8F0415FE7002C014000340140A6
:104670000004004000080040000C0040038823F4C0
:1046800040731B041B0C038003889BB241EA0303A5
:1046900003807047808E80B27047008F80B2704771
:1046A000808F80B27047B0F8400080B27047808C35
:1046B00080B27047008D80B27047038A19420CBFE8
:1046C000002001207047C94389B201827047038AE4
:1046D000828911EA030092B203D011420CBF00207C
:1046E00001207047C94389B201827047204B10B541
:1046F00098420BD101214FF48040FFF7EDF84FF4C1
:1047000080400021BDE81040FFF7E6B8194B984201
:1047100007D14FF400300121FFF7EAF84FF40030E1
:104720001FE0154B984207D14FF480200121FFF77D
:10473000DFF84FF4802014E0104B984207D14FF47B
:1047400000200121FFF7D4F84FF4002009E00C4BC2
:1047500098420BD14FF480100121FFF7C9F84FF4B4
:1047600080100021BDE81040FFF7C2B810BD00BFA7
:10477000003801400044004000480040004C004028
:104780000050004030B5038ACA8823F440531B040C
:104790001B0C134303820D4683890989AA8823F4DD
:1047A000B05341EA0202698923F00C030A431B0457
:1047B0001B0C92B242EA03038381838AAA8923F401
:1047C00040731B041B0C87B013430446838201A86B
:1047D000FFF714F8184BA2899C4212B20CBF049B3D
:1047E000039B002A4FF019012A6802DA594352004C
:1047F00001E0594392006423B1FBF2F1B1FBF3F203
:104800001201100903FB1011A08900B2002806DA7A
:10481000C9003231B1FBF3F303F0070305E00901EE
:104820003231B1FBF3F303F00F0343EA020292B219
:10483000228107B030BD00BF003801404FF416534D
:1048400003600C2200238380C38003814281838123
:1048500070470A8810B54C88038A44EA02028C88A3
:10486000C98823F4706322431B040A431B0C92B2D1
:1048700042EA0303038210BD002303804380838048
:10488000C380704721B183899BB243F4005304E095
:10489000838923F400531B041B0C83817047CBB224
:1048A00010B55B09012401F01F0114FA01F1A342C4
:1048B00001D10C3004E0022B01D1103000E01430A3
:1048C0001AB1036843EA010102E0036823EA010127
:1048D000016010BD1AB1838A9BB2194303E0838A39
:1048E0009BB223EA010181827047038A23F00F0300
:1048F0001B041B0C0382038A9BB241EA030303825D
:104900007047838923F400631B041B0C8381838914
:104910009BB241EA03038381704721B183899BB233
:1049200043F0020304E0838923F002031B041B0C01
:1049300083817047038A23F020031B041B0C03822E
:10494000038A9BB241EA03030382704721B1038AC1
:104950009BB243F4804304E0038A23F480431B04A6
:104960001B0C03827047C905C90D81807047808880
:10497000C005C00D704783899BB243F0010383815A
:104980007047038BDBB20383038B9BB243EA0123A3
:1049900003837047038B03F47F430383038B9BB232
:1049A00041EA03030383704721B1838A9BB243F03A
:1049B000200304E0838A23F020031B041B0C838262
:1049C000704721B1838A9BB243F0100304E0838ACD
:1049D00023F010031B041B0C8382704721B1838AD0
:1049E0009BB243F0080304E0838A23F008031B040E
:1049F0001B0C8382704731B183896FEA43436FEAAE
:104A000053439BB202E083895B045B0C8381704754
:104A100021B1838A9BB243F4006304E0838A23F4C8
:104A200000631B041B0C83827047838A23F00403FA
:104A30001B041B0C8382838A9BB241EA030383829B
:104A4000704721B1838A9BB243F0020304E0838A5A
:104A500023F002031B041B0C838270470388194256
:104A60000CBF002001207047C94389B20180704704
:104A700010B5CCB20122640901F01F039A40012C49
:104A800001D1838903E0022C0CBF038A838A9BB285
:104A900002EA0303028892B243B1090A012313FA1E
:104AA00001F111420CBF0020012010BD184610BDBD
:104AB000090A01238B40DB439BB20380704700BF90
:104AC00008B5084B00221968072000F07CF9064B56
:104AD00007201968002200F076F90A2001F0DEFFB5
:104AE000EFE700BF10060020F00500201FB500F022
:104AF00025F8012400F006F900F0FCF800F0EEFDC6
:104B000000F0F8FB00F0A6FB00F062F80023084973
:104B100080220848019302930393009401F0BEFCA5
:104B200001F084FE00F01FF8204604B010BD00BF65
:104B300073AC0008BD6E0008FDF700BB10B5FDF7B3
:104B400011F90120002101F01BFB054A106030B172
:104B500000210A460B46BDE8104001F046BB10BDDF
:104B6000104C00207047FDF706B901281FB5034619
:104B70001EDC00291CDC104A52F82000C0B10F4A8C
:104B800052F82120A2B10E4A13600E4B0122196087
:104B900000920D4A0D490192002202920392803246
:104BA00001F07CFC012814BF6FF00100002001E03F
:104BB0004FF0FF3005B000BDBC4B0020C44B0020BF
:104BC000184C0020144C0020E44B002078AC000866
:104BD00010B5FDF7C3F8074C2060FDF7C1F8064B90
:104BE000014618602068FFF7C0FFBDE81040FDF7E0
:104BF000C0B800BF184C0020144C00208368F7B5E3
:104C0000012B044619D0022B59D100250095C0680C
:104C1000294622692B46FDF7C5F80128064606D12C
:104C200029462A462B4600F0FDF8354651E02A4B2E
:104C300001200421E2681B6932E0C268274E036943
:104C4000274C012A3260236033DC002B31DC2549FC
:104C500051F82220002A2CD0234A52F8233043B3A3
:104C6000224B002219681020214F00F0ACF80021DF
:104C700038684FF4FA620B4601F050FB01280546F4
:104C800026D100210A460B46386801F0AEFA2168A9
:104C90003068FFF76AFF014628B928460A460B46E6
:104CA00000F0C0F815E00C4B2846294600225B684E
:104CB0000AE0094B012003210022DB6804E0064BD7
:104CC00001209B680221002200F0ACF8002500E0E2
:104CD00000E02846FEBD00BF3C000020184C00202C
:104CE000144C0020BC4B0020C44B002010060020B8
:104CF000104C0020024B00221A605A6001F08AB961
:104D0000BC4B0020024B00221A6000F00BBE00BF1B
:104D1000C44B002070B50D46064670B179B101F163
:104D20000C0002F019F8044650B140F80C5B6060CA
:104D300031462A4602F0D0FC02E0044600E00C4670
:104D4000204670BD70B50D46064690B199B101F18F
:104D50000C0002F001F8044670B140F80C5B2A46E2
:104D60006060314602F0B8FC636803F11002DA605B
:104D700002E0044600E00C46204670BD38B505460A
:104D8000D8B14068103001F0E7FF0446A0B195E8C3
:104D90000F0084E80F0004F11000E0606A68E96821
:104DA00002F09AFC696820461031FFF7CBFF0546F8
:104DB000204602F029F800E00546284638BD08B133
:104DC00002F022B8704707B5019200220090134606
:104DD0000846694601F009FA0EBD13B5044602A85B
:104DE00040F8041D0421FFF795FF024620B1034B54
:104DF00020461968FFF7E7FF1CBD00BFF005002043
:104E000010B50C461821FFF785FF024630B1044B60
:104E1000846059680B20BDE81040D4E710BD00BF86
:104E2000F00500201FB50090019168461021029204
:104E30000393FFF76FFF054B02468360044B062088
:104E40005968FFF7C0FF05B000BD00BF3D74000802
:104E5000F005002007B50192002200901346084695
:104E6000694601F032FA0EBD1FB500900191684607
:104E7000102102920393FFF74DFF054B024683601A
:104E8000044B06205968FFF7E5FF05B000BD00BFE1
:104E90003D740008F005002013B500230C46694658
:104EA00001F03CFA012803BF019B00982360002019
:104EB0001CBD05E00B78027801F8012900F8013BE0
:104EC0008142F7D87047054B0A0901F00F019A5C3F
:104ED0005B5C027043700023837070477EAA0008F9
:104EE00038B504460D460234090AFFF7ECFF2046A8
:104EF000E9B2FFF7E8FF0023A37038BD38B50446D8
:104F00000D460434090CFFF7EBFF2046A9B2FFF76A
:104F1000E7FF0023237138BD931E212BF7B505460B
:104F20000C46174603D900230B7003B0F0BD80EA8E
:104F3000E071A1EBE071264600E019463A4668466A
:104F400002F0D2F8019A0B49009B8A5C314601F8C5
:104F5000012B0E46002BF0D1002D02DA2D3301F883
:104F6000013B002301F80139204603B0BDE8F040C1
:104F70009FE700BFD9AC000810B540B1044602E07D
:104F8000034B1B68984714F8010B0028F8D110BD9B
:104F900018060020064B1B68012B02D0022B04D1FF
:104FA00001E0044802E0044800E00448E4E700BFF0
:104FB0005000002001AD0008FEAC000800AD000864
:104FC0000A4610B50349FFF7A7FF0248BDE81040A5
:104FD000D2E700BF1C4C00202DE9F04104461546E5
:104FE0001E460F46D1B11248FFF7C6FF0A212046E0
:104FF000FFF7E6FF0F48FFF7BFFF0A213846FFF72C
:10500000DFFF0C48FFF7B8FF28460A21FFF7D8FF5B
:105010003EB10848FFF7B0FF304600E00648FFF712
:10502000ABFFFFF7B7FF0548BDE8F041A4E700BFBD
:1050300003AD00083FAF00080CAD00080EAD00083E
:105040000B4608689A684968DB68C5E70020014696
:1050500002460346C0E7014610B50348FFF74EFF7E
:105060000148BDE8104087E71C4C0020014610B500
:105070000348FFF735FF0248BDE810407CE700BF5A
:105080001C4C0020014610B50348FFF71CFF0248E6
:10509000BDE8104070E700BF1C4C00202DE9F04F28
:1050A0006A4B99B01868002800F0CB800123049364
:1050B000674B00241D680B946F682868394612946A
:1050C000029409941094FCF75FFEA146A2464FF0AB
:1050D000020B5E494FF0FF32086817A9FFF7DCFEAC
:1050E0000028F6D00738082800F2A780DFE800F093
:1050F00005A5A5A5A57789979C0002AA0AF1010A32
:1051000017A913469869002808DD0138986128B965
:105110009868022802D1013898601861D868002880
:1051200001DD0138D8601C338B42EBD1BAF1640F3A
:105130000DDD89F001099368012B03D1D3680BB908
:10514000C2F800901C328A42F5D14FF0000A02AC3E
:105150004FF0000826682EB1E368D3F1010338BF91
:10516000002300E033466268934214D02EB1E26817
:10517000D2F1010238BF002200E032460021404651
:105180000B460091FCF70EFE26B1E668D6F101064B
:1051900038BF002666602369012B01D1013B2361E2
:1051A0006369012B01D1013B636108F101081C34E3
:1051B000B8F1030FCED1002D3FD0013F002F3CDCD2
:1051C00008356C682CB920462146FCF7DDFD2546E4
:1051D00033E028682146FCF7D7FD27462DE01C2345
:1051E00018A903FB0B13022243F8502C013A43F891
:1051F000582C093243F84C2C4FF47A7243F8402C67
:105200001BE0179B18A95B681A681C2303FB0B1390
:10521000012A0CBF0222002243F8502C0DE0179BFC
:105220005B68D3F800B008E002230493013B0293CB
:10523000093305934FF47A7308931798FFF7BFFD6E
:1052400047E701F0F1F919B0BDE8F08FF005002053
:10525000540000201FB50821052000F091FF074BE6
:1052600007491860012300938022013B0548019300
:105270000293039301F012F905B000BDF005002080
:1052800010AD00089974000813B5184C2068002868
:1052900028D0206801A94FF0FF32FFF7FDFD00285C
:1052A000F7D00338082819D8DFE800F00518180DE2
:1052B000181818091100019A032093680AE0019A4E
:1052C0000A20936806E0019A0620936802E0019A9A
:1052D0000B2093685168064A126898470198FFF7B7
:1052E0006EFDD6E701F0A0F91CBD00BFF40500205B
:1052F000180600201FB50821052000F041FF074BCC
:1053000007491860012300938022013B054801935F
:105310000293039301F0C2F805B000BDF40500202C
:1053200014AD00088576000873B5124D2868F0B1F9
:10533000002328680DF107014FF0FF3200F0EEFF67
:1053400001280C4C0646F3D163689DF80700984786
:105350009DF807300A2BEBD031460DF10700FFF71F
:10536000D9FCA16802460220FFF72DFDE0E701F01D
:105370005BF97CBD1406002010B5436803E0C268E9
:105380000021D1540133072BF9DDFFF7F7FC02466A
:1053900030B1044B04201968BDE81040FFF713BD7D
:1053A00010BD00BF1006002010B51821FFF7B2FC99
:1053B000024630B1034B05201968BDE81040FFF7E5
:1053C00002BD10BD100600200D28034620D009287C
:1053D00020D020281ED00A281CD070281CD050288D
:1053E0001AD024281AD03038C0B2092819D9A3F10C
:1053F0004102D2B2052A02D8A3F1370006E0A3F198
:105400006102D2B2052A0BD8A3F15700C0B270478F
:1054100010207047112070471220704713207047EA
:105420001420704700F00100704700F0010080F088
:10543000010070472DE9F0479E4F002407F11C033F
:1054400088B0BB614FF00409A0462546B86807A99B
:105450004FF0FF32FFF720FD82460028F6D00228E9
:1054600003D0082840F01C810DE1B9F1030F00F0D2
:105470001781079B5B681878FFF7A6FFB9F1020F49
:10548000064613D1102840F00B810F200021FFF7B2
:10549000A4FC25B1002003212A46874B03E003200A
:1054A00029462A462B46FFF7BDFC02E0B9F1040F5E
:1054B0001CD100240F2E02940394049405940694A6
:1054C00001943C6116D9122E00F0EE80102E40F0AF
:1054D000FD800F202146FFF780FC784B09201968DA
:1054E0002246FFF770FC4FF00309DFE0B9F1000F2F
:1054F00002D04CE0A0462546102E12D10F200021EC
:10550000FFF76BFC3B69002B62DD6D48FFF734FF52
:105510006A4B092019680022FFF755FC4FF0030978
:10552000BEE00F2E2AD834B9644B012019682246F8
:10553000FFF749FC3C61013414F0010908D03B69D4
:10554000BA6901333B613601D31803F8016C05E0F9
:105550003B69BA69013BD15C7618D6543B69554E1C
:10556000072B40F3B880B9F1000F40F0B48006F18A
:105570000C00FFF701FFC6F8109091E0112E14BF48
:105580004FF002094FF0000918BF012588E0B9F17A
:10559000010F40F08580102835D10F200021FFF742
:1055A0001CFC019B002B74DD029B092B21D8DFE83A
:1055B00003F01814200520201C1C1C1C039911B199
:1055C000012916D101E0032004E0049A3D4B1A6042
:1055D000032000210A460B4610E001A8FFF70EFB4E
:1055E0000EE001A8FCF758FC0AE001A8FFF7DCFE7A
:1055F00006E0354B03209B6802210022FFF712FCD6
:105600004FF004094CE0132808D12046FFF70DFFA6
:10561000002842D001344FF0010841E0112807D1A1
:105620002046FFF7FFFE38B301344FF0000823E0B7
:105630000F281AD80A2802D9B8F1000F19D0631020
:1056400008A901EB8302062101FB08F152F8180CAE
:105650000A3100FB0166013342F8186C20460193C1
:10566000FFF7E3FE40B1013406E04FF002090125E7
:1056700002E04FF002094D460C2CA8BF4FF0020982
:10568000A8BF01250CE0B9F1030F08BF4FF00409D2
:1056900006E04FF00409554602E04FF002094D467E
:1056A0000798FFF78CFBD1E64FF00109A04625468D
:1056B000F6E700BF140600201BAD0008100600200E
:1056C00020060020500000203C000020A0464FF0A3
:1056D00004094546E4E74FF00009E1E730B5082149
:1056E00085B0052000F04CFD114B08211860052005
:1056F00000F046FD0F4B00249860FCF7C5F901252A
:10570000802223460C490D4800950194029403948D
:1057100000F0C4FE02230093094980222346094871
:1057200001940294039400F0B9FE284605B030BD00
:10573000100600201406002028AD00082577000878
:1057400037AD0008317800080A4A0B4B1A600B4A43
:105750000B4B1A600B4A0C4B1A600C4A0C4B1A602C
:105760000C4A0D4B1A600D4A0D4B1A600D4A0E4B38
:105770001A607047B57C00083806002025350008FF
:10578000F805002045350008FC050020B935000863
:1057900000060020A97B000804060020DD7B00082D
:1057A00008060020953600080C060020436810B556
:1057B000082B05D0092B07D10749FFF721FB10BDA6
:1057C000BDE81040FBF7FBBC044B0920022100227E
:1057D0009B68FFF727FB10BDDD7B00083C00002025
:1057E0008A6810B5002A3FD1CB68032B05D0042B63
:1057F0001BD0002B35D1214809E0214B1B689B6849
:10580000032B3AD8DFE803F0020B0D0F1D48FFF71A
:10581000B3FBFFF7BFFBBDE81040FFF717BC1A480A
:10582000F5E71A48F3E71A48F1E7154B1B68DB6800
:10583000013B072B21D8DFE803F00406080A0C0E11
:1058400010121448E3E71448E1E71448DFE714486E
:10585000DDE71448DBE71448D9E71448D7E71448D4
:10586000D5E70920022102E0092002210022114B84
:105870009B68BDE81040FFF7AFBB10BD43AD00080B
:10588000804C00204BAD000870AD000898AD0008BA
:10589000D5AD0008FAAD000821AE000848AE0008FA
:1058A0006FAE000897AE0008BEAE0008E5AE000877
:1058B0000CAF00083C00002070B5164C1648616023
:1058C000FFF75AFB636810211868FFF779FB13484C
:1058D000FFF752FB636810219868FFF771FB1048CF
:1058E000FFF74AFB63680A215868FFF769FB0C4819
:1058F000FFF742FB00256368DB68585DFFF7C2FBDA
:1059000001350748FFF738FB082DF4D1BDE870409A
:10591000FFF740BB3806002034AF000839AF00085D
:105920003EAF0008014A024B1A607047457B0008F1
:10593000C44B002010B5FFF721FA024630B1044BEA
:1059400003201968BDE81040FFF73DBA10BD00BF45
:10595000100600208B6810B553B9CB6843B90948CD
:10596000FFF70AFBFFF716FBBDE81040FFF76EBB21
:10597000054B07209B6801460022BDE81040FFF759
:1059800051BA00BF41AF00083C00002070B50D685F
:1059900000240DE02B191879FFF774FB3EB9002C99
:1059A00005DD2B68013B9C4201DAFFF7F3FA013475
:1059B0002B6804F007069C42ECDB26B9002C02DDC4
:1059C000013B9C4201DBFFF7E5FAFFF73FFB044B8D
:1059D0000022196808202A60BDE87040FFF7F3B97B
:1059E0001C06002000F0F00300F0070000EB53005D
:1059F000704730B51C4602E000250D550134072CD8
:105A0000FADDC91804E010F8013B013A01F8013B46
:105A1000002AF8DC30BD70B5002404E00E5D851866
:105A20002D192E7101349C42F8DB70BD2DE9FF4128
:105A300098460823154601933E22063B04460391EF
:105A40000B704A700026CE540133082BFAD116F0A1
:105A5000080F12D13046FFF7C5FF235C074663B13C
:105A6000013BDBB2235443B906F5E06304A840F8D8
:105A7000103D6846A84704F807800136B6F5807FD8
:105A8000E5D1BDE8FF8110B50C46FFF777F9024676
:105A900038B1044B846019680320BDE81040FFF75B
:105AA00092B910BDF40500202DE9F04FA04C002163
:105AB000ADB04FF0FF320B460568206800F02EFCB9
:105AC0009C4B53F8253098479B4B1B6898479B4944
:105AD0000F20FBF7E2FB41F2040001F03DF9002347
