:100000008C9A000000500020F1B70008214F000832
:10001000234F0008254F0008274F0008294F0008EC
:1000200000000000000000000000000000000000D0
:1000300021A800082B4F000800000000CDA80008F0
:1000400009A9000835B8000835B8000835B8000817
:1000500035B8000835B8000835B8000835B80008CC
:1000600035B8000835B8000835B8000835B80008BC
:1000700035B8000835B8000835B8000835B80008AC
:1000800035B80008CD3F00083540000835B80008F5
:10009000153A0008D938000835B800089139000829
:1000A00035B8000835B8000835B8000835B800087C
:1000B00035B8000835B8000835B8000835B800086C
:1000C00035B8000835B8000835B8000835B800085C
:1000D00035B8000835B8000835470008EF42000879
:1000E00035B8000835B8000835B8000835B800083C
:1000F0000000000000000000000000000000000000
:100100000000000000000000000000005FF808F19F
:100110000000000030B5044685B03E480D4602F0B0
:10012000AAFE01A802F0AEFF0122002394428DF83E
:100130000A308DF80B308DF80C308DF80D308DF8BD
:100140000E308DF80F208DF806508DF8073001D055
:10015000052C07D102238DF80830DB188DF8093003
:10016000202326E0022C01D0062C07D102238DF893
:100170000830DB188DF8093010231AE0032C01D069
:10018000072C04D102238DF80830DB180EE0042C74
:100190004FF0020301D0082C05D18DF8083004235C
:1001A0008DF8093005E08DF8083004238DF809300A
:1001B000082301A91748ADF8043002F077FE0122A8
:1001C00014484FF4807103F039F9012211484FF4BB
:1001D000007103F033F901220E484FF4004103F09F
:1001E0002DF901220B484FF4806103F027F9012219
:1001F00008484FF4006103F021F90221012205486B
:1002000003F01CF9012103480A4603F017F905B071
:1002100030BD00BF0064004073B54FF414514FF07F
:10022000006002F041FC4FF4407002F001FC012438
:10023000002525230C2601A88DF804308DF80560D3
:100240008DF806508DF8074002F0FCFB142301A83E
:100250008DF804308DF805608DF806408DF8074064
:1002600002F0F0FB1F2301A88DF804308DF8055033
:100270008DF806508DF8074002F0E4FB202301A81A
:100280008DF804308DF805508DF806408DF8074044
:1002900002F0D8FB7CBD08B51F484FF4807103F015
:1002A00099FB01280DD11C484FF4005103F092FB3B
:1002B000012806D119484FF4804103F08BFB012837
:1002C00029D015484FF4807103F084FB30B91248EF
:1002D0004FF4005103F07EFB012817D00E484FF475
:1002E000807103F077FB012812D10B484FF40051C5
:1002F00003F070FB01280DD107484FF4804103F053
:1003000069FB00280CBF0520002008BD042008BDA3
:10031000002008BD002008BD000801400010014079
:10032000F7B50121B34803F08FFB1D20012103F035
:10033000F5FE4FF0FF33ADF80430AF48002301A9BC
:100340008DF8073003F0EFFAAC4801A903F0EBFA9F
:10035000AB4801A9042503F0E6FA01214FF48040DF
:1003600003F0DCFE10240326A3480DEB05018DF8F5
:1003700006608DF80740ADF8045003F0D4FA9E48AB
:10038000294603F03BFB08239B480DEB0501ADF824
:1003900004308DF8075003F0C6FA97480DEB0501BD
:1003A0008DF80740ADF8044003F0BDFA92482146AD
:1003B00003F024FB48274FF480738F480DEB0501B1
:1003C000ADF804308DF8077003F0ADFA4FF4005328
:1003D00089480DEB0501ADF804308DF8077003F086
:1003E000A2FA18238DF8073083484FF400730DEB01
:1003F0000501ADF8043003F096FA4FF480637E48AF
:100400000DEB0501ADF804308DF8075003F08BFAC1
:100410004FF480437A480DEB0501ADF804308DF8B8
:1004200006608DF8077003F07EFA8DF80660FFF71E
:1004300032FFA8420ED148F2000371480DEB0501CE
:100440008DF80740ADF8043003F06DFA6C484FF4B6
:1004500000410EE0FFF71FFF05280CD10823674875
:1004600001A98DF80740ADF8043003F05CFA634849
:10047000082103F0C3FAFFF70EFF042805D14FF45B
:100480008663ADF8043010231CE0FFF704FF052855
:1004900010D130231024594801A9ADF804308DF84B
:1004A000074003F040FA8023ADF804308DF8074090
:1004B00051480AE0FFF7EFFE012809D13023ADF8DB
:1004C000043014234D488DF8073001A903F02BFAAE
:1004D000FFF7E1FE04280ED14FF40053ADF80430CD
:1004E0004748102301A98DF8073003F01CFA44484F
:1004F0004FF4005111E0FFF7CEFE05280FD148F26E
:100500000003ADF804303C48102301A98DF80730F2
:1005100003F009FA38484FF4004103F06DFAFFF791
:10052000BAFE05281DD14FF4EA10002103F08CFA21
:100530004FF4EB10002103F087FA4FF40063ADF89D
:1005400004302D48482301A98DF8073003F0EBF95A
:100550004FF48053ADF8043018238DF80730264847
:1005600017E04FF4EA10012103F06EFA4FF48073A4
:10057000ADF804302148482301A98DF8073003F075
:10058000D2F94FF40073ADF804301C4818238DF8ED
:10059000073001A903F0C7F901214FF0007003F003
:1005A000C9FDFFF778FE042811D10338014603F096
:1005B000C1FD1448012103F047FA18238DF80730D4
:1005C00002A94FF4006321F8043D0C480FE0FFF747
:1005D00062FE05280DD10338012103F0ABFD18237D
:1005E0008DF8073002A94023034821F8043D03F0A9
:1005F0009AF9FEBD0004300000080140000C0140E3
:1006000000100140000218001FB5124804F0A8FCB9
:1006100042F6A00300930023ADF80430ADF8063095
:10062000ADF80830ADF80C3069460C230948ADF838
:100630000A3004F0E1FC0121064804F05DFD0548A4
:1006400040F22551012204F064FDFFF7E5FD05B0FD
:1006500000BD00BF0044004010B54FF4004086B01C
:1006600003F0D8FC01214FF4007003F057FD15484A
:1006700002F03CFA012400234FF46022114801A942
:1006800001938DF808308DF80930039204938DF8AA
:10069000144002F059FA0B48214602F084FA094846
:1006A00002F09FFA074802F0A1FA0028FAD10548A3
:1006B00002F0A0FA034802F0A2FA0028FAD106B02C
:1006C00010BD00BF0024014030B51C4B89B01A6832
:1006D0001B4B0024B2FBF3F2013A93FBF0F305A9A4
:1006E0004FF08040ADF81420ADF81830ADF81A4046
:1006F000ADF8164003F0E8FE6023ADF804300125A4
:100700004FF4A17301A94FF08040ADF80A30ADF865
:100710000650ADF80C4004F00DF808214FF0804071
:1007200004F0A5F921464FF0804004F071F84FF035
:100730008040294604F079F809B030BDB4000020AB
:1007400080841E0030B51A4B89B01A68194B0024FA
:10075000B2FBF3F2013A93FBF0F305A91648ADF8AA
:100760001420ADF81830ADF81A40ADF8164003F07B
:10077000ABFE6023ADF8043001254FF4A17301A94D
:100780000D48ADF80A30ADF80650ADF80C4003F056
:10079000F1FE0821084804F04EF92146064804F00D
:1007A00037F80548294604F040F809B030BD00BFCD
:1007B000B400002080841E000004004010B5FFF744
:1007C000AFFD00F02FF902210320FFF7A3FCFFF794
:1007D00043FFFFF760FD042804D140F61C40BDE84C
:1007E000104071E7FFF757FD052804D140F61C4083
:1007F000BDE81040A6E710BD13B50021214803F065
:100800000BFA204803F074F900214FF4001003F0B4
:1008100091FC4023ADF8043004230DEB03011A488A
:100820008DF8073003F07FF801A9802316480024D3
:10083000ADF8043003F077F8102368468DF80030E7
:100840008DF801408DF802408DF8034002F0FAF86F
:10085000112368468DF800308DF801408DF8024074
:1008600002F0F0F82146094802F0ABFF21460848A3
:1008700002F0A7FF054802F0F7FE054802F0F4FE7B
:100880001CBD00BF00540040000C01406C00024041
:10089000800002402DE9F3410820012103F03EFCD5
:1008A00001214FF4001003F045FC4023ADF8043063
:1008B00003238DF8063001A919332A488DF8073033
:1008C000802703F030F801A92648002601244FF0C4
:1008D0001008ADF8047003F026F868468DF8008023
:1008E0008DF801608DF802608DF8034002F0AAF8DF
:1008F000112368468DF800308DF801608DF8026094
:1009000002F0A0F82146204603F0FCFB164802F056
:10091000ABFE164D164B29462B604FF6FF73EB606E
:1009200011484FF440536B626E60C5F808802E6129
:100930006F61AE61EE612E62AE6202F015FF0D488E
:1009400002F092FE29460B4802F00EFF02212246D9
:10095000054802F042FF07480221224602F03DFF0F
:10096000BDE8FC81000C01406C0002405C460020A8
:1009700010540040800002400B4607492AB910324B
:1009800048608A60CB60054804E048600022044863
:100990008A60CB6002F0E8BE5C4600206C0002403A
:1009A0008000024042F68163434301E000BF013B07
:1009B000002BFBD1704710B504460548802104F098
:1009C00087FC0028F9D02046BDE81040EAE700BFC8
:1009D0000038014010B561210446114804F0FDFBC8
:1009E0002820FFF7E8FF74210D4804F0F6FB2820CB
:1009F000FFF7E1FF6C210A4804F0EFFB2820FFF726
:100A0000DAFF2146064804F0E8FB2820FFF7D3FF71
:100A100003480D2104F0E1FB6420BDE81040CAE763
:100A200000380140F0B5BE4B87B0BE48059304F0D6
:100A300097FA4FF4E13300220193BA480C2301A93D
:100A4000ADF80E30ADF80820ADF80A20ADF80C2056
:100A5000ADF8102004F0D0FAB248012104F04CFBAC
:100A60000122B04840F2255104F053FBFFF7D4FBBC
:100A7000AC480D2104F0B1FB40F2DC50FFF792FFCF
:100A800000246121A74804F0A8FB2820FFF793FF6A
:100A90007421A44804F0A1FB2820FFF78CFFA24F8B
:100AA0000D21A048002604F098FBA04D6420FFF71C
:100AB00082FF61213E609B482E6004F08EFB28205F
:100AC000FFF779FF7421974804F087FB2820FFF790
:100AD00072FF7121934804F080FB2820FFF76BFF21
:100AE0003F21904804F079FB2820FFF764FF0D2197
:100AF0008C4804F072FB6420FFF75DFF61213E60CB
:100B000088482E6004F069FB2820FFF754FF742109
:100B1000844804F062FB2820FFF74DFF6C218148D8
:100B200004F05BFB2820FFF746FF3F217D4804F0DF
:100B300054FB2820FFF73FFF7A480D2104F04DFBBE
:100B40006420FFF738FF7A4B3E461B78303B072B7B
:100B500009D8DFE803F004040404040B040435207E
:100B6000FFF738FF1BE00134E4B200E00924A31EC4
:100B7000072B05D8DFE803F0070A0D1013181B1E1A
:100B80004FF4965318E04FF4165315E04FF4964384
:100B900012E04FF416430FE04FF461430CE04FF4C2
:100BA000E1330193062408E04FF4613304E04FF48D
:100BB000E12301E04FF4E13301935A4801A904F025
:100BC0001BFA092C7FF45DAF0D21564804F005FB9C
:100BD000093C2820FFF7EFFE6121524834602C6069
:100BE00004F0FBFA2820FFF7E6FE74214D4804F0DC
:100BF000F4FA2820FFF7DFFE62214A4804F0EDFAFC
:100C00002820FFF7D8FE3F21464804F0E6FA2820C6
:100C1000FFF7D1FE0D21434804F0DFFA6420FFF70F
:100C2000CAFE61213F4834602C6004F0D6FA2820C7
:100C3000FFF7C1FE74213B4804F0CFFA2820FFF7EC
:100C4000BAFE6E21374804F0C8FA2820FFF7B3FE39
:100C50003F21344804F0C1FA2820FFF7ACFE3148A8
:100C60000D2104F0BAFA6420FFF7A5FE314B1B6892
:100C7000002B40F0E1802C4A612113602B4A294867
:100C8000136004F0AAFA2820FFF795FE7421254886
:100C900004F0A3FA2820FFF78EFE6E21214804F00D
:100CA0009CFA2820FFF787FE3D211E4804F095FAA4
:100CB0002820FFF780FE4F211A4804F08EFA2820E2
:100CC000FFF779FE4F21174804F087FA2820FFF735
:100CD00072FE4221134804F080FA2820FFF76BFED1
:100CE0004421104804F079FA2820FFF764FE2D21F2
:100CF0000C4804F072FA2820FFF75DFE43210948F2
:100D000004F06BFA2820FFF756FEFFF7C4FA042818
:100D100003D0FFF7C0FA01280ED10248752111E077
:100D2000E093040000380140B8460020B04600209F
:100D300058460020BC460020FFF7ADFA052803D135
:100D40003F48492104F049FA2820FFF734FEFFF715
:100D5000A2FA042803D0FFF79EFA012802D13848EE
:100D6000702105E0FFF797FA052803D13448562192
:100D700004F033FA2820334CFFF71DFE20213048C1
:100D800004F02BFA2820FFF716FE617A2C4804F0B5
:100D900024FA2820FFF70FFEA17A294804F01DFA53
:100DA0002820FFF708FE217B254804F016FA2820AA
:100DB000FFF701FE617B224804F00FFA2820FFF7BD
:100DC000FAFDE17B1E4804F008FA2820FFF7F3FD46
:100DD000217C1B4804F001FA2820FFF7ECFD0D21CF
:100DE000174804F0FAF96420FFF7E5FD00233360AB
:100DF000612113482B6004F0F0F92820FFF7DBFD98
:100E000074210F4804F0E9F92820FFF7D4FD6E2182
:100E10000B4804F0E2F92820FFF7CDFD3F210848F8
:100E200004F0DBF92820FFF7C6FD05480D2104F08A
:100E3000D4F96420FFF7BFFD01232B6007B0F0BD9C
:100E400000380140000000200C23434301E000BFB4
:100E5000013B002BFBD17047214B37B500241C60B0
:100E6000204B10201C60204B1C60204B1C60204B32
:100E70001C60204B1C60204B1C60204B1C6007F04A
:100E8000C1F91F4B186050B3032313224460C360A1
:100E900001340C2501A88DF804208DF806308DF85A
:100EA00005508DF8074001F0CDFD142301A88DF801
:100EB00004308DF805508DF806408DF8074001F09C
:100EC000C1FD16238DF8043001A8143B8DF80550A0
:100ED0008DF806308DF8074001F0B4FD20463EBD88
:100EE000E8460020F4460020E0460020E4460020CA
:100EF000FC460020F0460020F8460020EC4600208A
:100F0000904700207FB51A4B1B68DB68053B032B1D
:100F1000436802D80293042301E0019300238DF873
:100F20000C3000238DF80D30836801A98DF80E3048
:100F3000036910481A788DF80F205A788DF8102020
:100F40009A788DF81120DA788DF812201A798DF8B8
:100F500013205A798DF814209A798DF81520DB79B1
:100F60008DF8163002F0F3F8012007B000BD00BF85
:100F70009047002000640040704770477AB901290B
:100F800004D1124B483053F8300005E0022917D144
:100F90000F4BC000C318586880B240097047012A3F
:100FA00010D1012904D1094B483053F8300005E035
:100FB000022909D1064BC000C3185868400D70477C
:100FC00010467047002070470020704700640040C2
:100FD00040660040012904D1074B483053F83000E7
:100FE00005E0022905D1054BC000C3185868C008A8
:100FF00070470020704700BF00640040406600401A
:1010000030B5836887B0023B05460C2B00F29D810A
:10101000DFE813F01E000D0051009B019B019B01B6
:101020009B019B017100EE00D900580178019E4A96
:10103000002313609D4AC06813609D4A136010B17D
:101040000221FFF767F89B4BEA681B68DA6077E1DB
:10105000954A00231360954A1360954A1360C2684D
:10106000032A00F21B81DFE802F0020E1321914CEB
:1010700002212368187BFFF74DF82368EA680D20EA
:101080005A6000210FE08B4C01212368187B03E09C
:10109000884C03212368187BFFF73CF82368EA6833
:1010A0000D205A60012104F0F7FA49E1814C00213A
:1010B0002368187BF0E77C4B00241C607B4BC268E4
:1010C0001C607B4B012A1C6000F2E8800D20214649
:1010D00004F0E2FAE9680E2001290CBF0121022187
:1010E00004F0DAFA2146EA68234642F210700094CE
:1010F00001F00CF964E0026940F2FE739A4200F3D9
:10110000CD80C268012A01D1002316E0931E012B75
:1011100013D9131F012B01D8033A07E0911F0129AE
:101120000BD9A2F10803012B03D8053A8DF8122040
:1011300005E00A2A40F0B28004238DF81230EB68F3
:10114000012B07D0032B05D0052B03D0072B01D093
:10115000092B0AD12B699DF812205B01ADF80A30EA
:10116000554BD200D3185B6809E09DF81220534B11
:10117000483253F83230ADF80A302B695B01ADF8D4
:1011800008309DF812304D4A483352F83320DB00C6
:10119000120C03F18043ADF80E2003F5C8435B68E1
:1011A0001B0CADF80C3000248DF814408DF8134062
:1011B000ADF81040012302A88DF8153001F0E9FECA
:1011C00008202146BEE0C368013BDBB28DF8123037
:1011D0000269D1005213ADF80820DA00364BADF8A1
:1011E0000A10D3185A68ADF80E205B681B0C7EE01D
:1011F0000269B2F5006F51DAC268012A01D10023F9
:1012000015E0931E012B12D9131F012B01D8033AAD
:1012100007E0911F01290AD9A2F10803012B03D885
:10122000053A8DF8122004E00A2A37D104238DF8FC
:101230001230EB68012B07D0032B05D0052B03D010
:10124000072B01D0092B0BD12B699DF812205B01D4
:10125000ADF80E30184BD200D3185B681B0C0AE0B7
:101260009DF81220154B483253F832301B0CADF864
:101270000E302B695B01ADF80C309DF812300F4A2F
:10128000483352F83320DB0003F18043ADF80A20E5
:1012900003F5C8435B68ADF8083084E7084B0820C5
:1012A0001B680321DB7856E0E8460020F446002066
:1012B000E046002090470020406600400064004067
:1012C0003C000020C268264B013AD2B28DF81220B1
:1012D000483253F83210ADF80A1053F832301B0C74
:1012E000ADF808300369DA00ADF80E205B13002476
:1012F000ADF80C3001238DF814308DF81340ADF8A3
:10130000104058E7002400238DF8124001344FF6B6
:10131000E072ADF80A30ADF808308DF814308DF871
:101320001330ADF8103002A80123E4B2ADF80E205E
:10133000ADF80C208DF8153001F02BFE0E2CE2D10B
:10134000082000210A460B4605E0064B08201B68D2
:1013500002219B78002204F0C3F9012007B030BDC0
:10136000006400403C00002037B5164B00241C6090
:1013700014230C258DF8043001A8133B8DF806309A
:101380008DF805508DF8074001F05CFB13238DF8B4
:10139000043001A8103B8DF806308DF805508DF80B
:1013A000074001F04FFB16238DF8043001A8143BD1
:1013B0008DF805508DF806308DF8074001F042FB9E
:1013C0003EBD00BFC80000200F2803D1024B0E38DD
:1013D0001960704700207047C80000207FB50021C9
:1013E000254801AA019102918DF80C108DF80E107C
:1013F0008DF817108DF80F108DF810108DF8111052
:101400008DF812108DF813108DF814108DF815103A
:101410008DF8161001F036FF019911B9029B002BCF
:1014200028D0164B16481A68013282421A600DDD28
:1014300052101A60134B1A6802EBD27252101A60E3
:10144000114B1A6802EBD27252101A609DF80C20F0
:101450000E4B0AB9996001E0029A9A609DF80E203D
:10146000DA6000221A610DF10F025A611B680BB19C
:101470000748984707B000BD00640040E8460020D8
:10148000A0860100F4460020E0460020C8000020AD
:10149000CC00002010B51E4801F0C4FF102818D061
:1014A0001B4801F0BFFF202813D0194801F0BAFFF4
:1014B00030280ED0164801F0B5FF402809D0144856
:1014C00001F0B0FF502804D0114801F0ABFF6028B4
:1014D00003D1104B1A6801321A600D484FF40041D5
:1014E00002F050F80A484FF4006102F04BF8084847
:1014F0004FF4806102F046F805484FF4007102F0A5
:1015000041F803484FF48071BDE8104002F03AB84A
:1015100000640040E04600200C4B0D491A6801327F
:101520008A421A600DDD52101A600A490A4B086897
:101530001A6800EBD07002EBD272401052100860B3
:101540001A600648012102F01DB800BFF4460020D1
:10155000A0860100E8460020E0460020006400402C
:10156000014B1868704700BFE0460020002070471C
:10157000014B00221A607047E04600207047014B83
:1015800018687047E8460020014B1868704700BF94
:10159000F4460020014B00221A607047E846002004
:1015A000014B00221A607047F446002008B5034939
:1015B000034801F04CFF034B186008BD0400F01015
:1015C00000640040E446002008B50349034801F0E8
:1015D0003EFF034B186008BD0200F010006400409D
:1015E000F046002008B50349034801F030FF034BE3
:1015F000186008BD0100F01000640040FC460020A7
:1016000008B5034801F015FF024B186008BD00BF84
:1016100000640040F846002008B5034801F006FFCA
:10162000024B186008BD00BF00640040EC4600207B
:10163000FFF7E2B830B585B0FFF72CF90023ADF81D
:1016400004304BF6FF73ADF806304FF48063ADF80D
:101650000A304FF48043ADF80C300B4BA0250B48FB
:10166000012104AC44F8103DADF8085002F0D4FA62
:101670000648694602F056FA0448012102F0D9FAF8
:10168000034B1D8005B030BDE093040000540040C2
:10169000E00000203F4B2DE9F0411A6080463E4CAF
:1016A0003E480E46154604F0C5F84FF4204323602B
:1016B00004E023685A1E226003B9FEE738484FF45D
:1016C000003102F0D6FB0028F3D13548012102F0A9
:1016D000CAFA4FF48053236004E023685A1E226044
:1016E00003B9FEE72E482F4902F0AEFB0028F4D0E4
:1016F0002D4B4FF48057276019882948C9B2002222
:1017000002F00DFB294804F095F8276004E02368F7
:101710005A1E226003B9FEE72148254902F094FBD6
:101720000028F4D0234804F085F81D48310A02F05F
:10173000F1FA214804F07EF84FF48053236004E06E
:1017400023685A1E226003B9FEE715481B4902F0C0
:101750007BFB0028F4D01248F1B202F0DBFA4FF420
:101760008053236004E023685A1E226003B9FEE719
:101770000B48124902F068FB0028F4D029780022B7
:101780004046FFF7F9F80E48012102F01AF8002050
:10179000BDE8F081004700202400002047B8000881
:1017A0000054004001000300E00000205FB8000882
:1017B0008200070087B80008A2B80008840007006C
:1017C0006C00024013B500232C4CADF8063000939A
:1017D0004FF42043236004E023685A1E226003B9BB
:1017E000FEE727484FF4003102F043FB0028F3D115
:1017F0002348012102F037FA4FF48053236004E0BC
:1018000023685A1E226003B9FEE71D481D4902F0F5
:101810001BFB0028F4D01C4B194819880022C9B2C0
:1018200002F07DFA4FF4204323601548838A9BB26F
:10183000ADF8063023685A1E226003B9FEE7BDF8F2
:10184000063023F47E7323F005035B055B0D002B4C
:10185000EBD0BDF8063013F0020F05D00121038B49
:1018600002F00EFA00201CBD084902F01CFB009B90
:101870005A1C962B0092BBD1FEE700BF240000202B
:101880000054004001000300E000002000040010AC
:101890002DE9F74F4FEA5219934611F01F07D2B2C4
:1018A00080460E465FFA89F9019202F01F0A834DC5
:1018B000834C61D1B9F1000F25D1824885F800A091
:1018C00003F0B8FF404603F0B5FF7F4803F0B2FFD6
:1018D000304604F029F87D4803F0ACFF287804F086
:1018E00023F8404631462A46FFF7D4FE4FF4204302
:1018F000236004E023685A1E226003B9FEE72B78B8
:10190000002BF7D1D2E02023404631466B4A2B70A2
:10191000FFF7C0FE4FF42043236004E023685A1E03
:10192000226003B9FEE72B78644F002BF6D109F152
:10193000FF3920365FFA89F9FFF744FFB6B208F1A4
:101940002008B9F1000FDED1BAF1000F00F0B2802B
:1019500087F800A0404631463A46FFF79BFE4FF419
:101960002043236004E023685A1E226003B9FEE787
:101970002B78002BF7D199E0C7F12007FFB2B9F11E
:10198000000F40D1BB452CD92A462F70FFF782FEAD
:101990004FF42043236004E023685A1E226003B9F9
:1019A000FEE72B78DFF81491002BF5D1FFF70AFF43
:1019B000019AB919D31BDBB289F8003008EB070094
:1019C00089B24A46FFF766FE4FF42043236004E0E5
:1019D00023685A1E226003B9FEE72B78002BF7D14B
:1019E00064E02A4685F800A0FFF754FE4FF4204338
:1019F000236004E023685A1E226003B9FEE72B78B7
:101A0000002BF7D152E02A462F70FFF743FE4FF428
:101A10002043236004E023685A1E226003B9FEE7D6
:101A20002B78002BF7D1C7EB0B0B1FFA8BFBBE19E2
:101A30004FEA5B195FFA89F9FFF7C4FEB6B2474473
:101A40001BE02023384631461C4A2B70FFF722FE4C
:101A50004FF42043236004E023685A1E226003B938
:101A6000FEE72B78002BF7D1FFF7ACFE203609F10B
:101A7000FF39B6B220375FFA89F9B9F1000FE0D12A
:101A80001BF01F0B16D0384631460C4A85F800B0C3
:101A9000FFF700FE4FF42043236004E023685A1E42
:101AA000226003B9FEE72B78002BF7D103B0BDE825
:101AB000F04F87E603B0BDE8F08F00BF0447002079
:101AC00024000020CAB80008D4B80008E0B8000814
:101AD00010B54FF4001001F08EFE10B31148002134
:101AE00001F06FFE104C4FF4801001F093FE4FF4A4
:101AF0002043236004E023685A1E226003B9FEE7F6
:101B00000A480B4902F0B5F90028F4D00748012132
:101B100002F0B6F8054B9A8A1B8B064B00221B6815
:101B20001A7010BD6C0002402400002000540040D8
:101B3000040000100047002008B54FF0007001F0CD
:101B40005AFE78B10848012102F09AF807480021AE
:101B500001F037FE4FF0807001F05CFE044B002274
:101B60001B681A8008BD00BF00540040800002407E
:101B700008470020FEE772B6704762B67047734BA5
:101B80002DE9F041724C1A604FF4204306460F468F
:101B90001546236004E023685A1E226003B9FEE75D
:101BA0006C484FF4003102F064F90028F3D1694821
:101BB000012102F058F84FF48053236004E02368B9
:101BC0005A1E226003B9FEE76248634902F03CF9FD
:101BD0000028F4D0DFF8A0815E48B8F80010002299
:101BE000C9B202F09CF84FF48053236004E02368EC
:101BF0005A1E226003B9FEE75648584902F024F9FC
:101C00000028F4D05348390A02F084F84FF4805386
:101C1000236004E023685A1E226003B9FEE74D48A2
:101C20004F4902F011F90028F4D04A48F9B202F005
:101C300071F84FF48053236004E023685A1E226039
:101C400003B9FEE74348474902F013F90028F4D0EE
:101C50004048012102F007F84FF48053236004E06C
:101C600023685A1E226003B9FEE73A483A4902F057
:101C7000EBF80028F4D0B8F8001001223548C9B2BA
:101C800002F04DF82B88012B4FF4805341D823608C
:101C900004E023685A1E226003B9FEE72D4832494A
:101CA00002F0E7F80028F4D02A48002101F0F5FFFF
:101CB000FFF761FF27480121038B01F0E1FFFFF7E8
:101CC0005CFF4FF48053236004E023685A1E2260B7
:101CD00003B9FEE71F48254902F0CBF80028F4D0ED
:101CE0001C4802F019F830702B88013B2B804FF410
:101CF0008053236004E023685A1E226003B9FEE784
:101D00001448038813F4007FF5D1012101F0C5FFC9
:101D100019E0236004E023685A1E226003B9FEE73D
:101D20000C48134902F090F80028F4D029880122C9
:101D30003046FEF721FE0748012101F087FF0D48DC
:101D4000012101F03EFD0020BDE8F08108470020A0
:101D5000240000200054004001000300820007001E
:101D60008400070004000010020000104000001072
:101D70000200030080000240E000002001207047C4
:101D8000012070477047704713B58168032902D05E
:101D9000042920D10AE0C268012A03D80024009453
:101DA000042009E0114B08201B6812E0C268012AD8
:101DB0000BD80024009405202146234600F0A6FA03
:101DC00008202146224623460BE0084B08201B68CA
:101DD0000321DB7805E0054B08201B6802219B7876
:101DE000002203F07DFC01201CBD00BF3C00002050
:101DF000704710B5054840F2255103F073FA20B141
:101E00000248BDE8104003F0ECB910BD00440040AA
:101E1000014B1868704700BFE04600200020704763
:101E2000014B00221A607047E04600207047014BCA
:101E300018687047E8460020014B1868704700BFDB
:101E4000F4460020014B00221A607047E84600204B
:101E5000014B00221A607047F4460020014B1868BD
:101E6000704700BF0C470020014B1868704700BF47
:101E700018470020014B1868704700BF1C4700201E
:101E8000034B1A8812F0800FFAD09880704700BF79
:101E90000038014008B5054A054B02201A600121AF
:101EA00005F0C4FB034B1860012008BD7D4300080A
:101EB000100100200C01002030B909E0054A11880A
:101EC00011F0800FFAD0938010F8013B002BF5D170
:101ED000704700BF003801400D282DE9F04107464A
:101EE000AC4CAD4D40F06A812178612940F06281AF
:101EF00094F80180B8F1740F40F05C81A678622EEE
:101F000033D1E3783F2B40F055812A68A34BA218C8
:101F100012F80C0C12F80E1CD87012F80B0C197079
:101F2000187112F8090C12F80D1C987112F8080CAF
:101F30005970D87112F8060C3A21587212F8050C33
:101F40009970987212F8040C59711972D972187339
:101F5000997312F8030C12F8021C12F8012C587332
:101F60001A740022D9735A7424E16C2E0AD1E378D2
:101F70003F2B40F01F812B68E31813F8012C884B8E
:101F80001A7017E1712E2DD1E3783F2B40F01281AA
:101F90002B68E31813F8053C302B40F00B81814887
:101FA00003F01BF92820FEF706FD41467D4803F0AB
:101FB00014F92820FEF7FFFC31467A4803F00DF9AA
:101FC0002820FEF7F8FC3121764803F006F9282096
:101FD000FEF7F1FC7348394603F0FFF86420FEF782
:101FE000EAFCE7E06E2E40F0E580E3783F2B40F01E
:101FF000E180FEF750F901286B4E03D0FEF74BF954
:10200000042846D12A68A31813F80F1C4F2940D181
:1020100013F80E1C4F293CD113F80D1C422938D15E
:1020200013F80C1C442934D113F80B1C2D2930D182
:1020300013F80A1C43292CD113F8091C752928D13F
:1020400013F8081C702924D113F8071C202920D16B
:10205000524913F8060C4B7A98421AD1A31813F878
:10206000050C0A46897A884213D113F8040C117BB7
:1020700088420ED113F8030C517B884209D113F822
:10208000020CD17B884204D113F8011C137C9942C5
:102090004BD0FEF700F9012840F08A802A68A31887
:1020A00013F80F1C4F2940F0838013F80E1C4F29A2
:1020B0007ED113F80D1C42297AD113F80C1C442947
:1020C00076D113F80B1C2D2972D113F80A1C432961
:1020D0006ED113F8091C49296AD113F8081C562936
:1020E00066D113F8073C202B62D12C4BA21812F8B2
:1020F000060C597A88425BD112F8050C997A88420D
:1021000056D112F8040C197B884251D112F8030CF5
:10211000597B88424CD112F8020CD97B884247D1B6
:1021200012F8012C1B7C9A4242D12A680123A21882
:1021300012F80F1C33601D4B197012F80E1C5970E9
:1021400012F80D1C997012F80C1CD97012F80B1CA7
:10215000197112F80A1C597112F8091C997112F8B8
:10216000081CD97112F8071C197212F8061C597252
:1021700012F8051C997212F8041CD97212F8031C8B
:10218000197312F8021C12F8012C59739A73002269
:10219000DA730FE0C4460020B8460020000000209B
:1021A0005846002000380140BC46002012000020A4
:1021B000002333602B680D22E25401E02B68E054C9
:1021C00001332B60BDE8F08113B5019002AC03F040
:1021D0003FFB074803F02EFB54F8040D03F099FB76
:1021E000044803F027FB204603F093FB1CBD00BF0F
:1021F000EDB80008F9B8000810B503F029FB044851
:1022000003F018FB034B1868BDE8104003F081BBD6
:1022100006B9000800ED00E010B5064C01E0FFF73C
:10222000D3FF204654F8043B002BF8D1BDE8104002
:10223000CAE700BF00F00FE013B5114840F2255186
:1022400003F050F8D0B10E4802F0CBFF0D4BC0B2F6
:102250001B688DF8070013B9FFF73EFE0EE00A4B2E
:102260000A4C18680DF107010023224605F083FA95
:10227000012803D123680BB106F08BF81CBD00BF09
:1022800000380140B04600200C010020E40000208E
:1022900000000000012070470020704710B5FEF7D5
:1022A0008DFABDE81040FFF7C5B9FDF7B5BF024A8A
:1022B000024BDA60704700BF0406FA0500ED00E04B
:1022C00010B50446FDF7E7FF04280AD12CB12046DB
:1022D000FEF7FAF94FF080400CE04FF080402146C5
:1022E00009E0FDF7D8FF05280CD13CB12046FEF7E8
:1022F00029FA0548012102F08BFA10BD0248214657
:1023000002F086FA10BD00BF00040040032870B53B
:10231000044616467BD004DC012827D044DC68B193
:10232000B0E0052800F088807FDB062800F08B8075
:1023300042F21073984240F0A58054E0FDF7ABFFE5
:10234000042808D11EB151484FF4806183E04F4802
:102350004FF4806192E0FDF79EFF05280ED116B183
:102360004B48802177E04A48802187E0FDF793FFC2
:10237000042803D0FDF78FFF052804D10EB1434890
:102380005CE042485DE0FDF786FF012805467AD112
:1023900026B13E48102101F02FFB03E03B481021FD
:1023A00001F02CFB2C466EE0FDF775FF042803D0EE
:1023B000FDF771FF052806D116B1344820214AE007
:1023C000324820215AE0FDF766FF0128044657D124
:1023D00026B12E48202101F00FFB54E02B4820218C
:1023E00001F00CFB4FE0FDF756FF042804D10EB1BD
:1023F00028483DE027483FE0FDF74DFF052841D143
:1024000016B12248082126E02048082136E0FDF7D1
:1024100042FF042803D0FDF73EFF052832D13046A5
:102420004FF0FF31FFF74CFF2AE012B118480421AA
:1024300011E01748042121E012B1154810210AE0EB
:10244000134810211AE0FDF726FF04280AD12EB107
:1024500010484FF4005101F0CFFA11E00D484FF44D
:1024600000510BE0FDF717FF05280BD11EB10848FE
:102470004FF40041EFE706484FF4004101F0BEFA87
:10248000012400E00024204670BD00BF000C014084
:102490000008014000100140F7B581680546032996
:1024A00000F0CB8004DC49B1022940F0CC8009E087
:1024B000042921D0632940F0C680BAE0674903F0BF
:1024C000FDF8B8E0002400942A69C068214623463C
:1024D000FFF71CFF0128054607D12046214622466A
:1024E000234603F0FDF82C46B6E05D4B20461B6802
:1024F00003212246DB7899E002695A4B9A4200F3A5
:10250000A280002421462246234606200094FFF79D
:10251000FDFEFA20FEF746FA234621460122062058
:102520000094FFF7F3FE40F6C410FEF73BFAEB68A9
:10253000002B75D14C4E0D214C48336002F04DFEFE
:102540006420FEF738FA6121484802F046FE282050
:10255000FEF731FA7421454802F03FFE2820FEF7CD
:102560002AFA0D21414802F038FE6420FEF723FAD2
:1025700061213E4802F031FE2820FEF71CFA74214A
:102580003A4802F02AFE2820FEF715FA7021374853
:1025900002F023FE2820FEF70EFA34483D2102F017
:1025A0001CFE2820FEF707FA314F08342B69B3FBD5
:1025B000F7F262B10A227A43B3FBF2F102FB113166
:1025C000B1FBF7F13031294889B202F006FE0A2347
:1025D0002820B7FBF3F7FEF7EEF9013CE6D10D2119
:1025E000224802F0FAFDC820FEF7E5F9214622460E
:1025F000234606200094FFF789FEFA20FEF7D2F961
:1026000021462346012206200094FFF77FFE012485
:102610004FF4FA70FEF7C6F903F076F934601BE068
:102620000F4B20461B6802219B78224603F058F886
:1026300012E0FFF73CFE01240EE0094B00201B686E
:102640000246DB7805E0064B00201B6802219B78E0
:10265000024603F045F800242046FEBDE14B000889
:102660003C000020FFE0F505B046002000380140A6
:1026700080969800014610B509480122002300F019
:10268000E2FA0748012100F0BEFA0548022100F0F5
:10269000D5FB0028F9D00248BDE8104000F024BB6B
:1026A0000024014010B54020012101F02BFD00F075
:1026B000AFFF084B08490948C918094BC91A8908CE
:1026C000013100F0B1FF00210446402001F01AFD65
:1026D000204610BDC4990000C80000200025000855
:1026E0000000002007B58A680B46002A40F094815C
:1026F000CA680D2A00F22981DFE812F00E005A00A4
:1027000064009B009E00AA00AD00BE00C500C7008B
:10271000E400120115011E01984803F08BF8FDF743
:10272000BAFD012807D0FDF7B6FD042803D0FDF758
:10273000B2FD052801D1924800E0924803F07AF8F2
:10274000914803F077F8914803F074F88E4803F04D
:1027500071F8FDF7A0FD012801D18D480AE0FDF7D1
:102760009AFD042803D0FDF796FD052801D189487C
:1027700000E0894803F05EF8834803F05BF8FDF75A
:102780008AFD012801D182480BE0FDF784FD042871
:1027900001D1804805E0FDF77EFD05280CBF7F488C
:1027A0007F4803F047F8784803F044F87D4800E09C
:1027B0007D4803F03FF803F04BF803B05DF804EBFD
:1027C00003F0A2B8FDF767FD042803D0FDF763FD11
:1027D00001280CD10820FFF74DFF06F0EBFA61A3AA
:1027E000D3E9002306F04CFB0022704B0FE0FDF70D
:1027F00052FD052818D10330FFF73CFF06F0DAFA46
:102800005AA3D3E9002306F03BFB694B002206F0F4
:1028100037FB58A3D3E9002306F032FB06F042FD54
:102820000A2103F02BF802E0624803F003F8624843
:10283000BFE7FFF7E1FCBEE703F1580292E80300AF
:102840006A4682E8030048330FCBFFF7BDFCB2E7CE
:10285000FFF7E2FCAFE7594802F0ECFF0A214FF422
:10286000884003F00BF8564802F0E4FF05F042FD03
:102870000A2103F003F89EE7FFF714FF08B9514857
:1028800097E7514895E7514893E7514B1B78303B08
:10289000072B15D8DFE803F00406080A0C0E101207
:1028A0004C4886E74C4884E74C4882E74C4880E730
:1028B0004C487EE74C487CE74C487AE74C4878E740
:1028C0004C4876E704214C4801F098F84FF4967094
:1028D00005F03AFB0421484801F08EF8192005F074
:1028E00033FB0421444801F089F8192005F02CFB42
:1028F000FDF78AFE4148C12102F06FFC3F483321B9
:1029000002F06BFC3D48F12102F067FC3B4881215D
:1029100002F063FC3948662102F05FFC384848E762
:102920003548082101E03448102101F053F801280E
:102930000CBF344834483CE704212F4801F04AF8E2
:1029400001280CBF3148324833E7324B00201B6866
:10295000024699780B4603B05DF804EB02F09ABF8B
:10296000AFF30080333333333333493F66666666F3
:1029700066664A3F0000000000408F4011B9000821
:1029800017B900081BB9000887BD00081EB9000868
:1029900022B9000826B900082FB900083AB9000882
:1029A00046B900084AB9000800000020000026408F
:1029B0000000144068B900086AB900086EB9000840
:1029C00085B900089BB90008BCB9000812000020B6
:1029D00058460020DCB90008E7B90008F2B9000841
:1029E000FEB900080ABA000816BA000823BA00089F
:1029F00030BA00083DBA0008000801400044004019
:102A00004ABA000866BA000873BA000883BA000818
:102A100099BA00083C00002003B000BD704700BF19
:102A2000AFF300807047FEE7FEE7FEE7FEE7704782
:102A300040F0BE60024B40F42020D860704700BFD9
:102A400000ED00E0C37810B5EBB1154B4178DB68C1
:102A50008478DB4303F4E0631B0AC3F10402914072
:102A60000F22DA4022400A430E4B01781201CB18A4
:102A7000D2B283F8002303780122590903F01F031F
:102A800012FA03F307E003780122590903F01F0348
:102A900012FA03F32031034A42F8213010BD00BF7F
:102AA00000ED00E000E100E021F0604121F07F0155
:102AB000014B01439960704700ED00E0044B11B1F8
:102AC0001A69104302E01A6922EA0000186170478F
:102AD00000ED00E0044B04281A680CBF42F0040229
:102AE00022F004021A60704710E000E0134B10B5AA
:102AF000984207D14FF40070012101F027FB4FF4F9
:102B0000007014E00E4B984207D14FF48060012111
:102B100001F01CFB4FF4806009E00A4B98420BD196
:102B20004FF40040012101F011FB4FF4004000215F
:102B3000BDE8104001F00ABB10BD00BF00240140F9
:102B400000280140003C014043680A6823F47023D8
:102B500023F4807313430A7910B543EA02234360D8
:102B60008A68CB6884681A43094B04EA030342EA83
:102B700003034A7943EA420383600B7CC26A013B48
:102B800022F47002DBB242EA0353C36210BD00BFFD
:102B9000FDF7F1FF00230360037143718360C3609D
:102BA00001330374704719B1836843F0010302E0F5
:102BB000836823F001038360704719B1836843F48D
:102BC000807302E0836823F4807383607047C9B226
:102BD00012B14368194302E0436823EA01014160EE
:102BE0007047836843F00803836070478068C0F3D0
:102BF000C0007047836843F00403836070478068B7
:102C0000C0F38000704719B1836843F4A00302E069
:102C1000836823F4A003836070478068C0F380500A
:102C200070474368013923F4604343EA413343600A
:102C3000704719B1436843F4006302E0436823F42A
:102C4000006343607047092970B54FEA41040BD90E
:102C500064181E3C0725A540A340C66826EA050562
:102C600045EA0304C4600AE064180725A54013FA86
:102C700004F4066926EA050545EA04030361062A09
:102C80000CD8013A02EB82021F2393409140446B1F
:102C900024EA030343EA0102426370BD0C2A4FEAAF
:102CA00082030BD89A18233A1F2393409140046B58
:102CB00024EA030343EA0102026370BD9A18413A11
:102CC0001F2393409140C46A24EA030343EA0102AC
:102CD000C26270BD19B1836843F4801302E0836857
:102CE00023F4801383607047C06C80B27047014B3F
:102CF000186870474C24014019B1436843F480635D
:102D000002E0436823F480634360704719B143686D
:102D100043F4805302E0436823F4805343607047D8
:102D2000836823F4E04341EA03038360704719B1E9
:102D3000836843F4004302E0836823F40043836024
:102D4000704719B1836843F4021302E0836823F4E7
:102D50000213836070478068C0F3405070470929B0
:102D600070B54FEA41040BD964181E3C0725A540F5
:102D7000A340C66826EA050545EA0304C4600AE0E4
:102D800064180725A54013FA04F4066926EA050528
:102D900045EA04030361836B03F440146FEA14549F
:102DA00012190332D2B202EB82021F2494409140E6
:102DB00023EA04030B43836370BD836B013923F45F
:102DC000401343EA01538363704782B000230193A9
:102DD0000190019BCB180193019B1A6002B07047D0
:102DE00082B0002301930190019B28335B1801936B
:102DF000019B186880B202B07047436823F4400317
:102E000023F4007341EA0303436070474162826226
:102E10007047436823F01F0341EA03034360704790
:102E2000054B18B19A6842F4000202E09A6822F455
:102E300000029A60704700BF0024014003681942F5
:102E40000CBF002001207047C943016070474368F0
:102E5000006810EA112004D0C9B219420CBF00204A
:102E6000012070476FEA11210160704701420CBFD9
:102E70000020012070470C4B10B5984207D14FF04D
:102E80000070012101F06EF94FF0007006E04FF084
:102E90008060012101F066F94FF080600021BDE8FB
:102EA000104001F05FB900BF00640040036823F0E8
:102EB00002030360036843F001030360002300E0A2
:102EC0000133426812F0010F03D14FF6FF729342B3
:102ED000F6D1436813F0010359D08B79012B0368B5
:102EE0000CBF43F0800323F080030360CB79012BF8
:102EF00003680CBF43F0400323F0400303600B7AE8
:102F0000012B03680CBF43F0200323F02003036070
:102F10004B7A012B03680CBF43F0100323F010031E
:102F200003608B7A012B03680CBF43F0080323F086
:102F300008030360CB7A012B03680CBF43F0040342
:102F400023F0040303608B78CA789B0743EA02638B
:102F50000A7943EA02434A7943EA02530A88013A6A
:102F60001343C361036823F001030360002300E0FF
:102F70000133426812F0010F03D04FF6FF72934203
:102F8000F6D1406800F0010080F00100704718465B
:102F90007047837A01229A4070B5384BD3F80012FB
:102FA00041F00101C3F80012D3F81C42D14301EAF9
:102FB0000404C3F81C42047BB4B9D3F80C42C6889D
:102FC00001EA0404C3F80C42847A4588483445EA8F
:102FD000064543F8345003888488857A43EA0444DC
:102FE000274BED00EB185C60037B012B17D1234BC3
:102FF0000688D3F80C42458842EA0404C3F80C4220
:10300000847A45EA0645483443F83450C3888488B6
:10301000857A43EA04441A4BED00EB185C60C47AED
:10302000164B24B9D3F8044201EA040403E0D3F8B0
:10303000044242EA0404C3F8044204890F4B1CB959
:10304000D3F81442214005E0012C05D1D3F8141225
:1030500042EA0101C3F81412437B012B05D1074B4F
:10306000D3F81C120A43C3F81C22044BD3F80022E5
:1030700022F00102C3F8002270BD00BF00640040CE
:103080004066004000238371C371037243728372F0
:10309000C3728370C37003330371013B4371012317
:1030A000038070470D4BD3F8002242F00102C3F8B1
:1030B0000022D3F8002222F47C5222F00E02C3F840
:1030C0000022D3F8002242EA0022C3F80022D3F8FB
:1030D000002222F00102C3F8002270470064004081
:1030E00019B1036843F4803302E0036823F48033AA
:1030F00003607047A1B1036843F080030360D0F818
:10310000843143F48073C0F88431D0F8943143F4AF
:103110008073C0F89431D0F8A43143F4807313E085
:10312000036823F080030360D0F8843123F48073B4
:10313000C0F88431D0F8943123F48073C0F894310E
:10314000D0F8A43123F48073C0F8A431704770B56F
:103150008268034612F0806F09D1826812F0006F16
:1031600007D1826812F0805F4BD0022002E000207D
:1031700000E0012000F1180212019C5804F0010443
:103180009C500C7A2CB90E684C7A9D5844EA4654EF
:1031900005E04E689D5844EAC6042C434D7A2C4302
:1031A0009C508A7A00F11804240102F00F028A72FE
:1031B0001A19556825F00F05556055688E7A46EA4C
:1031C000050555604D7B8A7B2D0445EA0265CA7A68
:1031D00015430A7B45EA022503EB0012C2F8885129
:1031E0004D7C8E7C2D0445EA0665CE7B097C3543FB
:1031F00045EA0121C2F88C111A5942F001021A5114
:1032000070BD042070BD012906D002D302290BD164
:1032100005E082680E4B04E082680E4B01E0826894
:103220000D4B02EA030300E00023094A93420BD04E
:1032300001D83BB10AE0074A934205D0064A9342BF
:1032400004D101E002207047012070470020704740
:10325000030000040003000800000310012907D048
:1032600002D302290DD108E0836843F0800302E015
:10327000836843F4004383607047836843F400032A
:103280008360704730B501F11B042301C55805F078
:103290000405EDB215721DB9C3585B0D136002E051
:1032A000C358DB08536024010319045904F00204D5
:1032B00054725C6804F00F0494725B681B0AD37448
:1032C00000EB0113D3F8B841D472D3F8B841240A03
:1032D0001473D3F8B841240C5473D3F8B841240EB6
:1032E0009473D3F8BC41D473D3F8BC41240A14744A
:1032F000D3F8BC41240C5474D3F8BC311B0E937426
:1033000021B9C36843F02003C36030BD036943F0B3
:103310002003036130BD21B9C36843F02003C360BB
:103320007047036943F020030361704709B9C0681F
:1033300002E0012903D1006900F00300704700207A
:103340007047A9B9036823F0030343F00103036046
:103350004FF6FF7300E0013B426802F00302012ACE
:1033600001D0002BF7D1406800F0030001282EE0C7
:10337000012915D1036823F0030303604FF6FF739F
:1033800000E0013B426812F0030F01D0002BF8D19E
:10339000406800F00300D0F1010038BF0020704702
:1033A000022918D1036823F0030343F002030360EA
:1033B0004FF6FF7300E0013B426802F00302022A6D
:1033C00001D0002BF7D1406800F00300022814BFA1
:1033D00000200120704700207047036823F003039A
:1033E00043F002030360406800F00300A0F1020311
:1033F000584240EB03007047036823F00203036068
:103400004FF6FF7300E0013B426812F0020F01D05B
:10341000002BF8D1406800F00200D0F1010038BF65
:1034200000207047806900F0700070478069000ECE
:103430007047806900F47F00000C704712B1436947
:10344000194302E0436923EA01014161704711F425
:10345000700F01D083690DE011F0807F01D04368C7
:1034600008E011F0006F01D0836803E011F0007FE5
:1034700009D0C36823F07F4323F470030B420CBFD1
:10348000002001207047036923F07F4323F4700379
:103490000B420CBF0020012070470D4B994202D116
:1034A00000238361704721F07F4311F0007F23F4F4
:1034B000700301D0C360704711F0806F01D00361C9
:1034C000704711F0006F14BF83604360704700BF06
:1034D0007000F03043690B404DD0402935D00ED8F4
:1034E000042929D004D8012921D0022945D121E07D
:1034F000102925D0202926D008293ED11EE0B1F57B
:10350000006F32D009D8B1F5007F29D0B1F5806FB6
:1035100029D0B1F5807F30D11FE0B1F5803F16D0C2
:10352000B1F5003F16D0B1F5004F26D120E08068FC
:1035300013491FE0C06804E0C06809E0C0680AE001
:103540000069032116E0006902E0006903E04068B9
:1035500008210FE0406810210CE08069012109E09A
:103560008069022106E0806903E08069702101E042
:10357000406804217AE4184670470020704700BF75
:1035800001010100B1F5807F33D00CD8082924D087
:1035900004D801291CD0042936D11CE020291FD0D1
:1035A000402931D11EE0B1F5006F24D006D8B1F525
:1035B000007F1ED0B1F5806F26D11AE0B1F5803FB3
:1035C00013D0B1F5003F12D0B1F5004F1CD117E078
:1035D0000E4B83607047082300E01023C3607047E0
:1035E000082300E0102303617047082306E010233E
:1035F00004E0042302E00023836104334360704746
:103600000023836104334360704700BF0101010060
:10361000014B01229A60704700300240014B186054
:10362000186870470030024010B5002303E050F8DE
:10363000044B013314608B42014AF8D3106810BD6B
:1036400000300240014B1868704700BF0030024054
:10365000014B1871704700BF00300240014B1879D0
:10366000704700BF0030024002684FF6FE7302EA66
:10367000030303600023036043608360C3602E4B39
:10368000984229D02D4B984230D02D4B984237D0BC
:103690002C4B98423ED02C4B984206D153F8542CD8
:1036A00042F4702243F8542C7047284B984206D1BC
:1036B00053F8682C42F4700243F8682C7047244B8E
:1036C000984206D153F87C2C42F0706243F87C2C6F
:1036D0007047204B984206D153F8042C42F00F0259
:1036E00043F8042C70471C4B984206D153F8182C11
:1036F00042F0F00243F8182C7047184B984206D15C
:1037000053F82C2C42F4706243F82C2C7047144B65
:10371000984206D153F8402C42F4704243F8402CB2
:103720007047104B984205D153F8542C42F4702244
:1037300043F8542C704700BF080002401C000240B0
:103740003000024044000240580002406C00024039
:1037500080000240080402401C0402403004024081
:1037600044040240580402408A6810B50C6A036899
:1037700044EA02020C6923F4FE4322434C6923F01D
:10378000F00322438C692243CC6922434C6A2243D2
:103790008C6A224342EA03030360CB6843600B68F0
:1037A00083604B68C36010BD002303604360836087
:1037B000C360036143618361C361036243628362E7
:1037C000704719B1036843F0010304E002684FF643
:1037D000FE7302EA03030360704712B103681943E2
:1037E00002E0036823EA010101607047416070470D
:1037F000406880B2704710F0805F14BF034B044BE9
:103800001B6803420CBF00200120704700040240E7
:103810000000024010F0805F14BF024B024B586062
:10382000704700BF000402400000024010F0805FBB
:1038300014BF044B044B1B6803420CBF0020012043
:10384000704700BF000402400000024010F0805F9B
:1038500014BF024B024B5860704700BF0004024087
:1038600000000240234B10B5984205D104200121ED
:1038700000F06CFC042036E01F4B984205D1082074
:10388000012100F063FC08202DE01C4B984205D17B
:103890001020012100F05AFC102024E0184B98421F
:1038A00005D12020012100F051FC20201BE0154B08
:1038B000984205D14020012100F048FC402012E050
:1038C000114B984205D18020012100F03FFC80205F
:1038D00009E00E4B98420BD14FF48070012100F0AB
:1038E00035FC4FF480700021BDE8104000F02EBC84
:1038F00010BD00BF00080140000C01400010014055
:103900000014014000180140001C0140002001404B
:103910000120014610B500F019FC01200021BDE88E
:10392000104000F013BCCB78F0B513F0100F03F08B
:103930000F020E881CBF8B781A4316F0FF0F1DD0A4
:103940000468002301279F4007EA0605BD4211D104
:103950009F004FF00F0C0CFA07FC12FA07F724EA4D
:103960000C043C43CF78282F01D1456102E0482F59
:1039700008BF05610133082BE4D104600E88FF2ED7
:103980001FD94468002303F108050127AF4007EA67
:103990000605BD4211D19F004FF00F0C0CFA07FC39
:1039A00012FA07F724EA0C043C43CF78282F01D100
:1039B000456102E0482F08BF05610133082BE2D1C1
:1039C0004460F0BD4FF0FF33038002238370DB18A7
:1039D000C3707047836819420CBF002001207047F4
:1039E000806880B27047C36819420CBF0020012074
:1039F0007047C06880B2704701617047416170478D
:103A00000AB10161704741617047C160704741F47C
:103A1000803383618161836183698369704710B5F5
:103A2000054A4FF68073146841EA001104EA030363
:103A300041EA0303136010BD00000140014B186010
:103A4000704700BF1C00204230B50028174B00F41F
:103A50004014B4BFDB695B68B4F5401F82B207D184
:103A6000124C23F07063656825F07065656011E0A5
:103A700010F4801F06D000F47024240C032515FADE
:103A800004F403E0440D240112FA04F423EA0403CD
:103A900043F0706319B1410D09018A401343034A91
:103AA0000028B4BFD361536030BD00BF00000140A7
:103AB00001F0030230B592000F24944010FA02F294
:103AC000074B8908023153F8215025EA040443F8D2
:103AD000214053F8214042EA040443F8214030BD1C
:103AE00000000140014B1860704700BFDC0020421D
:103AF0000B4B10B5984207D14FF40010012100F094
:103B000031FB4FF4001006E04FF48000012100F07B
:103B100029FB4FF480000021BDE8104000F022BBDB
:103B200000540040F0B587B00446868801A80D46D1
:103B3000304F00F09DFA039826F03F063604B0FBA4
:103B4000F7F7360CBFB247EA0606A68021882A6836
:103B500021F00101284B0904090C9A4221800AD85E
:103B60005300B0FBF3F301379BB2BFB22784032BA2
:103B700098BF042322E0E9884BF6FF73994205D1F0
:103B800002EB4202B0FBF2F39BB206E0192353436F
:103B9000B0FBF3F39BB243F480431A05120D0AB94C
:103BA00043F001034FF4967257434FF47A7297FB38
:103BB000F2F70137BFB243F400432784A38323887D
:103BC00069899BB243F0010323802388AA8823F4E8
:103BD000806323F00A031B0441EA02021B0C134317
:103BE0009BB223802A89AB8942EA03039BB22381DB
:103BF00007B0F0BD40420F00A086010041F28833BB
:103C00000360002383804BF6FF72038143814FF4EE
:103C10008043C2808381704721B103889BB243F007
:103C2000010304E0038823F001031B041B0C038041
:103C3000704721B183889BB243F4006304E083881A
:103C400023F400631B041B0C8380704721B183881D
:103C50009BB243F4805304E0838823F480531B0415
:103C60001B0C8380704721B103889BB243F480739F
:103C700004E0038823F480731B041B0C038070474B
:103C800021B103889BB243F4007304E0038823F45A
:103C900000731B041B0C0380704721B103889BB287
:103CA00043F4806304E0038823F480631B041B0C4B
:103CB00003807047838901F0FE0123F0FE031B049B
:103CC0001B0C41EA03038381704721B183899BB2B6
:103CD00043F0010304E0838923F001031B041B0C60
:103CE0008381704721B103889BB243F0400304E015
:103CF000038823F040031B041B0C038070471AB198
:103D000083889BB2194303E083889BB223EA0101B5
:103D10008180704701827047008AC0B2704712B13B
:103D200041F0010101E001F0FE010182704782B023
:103D3000002301930190019BCB180193019B1888EC
:103D400080B202B0704731B103886FEA43436FEA33
:103D500053439BB202E003885B045B0C0380704713
:103D6000B1F5006F04D103889BB243F4006304E013
:103D7000038823F400631B041B0C03807047B1F518
:103D8000005F04D103889BB243F4005304E003882E
:103D900023F400531B041B0C0380704721B10388DC
:103DA0009BB243F4805304E0038823F480531B0444
:103DB0001B0C03807047B1F5006F04D103889BB2E0
:103DC00043F4006304E0038823F400631B041B0C2A
:103DD0000380704721B103889BB243F0200304E0C5
:103DE000038823F020031B041B0C03807047008B07
:103DF00080B2000A704721B103889BB243F01003E0
:103E000004E0038823F010031B041B0C038070479D
:103E100021B903889BB243F0800304E0038823F0B8
:103E200080031B041B0C03807047B1F5804F05D045
:103E3000838B23F480431B041B0C03E0838B9BB216
:103E400043F4804383837047838A008B9BB243EAA9
:103E50000040084020F07F40431A584240EB0300E6
:103E60007047838A008B9BB243EA004020F07F407A
:103E7000704782B00023019300930B0F00900193D1
:103E8000019B21F07F4113B1009B143302E0009BA2
:103E9000090C18330093009B1B6819420CBF0020CB
:103EA000012002B07047C94389B28182704783887C
:103EB000808A9BB280B2084006D001F0E06113EA2C
:103EC00011410CBF002001207047C94389B2818293
:103ED000704700BF0D4B1A6842F001021A60596822
:103EE0000B4A01EA02025A601A6822F0847222F434
:103EF00080321A601A6822F480221A605A6822F40A
:103F0000FE025A604FF41F029A6070470010024090
:103F10000000FFF80C4BB0F5803F1A6822F48032A5
:103F20001A601A6822F480221A6003D0B0F5802F3C
:103F300009D104E01A6842F480321A6070471A68A6
:103F400042F4A0221A60704700100240034B1A6826
:103F500022F0F80242EAC0021A60704700100240E4
:103F6000014B1860704700BF00004242044B5A6882
:103F700022F47C1240EA02020A435A60704700BFF2
:103F800000100240014B1860704700BF60004242C1
:103F9000034B5A6822F0030240EA02025A6070475B
:103FA00000100240024B586800F00C00704700BF40
:103FB00000100240034B5A6822F0F00240EA02026D
:103FC0005A60704700100240034B5A6822F4E062C6
:103FD00040EA02025A60704700100240034B5A68E0
:103FE00022F4605242EAC0025A6070470010024058
:103FF000044B11B11A78104302E01A7822EA00004B
:104000001870704709100240014B1860704700BFDC
:10401000D8004242034B5A6822F4404240EA02026E
:104020005A60704700100240064B002201281A70A7
:104030001A7002D0042804D101E0187070470522DC
:104040001A70704720100240014B1860704700BF83
:1040500080044242024B1A6A40EA02021A62704726
:1040600000100240014B1860704700BF3C04424200
:1040700010B5204B5A6802F00C02042A01D0082A1D
:1040800002D01D4B036011E05A68596802F47012A7
:10409000920C023211F4803F03D05B6813F4003FAE
:1040A00001D0164B00E0144B5A430260114A144BE6
:1040B0005168046801F0F0010909595C34FA01F112
:1040C0004160546804F4E064240A1C5D31FA04F48D
:1040D0008460546804F46054E40A1C5DE140C160EB
:1040E000526802F4404203EB92331B7CB1FBF3F1C4
:1040F000016110BD0010024000127A0000093D006D
:1041000028000020044B11B15A69104302E05A699B
:1041100022EA00005861704700100240044B11B1C0
:104120009A69104302E09A6922EA00009861704798
:1041300000100240044B11B1DA69104302E0DA6961
:1041400022EA0000D861704700100240044B11B110
:10415000DA68104302E0DA6822EA0000D8607047AB
:1041600000100240044B11B11A69104302E01A69B1
:1041700022EA00001861704700100240014B1860ED
:10418000704700BF40044242014B1860704700BFB7
:104190004C004242014B1870704700BF07100240AC
:1041A0004309012B074A01D1136803E0022B0CBF1E
:1041B000136A536A00F01F0033FA00F000F00100A8
:1041C000704700BF0010024007B500230193312063
:1041D000FFF7E6FF019B01330193019BB3F5A06F4D
:1041E00001D00028F3D03120FFF7DAFF003818BFE4
:1041F00001200EBD024B5A6A42F080725A6270472B
:1042000000100240034B9B6818420CBF00200120A5
:10421000704700BF00100240014B1870704700BF8C
:104220000A10024030B5048C24F001042404240C4C
:104230000484048B058C24F0F3042404240C42EA47
:10424000040444EA0314104BADB29842A4B20ED059
:104250000E4B98420BD0B0F1804F08D00C4B9842D7
:1042600005D00C4B984202D00B4B984202D125F05E
:10427000020501E025F00A0545F0010545EA0101C6
:104280000483018430BD00BF002C01400034014094
:104290000004004000080040000C004030B5048CD1
:1042A00024F010042404240C0484048B058C24F4CE
:1042B00040742405240D44EA022444EA0334124BDA
:1042C000ADB29842A4B20ED0104B98420BD0B0F1D0
:1042D000804F08D00E4B984205D00E4B984202D02A
:1042E0000D4B984207D125F0200545F0100545EA11
:1042F000011189B205E025F0A00545F0100545EA59
:1043000001010483018430BD002C014000340140D0
:104310000004004000080040000C00405A4B10B55B
:10432000984207D14FF400600121FFF70FFF4FF4CF
:104330000060A2E0B0F1804F05D101200146FFF7F7
:1043400011FF012007E0514B984209D102200121C1
:10435000FFF708FF02200021BDE81040FFF702BF71
:104360004B4B984205D104200121FFF7FBFE0420AE
:10437000F1E7484B984205D108200121FFF7F2FEF2
:104380000820E8E7444B984205D110200121FFF7AF
:10439000E9FE1020DFE7414B984205D120200121A2
:1043A000FFF7E0FE2020D6E73D4B984207D14FF4BF
:1043B00000500121FFF7CAFE4FF400505DE0394B79
:1043C000984207D14FF400200121FFF7BFFE4FF4C0
:1043D000002052E0344B984207D14FF48010012165
:1043E000FFF7B4FE4FF4801047E0304B984207D1FE
:1043F0004FF400100121FFF7A9FE4FF400103CE03C
:104400002B4B984205D140200121FFF7ABFE402005
:10441000A1E7284B984205D180200121FFF7A2FE99
:10442000802098E7244B984207D14FF480700121F7
:10443000FFF798FE4FF480708DE7204B984207D12C
:104440004FF480300121FFF781FE4FF4803014E0FB
:104450001B4B984207D14FF400300121FFF776FE45
:104460004FF4003009E0174B98420BD14FF48020F5
:104470000121FFF76BFE4FF480200021BDE81040C2
:10448000FFF764BE10BD00BF002C014000040040D7
:1044900000080040000C00400010004000140040E4
:1044A00000340140004C01400050014000540140E4
:1044B00000180040001C0040002000400040014067
:1044C0000044014000480140204A038890429BB2CA
:1044D0000ED01F4A90420BD0B0F1804F08D01D4A39
:1044E000904205D01C4A904202D01C4A904206D10C
:1044F0004FF68F7203EA02024B8842EA0303184A1E
:10450000904209D0174A904206D04FF6FF4203EA84
:104510000202CB8842EA030303808B8883850B88E1
:1045200003850A4B98420BD0094B984208D00E4B9A
:10453000984205D00D4B984202D00D4B984201D1C4
:104540000B7A038601238382704700BF002C014051
:10455000003401400004004000080040000C00400E
:1045600000100040001400400040014000440140A1
:1045700000480140038C70B523F001031B041B0CA1
:104580000384038C8488028B0D8822F0730212044A
:10459000120C2A434E880D8923F002031B0446EABD
:1045A00005051B0CADB245EA0303164DA4B2A842A3
:1045B0000BD0154DA84208D0144DA84205D0144D7B
:1045C000A84202D0134DA84215D14FF6F77503EA61
:1045D00005054B89CE891D434FF6FB7305EA03039E
:1045E0008D882B434FF6FF4504EA05058C8946EA82
:1045F0000404A4B22C4384800283CA888286038484
:1046000070BD00BF002C014000340140004001405B
:104610000044014000480140038C30B523F01003F2
:104620001B041B0C0384038C8288048B0D8824F4E8
:10463000E6442404240C23F0200344EA05241B044C
:104640000D891B0C43EA05134D8892B243EA05130A
:10465000134DA4B2A8429BB202D0124DA84219D168
:104660004FF67F7503EA05054B8945EA03154FF6BA
:10467000BF7305EA03038D8843EA05134FF2FF3544
:1046800002EA05058A899BB245EA8205CA8945EA9C
:10469000820292B28280CA8804830287038430BD7A
:1046A000002C014000340140038C30B523F48073AA
:1046B0001B041B0C0384038C8288848B0D8824F0DC
:1046C00073042404240C23F400731B042C430D896D
:1046D0001B0C43EA05234D8892B243EA0523134D90
:1046E0009BB2A84202D0124DA84219D14FF2FF75D9
:1046F00003EA05054B8945EA03254FF6FF3305EA32
:1047000003038D8843EA05234CF6FF7502EA05058D
:104710008A899BB245EA0215CA8945EA021292B219
:104720008280CA8884838287038430BD002C014044
:1047300000340140038C30B523F480531B041B0C60
:104740000384038C8488828B0D8822F4E642120451
:10475000120C23F4005342EA05221B040D891B0CA2
:1047600043EA05334D88A4B243EA05330B4D92B2B8
:10477000A8429BB202D00A4DA84207D14BF6FF7562
:1047800004EA05058C8945EA8414A4B284808283F6
:10479000CA88A0F84020038430BD00BF002C01402F
:1047A000003401404A880B8842EA03038A88134395
:1047B000CA8813430A8913434A8913438A891343D6
:1047C0009BB2A0F8443070474FF0FF338380002342
:1047D0000380C380438003727047002303804380BB
:1047E0008380C380038143818381C3817047002319
:1047F0000122038043808280C380038170470023AD
:10480000038043808380C380038143818381704719
:1048100021B103889BB243F0010304E0038823F035
:1048200001031B041B0C0380704739B1B0F84430FE
:104830006FEA43436FEA53439BB203E0B0F844305E
:104840005B045B0CA0F8443070471AB183899BB2BB
:10485000194303E083899BB223EA010181817047F8
:10486000818270470A43A0F8482070471AB18389B3
:104870009BB2194303E083899BB223EA0101818142
:104880007047038923F007031B041B0C0381704747
:1048900010B50489E4B241EA040442EA040444EA9B
:1048A0000324A4B2048110BD10B50446FFF7F0FF45
:1048B00023899BB243F48043238110BD10B5044685
:1048C000FFF7E6FF238923F077031B041B0C43F05B
:1048D0007703238110BD018582827047038823F00E
:1048E00070031B041B0C41EA030303807047038918
:1048F00023F070031B041B0C41EA03030381704780
:1049000038B50D46602D0446114603D10122FFF74C
:10491000C5FC02E00122FFF785FC20462946FFF78F
:10492000E6FF23899BB243F00703238138BD10B50E
:104930000446FFF7DCFF23899BB243F00703238182
:1049400010BD70B50489068B058C26F4407625F0E1
:10495000220526F003062D0424F0070436042D0C4E
:104960002404360C42EA0505240C46F4807645EA18
:104970000315214346F00106ADB20181068305848B
:1049800070BD038B23F070031B041B0C41EA03036F
:1049900003837047038B23F4E0431B041B0C43EA9F
:1049A00001239BB203837047838B23F070031B04A6
:1049B0001B0C41EA030383837047838B23F4E0439A
:1049C0001B041B0C43EA01239BB28383704721B174
:1049D00003889BB243F0800304E0038823F0800344
:1049E0001B041B0C0380704721B183889BB243F0EA
:1049F000040304E0838823F004031B041B0C83805E
:104A0000704721B183889BB243F0080304E0838898
:104A100023F008031B041B0C8380704721B183889B
:104A20009BB243F0010304E0838823F001031B04DD
:104A30001B0C83807047038B23F008031B041B0CA3
:104A400041EA030303837047038B23F400631B04D1
:104A50001B0C43EA01239BB203837047838B23F033
:104A600008031B041B0C41EA030383837047838BF9
:104A700023F400631B041B0C43EA01239BB28383D2
:104A80007047038B23F004031B041B0C41EA030350
:104A900003837047038B23F480631B041B0C43EADE
:104AA00001239BB203837047838B23F004031B0411
:104AB0001B0C41EA030383837047838B23F48063D9
:104AC0001B041B0C43EA01239BB283837047038BB7
:104AD00023F080031B041B0C41EA0303038370478C
:104AE000038B5B045B0C43EA01239BB20383704797
:104AF000838B23F080031B041B0C41EA0303838395
:104B00007047838B5B045B0C43EA01239BB2838376
:104B10007047038C23F002031B041B0C41EA0303C0
:104B200003847047038C23F008031B041B0C41EA29
:104B3000030303847047038C23F020031B041B0C26
:104B400043EA01139BB203847047038C23F0800374
:104B50001B041B0C43EA01139BB203847047038CB4
:104B600023F400731B041B0C43EA01239BB2038450
:104B70007047038C23F400631B041B0C43EA0123DE
:104B80009BB203847047038C23F400531B041B0C5B
:104B900043EA01339BB20384704701238B4012FA2E
:104BA00001F110B5048CA4B224EA03030384038C3E
:104BB00041EA03039BB2038410BD04238B4012FA25
:104BC00001F110B5048CA4B224EA03030384038C1E
:104BD00041EA03039BB2038410BD30B501248C402D
:104BE000058C00F11803ADB225EA0404048409B170
:104BF000082906D14908C85820F07000C850C85884
:104C000009E0043989B24908C858120220F4E0408A
:104C1000C850C85892B240EA0202CA5030BD21B111
:104C200003889BB243F0020304E0038823F00203ED
:104C30001B041B0C0380704721B103889BB243F017
:104C4000040304E0038823F004031B041B0C03800B
:104C5000704721B183889BB243F0800304E08388CE
:104C600023F080031B041B0C83807047038823F010
:104C700008031B041B0C038003889BB241EA030357
:104C800003807047838823F070031B041B0C838010
:104C900083889BB241EA030383807047038923F032
:104CA00007031B041B0C038103899BB241EA030326
:104CB00003817047038923F080031B041B0C0381CD
:104CC00003899BB241EA03030381704781847047E3
:104CD000818570478186704701877047818770475B
:104CE000A0F840107047038B23F00C031B041B0C2F
:104CF0000383038B9BB241EA030303837047038B57
:104D000023F440631B041B0C0383038B9BB243EA15
:104D100001239BB2038370472DE9F0410C46A28822
:104D20004988B4F800E0054600290CBF0227002797
:104D3000012A14BF012602262389BEF1000F10D1DB
:104D4000FFF770FA2846E188FFF7CDFF284639467D
:104D500032462389FFF7A2FAE1882846BDE8F041F0
:104D6000CDE7FFF79BFA2846E188FFF7C8FF284602
:104D7000394632462389FFF755FAE1882846BDE8CF
:104D8000F041B0E7838B23F00C031B041B0C8383DF
:104D9000838B9BB241EA030383837047838B23F4A5
:104DA00040631B041B0C8383838B9BB243EA012368
:104DB0009BB2838370470B882DE9F0410D46044672
:104DC0004988AA883BB92B89FFF72CFAE988204645
:104DD000BDE8F04187E7042B07D12B89FFF75EFA86
:104DE000E9882046BDE8F04189E7082B8C46B5F8F4
:104DF000088039D1068C394B26F480763604360C7F
:104E00000684808B278C20F0F3000004000C40EA1D
:104E1000081080B29C42BFB240EA02020ED0304B72
:104E20009C420BD0B4F1804F08D02E4B9C4205D051
:104E30002D4B9C4202D02D4B9C4207D127F400768B
:104E400046EA0C26B6B246F4807606E04FF2FF56EC
:104E500007EA060641F480710E43E9882046A283E2
:104E60002684BDE8F0418DE7008C20F480500004DA
:104E7000000C2084A38B278C23F440731B051B0D8F
:104E800043EA0223154A43EA08339442BFB29BB275
:104E90000ED0134A94420BD0B4F1804F08D0114A7F
:104EA000944205D0104A944202D0104A944207D14D
:104EB00027F4005242EA0C3292B242F4805206E0E9
:104EC00047F6FF5207EA020241F480510A43E9889B
:104ED0002046A3832284BDE8F0415FE7002C014017
:104EE000003401400004004000080040000C004075
:104EF000038823F440731B041B0C038003889BB2BC
:104F000041EA030303807047808E80B27047008FB0
:104F100080B27047808F80B27047B0F8400080B296
:104F20007047808C80B27047008D80B27047038AD2
:104F300019420CBF002001207047C94389B2018289
:104F40007047038A828911EA030092B203D01142AA
:104F50000CBF002001207047C94389B2018270470D
:104F6000204B10B598420BD101214FF48040FFF740
:104F7000EDF84FF480400021BDE81040FFF7E6B89F
:104F8000194B984207D14FF400300121FFF7EAF89E
:104F90004FF400301FE0154B984207D14FF48020AA
:104FA0000121FFF7DFF84FF4802014E0104B984206
:104FB00007D14FF400200121FFF7D4F84FF400206F
:104FC00009E00C4B98420BD14FF480100121FFF700
:104FD000C9F84FF480100021BDE81040FFF7C2B8B7
:104FE00010BD00BF003801400044004000480040B0
:104FF000004C00400050004030B5038ACA8823F4BA
:1050000040531B041B0C134303820D4683890989FB
:10501000AA8823F4B05341EA0202698923F00C0301
:105020000A431B041B0C92B242EA03038381838A66
:10503000AA8923F440731B041B0C87B01343044656
:10504000838201A8FFF714F8184BA2899C4212B280
:105050000CBF049B039B002A4FF019012A6802DA57
:105060005943520001E0594392006423B1FBF2F12D
:10507000B1FBF3F21201100903FB1011A08900B279
:10508000002806DAC9003231B1FBF3F303F007035D
:1050900005E009013231B1FBF3F303F00F0343EAFA
:1050A000020292B2228107B030BD00BF0038014039
:1050B0004FF4165303600C2200238380C3800381C6
:1050C0004281838170470A8810B54C88038A44EA7C
:1050D00002028C88C98823F4706322431B040A43AC
:1050E0001B0C92B242EA0303038210BD002303802B
:1050F00043808380C380704721B183899BB243F48E
:10510000005304E0838923F400531B041B0C8381A8
:105110007047CBB210B55B09012401F01F0114FAEE
:1051200001F1A34201D10C3004E0022B01D1103077
:1051300000E014301AB1036843EA010102E0036899
:1051400023EA0101016010BD1AB1838A9BB21943A1
:1051500003E0838A9BB223EA010181827047038ABC
:1051600023F00F031B041B0C0382038A9BB241EA4A
:10517000030303827047838923F400631B041B0C21
:10518000838183899BB241EA03038381704721B104
:1051900083899BB243F0020304E0838923F0020376
:1051A0001B041B0C83817047038A23F020031B041C
:1051B0001B0C0382038A9BB241EA030303827047FC
:1051C00021B1038A9BB243F4804304E0038A23F4B1
:1051D00080431B041B0C03827047C905C90D8180E5
:1051E00070478088C005C00D704783899BB243F02B
:1051F000010383817047038BDBB20383038B9BB274
:1052000043EA012303837047038B03F47F43038343
:10521000038B9BB241EA03030383704721B1838A66
:105220009BB243F0200304E0838A23F020031B0495
:105230001B0C8382704721B1838A9BB243F0100319
:1052400004E0838A23F010031B041B0C8382704745
:1052500021B1838A9BB243F0080304E0838A23F0E0
:1052600008031B041B0C8382704731B183896FEAEA
:1052700043436FEA53439BB202E083895B045B0CB8
:105280008381704721B1838A9BB243F4006304E0B9
:10529000838A23F400631B041B0C83827047838A78
:1052A00023F004031B041B0C8382838A9BB241EA14
:1052B00003038382704721B1838A9BB243F00203C8
:1052C00004E0838A23F002031B041B0C83827047D3
:1052D000038819420CBF002001207047C94389B2DE
:1052E0000180704710B5CCB20122640901F01F03A0
:1052F0009A40012C01D1838903E0022C0CBF038A60
:10530000838A9BB202EA0303028892B243B1090A7C
:10531000012313FA01F111420CBF0020012010BD3E
:10532000184610BD090A01238B40DB439BB2038062
:10533000704700BF08B5084B00221968072000F02D
:10534000A1F9064B07201968002200F09BF90A20FA
:1053500002F0FAFDEFE700BF08010020E80000209E
:105360001FB500F025F8012400F010F900F0FCF85A
:1053700000F016FE00F020FC00F0CEFB00F062F81A
:105380000023084980220848019302930393009464
:1053900002F0DAFA02F0A0FC00F01FF8204604B098
:1053A00010BD00BFB2BA000831780008FDF736BB67
:1053B00010B5FCF773FF0120002102F037F9054A10
:1053C000106030B100210A460B46BDE8104002F0E3
:1053D00062B910BD204700207047FCF768BF032862
:1053E0001FB503461EDC01291CDC104A52F82000C0
:1053F000C0B10F4A52F82120A2B10E4A13600E4BE1
:105400000122196000920D4A0D4901920022029278
:105410000392803202F098FA012814BF6FF0010065
:10542000002001E04FF0FF3005B000BD88460020AD
:10543000984600202847002024470020C04600202E
:10544000B7BA000810B5FCF725FF074C2060FCF741
:1054500023FF064B014618602068FFF7C0FFBDE838
:105460001040FCF722BF00BF28470020244700203F
:105470008368F7B5012B044619D0022B59D10025BA
:105480000095C068294622692B46FCF73FFF01289A
:10549000064606D129462A462B4600F021F9354614
:1054A00051E02A4B01200421E2681B6932E0C26806
:1054B000274E0369274C032A3260236033DC012B1B
:1054C00031DC254951F82220002A2CD0234A52F8F9
:1054D000233043B3224B002219681020214F00F0E3
:1054E000D1F8002138684FF4FA620B4602F06CF9EB
:1054F0000128054626D100210A460B46386802F0ED
:10550000CAF821683068FFF76AFF014628B92846C3
:105510000A460B4600F0E4F815E00C4B28462946F5
:1055200000225B680AE0094B012003210022DB68AE
:1055300004E0064B01209B680221002200F0D0F815
:10554000002500E000E02846FEBD00BF3C00002032
:105550002847002024470020884600209846002045
:105560000801002020470020074B002210B51A60D8
:105570005A609A60DA6001F0A3FF01F0D1F8BDE84B
:10558000104001F0F1B800BF88460020024B002215
:105590001A605A6000F0ECBE9846002070B50646CE
:1055A00001F10C000D4602F02DFE044650B10560DD
:1055B0003EB135B10C30606031462A4603F00EF83A
:1055C00000E06660204670BD70B50D46064690B19D
:1055D00099B101F10C0002F015FE044670B140F8DB
:1055E0000C5B2A466060314602F0F8FF636803F105
:1055F00014021A6102E0044600E00C46204670BD29
:1056000070B50546D8B18068143002F0FBFD044641
:10561000A0B12E460FCE26460FC604F1140020611D
:10562000AA68296902F0DAFFA96820461431FFF759
:10563000CBFF0546204602F03DFE00E00546284629
:1056400070BD08B102F036BE704738B505460C2073
:1056500002F0D8FD044630B1284602F0D3FDA06028
:10566000002808BF0024204638BD10B5044640B1CC
:10567000806808B102F01EFE2046BDE8104002F02E
:1056800019BE10BD07B501920022009013460846CE
:10569000694602F000F80EBD13B5044602A840F8B2
:1056A000041D0421FFF77AFF024620B1024B204679
:1056B0001968FFF7E7FF1CBDE800002010B50C4695
:1056C0001821FFF76BFF024630B1044B8460596824
:1056D0000B20BDE81040D5E710BD00BFE80000205A
:1056E0001FB5009001916846102102920393FFF7C5
:1056F00055FF054B02468360044B06205968FFF7AF
:10570000C1FF05B000BD00BFF97D0008E800002022
:1057100007B501920022009013460846694602F040
:105720002AF80EBD1FB50090019168461021029223
:105730000393FFF733FF054B02468360044B0620BB
:105740005968FFF7E5FF05B000BD00BFF97D00080F
:10575000E800002013B500230C46694602F034F837
:10576000012803BF019B0098236000201CBD05E0B9
:105770000B78027801F8012900F8013B8142F7D843
:105780007047054B0A0901F00F019A5C5B5C0270DF
:10579000437000238370704736B8000838B504465C
:1057A0000D460234090AFFF7ECFF2046E9B2FFF785
:1057B000E8FF0023A37038BD38B504460D46043415
:1057C000090CFFF7EBFF2046A9B2FFF7E7FF002324
:1057D000237138BD931E212BF7B505460C4617469D
:1057E00003D900230B7003B0F0BD80EAE071A1EB98
:1057F000E071264600E019463A46684602F0CAFEC5
:10580000019A0B49009B8A5C314601F8012B0E4638
:10581000002BF0D1002D02DA2D3301F8013B0023DB
:1058200001F80139204603B0BDE8F0409FE700BF12
:1058300018BB000810B540B1044602E0034B1B68DA
:10584000984714F8010B0028F8D110BD1001002072
:10585000064B1B68012B02D0022B04D101E0044847
:1058600002E0044800E00448E4E700BF50000020E4
:1058700040BB00083DBB00083FBB00080A4610B50E
:105880000349FFF7A7FF0248BDE81040D2E700BF79
:105890002C4700202DE9F041044615461E460F46D0
:1058A000D1B11248FFF7C6FF0A212046FFF7E6FFF5
:1058B0000F48FFF7BFFF0A213846FFF7DFFF0C480C
:1058C000FFF7B8FF28460A21FFF7D8FF3EB1084886
:1058D000FFF7B0FF304600E00648FFF7ABFFFFF7E9
:1058E000B7FF0548BDE8F041A4E700BF42BB000890
:1058F00087BD00084BBB00084DBB00080B4608687D
:105900009A684968DB68C5E70020014602460346FD
:10591000C0E7014610B50348FFF74EFF0148BDE858
:10592000104087E72C470020014610B50348FFF7D9
:1059300035FF0248BDE810407CE700BF2C4700203F
:10594000014610B50348FFF71CFF0248BDE81040B0
:1059500070E700BF2C4700202DE9F04F6C4B99B049
:105960001868002800F0CE8001230493694B0024BE
:105970001D680B946F682868394612940294059448
:1059800009940C9410941394FCF79AFCA146A24637
:105990004FF0020B5E494FF0FF32086817A9FFF77E
:1059A000D9FE0028F6D00738082800F2A780DFE8E3
:1059B00000F005A5A5A5A57789979C0002AA0AF184
:1059C000010A17A913469869002808DD0138986173
:1059D00028B99868022802D1013898601861D868FF
:1059E000002801DD0138D8601C338B42EBD1BAF1BD
:1059F000640F0DDD89F001099368012B03D1D36891
:105A00000BB9C2F800901C328A42F5D14FF0000A5F
:105A100002AC4FF0000826682EB1E368D3F1010311
:105A200038BF002300E033466268934214D02EB1A1
:105A3000E268D2F1010238BF002200E032460021C4
:105A400040460B460091FCF761FC26B1E668D6F1B2
:105A5000010638BF002666602369012B01D1013B96
:105A600023616369012B01D1013B636108F10108E6
:105A70001C34B8F1030FCED1002D3FD0013F002FD1
:105A80003CDC08356C682CB920462146FCF718FC34
:105A9000254633E028682146FCF712FC27462DE016
:105AA0001C2318A903FB0B13022243F8502C013AC4
:105AB00043F8582C093243F84C2C4FF47A7243F8CF
:105AC000402C1BE0179B18A95B681A681C2303FB7A
:105AD0000B13012A0CBF0222002243F8502C0DE0C8
