:020000040800F2
:1024000000500020F1B60008394E00083B4E00088D
:102410003D4E00083F4E0008414E000800000000FD
:102420000000000000000000000000001DA70008E0
:10243000434E000800000000C9A7000805A80008D6
:1024400035B7000835B7000835B7000835B70008BC
:1024500035B7000835B7000835B7000835B70008AC
:1024600035B7000835B7000835B7000835B700089C
:1024700035B7000835B7000835B7000835B700088C
:10248000314400089944000835B70008793E000837
:102490003D3D000835B70008F53D000835B7000898
:1024A00035B7000835B7000835B7000835B700085C
:1024B00035B7000835B7000835B7000835B700084C
:1024C00035B7000835B7000835B7000835B700083C
:1024D00035B700086D49000835B7000835B7000862
:1024E00035B7000835B7000835B700080000000010
:1024F00000000000000000000000000000000000DC
:0C25000000000000000000005FF808F17F
:1025100010B51A4B88B01A68194B0024B2FBF3F2BD
:10252000013A93FBF0F305A94FF08040ADF8142079
:10253000ADF81830ADF81A40ADF8164004F0CEF9F9
:102540006023ADF804300123ADF8063001A94FF443
:10255000A1734FF08040ADF80A30ADF80C4004F0A4
:10256000F3FA08214FF0804004F08BFC4FF08040DC
:10257000214604F057FB08B010BD00BFB400002096
:1025800080841E0030B5044685B03E480D4602F0FA
:102590007CFE01A802F080FF0122002394428DF806
:1025A0000A308DF80B308DF80C308DF80D308DF829
:1025B0000E308DF80F208DF806508DF8073001D0C1
:1025C000052C07D102238DF80830DB188DF809306F
:1025D000202326E0022C01D0062C07D102238DF8FF
:1025E0000830DB188DF8093010231AE0032C01D0D5
:1025F000072C04D102238DF80830DB180EE0042CE0
:102600004FF0020301D0082C05D18DF808300423C7
:102610008DF8093005E08DF8083004238DF8093075
:10262000082301A91748ADF8043002F049FE012241
:1026300014484FF4807103F00BF9012211484FF454
:10264000007103F005F901220E484FF4004103F038
:10265000FFF801220B484FF4806103F0F9F80122E2
:1026600008484FF4006103F0F3F802210122054805
:1026700003F0EEF8012103480A4603F0E9F805B03B
:1026800030BD00BF0064004073B54FF410514FF0EF
:10269000006002F013FC4FF4407002F0D3FB012401
:1026A000002525230C2601A88DF804308DF805603F
:1026B0008DF806508DF8074002F0CEFB142301A8D8
:1026C0008DF804308DF805608DF806408DF80740D0
:1026D00002F0C2FB1F2301A88DF804308DF80550CD
:1026E0008DF806508DF8074002F0B6FB202301A8B4
:1026F0008DF804308DF805508DF806408DF80740B0
:1027000002F0AAFB7CBD1FB5114804F033FE42F66F
:10271000A00300930023ADF80430ADF80630ADF807
:102720000830ADF80C3069460C230948ADF80A3082
:1027300004F06CFE0121064804F0E8FE044840F273
:102740002551012204F0EFFEFFF79EFF05B000BD0A
:10275000004400402DE9F041924B86B0924800249D
:10276000049304F007FE4FF4E1330C228E486946CF
:102770000093ADF80A20ADF80440ADF80640ADF87E
:102780000840ADF80C4004F041FE8748012104F0F8
:10279000BDFE854840F22551012204F0C4FEFFF73A
:1027A00073FF81480D2104F022FF059402E0059B90
:1027B00001330593059A7D4B9A42F8D900257A4852
:1027C000612104F014FF002301E0059B0133059310
:1027D000059A049B9A42F8D37348742104F007FFCA
:1027E000002301E0059B01330593059A049B9A425F
:1027F000F8D36D480D2104F0FAFE002301E0059B9B
:1028000001330593059A049B9A42F8D3002301E013
:10281000059B01330593059A654B9A42F8D9654F9C
:102820000024654E3C60604861213460B04604F08D
:10283000DEFE059402E0059B01330593059A049B97
:102840009A42F8D35848742104F0D1FE002301E0E5
:10285000059B01330593059A049B9A42F8D352488D
:102860006C2104F0C4FE002301E0059B01330593B5
:10287000059A049B9A42F8D34B483F2104F0B7FED7
:10288000002301E0059B01330593059A049B9A42BE
:10289000F8D345480D2104F0AAFE002301E0059B72
:1028A00001330593059A049B9A42F8D3002301E073
:1028B000059B01330593059A404B9A42F8D9404B4A
:1028C00000241B78303B072B00F2EE81DFE813F089
:1028D00008004A009C00DE002301EF016501AA0107
:1028E0003148612104F083FE059402E0059B013329
:1028F0000593059A049B9A42F8D32B48742104F05F
:1029000076FE002301E0059B01330593059A049BA5
:102910009A42F8D324486C2104F069FE002301E0B8
:10292000059B01330593059A049B9A42F8D31E48F0
:10293000352104F05CFE002301E0059B0133059383
:10294000059A049B9A42F8D317480D2104F04FFED4
:10295000002301E0059B01330593059A049B9A42ED
:10296000F8D3BDE11048612104F041FE059402E076
:10297000059B01330593059A049B9A42F8D30A48B4
:10298000742104F034FE002301E0059B013305931C
:10299000059A049B9A42F8D303486C2104F027FE61
:1029A000002311E0E0930400003801403F54890007
:1029B000EF490200A8460020A44600201FA10700FE
:1029C00050460020059B01330593059A049B9A42CB
:1029D000F8D39348352104F00AFE002301E0059B5B
:1029E00001330593059A049B9A42F8D38C480D2134
:1029F00004F0FDFD002301E0059B01330593059ADA
:102A0000049B9A42F8D36BE18548612104F0EFFD05
:102A1000059402E0059B01330593059A049B9A42B5
:102A2000F8D37F48742104F0E2FD002301E0059B08
:102A300001330593059A049B9A42F8D378486C2198
:102A400004F0D5FD002301E0059B01330593059AB1
:102A5000049B9A42F8D37248352104F0C8FD002344
:102A600001E0059B01330593059A049B9A42F8D334
:102A70006B480D2104F0BBFD002301E0059B0133F1
:102A80000593059A049B9A42F8D329E16448612191
:102A9000346004F0ACFD059402E0059B013305931E
:102AA000059A049B9A42F8D35D48742104F09FFD77
:102AB000002301E0059B01330593059A049B9A428C
:102AC000F8D357486C2104F092FD002301E0059BE8
:102AD00001330593059A049B9A42F8D35048352157
:102AE00004F085FD002301E0059B01330593059A61
:102AF000049B9A42F8D34A480D2104F078FD002344
:102B000001E0059B01330593059A049B9A42F8D393
:102B100001233360E4E04248612104F068FD05943C
:102B200002E0059B01330593059A049B9A42F8D372
:102B30003B48742104F05BFD002301E0059B013359
:102B40000593059A049B9A42F8D335486C2104F00A
:102B50004EFD002301E0059B01330593059A049B7C
:102B60009A42F8D32E48352104F041FD002301E0BC
:102B7000059B01330593059A049B9A42F8D3284894
:102B80000D2104F034FD002301E0059B0133059382
:102B9000059A049B9A42F8D3A2E02148612104F0EF
:102BA00026FD059402E0059B01330593059A049BDD
:102BB0009A42F8D31A48742104F019FD002301E069
:102BC000059B01330593059A049B9A42F8D3144858
:102BD0006C2104F00CFD002301E0059B01330593FB
:102BE000059A049B9A42F8D30D48352104F0FFFC66
:102BF000002301E0059B01330593059A049B9A424B
:102C0000F8D307480D2104F0F2FC002301E0059BF6
:102C100001330593059A049B9A42F8D360E000BF04
:102C2000003801408E48612104F0E1FC059402E087
:102C3000059B01330593059A049B9A42F8D3884873
:102C4000742104F0D4FC002301E0059B01330593BB
:102C5000059A049B9A42F8D381486C2104F0C7FC82
:102C6000002301E0059B01330593059A049B9A42DA
:102C7000F8D37B48352104F0BAFC002301E0059B22
:102C800001330593059A049B9A42F8D374480D21A9
:102C900004F0ADFC002301E0059B01330593059A88
:102CA000049B9A42F8D31BE00135EDB200E0092500
:102CB000AB1E072B05D8DFE803F0070A0D10131829
:102CC0001B1E4FF4965318E04FF4165315E04FF4C3
:102CD000964312E04FF416430FE04FF461430CE0CB
:102CE0004FF4E1330093062508E04FF4613304E02C
:102CF0004FF4E12301E04FF4E13300935848694673
:102D000004F084FB092D7FF45AAD0024C8F800407C
:102D10003C605348612104F06AFC059402E0059B85
:102D200001330593059A049B9A42F8D34C487421C9
:102D300004F05DFC002301E0059B01330593059A37
:102D4000049B9A42F8D34648622104F050FC0023C9
:102D500001E0059B01330593059A049B9A42F8D341
:102D60003F483F2104F043FC002301E0059B013371
:102D70000593059A049B9A42F8D339480D2104F033
:102D800036FC002301E0059B01330593059A049B63
:102D90009A42F8D3002301E0059B01330593059A7D
:102DA000304B9A42F8D90024C8F800403C602C48C7
:102DB000612104F01CFC059402E0059B013305939E
:102DC000059A049B9A42F8D32548742104F00FFC1D
:102DD000002301E0059B01330593059A049B9A4269
:102DE000F8D31F486E2104F002FC002301E0059B8C
:102DF00001330593059A049B9A42F8D318483F2162
:102E000004F0F5FB002301E0059B01330593059ACF
:102E1000049B9A42F8D312480D2104F0E8FB0023EA
:102E200001E0059B01330593059A049B9A42F8D370
:102E3000002301E0059B01330593059A094B9A4253
:102E4000F8D9094B01221A60084B1C68002C40F08D
:102E500073810348612104F0CAFB05940BE000BFB5
:102E6000003801401FA10700A4460020AC46002006
:102E7000059B01330593059A049B9A42F8D3934826
:102E8000742104F0B4FB002301E0059B013305939A
:102E9000059A049B9A42F8D38C486E2104F0A7FB54
:102EA000002301E0059B01330593059A049B9A4298
:102EB000F8D386483D2104F09AFB002301E0059BEE
:102EC00001330593059A049B9A42F8D37F484F211A
:102ED00004F08DFB002301E0059B01330593059A67
:102EE000049B9A42F8D379484F2104F080FB0023D9
:102EF00001E0059B01330593059A049B9A42F8D3A0
:102F00007248422104F073FB002301E0059B01336A
:102F10000593059A049B9A42F8D36C48442104F027
:102F200066FB002301E0059B01330593059A049B92
:102F30009A42F8D365482D2104F059FB002301E0A3
:102F4000059B01330593059A049B9A42F8D35F4889
:102F5000432104F04CFB002301E0059B0133059362
:102F6000059A049B9A42F8D35848752104F03FFB18
:102F7000002301E0059B01330593059A049B9A42C7
:102F8000F8D35248702104F032FB002301E0059B86
:102F900001330593059A049B9A42F8D34B482021AC
:102FA00004F025FB002301E0059B01330593059AFE
:102FB000049B9A42F8D3464C4448617A04F017FBCC
:102FC000002301E0059B01330593059A049B9A4277
:102FD000F8D33E48A17A04F00AFB002301E0059BE8
:102FE00001330593059A049B9A42F8D33748217B15
:102FF00004F0FDFA002301E0059B01330593059AD7
:10300000049B9A42F8D33148617B04F0F0FA002324
:1030100001E0059B01330593059A049B9A42F8D37E
:103020002A48E17B04F0E3FA002301E0059B013329
:103030000593059A049B9A42F8D32448217C04F016
:10304000D6FA002301E0059B01330593059A049B02
:103050009A42F8D31D480D2104F0C9FA002301E07B
:10306000059B01330593059A049B9A42F8D30023EC
:1030700001E0059B01330593059A164B9A42F8D956
:10308000154B164D00241C602C601048612104F083
:10309000AEFA059402E0059B01330593059A049B63
:1030A0009A42F8D30948742104F0A1FA002301E000
:1030B000059B01330593059A049B9A42F8D3034874
:1030C0006E2104F094FA00230CE000BF00380140A8
:1030D000000000201FA10700A8460020A4460020F1
:1030E000059B01330593059A049B9A42F8D3144833
:1030F0003F2104F07CFA002301E0059B0133059396
:10310000059A049B9A42F8D30D480D2104F06FFAFA
:10311000002301E0059B01330593059A049B9A4225
:10312000F8D3002301E0059B01330593059A054B75
:103130009A42F8D901232B6006B0BDE8F08100BFA8
:10314000003801401FA1070008B558484FF48071AE
:1031500002F04AFE98B155484FF4005102F044FE87
:1031600068B152484FF4804102F03EFE38B15048F9
:103170004FF4804102F038FE002840F088804B4830
:103180004FF4807102F030FE90B148484FF4005186
:1031900002F02AFE60B145484FF4804102F024FE5F
:1031A00030B143484FF4804102F01EFE002870D039
:1031B0003E484FF4807102F017FE90B93B484FF43F
:1031C000005102F011FE60B138484FF4804102F026
:1031D0000BFE30B136484FF4804102F005FE002866
:1031E00059D132484FF4807102F0FEFD90B92F485A
:1031F0004FF4005102F0F8FD60B12C484FF48041CB
:1032000002F0F2FD30B12A484FF4804102F0ECFDAB
:10321000002842D025484FF4807102F0E5FD60B1EE
:1032200022484FF4005102F0DFFD30B11F484FF447
:10323000804102F0D9FD002831D01C484FF4807144
:1032400002F0D2FD60B119484FF4005102F0CCFDFC
:1032500030B916484FF4804102F0C6FD002820D155
:1032600012484FF4807102F0BFFD00281CD00F48B7
:103270004FF4005102F0B8FDA8B90C484FF480415A
:1032800002F0B2FD00280CBF0720002008BD01207D
:1032900008BD022008BD032008BD042008BD05208C
:1032A00008BD062008BD002008BD00BF0008014081
:1032B0000010014037B50120014603F045F91D20FB
:1032C000012103F035F94FF0FF33ADF80430954894
:1032D000002301A98DF8073002F02FFD924801A9C3
:1032E00002F02BFD914801A902F027FD01214FF4C6
:1032F000804003F01DF9482403254FF4807389486A
:1033000001A9ADF804308DF806508DF8074002F0A1
:1033100014FD0121864802F0A1FD4FF400538148BD
:1033200001A9ADF804308DF8074002F006FD4FF416
:1033300080437C4801A9ADF804308DF8074002F0C5
:10334000FCFC18238DF8073076484FF4007301A970
:10335000ADF8043002F0F1FC04238DF80730714819
:103360004FF4806301A9ADF8043002F0E6FC4FF49D
:1033700080436E4801A9ADF804308DF806508DF8F1
:10338000074002F0DAFC8DF80650FFF7DDFE042856
:103390000ED110238DF80730644848F2000301A9CC
:1033A000ADF8043002F0C9FC60484FF400410FE072
:1033B000FFF7CAFE05280DD110238DF807305B48B2
:1033C000082301A9ADF8043002F0B7FC56480821E3
:1033D00002F01EFD0121574802F040FDFFF7B4FE48
:1033E000042802D14FF4866304E0FFF7ADFE052800
:1033F00004D13023ADF8043010230BE0FFF7A4FE16
:103400000128014608D14B4802F028FD3023ADF8D1
:10341000043014238DF80730434801A902F08DFCD5
:10342000FFF792FE052805D18023ADF80430102364
:103430008DF807303B4801A902F07FFCFFF784FEBE
:1034400005281DD14FF4EA10002102F007FD4FF4CA
:10345000EB10002102F002FD4FF40063ADF80430E0
:103460003048482301A98DF8073002F066FC4FF47C
:103470008053ADF8043018238DF8073029481CE03C
:103480004FF4EA10012102F0E9FC4FF4EB100021A7
:1034900002F0E4FC4FF48073ADF804302248482376
:1034A00001A98DF8073002F048FC4FF40073ADF825
:1034B00004301D4818238DF8073001A902F03DFCA7
:1034C00001214FF0007003F03FF8FFF73DFE0428A4
:1034D00011D11948002102F0C1FC1848012102F065
:1034E000BDFC18238DF8073002A94FF4006321F8C2
:1034F000043D0D4813E0FFF727FE052811D10E48C3
:10350000002102F0ABFC0D48002102F0A7FC1823BB
:103510008DF8073002A94023024821F8043D02F04B
:103520000CFC3EBD00080140000C014000100140B1
:1035300000043000000130000001180000021800F3
:1035400010B54FF4004086B002F06EFF01214FF439
:10355000007002F0EDFF154801F0D2FC01240023B9
:103560004FF46022114801A901938DF808308DF8BD
:103570000930039204938DF8144001F0EFFC0B48DE
:10358000214601F01AFD094801F035FD074801F018
:1035900037FD0028FAD1054801F036FD034801F057
:1035A00038FD0028FAD106B010BD00BF002401404C
:1035B00008B5FFF77FFEFFF7CDF8FFF7A4F802216B
:1035C0000320FEF7DFFFFFF7BBFF40F61C40FEF7CE
:1035D0009FFF08BD13B50021214802F027FD2048B8
:1035E00002F090FC00214FF4001002F0ADFF4023E8
:1035F000ADF8043004230DEB03011A488DF80730B1
:1036000002F09BFB01A9802316480024ADF804308A
:1036100002F093FB102368468DF800308DF80140CE
:103620008DF802408DF8034001F016FC1123684626
:103630008DF800308DF801408DF8024001F00CFC4F
:103640002146094802F0C7FA2146084802F0C3FAA9
:10365000054802F013FA054802F010FA1CBD00BF3D
:1036600000540040000C01406C0002408000024009
:103670002DE9F3410820012102F05AFF01214FF406
:10368000001002F061FF4023ADF8043003238DF8F1
:10369000063001A919332A488DF80730802702F037
:1036A0004CFB01A92648002601244FF01008ADF874
:1036B000047002F042FB68468DF800808DF80160CE
:1036C0008DF802608DF8034001F0C6FB11236846B7
:1036D0008DF800308DF801608DF8026001F0BCFBC0
:1036E0002146204602F018FF164802F0C7F9164D91
:1036F000164B29462B604FF6FF73EB6011484FF4D1
:1037000040536B626E60C5F808802E616F61AE61D8
:10371000EE612E62AE6202F031FA0D4802F0AEF9AF
:1037200029460B4802F02AFA02212246054802F0F7
:103730005EFA07480221224602F059FABDE8FC81F0
:10374000000C01406C000240544600201054004020
:10375000800002400B4607492AB9103248608A604F
:10376000CB60054804E04860002204488A60CB60D2
:1037700002F004BA544600206C000240800002406F
:10378000214B37B500241C60204B10201C60204BBF
:103790001C60204B1C60204B1C60204B1C60204B8D
:1037A0001C60204B1C6006F029FF1F4B186050B3B3
:1037B000032313224460C36001340C2501A88DF853
:1037C00004208DF806308DF805508DF8074001F083
:1037D00043FB142301A88DF804308DF805508DF8B3
:1037E00006408DF8074001F037FB16238DF80430B2
:1037F00001A8143B8DF805508DF806308DF8074070
:1038000001F02AFB20463EBDD8460020E4460020B9
:10381000D0460020D4460020EC460020E0460020A0
:10382000E8460020DC4600206C4700207FB5244B92
:103830001B68DB68053B032B036802D80293042353
:1038400001E0019300238DF80C3000238DF80D303A
:10385000436801A98DF80E30C3681A481A788DF8AC
:103860000F205A788DF810209A788DF81120DA7888
:103870008DF812201A798DF813205A798DF81420BA
:103880009A798DF81520DB798DF8163001F069FEF4
:103890000D4B0E491A6801328A421A600DDD521032
:1038A0001A600B490B4B08681A6800EBD07002EBEA
:1038B000D2724010521008601A60012007B000BD9B
:1038C0006C47002000640040E4460020A086010010
:1038D000D8460020D0460020704770477AB90129A9
:1038E00004D1124B483053F8300005E0022917D1BB
:1038F0000F4BC000C318586880B240097047012AB6
:1039000010D1012904D1094B483053F8300005E0AB
:10391000022909D1064BC000C3185868400D7047F2
:103920001046704700207047002070470064004038
:1039300040660040012904D1074B483053F830005D
:1039400005E0022905D1054BC000C3185868C0081E
:1039500070470020704700BF006400404066004090
:1039600030B5836887B0023B05460C2B00F29D8181
:10397000DFE813F01E000D0051009B019B019B012D
:103980009B019B017100EE00D900580178019E4A0D
:10399000002313609D4AC06813609D4A136010B1F4
:1039A0000221FEF7EFFD9B4BEA681B68DA6077E1C6
:1039B000954A00231360954A1360954A1360C268C4
:1039C000032A00F21B81DFE802F0020E1321914C62
:1039D00002212368187BFEF7D5FD2368EA680D20D5
:1039E0005A6000210FE08B4C01212368187B03E013
:1039F000884C03212368187BFEF7C4FD2368EA681E
:103A00000D205A60012104F051F849E1814C002158
:103A10002368187BF0E77C4B00241C607B4BC2685A
:103A20001C607B4B012A1C6000F2E8800D202146BF
:103A300004F03CF8E9680E2001290CBF01210221A5
:103A400004F034F82146EA68234642F210700094EC
:103A500000F0E0FF64E0026940F2FE739A4200F376
:103A6000CD80C268012A01D1002316E0931E012BEC
:103A700013D9131F012B01D8033A07E0911F012925
:103A80000BD9A2F10803012B03D8053A8DF81220B7
:103A900005E00A2A40F0B28004238DF81230EB686A
:103AA000012B07D0032B05D0052B03D0072B01D00A
:103AB000092B0AD12B699DF812205B01ADF80A3061
:103AC000554BD200D3185B6809E09DF81220534B88
:103AD000483253F83230ADF80A302B695B01ADF84B
:103AE00008309DF812304D4A483352F83320DB003D
:103AF000120C03F18043ADF80E2003F5C8435B6858
:103B00001B0CADF80C3000248DF814408DF81340D8
:103B1000ADF81040012302A88DF8153001F043FCE8
:103B200008202146BEE0C368013BDBB28DF81230AD
:103B30000269D1005213ADF80820DA00364BADF817
:103B40000A10D3185A68ADF80E205B681B0C7EE093
:103B50000269B2F5006F51DAC268012A01D100236F
:103B600015E0931E012B12D9131F012B01D8033A24
:103B700007E0911F01290AD9A2F10803012B03D8FC
:103B8000053A8DF8122004E00A2A37D104238DF873
:103B90001230EB68012B07D0032B05D0052B03D087
:103BA000072B01D0092B0BD12B699DF812205B014B
:103BB000ADF80E30184BD200D3185B681B0C0AE02E
:103BC0009DF81220154B483253F832301B0CADF8DB
:103BD0000E302B695B01ADF80C309DF812300F4AA6
:103BE000483352F83320DB0003F18043ADF80A205C
:103BF00003F5C8435B68ADF8083084E7084B08203C
:103C00001B680321DB7856E0D8460020E4460020FC
:103C1000D04600206C470020406600400064004011
:103C20003C000020C268264B013AD2B28DF8122027
:103C3000483253F83210ADF80A1053F832301B0CEA
:103C4000ADF808300369DA00ADF80E205B130024EC
:103C5000ADF80C3001238DF814308DF81340ADF819
:103C6000104058E7002400238DF8124001344FF62D
:103C7000E072ADF80A30ADF808308DF814308DF8E8
:103C80001330ADF8103002A80123E4B2ADF80E20D5
:103C9000ADF80C208DF8153001F085FB0E2CE2D12B
:103CA000082000210A460B4605E0064B08201B6849
:103CB00002219B78002203F01DFF012007B030BDD8
:103CC000006400403C00002037B5164B00241C6007
:103CD00014230C258DF8043001A8133B8DF8063011
:103CE0008DF805508DF8074001F0B6F813238DF8D4
:103CF000043001A8103B8DF806308DF805508DF882
:103D0000074001F0A9F816238DF8043001A8143BF0
:103D10008DF805508DF806308DF8074001F09CF8BD
:103D20003EBD00BFC80000200F2803D1024B0E3853
:103D30001960704700207047C80000207FB500213F
:103D4000254801AA019102918DF80C108DF80E10F2
:103D50008DF817108DF80F108DF810108DF81110C8
:103D60008DF812108DF813108DF814108DF81510B1
:103D70008DF8161001F090FC019911B9029B002BEF
:103D800028D0164B16481A68013282421A600DDD9F
:103D900052101A60134B1A6802EBD27252101A605A
:103DA000114B1A6802EBD27252101A609DF80C2067
:103DB0000E4B0AB9596001E0029A5A609DF80E2034
:103DC0009A600022DA600DF10F021A611B680BB1D4
:103DD0000748984707B000BD00640040D84600205F
:103DE000A0860100E4460020D0460020C800002044
:103DF000CC00002010B51E4801F01EFD102818D080
:103E00001B4801F019FD202813D0194801F014FDBA
:103E100030280ED0164801F00FFD402809D0144874
:103E200001F00AFD502804D0114801F005FD60287A
:103E300003D1104B1A6801321A600D484FF400414B
:103E400001F0AAFD0A484FF4006101F0A5FD084801
:103E50004FF4806101F0A0FD05484FF4007101F0BE
:103E60009BFD03484FF48071BDE8104001F094BD04
:103E700000640040D04600200C4B0D491A68013206
:103E80008A421A600DDD52101A600A490A4B08680E
:103E90001A6800EBD07002EBD2724010521008602A
:103EA0001A600648012101F077BD00BFE4460020FA
:103EB000A0860100D8460020D046002000640040C3
:103EC000014B1868704700BFD046002000207047A3
:103ED000014B00221A607047D04600207047014B0A
:103EE00018687047D8460020014B1868704700BF1B
:103EF000E4460020014B00221A607047D84600209B
:103F0000014B00221A607047E446002008B50349BF
:103F1000034801F0A6FC034B186008BD0400F01034
:103F200000640040D446002008B50349034801F06E
:103F300098FC034B186008BD0200F01000640040BC
:103F4000E046002008B50349034801F08AFC034B12
:103F5000186008BD0100F01000640040EC4600202D
:103F600008B5034801F06FFC024B186008BD00BFA4
:103F700000640040E846002008B5034801F060FCFA
:103F8000024B186008BD00BF00640040DC46002002
:103F9000FFF720BB30B585B0FFF76AFB0023ADF813
:103FA00004304BF6FF73ADF806304FF48063ADF884
:103FB0000A304FF48043ADF80C300B4BA0250B4872
:103FC000012104AC44F8103DADF8085002F02EF881
:103FD0000648694601F0B0FF0448012102F033F8B9
:103FE000034B1D8005B030BDE09304000054004039
:103FF000DC0000203F4B2DE9F0411A6080463E4C2A
:104000003E480E46154603F01FFE4FF42043236042
:1040100004E023685A1E226003B9FEE738484FF4D3
:10402000003102F030F90028F3D13548012102F0C7
:1040300024F84FF48053236004E023685A1E226062
:1040400003B9FEE72E482F4902F008F90028F4D002
:104050002D4B4FF48057276019882948C9B2002298
:1040600002F067F8294803F0EFFD276004E02368B9
:104070005A1E226003B9FEE72148254902F0EEF8F6
:104080000028F4D0234803F0DFFD1D48310A02F078
:104090004BF8214803F0D8FD4FF48053236004E02F
:1040A00023685A1E226003B9FEE715481B4902F037
:1040B000D5F80028F4D01248F1B202F035F84FF4E8
:1040C0008053236004E023685A1E226003B9FEE790
:1040D0000B48124902F0C2F80028F4D029780022D7
:1040E0004046FFF737FB0E48012101F074FD002028
:1040F000BDE8F081F04600202400002047B700080A
:104100000054004001000300DC0000205FB70008FD
:104110008200070087B70008A2B7000884000700E4
:104120006C00024013B500232C4CADF80630009310
:104130004FF42043236004E023685A1E226003B931
:10414000FEE727484FF4003102F09DF80028F3D134
:104150002348012101F091FF4FF48053236004E0D4
:1041600023685A1E226003B9FEE71D481D4902F06C
:1041700075F80028F4D01C4B194819880022C9B2E0
:1041800001F0D7FF4FF4204323601548838A9BB288
:10419000ADF8063023685A1E226003B9FEE7BDF869
:1041A000063023F47E7323F005035B055B0D002BC3
:1041B000EBD0BDF8063013F0020F05D00121038BC0
:1041C00001F068FF00201CBD084902F076F8009B52
:1041D0005A1C962B0092BBD1FEE700BF24000020A2
:1041E0000054004001000300DC0000200004001027
:1041F0002DE9F74F4FEA5219934611F01F07D2B23B
:1042000080460E465FFA89F9019202F01F0A834D3B
:10421000834C61D1B9F1000F25D1824885F800A007
:1042200003F012FD404603F00FFD7F4803F00CFD44
:10423000304603F083FD7D4803F006FD287803F047
:104240007DFD404631462A46FFF7D4FE4FF4204319
:10425000236004E023685A1E226003B9FEE72B782E
:10426000002BF7D1D2E02023404631466B4A2B7019
:10427000FFF7C0FE4FF42043236004E023685A1E7A
:10428000226003B9FEE72B78644F002BF6D109F1C9
:10429000FF3920365FFA89F9FFF744FFB6B208F11B
:1042A0002008B9F1000FDED1BAF1000F00F0B280A2
:1042B00087F800A0404631463A46FFF79BFE4FF490
:1042C0002043236004E023685A1E226003B9FEE7FE
:1042D0002B78002BF7D199E0C7F12007FFB2B9F195
:1042E000000F40D1BB452CD92A462F70FFF782FE24
:1042F0004FF42043236004E023685A1E226003B970
:10430000FEE72B78DFF81491002BF5D1FFF70AFFB9
:10431000019AB919D31BDBB289F8003008EB07000A
:1043200089B24A46FFF766FE4FF42043236004E05B
:1043300023685A1E226003B9FEE72B78002BF7D1C1
:1043400064E02A4685F800A0FFF754FE4FF42043AE
:10435000236004E023685A1E226003B9FEE72B782D
:10436000002BF7D152E02A462F70FFF743FE4FF49F
:104370002043236004E023685A1E226003B9FEE74D
:104380002B78002BF7D1C7EB0B0B1FFA8BFBBE1959
:104390004FEA5B195FFA89F9FFF7C4FEB6B24744EA
:1043A0001BE02023384631461C4A2B70FFF722FEC3
:1043B0004FF42043236004E023685A1E226003B9AF
:1043C000FEE72B78002BF7D1FFF7ACFE203609F182
:1043D000FF39B6B220375FFA89F9B9F1000FE0D1A1
:1043E0001BF01F0B16D0384631460C4A85F800B03A
:1043F000FFF700FE4FF42043236004E023685A1EB9
:10440000226003B9FEE72B78002BF7D103B0BDE89B
:10441000F04F87E603B0BDE8F08F00BFF446002000
:1044200024000020CAB70008D4B70008E0B700088D
:1044300010B54FF4001001F0E8FB10B31148002153
:1044400001F0C9FB104C4FF4801001F0EDFB4FF46C
:104450002043236004E023685A1E226003B9FEE76C
:104460000A480B4901F00FFF0028F4D0074801214A
:1044700001F010FE054B9A8A1B8B064B00221B682D
:104480001A7010BD6C00024024000020005400404F
:1044900004000010F046002008B54FF0007001F055
:1044A000B4FB78B10848012101F0F4FD0748002170
:1044B00001F091FB4FF0807001F0B6FB044B00223D
:1044C0001B681A8008BD00BF0054004080000240F5
:1044D000F8460020FEE772B6704762B67047734B2D
:1044E0002DE9F041724C1A604FF4204306460F4606
:1044F0001546236004E023685A1E226003B9FEE7D4
:104500006C484FF4003101F0BEFE0028F3D1694839
:10451000012101F0B2FD4FF48053236004E02368D1
:104520005A1E226003B9FEE76248634901F096FE15
:104530000028F4D0DFF8A0815E48B8F8001000220F
:10454000C9B201F0F6FD4FF48053236004E0236804
:104550005A1E226003B9FEE75648584901F07EFE14
:104560000028F4D05348390A01F0DEFD4FF480539F
:10457000236004E023685A1E226003B9FEE74D4819
:104580004F4901F06BFE0028F4D04A48F9B201F01F
:10459000CBFD4FF48053236004E023685A1E226051
:1045A00003B9FEE74348474901F06DFE0028F4D007
:1045B0004048012101F061FD4FF48053236004E085
:1045C00023685A1E226003B9FEE73A483A4901F0CF
:1045D00045FE0028F4D0B8F8001001223548C9B2D1
:1045E00001F0A7FD2B88012B4FF4805341D82360A5
:1045F00004E023685A1E226003B9FEE72D483249C1
:1046000001F041FE0028F4D02A48002101F04FFDBE
:10461000FFF761FF27480121038B01F03BFDFFF706
:104620005CFF4FF48053236004E023685A1E22602D
:1046300003B9FEE71F48254901F025FE0028F4D004
:104640001C4801F073FD30702B88013B2B804FF428
:104650008053236004E023685A1E226003B9FEE7FA
:104660001448038813F4007FF5D1012101F01FFDE8
:1046700019E0236004E023685A1E226003B9FEE7B4
:104680000C48134901F0EAFD0028F4D029880122E2
:104690003046FFF75FF80748012101F0E1FC0D48C3
:1046A000012101F098FA0020BDE8F081F8460020D1
:1046B0002400002000540040010003008200070095
:1046C00084000700040000100200001040000010E9
:1046D0000200030080000240DC000020034B1A8827
:1046E00012F0800FFAD09880704700BF0038014068
:1046F00008B5054A054B02201A60012105F092F920
:10470000034B1860012008BDDD4600080C010020A5
:104710000801002030B909E0054A118811F0800F26
:10472000FAD0938010F8013B002BF5D1704700BF01
:10473000003801400D282DE9F0476949694C40F0E7
:10474000C8802368CA1812F8020C4F2840F0BD80B8
:1047500012F8010C4B2840F0B88063480125056031
:104760000878612840F0B1804878742840F0AD8026
:104770008878622831D1CB783F2B40F0A6805B4B04
:1047800012F8105C12F8120CDD7012F80F5C187041
:104790001D7112F80D5C12F8110C9D7112F80C5C71
:1047A0005870DD7112F80A5C3A205D7212F8095CEB
:1047B00098709D7212F8085C58711872D8721D7347
:1047C000987312F8075C12F8060C12F8052C5D734A
:1047D0001A740022D8735A7477E06C2807D1CB780A
:1047E0003F2B72D112F8052C414B1A706DE06E28E8
:1047F0006BD1C8783F2868D112F8130C4F283D4878
:1048000061D112F8125C4F2D5DD112F8115C422D6E
:1048100059D112F8105C442D55D112F80F5C2D2D92
:1048200051D112F80E5C432D4DD112F80D5C752D4F
:1048300049D112F80C2C702A45D1CB1813F80B9CD7
:10484000B9F1200F3FD1294A13F80A5C92F8098088
:10485000A84538D113F8095C92F80AC0AC4532D1AA
:1048600013F8085C177BAF422DD113F8075C567B19
:10487000AE4228D113F806ACD57B554523D113F8A9
:10488000053C127C9A421ED1012303601A4B4F2033
:10489000187058700D3898700230D8701738187129
:1048A00016305871323098719A7305380022D871D9
:1048B00083F8089083F8098083F80AC0DF721E73BA
:1048C0005D73DA7301E00023036023680D22CA548C
:1048D00001E02368C85401332360BDE8F08700BFBE
:1048E000B4460020A8460020A44600200000002076
:1048F00050460020AC4600201200002013B5019065
:1049000002AC03F0AFF9074803F09EF954F8040D28
:1049100003F009FA044803F097F9204603F003FA7C
:104920001CBD00BFEDB70008F9B7000810B503F0D3
:1049300099F9044803F088F9034B1868BDE8104062
:1049400003F0F1B906B8000800ED00E010B5064C20
:1049500001E0FFF7D3FF204654F8043B002BF8D1C9
:10496000BDE81040CAE700BF00F00FE013B51148E2
:1049700040F2255102F0C0FED0B10E4802F03BFEDD
:104980000D4BC0B21B688DF8070013B9FFF7D2FEBC
:104990000EE00A4B0A4C18680DF10701002322466D
:1049A00005F0E5F8012803D123680BB105F0EDFE11
:1049B0001CBD00BF00380140A446002008010020B3
:1049C000E000002000000000012070470020704738
:1049D00010B5FEF7EDFDBDE81040FFF7DBBAFDF7BF
:1049E00053BE024A024BDA60704700BF0406FA0564
:1049F00000ED00E008B5014638B1FDF789FD4FF044
:104A00008040012102F00EF908BD4FF0804002F015
:104A100009F908BD022870B50446164638D003DCF3
:104A200048B1012869D11BE003285BD042F2107322
:104A3000984262D146E0FEF787FB0128044608D180
:104A40001EB12F484FF4806145E02D484FF480613E
:104A500029E016B12A4810212BE0294810212DE029
:104A6000FEF772FB012805460BD126B12448102120
:104A700001F0CCF903E02248102101F0C9F92C46DD
:104A80003CE016B11E48102125E01D4810210AE027
:104A9000FEF75AFB0128044608D116B11848202118
:104AA00019E01748202101F0B3F927E026B1144896
:104AB000202101F0ABF903E01148202101F0A8F911
:104AC00001241BE0FEF740FB0128044615D12EB15E
:104AD0000C484FF4004101F099F90FE009484FF4F8
:104AE0000041E0E7FEF730FB0128044605D13046DF
:104AF0004FF0FF31FFF77EFF00E00024204670BD3D
:104B0000000C01400010014037B5816803460229BE
:104B10000BD001DC29B12FE0032927D063292BD149
:104B200020E01A4902F0D4FF1EE0002400941A6924
:104B3000C06821462346FFF76DFF0128054607D1CF
:104B4000204621462246234602F0D4FF28461CE098
:104B50000F4B20461B6803212246DB7802F0CAFF78
:104B6000204612E0FFF73DFF01200EE0084B002039
:104B70001B680246DB7805E0054B00201B6802211C
:104B80009B78024602F0B6FF00203EBD054C0008AF
:104B90003C000020014610B509480122002300F026
:104BA0005CFA0748012100F038FA0548022100F0BC
:104BB0004FFB0028F9D00248BDE8104000F09EBA33
:104BC0000024014010B54020012101F0A5FC00F0B7
:104BD00029FF084B08490948C918094BC91A89080F
:104BE000013100F02BFF00210446402001F094FC2D
:104BF000204610BD64990000C80000200024000871
:104C00000000002007B58A680B46002A40F0CB80E0
:104C1000CA68092A00F2BC80DFE802F005515B7126
:104C2000748083949B9D664803F00EF8FEF78CFA1F
:104C3000012807D0FEF788FA042803D0FEF784FA8B
:104C4000052801D15F4800E05F4802F0FDFF5F48A2
:104C500002F0FAFF5E4802F0F7FF5C4802F0F4FF52
:104C6000FEF772FA012801D15A480AE0FEF76CFA01
:104C7000042803D0FEF768FA052801D1564800E061
:104C8000564802F0E1FF514802F0DEFFFEF75CFA01
:104C9000012801D14F480BE0FEF756FA042801D154
:104CA0004D4805E0FEF750FA05280CBF4C484D482A
:104CB00002F0CAFF454802F0C7FF4B4800E04B48EE
:104CC00002F0C2FF02F0CEFF03B05DF804EB03F088
:104CD00025B80820FFF75EFF06F06AFA34A3D3E98F
:104CE000002306F0CBFA34A3D3E9002306F0C6FA7A
:104CF00006F0D6FC0A2102F0CBFF3D48E0E7FFF7C3
:104D000015FEDFE703F1580292E803006A4682E8E5
:104D1000030048330FCBFFF7F1FDD3E7FFF716FE93
:104D2000D0E7344802F090FF0A214FF4884002F0A7
:104D3000AFFF314802F088FF05F0D8FC0A2102F0ED
:104D4000A7FFBFE7FFF73EFF08B92C48B8E72C489C
:104D5000B6E72C48B4E72C4B1B78303B072B15D813
:104D6000DFE803F00406080A0C0E10122748A7E734
:104D70002748A5E72748A3E72748A1E727489FE753
:104D800027489DE727489BE7274899E7274897E763
:104D9000274B00201B68024699780B4603B05DF84C
:104DA00004EB02F081BF03B000BD00BFAFF3008091
:104DB000333333333333493F000000000088C340AE
:104DC00011B8000817B800081AB8000828BC000875
:104DD0001DB8000821B8000825B800082EB8000842
:104DE00039B8000845B8000849B80008000000209C
:104DF00069B800086DB8000884B800089AB80008BF
:104E0000BBB800081200002050460020DBB80008A4
:104E1000E6B80008F1B80008FDB8000809B90008B4
:104E200015B9000822B900082FB900083CB90008DC
:104E30003C000020704700BF7047FEE7FEE7FEE73A
:104E4000FEE7704740F0BE60024B40F42020D8607F
:104E5000704700BF00ED00E0C37810B5EBB1154B13
:104E60004178DB688478DB4303F4E0631B0AC3F119
:104E7000040291400F22DA4022400A430E4B01788F
:104E80001201CB18D2B283F800230378012259090A
:104E900003F01F0312FA03F307E003780122590914
:104EA00003F01F0312FA03F32031034A42F82130C2
:104EB00010BD00BF00ED00E000E100E021F0604126
:104EC00021F07F01014B01439960704700ED00E044
:104ED000044B11B11A69104302E01A6922EA00007A
:104EE0001861704700ED00E0044B04281A680CBFFD
:104EF00042F0040222F004021A60704710E000E061
:104F0000134B10B5984207D14FF40070012101F006
:104F100027FB4FF4007014E00E4B984207D14FF47A
:104F20008060012101F01CFB4FF4806009E00A4B16
:104F300098420BD14FF40040012101F011FB4FF4D6
:104F400000400021BDE8104001F00ABB10BD00BFC9
:104F50000024014000280140003C014043680A68E9
:104F600023F4702323F4807313430A7910B543EAC2
:104F7000022343608A68CB6884681A43094B04EAB9
:104F8000030342EA03034A7943EA420383600B7C4A
:104F9000C26A013B22F47002DBB242EA0353C362ED
:104FA00010BD00BFFDF7F1FF0023036003714371E3
:104FB0008360C36001330374704719B1836843F0A1
:104FC000010302E0836823F001038360704719B195
:104FD000836843F4807302E0836823F48073836002
:104FE0007047C9B212B14368194302E0436823EA2B
:104FF000010141607047836843F008038360704794
:105000008068C0F3C0007047836843F00403836086
:1050100070478068C0F38000704719B1836843F41B
:10502000A00302E0836823F4A003836070478068D4
:10503000C0F3805070474368013923F4604343EA6A
:1050400041334360704719B1436843F4006302E0A1
:10505000436823F4006343607047092970B54FEA41
:1050600041040BD964181E3C0725A540A340C6681F
:1050700026EA050545EA0304C4600AE0641807252A
:10508000A54013FA04F4066926EA050545EA040377
:105090000361062A0CD8013A02EB82021F239340D7
:1050A0009140446B24EA030343EA0102426370BD6A
:1050B0000C2A4FEA82030BD89A18233A1F239340F5
:1050C0009140046B24EA030343EA0102026370BDCA
:1050D0009A18413A1F2393409140C46A24EA03037B
:1050E00043EA0102C26270BD19B1836843F48013C0
:1050F00002E0836823F4801383607047C06C80B241
:105100007047014B186870474C24014019B143683F
:1051100043F4806302E0436823F480634360704794
:1051200019B1436843F4805302E0436823F4805389
:1051300043607047836823F4E04341EA03038360DC
:10514000704719B1836843F4004302E0836823F495
:1051500000438360704719B1836843F4021302E08F
:10516000836823F40213836070478068C0F3405063
:105170007047092970B54FEA41040BD964181E3CE9
:105180000725A540A340C66826EA050545EA0304AD
:10519000C4600AE064180725A54013FA04F4066900
:1051A00026EA050545EA04030361836B03F4401412
:1051B0006FEA145412190332D2B202EB82021F2496
:1051C0009440914023EA04030B43836370BD836BD7
:1051D000013923F4401343EA01538363704782B0DB
:1051E000002301930190019BCB180193019B1A604E
:1051F00002B0704782B0002301930190019B2833D5
:105200005B180193019B186880B202B07047436835
:1052100023F4400323F4007341EA0303436070471F
:10522000416282627047436823F01F0341EA03032F
:1052300043607047054B18B19A6842F4000202E0DF
:105240009A6822F400029A60704700BF002401406F
:10525000036819420CBF002001207047C943016058
:1052600070474368006810EA112004D0C9B219429F
:105270000CBF0020012070476FEA112101607047C8
:1052800001420CBF0020012070470C4B10B5984222
:1052900007D14FF00070012101F06EF94FF000705E
:1052A00006E04FF08060012101F066F94FF0806068
:1052B0000021BDE8104001F05FB900BF006400406C
:1052C000036823F002030360036843F001030360F3
:1052D000002300E00133426812F0010F03D14FF6C2
:1052E000FF729342F6D1436813F0010359D08B79D2
:1052F000012B03680CBF43F0800323F0800303609D
:10530000CB79012B03680CBF43F0400323F040032B
:1053100003600B7A012B03680CBF43F0200323F0DA
:10532000200303604B7A012B03680CBF43F010038A
:1053300023F0100303608B7A012B03680CBF43F04A
:10534000080323F008030360CB7A012B03680CBF2A
:1053500043F0040323F0040303608B78CA789B07AF
:1053600043EA02630A7943EA02434A7943EA025371
:105370000A88013A1343C361036823F00103036001
:10538000002300E00133426812F0010F03D04FF612
:10539000FF729342F6D1406800F0010080F00100F6
:1053A000704718467047837A01229A4070B5384B8F
:1053B000D3F8001241F00101C3F80012D3F81C42E7
:1053C000D14301EA0404C3F81C42047BB4B9D3F806
:1053D0000C42C68801EA0404C3F80C42847A45886A
:1053E000483445EA064543F8345003888488857A72
:1053F00043EA0444274BED00EB185C60037B012B70
:1054000017D1234B0688D3F80C42458842EA04049E
:10541000C3F80C42847A45EA0645483443F83450D0
:10542000C3888488857A43EA04441A4BED00EB185C
:105430005C60C47A164B24B9D3F8044201EA040430
:1054400003E0D3F8044242EA0404C3F804420489A6
:105450000F4B1CB9D3F81442214005E0012C05D1B3
:10546000D3F8141242EA0101C3F81412437B012B52
:1054700005D1074BD3F81C120A43C3F81C22044B76
:10548000D3F8002222F00102C3F8002270BD00BF51
:10549000006400404066004000238371C3710372C2
:1054A00043728372C3728370C37003330371013B11
:1054B00043710123038070470D4BD3F8002242F063
:1054C0000102C3F80022D3F8002222F47C5222F019
:1054D0000E02C3F80022D3F8002242EA0022C3F8E9
:1054E0000022D3F8002222F00102C3F80022704704
:1054F0000064004019B1036843F4803302E003689C
:1055000023F4803303607047A1B1036843F0800344
:105510000360D0F8843143F48073C0F88431D0F84C
:10552000943143F48073C0F89431D0F8A43143F43B
:10553000807313E0036823F080030360D0F88431A4
:1055400023F48073C0F88431D0F8943123F480734D
:10555000C0F89431D0F8A43123F48073C0F8A4319A
:10556000704770B58268034612F0806F09D1826877
:1055700012F0006F07D1826812F0805F4BD00220DA
:1055800002E0002000E0012000F1180212019C5806
:1055900004F001049C500C7A2CB90E684C7A9D588A
:1055A00044EA465405E04E689D5844EAC6042C433C
:1055B0004D7A2C439C508A7A00F11804240102F0A1
:1055C0000F028A721A19556825F00F055560556843
:1055D0008E7A46EA050555604D7B8A7B2D0445EAA7
:1055E0000265CA7A15430A7B45EA022503EB0012DD
:1055F000C2F888514D7C8E7C2D0445EA0665CE7B31
:10560000097C354345EA0121C2F88C111A5942F050
:1056100001021A5170BD042070BD012906D002D3C9
:1056200002290BD105E082680E4B04E082680E4B24
:1056300001E082680D4B02EA030300E00023094AFF
:1056400093420BD001D83BB10AE0074A934205D000
:10565000064A934204D101E00220704701207047BE
:10566000002070470300000400030008000003103E
:10567000012907D002D302290DD108E0836843F045
:10568000800302E0836843F40043836070478368CB
:1056900043F400038360704730B501F11B0423011C
:1056A000C55805F00405EDB215721DB9C3585B0D60
:1056B000136002E0C358DB08536024010319045946
:1056C00004F0020454725C6804F00F0494725B6886
:1056D0001B0AD37400EB0113D3F8B841D472D3F88A
:1056E000B841240A1473D3F8B841240C5473D3F886
:1056F000B841240E9473D3F8BC41D473D3F8BC41A1
:10570000240A1474D3F8BC41240C5474D3F8BC316B
:105710001B0E937421B9C36843F02003C36030BDEE
:10572000036943F02003036130BD21B9C36843F02E
:105730002003C3607047036943F02003036170478F
:1057400009B9C06802E0012903D1006900F0030033
:10575000704700207047A9B9036823F0030343F0A2
:10576000010303604FF6FF7300E0013B426802F063
:105770000302012A01D0002BF7D1406800F003009A
:1057800001282EE0012915D1036823F003030360EB
:105790004FF6FF7300E0013B426812F0030F01D0A7
:1057A000002BF8D1406800F00300D0F1010038BFB1
:1057B00000207047022918D1036823F0030343F047
:1057C000020303604FF6FF7300E0013B426802F002
:1057D0000302022A01D0002BF7D1406800F0030039
:1057E000022814BF00200120704700207047036882
:1057F00023F0030343F002030360406800F003005A
:10580000A0F10203584240EB03007047036823F005
:10581000020303604FF6FF7300E0013B426812F0A1
:10582000020F01D0002BF8D1406800F00200D0F147
:10583000010038BF00207047806900F07000704799
:105840008069000E7047806900F47F00000C70478B
:1058500012B14369194302E0436923EA010141613E
:10586000704711F4700F01D083690DE011F0807F53
:1058700001D0436808E011F0006F01D0836803E0B5
:1058800011F0007F09D0C36823F07F4323F4700335
:105890000B420CBF002001207047036923F07F43B7
:1058A00023F470030B420CBF0020012070470D4B06
:1058B000994202D100238361704721F07F4311F0A8
:1058C000007F23F4700301D0C360704711F0806F34
:1058D00001D00361704711F0006F14BF8360436013
:1058E000704700BF7000F03043690B404DD0402935
:1058F00035D00ED8042929D004D8012921D0022975
:1059000045D121E0102925D0202926D008293ED1D3
:105910001EE0B1F5006F32D009D8B1F5007F29D073
:10592000B1F5806F29D0B1F5807F30D11FE0B1F59E
:10593000803F16D0B1F5003F16D0B1F5004F26D10B
:1059400020E0806813491FE0C06804E0C06809E0F7
:10595000C0680AE00069032116E0006902E00069FE
:1059600003E0406808210FE0406810210CE08069E6
:10597000012109E08069022106E0806903E0806975
:10598000702101E0406804217AE418467047002045
:10599000704700BF01010100B1F5807F33D00CD802
:1059A000082924D004D801291CD0042936D11CE0B0
:1059B00020291FD0402931D11EE0B1F5006F24D03D
:1059C00006D8B1F5007F1ED0B1F5806F26D11AE060
:1059D000B1F5803F13D0B1F5003F12D0B1F5004FC3
:1059E0001CD117E00E4B83607047082300E01023A2
:1059F000C3607047082300E0102303617047082349
:105A000006E0102304E0042302E000238361043352
:105A1000436070470023836104334360704700BFD5
:105A200001010100014B01229A60704700300240E1
:105A3000014B1860186870470030024010B5002311
:105A400003E050F8044B013314608B42014AF8D351
:105A5000106810BD00300240014B1868704700BF4D
:105A600000300240014B1871704700BF0030024007
:105A7000014B1879704700BF0030024002684FF6B2
:105A8000FE7302EA03030360002303604360836044
:105A9000C3602E4B984229D02D4B984230D02D4BCD
:105AA000984237D02C4B98423ED02C4B984206D18E
:105AB00053F8542C42F4702243F8542C7047284B6E
:105AC000984206D153F8682C42F4700243F8682CCF
:105AD0007047244B984206D153F87C2C42F07062F8
:105AE00043F87C2C7047204B984206D153F8042C85
:105AF00042F00F0243F8042C70471C4B984206D129
:105B000053F8182C42F0F00243F8182C7047184B49
:105B1000984206D153F82C2C42F4706243F82C2C96
:105B20007047144B984206D153F8402C42F470420F
:105B300043F8402C7047104B984205D153F8542C31
:105B400042F4702243F8542C704700BF0800024012
:105B50001C00024030000240440002405800024055
:105B60006C00024080000240080402401C04024015
:105B70003004024044040240580402408A6810B5D0
:105B80000C6A036844EA02020C6923F4FE432243D0
:105B90004C6923F0F00322438C692243CC692243F1
:105BA0004C6A22438C6A224342EA03030360CB68B7
:105BB00043600B6883604B68C36010BD00230360C3
:105BC00043608360C360036143618361C3610362B7
:105BD00043628362704719B1036843F0010304E034
:105BE00002684FF6FE7302EA03030360704712B1C6
:105BF0000368194302E0036823EA0101016070476A
:105C000041607047406880B2704710F0805F14BFF9
:105C1000034B044B1B6803420CBF0020012070475C
:105C2000000402400000024010F0805F14BF024BED
:105C3000024B5860704700BF000402400000024061
:105C400010F0805F14BF044B044B1B6803420CBF71
:105C500000200120704700BF000402400000024005
:105C600010F0805F14BF024B024B5860704700BFBA
:105C70000004024000000240234B10B5984205D1B9
:105C80000420012100F06CFC042036E01F4B9842F8
:105C900005D10820012100F063FC08202DE01C4BF9
:105CA000984205D11020012100F05AFC102024E078
:105CB000184B984205D12020012100F051FC2020F2
:105CC0001BE0154B984205D14020012100F048FC13
:105CD000402012E0114B984205D18020012100F0B4
:105CE0003FFC802009E00E4B98420BD14FF48070AE
:105CF000012100F035FC4FF480700021BDE8104018
:105D000000F02EBC10BD00BF00080140000C014097
:105D1000001001400014014000180140001C014027
:105D2000002001400120014610B500F019FC0120BF
:105D30000021BDE8104000F013BCCB78F0B513F0A3
:105D4000100F03F00F020E881CBF8B781A4316F059
:105D5000FF0F1DD00468002301279F4007EA0605B6
:105D6000BD4211D19F004FF00F0C0CFA07FC12FA44
:105D700007F724EA0C043C43CF78282F01D1456172
:105D800002E0482F08BF05610133082BE4D104600D
:105D90000E88FF2E1FD94468002303F10805012750
:105DA000AF4007EA0605BD4211D19F004FF00F0C2E
:105DB0000CFA07FC12FA07F724EA0C043C43CF78EC
:105DC000282F01D1456102E0482F08BF056101334A
:105DD000082BE2D14460F0BD4FF0FF330380022373
:105DE0008370DB18C3707047836819420CBF0020B2
:105DF00001207047806880B27047C36819420CBFA9
:105E0000002001207047C06880B270470161704770
:105E1000416170470AB10161704741617047C160DB
:105E2000704741F480338361816183618369836951
:105E3000704710B5054A4FF68073146841EA0011A7
:105E400004EA030341EA0303136010BD00000140AC
:105E5000014B1860704700BF1C00204230B500287D
:105E6000174B00F44014B4BFDB695B68B4F5401F06
:105E700082B207D1124C23F07063656825F070651B
:105E8000656011E010F4801F06D000F47024240C2B
:105E9000032515FA04F403E0440D240112FA04F476
:105EA00023EA040343F0706319B1410D09018A40EC
:105EB0001343034A0028B4BFD361536030BD00BF11
:105EC0000000014001F0030230B592000F2494401D
:105ED00010FA02F2074B8908023153F8215025EAE3
:105EE000040443F8214053F8214042EA040443F8F3
:105EF000214030BD00000140014B1860704700BFD9
:105F0000DC0020420B4B10B5984207D14FF4001033
:105F1000012100F031FB4FF4001006E04FF4800047
:105F2000012100F029FB4FF480000021BDE8104062
:105F300000F022BB00540040F0B587B004468688CC
:105F400001A80D46304F00F09DFA039826F03F0659
:105F50003604B0FBF7F7360CBFB247EA0606A68058
:105F600021882A6821F00101284B0904090C9A4272
:105F700021800AD85300B0FBF3F301379BB2BFB2C4
:105F80002784032B98BF042322E0E9884BF6FF7394
:105F9000994205D102EB4202B0FBF2F39BB206E05C
:105FA00019235343B0FBF3F39BB243F480431A0528
:105FB000120D0AB943F001034FF4967257434FF4A0
:105FC0007A7297FBF2F70137BFB243F4004327849C
:105FD000A383238869899BB243F00103238023882C
:105FE000AA8823F4806323F00A031B0441EA020217
:105FF0001B0C13439BB223802A89AB8942EA03031B
:106000009BB2238107B0F0BD40420F00A086010083
:1060100041F288330360002383804BF6FF720381D3
:1060200043814FF48043C2808381704721B103884C
:106030009BB243F0010304E0038823F001031B0437
:106040001B0C0380704721B183889BB243F400632B
:1060500004E0838823F400631B041B0C83807047D7
:1060600021B183889BB243F4805304E0838823F4F6
:1060700080531B041B0C8380704721B103889BB2A3
:1060800043F4807304E0038823F480731B041B0C27
:106090000380704721B103889BB243F4007304E08E
:1060A000038823F400731B041B0C0380704721B189
:1060B00003889BB243F4806304E0038823F4806385
:1060C0001B041B0C03807047838901F0FE0123F041
:1060D000FE031B041B0C41EA03038381704721B1BB
:1060E00083899BB243F0010304E0838923F0010319
:1060F0001B041B0C8381704721B103889BB243F0C2
:10610000400304E0038823F040031B041B0C0380BE
:1061100070471AB183889BB2194303E083889BB20E
:1061200023EA01018180704701827047008AC0B272
:10613000704712B141F0010101E001F0FE0101825E
:10614000704782B0002301930190019BCB1801930B
:10615000019B188880B202B0704731B103886FEAA2
:1061600043436FEA53439BB202E003885B045B0C3A
:1061700003807047B1F5006F04D103889BB243F4EC
:10618000006304E0038823F400631B041B0C0380FA
:106190007047B1F5005F04D103889BB243F400530C
:1061A00004E0038823F400531B041B0C0380704796
:1061B00021B103889BB243F4805304E0038823F4A5
:1061C00080531B041B0C03807047B1F5006F04D192
:1061D00003889BB243F4006304E0038823F4006364
:1061E0001B041B0C0380704721B103889BB243F052
:1061F000200304E0038823F020031B041B0C03800E
:106200007047008B80B2000A704721B103889BB2AF
:1062100043F0100304E0038823F010031B041B0C5D
:106220000380704721B903889BB243F0800304E0E8
:10623000038823F080031B041B0C03807047B1F517
:10624000804F05D0838B23F480431B041B0C03E099
:10625000838B9BB243F4804383837047838A008B94
:106260009BB243EA0040084020F07F40431A584266
:1062700040EB03007047838A008B9BB243EA0040E7
:1062800020F07F40704782B00023019300930B0FF2
:1062900000900193019B21F07F4113B1009B1433C7
:1062A00002E0009B090C18330093009B1B68194205
:1062B0000CBF0020012002B07047C94389B281821F
:1062C00070478388808A9BB280B2084006D001F074
:1062D000E06113EA11410CBF002001207047C9435F
:1062E00089B28182704700BF0D4B1A6842F00102EB
:1062F0001A6059680B4A01EA02025A601A6822F0D1
:10630000847222F480321A601A6822F480221A60A1
:106310005A6822F4FE025A604FF41F029A607047D6
:10632000001002400000FFF80C4BB0F5803F1A68E7
:1063300022F480321A601A6822F480221A6003D094
:10634000B0F5802F09D104E01A6842F480321A6057
:1063500070471A6842F4A0221A6070470010024089
:10636000034B1A6822F0F80242EAC0021A60704732
:1063700000100240014B1860704700BF000042420D
:10638000044B5A6822F47C1240EA02020A435A6023
:10639000704700BF00100240014B1860704700BFFB
:1063A00060004242034B5A6822F0030240EA0202B4
:1063B0005A60704700100240024B586800F00C0011
:1063C000704700BF00100240034B5A6822F0F002F1
:1063D00040EA02025A60704700100240034B5A68BC
:1063E00022F4E06240EA02025A6070470010024064
:1063F000034B5A6822F4605242EAC0025A60704766
:1064000000100240044B11B11A78104302E01A78D0
:1064100022EA00001870704709100240014B186012
:10642000704700BFD8004242034B5A6822F44042F2
:1064300040EA02025A60704700100240064B0022F8
:1064400001281A701A7002D0042804D101E01870D3
:10645000704705221A70704720100240014B1860E7
:10646000704700BF80044242024B1A6A40EA0202AF
:106470001A62704700100240014B1860704700BF5D
:106480003C04424210B5204B5A6802F00C02042A28
:1064900001D0082A02D01D4B036011E05A685968E8
:1064A00002F47012920C023211F4803F03D05B6848
:1064B00013F4003F01D0164B00E0144B5A43026026
:1064C000114A144B5168046801F0F0010909595C44
:1064D00034FA01F14160546804F4E064240A1C5D5C
:1064E00031FA04F48460546804F46054E40A1C5DD6
:1064F000E140C160526802F4404203EB92331B7CDE
:10650000B1FBF3F1016110BD0010024000127A00EE
:1065100000093D0028000020044B11B15A691043C6
:1065200002E05A6922EA00005861704700100240F8
:10653000044B11B19A69104302E09A6922EA000003
:106540009861704700100240044B11B1DA691043A2
:1065500002E0DA6922EA0000D861704700100240C8
:10656000044B11B1DA68104302E0DA6822EA000055
:10657000D860704700100240044B11B11A691043F3
:1065800002E01A6922EA0000186170470010024018
:10659000014B1860704700BF40044242014B186035
:1065A000704700BF4C004242014B1870704700BF5B
:1065B000071002404309012B074A01D1136803E089
:1065C000022B0CBF136A536A00F01F0033FA00F06D
:1065D00000F00100704700BF0010024007B5002323
:1065E00001933120FFF7E6FF019B01330193019BEB
:1065F000B3F5A06F01D00028F3D03120FFF7DAFF08
:10660000003818BF01200EBD024B5A6A42F080725A
:106610005A62704700100240034B9B6818420CBF3F
:1066200000200120704700BF00100240014B18708D
:10663000704700BF0A10024030B5048C24F00104FA
:106640002404240C0484048B058C24F0F304240417
:10665000240C42EA040444EA0314104BADB29842FD
:10666000A4B20ED00E4B98420BD0B0F1804F08D0A0
:106670000C4B984205D00C4B984202D00B4B9842E1
:1066800002D125F0020501E025F00A0545F00105DB
:1066900045EA01010483018430BD00BF002C0140A4
:1066A000003401400004004000080040000C00409D
:1066B00030B5048C24F010042404240C0484048BCE
:1066C000058C24F440742405240D44EA022444EA91
:1066D0000334124BADB29842A4B20ED0104B984284
:1066E0000BD0B0F1804F08D00E4B984205D00E4B26
:1066F000984202D00D4B984207D125F0200545F075
:10670000100545EA011189B205E025F0A00545F024
:10671000100545EA01010483018430BD002C0140CD
:10672000003401400004004000080040000C00401C
:106730005A4B10B5984207D14FF400600121FFF782
:106740000FFF4FF40060A2E0B0F1804F05D10120AF
:106750000146FFF711FF012007E0514B984209D194
:1067600002200121FFF708FF02200021BDE81040B0
:10677000FFF702BF4B4B984205D104200121FFF7E0
:10678000FBFE0420F1E7484B984205D10820012187
:10679000FFF7F2FE0820E8E7444B984205D11020AD
:1067A0000121FFF7E9FE1020DFE7414B984205D1B8
:1067B00020200121FFF7E0FE2020D6E73D4B984244
:1067C00007D14FF400500121FFF7CAFE4FF40050EB
:1067D0005DE0394B984207D14FF400200121FFF7CB
:1067E000BFFE4FF4002052E0344B984207D14FF4E3
:1067F00080100121FFF7B4FE4FF4801047E0304BCA
:10680000984207D14FF400100121FFF7A9FE4FF481
:1068100000103CE02B4B984205D140200121FFF7AE
:10682000ABFE4020A1E7284B984205D180200121F2
:10683000FFF7A2FE802098E7244B984207D14FF43F
:1068400080700121FFF798FE4FF480708DE7204B98
:10685000984207D14FF480300121FFF781FE4FF4B9
:10686000803014E01B4B984207D14FF400300121D7
:10687000FFF776FE4FF4003009E0174B98420BD13A
:106880004FF480200121FFF76BFE4FF480200021A0
:10689000BDE81040FFF764BE10BD00BF002C0140F2
:1068A0000004004000080040000C004000100040C0
:1068B0000014004000340140004C014000500140F1
:1068C0000054014000180040001C0040002000401F
:1068D000004001400044014000480140204A038834
:1068E00090429BB20ED01F4A90420BD0B0F1804F25
:1068F00008D01D4A904205D01C4A904202D01C4A42
:10690000904206D14FF68F7203EA02024B8842EAA8
:106910000303184A904209D0174A904206D04FF616
:10692000FF4203EA0202CB8842EA030303808B881A
:1069300083850B8803850A4B98420BD0094B9842FC
:1069400008D00E4B984205D00D4B984202D00D4B0B
:10695000984201D10B7A038601238382704700BFDE
:10696000002C0140003401400004004000080040B9
:10697000000C0040001000400014004000400140A6
:106980000044014000480140038C70B523F001032E
:106990001B041B0C0384038C8488028B0D8822F05B
:1069A00073021204120C2A434E880D8923F002034D
:1069B0001B0446EA05051B0CADB245EA0303164D60
:1069C000A4B2A8420BD0154DA84208D0144DA8423D
:1069D00005D0144DA84202D0134DA84215D14FF650
:1069E000F77503EA05054B89CE891D434FF6FB7306
:1069F00005EA03038D882B434FF6FF4504EA05059E
:106A00008C8946EA0404A4B22C4384800283CA8899
:106A10008286038470BD00BF002C01400034014019
:106A2000004001400044014000480140038C30B563
:106A300023F010031B041B0C0384038C8288048B3B
:106A40000D8824F4E6442404240C23F0200344EAB3
:106A500005241B040D891B0C43EA05134D8892B2D3
:106A600043EA0513134DA4B2A8429BB202D0124DC3
:106A7000A84219D14FF67F7503EA05054B8945EA0F
:106A800003154FF6BF7305EA03038D8843EA051328
:106A90004FF2FF3502EA05058A899BB245EA820575
:106AA000CA8945EA820292B28280CA880483028738
:106AB000038430BD002C014000340140038C30B50C
:106AC00023F480731B041B0C0384038C8288848B47
:106AD0000D8824F073042404240C23F400731B0495
:106AE0002C430D891B0C43EA05234D8892B243EADF
:106AF0000523134D9BB2A84202D0124DA84219D1D2
:106B00004FF2FF7503EA05054B8945EA03254FF669
:106B1000FF3305EA03038D8843EA05234CF6FF752E
:106B200002EA05058A899BB245EA0215CA8945EA47
:106B3000021292B28280CA8884838287038430BD25
:106B4000002C014000340140038C30B523F4805305
:106B50001B041B0C0384038C8488828B0D8822F415
:106B6000E6421204120C23F4005342EA05221B04ED
:106B70000D891B0C43EA05334D88A4B243EA053363
:106B80000B4D92B2A8429BB202D00A4DA84207D147
:106B90004BF6FF7504EA05058C8945EA8414A4B216
:106BA00084808283CA88A0F84020038430BD00BF5F
:106BB000002C0140003401404A880B8842EA03035C
:106BC0008A881343CA8813430A8913434A891343A3
:106BD0008A8913439BB2A0F8443070474FF0FF33CB
:106BE000838000230380C3804380037270470023A7
:106BF000038043808380C380038143818381C38179
:106C0000704700230122038043808280C380038178
:106C100070470023038043808380C38003814381C6
:106C20008381704721B103889BB243F0010304E0E4
:106C3000038823F001031B041B0C0380704739B148
:106C4000B0F844306FEA43436FEA53439BB203E02A
:106C5000B0F844305B045B0CA0F8443070471AB1C4
:106C600083899BB2194303E083899BB223EA010124
:106C700081817047818270470A43A0F8482070479D
:106C80001AB183899BB2194303E083899BB223EA3B
:106C9000010181817047038923F007031B041B0C4A
:106CA0000381704710B50489E4B241EA040442EA62
:106CB000040444EA0324A4B2048110BD10B50446C0
:106CC000FFF7F0FF23899BB243F48043238110BD7B
:106CD00010B50446FFF7E6FF238923F077031B0472
:106CE0001B0C43F07703238110BD0185828270471E
:106CF000038823F070031B041B0C41EA0303038089
:106D00007047038923F070031B041B0C41EA030343
:106D10000381704738B50D46602D0446114603D1F6
:106D20000122FFF7C5FC02E00122FFF785FC2046A7
:106D30002946FFF7E6FF23899BB243F0070323812F
:106D400038BD10B50446FFF7DCFF23899BB243F042
:106D50000703238110BD70B50489068B058C26F4CA
:106D6000407625F0220526F003062D0424F00704C2
:106D700036042D0C2404360C42EA0505240C46F496
:106D8000807645EA0315214346F00106ADB2018144
:106D90000683058470BD038B23F070031B041B0C5A
:106DA00041EA030303837047038B23F4E0431B048E
:106DB0001B0C43EA01239BB203837047838B23F0B0
:106DC00070031B041B0C41EA030383837047838B0E
:106DD00023F4E0431B041B0C43EA01239BB283838F
:106DE000704721B103889BB243F0800304E003881D
:106DF00023F080031B041B0C0380704721B18388A0
:106E00009BB243F0040304E0838823F004031B04D3
:106E10001B0C8380704721B183889BB243F0080329
:106E200004E0838823F008031B041B0C8380704755
:106E300021B183889BB243F0010304E0838823F0EF
:106E400001031B041B0C83807047038B23F0080392
:106E50001B041B0C41EA030303837047038B23F4D9
:106E600000631B041B0C43EA01239BB2038370479E
:106E7000838B23F008031B041B0C41EA0303838369
:106E80007047838B23F400631B041B0C43EA01232C
:106E90009BB283837047038B23F004031B041B0CFA
:106EA00041EA030303837047038B23F480631B04CD
:106EB0001B0C43EA01239BB203837047838B23F0AF
:106EC00004031B041B0C41EA030383837047838B79
:106ED00023F480631B041B0C43EA01239BB28383CE
:106EE0007047038B23F080031B041B0C41EA030350
:106EF00003837047038B5B045B0C43EA01239BB263
:106F000003837047838B23F080031B041B0C41EA2F
:106F1000030383837047838B5B045B0C43EA012389
:106F20009BB283837047038C23F002031B041B0C6A
:106F300041EA030303847047038C23F008031B0416
:106F40001B0C41EA030303847047038C23F02003E6
:106F50001B041B0C43EA01139BB203847047038C90
:106F600023F080031B041B0C43EA01139BB2038430
:106F70007047038C23F400731B041B0C43EA0123AA
:106F80009BB203847047038C23F400631B041B0C27
:106F900043EA01239BB203847047038C23F400531C
:106FA0001B041B0C43EA01339BB20384704701238B
:106FB0008B4012FA01F110B5048CA4B224EA030349
:106FC0000384038C41EA03039BB2038410BD0423B2
:106FD0008B4012FA01F110B5048CA4B224EA030329
:106FE0000384038C41EA03039BB2038410BD30B5D4
:106FF00001248C40058C00F11803ADB225EA04048D
:10700000048409B1082906D14908C85820F0700045
:10701000C850C85809E0043989B24908C858120252
:1070200020F4E040C850C85892B240EA0202CA5068
:1070300030BD21B103889BB243F0020304E0038812
:1070400023F002031B041B0C0380704721B103884B
:107050009BB243F0040304E0038823F004031B0401
:107060001B0C0380704721B183889BB243F08003DF
:1070700004E0838823F080031B041B0C838070478B
:10708000038823F008031B041B0C038003889BB2B6
:1070900041EA030303807047838823F070031B04D5
:1070A0001B0C838083889BB241EA03038380704773
:1070B000038923F007031B041B0C038103899BB284
:1070C00041EA030303817047038923F080031B0413
:1070D0001B0C038103899BB241EA030303817047C0
:1070E000818470478185704781867047018770472A
:1070F00081877047A0F840107047038B23F00C0382
:107100001B041B0C0383038B9BB241EA0303038321
:107110007047038B23F440631B041B0C0383038B16
:107120009BB243EA01239BB2038370472DE9F041F0
:107130000C46A2884988B4F800E0054600290CBF37
:1071400002270027012A14BF012602262389BEF147
:10715000000F10D1FFF770FA2846E188FFF7CDFF46
:107160002846394632462389FFF7A2FAE1882846A5
:10717000BDE8F041CDE7FFF79BFA2846E188FFF72D
:10718000C8FF2846394632462389FFF755FAE18879
:107190002846BDE8F041B0E7838B23F00C031B04C5
:1071A0001B0C8383838B9BB241EA03038383704769
:1071B000838B23F440631B041B0C8383838B9BB260
:1071C00043EA01239BB2838370470B882DE9F0418A
:1071D0000D4604464988AA883BB92B89FFF72CFA4B
:1071E000E9882046BDE8F04187E7042B07D12B89C9
:1071F000FFF75EFAE9882046BDE8F04189E7082BF1
:107200008C46B5F8088039D1068C394B26F4807647
:107210003604360C0684808B278C20F0F3000004A3
:10722000000C40EA081080B29C42BFB240EA020261
:107230000ED0304B9C420BD0B4F1804F08D02E4B77
:107240009C4205D02D4B9C4202D02D4B9C4207D135
:1072500027F4007646EA0C26B6B246F4807606E0BD
:107260004FF2FF5607EA060641F480710E43E988A3
:107270002046A2832684BDE8F0418DE7008C20F4EF
:1072800080500004000C2084A38B278C23F44073CF
:107290001B051B0D43EA0223154A43EA08339442B7
:1072A000BFB29BB20ED0134A94420BD0B4F1804FC0
:1072B00008D0114A944205D0104A944202D0104A94
:1072C000944207D127F4005242EA0C3292B242F4BF
:1072D000805206E047F6FF5207EA020241F480516D
:1072E0000A43E9882046A3832284BDE8F0415FE792
:1072F000002C014000340140000400400008004020
:10730000000C0040038823F440731B041B0C038013
:1073100003889BB241EA030303807047808E80B2EA
:107320007047008F80B27047808F80B27047B0F88E
:10733000400080B27047808C80B27047008D80B270
:107340007047038A19420CBF002001207047C943CF
:1073500089B201827047038A828911EA030092B2DE
:1073600003D011420CBF002001207047C94389B2ED
:1073700001827047204B10B598420BD101214FF488
:107380008040FFF7EDF84FF480400021BDE8104049
:10739000FFF7E6B8194B984207D14FF400300121AE
:1073A000FFF7EAF84FF400301FE0154B984207D181
:1073B0004FF480200121FFF7DFF84FF4802014E024
:1073C000104B984207D14FF400200121FFF7D4F869
:1073D0004FF4002009E00C4B98420BD14FF4801081
:1073E0000121FFF7C9F84FF480100021BDE81040DB
:1073F000FFF7C2B810BD00BF003801400044004094
:1074000000480040004C00400050004030B5038A66
:10741000CA8823F440531B041B0C134303820D46FC
:1074200083890989AA8823F4B05341EA0202698951
:1074300023F00C030A431B041B0C92B242EA030321
:107440008381838AAA8923F440731B041B0C87B0B1
:1074500013430446838201A8FFF714F8184BA2894E
:107460009C4212B20CBF049B039B002A4FF01901EF
:107470002A6802DA5943520001E05943920064231A
:10748000B1FBF2F1B1FBF3F21201100903FB101191
:10749000A08900B2002806DAC9003231B1FBF3F34B
:1074A00003F0070305E009013231B1FBF3F303F008
:1074B0000F0343EA020292B2228107B030BD00BF3F
:1074C000003801404FF4165303600C2200238380E0
:1074D000C38003814281838170470A8810B54C883C
:1074E000038A44EA02028C88C98823F47063224329
:1074F0001B040A431B0C92B242EA0303038210BD31
:107500000023038043808380C380704721B1838937
:107510009BB243F4005304E0838923F400531B041B
:107520001B0C83817047CBB210B55B09012401F0BD
:107530001F0114FA01F1A34201D10C3004E0022B27
:1075400001D1103000E014301AB1036843EA0101A0
:1075500002E0036823EA0101016010BD1AB1838AC9
:107560009BB2194303E0838A9BB223EA0101818223
:107570007047038A23F00F031B041B0C0382038A4A
:107580009BB241EA030303827047838923F40063BB
:107590001B041B0C838183899BB241EA0303838113
:1075A000704721B183899BB243F0020304E08389D1
:1075B00023F002031B041B0C83817047038A23F012
:1075C00020031B041B0C0382038A9BB241EA0303C2
:1075D0000382704721B1038A9BB243F4804304E0E5
:1075E000038A23F480431B041B0C03827047C905E4
:1075F000C90D818070478088C005C00D70478389A0
:107600009BB243F0010383817047038BDBB203839A
:10761000038B9BB243EA012303837047038B03F47C
:107620007F430383038B9BB241EA030303837047C9
:1076300021B1838A9BB243F0200304E0838A23F0C4
:1076400020031B041B0C8382704721B1838A9BB2E9
:1076500043F0100304E0838A23F010031B041B0C87
:107660008382704721B1838A9BB243F0080304E010
:10767000838A23F008031B041B0C8382704731B1FB
:1076800083896FEA43436FEA53439BB202E08389E5
:107690005B045B0C8381704721B1838A9BB243F406
:1076A000006304E0838A23F400631B041B0C8382C1
:1076B0007047838A23F004031B041B0C8382838A94
:1076C0009BB241EA03038382704721B1838A9BB254
:1076D00043F0020304E0838A23F002031B041B0C23
:1076E00083827047038819420CBF00200120704735
:1076F000C94389B20180704710B5CCB20122640938
:1077000001F01F039A40012C01D1838903E0022C70
:107710000CBF038A838A9BB202EA0303028892B2F7
:1077200043B1090A012313FA01F111420CBF0020F1
:10773000012010BD184610BD090A01238B40DB4310
:107740009BB20380704700BF08B5084B0022196840
:10775000072000F0A1F9064B07201968002200F06D
:107760009BF90A2002F0ECFDEFE700BF04010020C6
:10777000E40000201FB500F025F8012400F010F906
:1077800000F0FCF800F016FE00F020FC00F0CEFB4C
:1077900000F062F800230849802208480193029310
:1077A0000393009402F0CCFA02F092FC00F01FF870
:1077B000204604B010BD00BF49B900084977000851
:1077C000FDF738BB10B5FDF703F90120002102F0E9
:1077D00029F9054A106030B100210A460B46BDE880
:1077E000104002F054B910BDFC4600207047FDF770
:1077F000F8B803281FB503461EDC00291CDC104A1C
:1078000052F82000C0B10F4A52F82120A2B10E4A0E
:1078100013600E4B0122196000920D4A0D4901922E
:10782000002202920392803202F08AFA012814BFE9
:107830006FF00100002001E04FF0FF3005B000BD07
:10784000804600209046002004470020004700208A
:10785000B04600204EB9000810B5FDF7B5F8074C4A
:107860002060FDF7B3F8064B014618602068FFF76B
:10787000C0FFBDE81040FDF7B2B800BF04470020CC
:10788000004700208368F7B5012B044619D0022B6E
:1078900059D100250095C068294622692B46FDF77D
:1078A000B9F80128064606D129462A462B4600F09B
:1078B00021F9354651E02A4B01200421E2681B6979
:1078C00032E0C268274E0369274C032A32602360E6
:1078D00033DC002B31DC254951F82220002A2CD042
:1078E000234A52F8233043B3224B00221968102058
:1078F000214F00F0D1F8002138684FF4FA620B46AE
:1079000002F05EF90128054626D100210A460B4601
:10791000386802F0BCF821683068FFF76AFF01465A
:1079200028B928460A460B4600F0E4F815E00C4B4F
:107930002846294600225B680AE0094B0120032102
:107940000022DB6804E0064B01209B680221002234
:1079500000F0D0F8002500E000E02846FEBD00BFA2
:107960003C00002004470020004700208046002003
:107970009046002004010020FC460020074B002216
:1079800010B51A605A609A60DA6001F095FF01F054
:10799000C3F8BDE8104001F0E3B800BF8046002006
:1079A000024B00221A6000F0E3BE00BF90460020A8
:1079B00070B5064601F10C000D4602F01FFE0446AC
:1079C00050B105603EB135B10C30606031462A4699
:1079D00003F000F800E06660204670BD70B50D460B
:1079E000064690B199B101F10C0002F007FE044681
:1079F00070B140F80C5B2A466060314602F0EAFF45
:107A0000636803F11002DA6002E0044600E00C460D
:107A1000204670BD38B50546D8B14068103002F038
:107A2000EDFD0446A0B195E80F0084E80F0004F1D5
:107A30001000E0606A68E96802F0CCFF69682046DF
:107A40001031FFF7CBFF0546204602F02FFE00E085
:107A50000546284638BD08B102F028BE704738B543
:107A600005460C2002F0CAFD044630B1284602F05B
:107A7000C5FDA060002808BF0024204638BD10B511
:107A8000044640B1806808B102F010FE2046BDE80F
:107A9000104002F00BBE10BD07B50192002200900D
:107AA00013460846694601F0F2FF0EBD13B50446C1
:107AB00002A840F8041D0421FFF77AFF024620B116
:107AC000024B20461968FFF7E7FF1CBDE4000020C9
:107AD00010B50C461821FFF76BFF024630B1044B7E
:107AE000846059680B20BDE81040D5E710BD00BF89
:107AF000E40000201FB50090019168461021029219
:107B00000393FFF755FF054B02468360044B0620A5
:107B10005968FFF7C1FF05B000BD00BF117D000827
:107B2000E400002007B501920022009013460846A9
:107B3000694602F01CF80EBD1FB500900191684621
:107B4000102102920393FFF733FF054B0246836037
:107B5000044B06205968FFF7E5FF05B000BD00BFE4
:107B6000117D0008E400002013B500230C4669468F
:107B700002F026F8012803BF019B00982360002033
:107B80001CBD05E00B78027801F8012900F8013BE3
:107B90008142F7D87047054B0A0901F00F019A5C42
:107BA0005B5C0270437000238370704736B7000837
:107BB00038B504460D460234090AFFF7ECFF2046AB
:107BC000E9B2FFF7E8FF0023A37038BD38B50446DB
:107BD0000D460434090CFFF7EBFF2046A9B2FFF76E
:107BE000E7FF0023237138BD931E212BF7B505460F
:107BF0000C46174603D900230B7003B0F0BD80EA92
:107C0000E071A1EBE071264600E019463A4668466D
:107C100002F0BCFE019A0B49009B8A5C314601F8D8
:107C2000012B0E46002BF0D1002D02DA2D3301F886
:107C3000013B002301F80139204603B0BDE8F040C4
:107C40009FE700BFAFB9000810B540B1044602E09D
:107C5000034B1B68984714F8010B0028F8D110BD9E
:107C60000C010020064B1B68012B02D0022B04D113
:107C700001E0044802E0044800E00448E4E700BFF3
:107C800050000020D7B90008D4B90008D6B90008C0
:107C90000A4610B50349FFF7A7FF0248BDE81040A8
:107CA000D2E700BF084700202DE9F0410446154601
:107CB0001E460F46D1B11248FFF7C6FF0A212046E3
:107CC000FFF7E6FF0F48FFF7BFFF0A213846FFF72F
:107CD000DFFF0C48FFF7B8FF28460A21FFF7D8FF5F
:107CE0003EB10848FFF7B0FF304600E00648FFF716
:107CF000ABFFFFF7B7FF0548BDE8F041A4E700BFC1
:107D0000D9B9000828BC0008E2B90008E4B90008A5
:107D10000B4608689A684968DB68C5E70020014699
:107D200002460346C0E7014610B50348FFF74EFF81
:107D30000148BDE8104087E708470020014610B51C
:107D40000348FFF735FF0248BDE810407CE700BF5D
:107D500008470020014610B50348FFF71CFF024802
:107D6000BDE8104070E700BF084700202DE9F04F44
:107D70006C4B99B01868002800F0CE800123049362
:107D8000694B00241D680B946F682868394612946B
:107D90000294059409940C9410941394FCF72AFE11
:107DA000A146A2464FF0020B5E494FF0FF32086831
:107DB00017A9FFF7D9FE0028F6D00738082800F2E7
:107DC000A780DFE800F005A5A5A5A57789979C0009
:107DD00002AA0AF1010A17A913469869002808DDCA
:107DE0000138986128B99868022802D10138986052
:107DF0001861D868002801DD0138D8601C338B4237
:107E0000EBD1BAF1640F0DDD89F001099368012B04
:107E100003D1D3680BB9C2F800901C328A42F5D165
:107E20004FF0000A02AC4FF0000826682EB1E3685C
:107E3000D3F1010338BF002300E033466268934268
:107E400014D02EB1E268D2F1010238BF002200E066
:107E50003246002140460B460091FCF7DBFD26B17F
:107E6000E668D6F1010638BF002666602369012B5B
:107E700001D1013B23616369012B01D1013B6361A6
:107E800008F101081C34B8F1030FCED1002D3FD00A
:107E9000013F002F3CDC08356C682CB92046214698
:107EA000FCF7A8FD254633E028682146FCF7A2FD33
:107EB00027462DE01C2318A903FB0B13022243F8CD
:107EC000502C013A43F8582C093243F84C2C4FF40B
:107ED0007A7243F8402C1BE0179B18A95B681A685C
