:020000040800F2
:100000000050002001200008610700086307000875
:10001000650700086707000869070008000000007E
:100020000000000000000000000000004520000863
:100030006D0700080000000045200008452000086A
:1000400045200008452000084520000845200008FC
:1000500045200008452000084520000845200008EC
:1000600045200008452000084520000845200008DC
:1000700045200008452000084520000845200008CC
:1000800045200008452000084520000845200008BC
:1000900045200008452000084520000845200008AC
:1000A000452000084520000845200008452000089C
:1000B000452000084520000845200008452000088C
:1000C000452000084520000845200008452000087C
:1000D000452000084520000845200008452000086C
:1000E00045200008452000084520000800000000C9
:1000F0000000000000000000000000000000000000
:0C01000000000000000000005FF808F1A3
:10010C0000230D4AF0B50A251C46B1FBF2F707F1A6
:10011C003006F6B202FB17110A27302E0655B2FB39
:10012C00F7F200D113B10134013301E000231C4676
:10013C00013DEAD1F0BD00BF00CA9A3BF0B503788F
:10014C00302B04D14378782B04D0582B02D00023C9
:10015C001A4629E08378002B49D000240222835CC4
:10016C000BB90C6023E0A3F14105EDB2052D09D9C3
:10017C00A3F16106F6B2052E04D9A3F13006F6B24E
:10018C00092E38D8A3F13006F7B2092F01D833461F
:10019C0004E0052D01D8373B00E0573B01320B2A18
:1001AC0029D003EB0414DAE7845C2CB90B600A2A1F
:1001BC008CBF00200120F0BD6B2C01D04B2C02D148
:1001CC000AB19B0205E06D2C01D04D2C04D11AB163
:1001DC001B050B600120F0BD303CE5B2092D0AD89F
:1001EC0001320B2A05D00A2505FB0343DCE7184630
:1001FC00F0BD0020F0BD0020F0BD10B5202104465C
:10020C00044801F0D9FD18B1024B01209B882370E2
:10021C0010BD00BF0038014007B500238DF8073032
:10022C000DF10700FFF7E9FF0028F9D09DF8070052
:10023C000EBD014608B5054801F043FD0348802179
:10024C0001F0BAFD0028F9D008BD00BF003801400C
:10025C0010B5044601E0FFF7ECFF14F8010B002881
:10026C00F9D110BD38B505460024FFF7D5FF0D2890
:10027C0018D0082806D1002CF7D00D48FFF7E8FF5E
:10028C00013CF2E77F2C03D90A48FFF7E1FFEBE7CB
:10029C00A0F12002D2B25E2AE7D828550134FFF72C
:1002AC00C8FFE2E70448FFF7D3FF00232B5538BD06
:1002BC0051200008552000080325000830B50446DD
:1002CC0085B06846FFF7CEFF9DF80030002BF8D0C4
:1002DC00612B01D0412B07D19DF8015025B908485D
:1002EC00FFF7B6FF284609E068462146FFF726FFD0
:1002FC0018B90448FFF7ACFFE3E7012005B030BDA7
:10030C00742000088620000882B0019001988305B3
:10031C009B0D800A03B1013002B0704770B500F03C
:10032C003FFE1E4E0446336800EA03029A4231D067
:10033C0000F030FE336805461C43346000F0E0FFEB
:10034C0004463068B0F1FF3F03D0C04300F018FF03
:10035C00044605F00703072B07D005F0010005F054
:10036C00020105F0040200F093FE042C10D10C489D
:10037C00FFF76EFF0B48FFF76BFF0B4A0B4BD16877
:10038C0001F4E06141EA0303D360BFF34F8FFEE752
:10039C00074800E00748BDE8704059E730000020EE
:1003AC009D200008BC20000800ED00E00400FA05C8
:1003BC00062100083221000838B52B4B2B4C1B684A
:1003CC00012503F178431B0B636015FA03F35B42C1
:1003DC00236000F0E5FD23681840984201D0A56029
:1003EC0001E00023A360FFF717FF312802D100F0D2
:1003FC0085F8F8E7322802D100F066FAF3E73328E3
:10040C000CD11B4B1B4A1B681B4D13602B601B4BE9
:10041C00186801F00EFD2B689847E4E7342805D1E5
:10042C00A368012B1CD1FFF779FFDCE7682801D00A
:10043C00482815D11248FFF70BFF1248FFF708FFA9
:10044C001148FFF705FF1148FFF702FFA36813B12E
:10045C000F48FFF7FDFE0F48FFF7FAFE0E4800E0CD
:10046C000E48FFF7F5FEBEE7140000203000002018
:10047C000430000844040020480400200030000828
:10048C005521000895210008D321000811220008ED
:10049C004F2200088D220008CD220008CB22000834
:1004AC00014B01229A6070470030024010B50023C6
:1004BC0003E050F8044B013314608B42014AF8D32B
:1004CC00106810BD0030024010B54020012101F031
:1004DC002BFA084B1C68FFF7E3FFA1080131064813
:1004EC00FFF7E4FF00210446402001F01DFA2046EE
:1004FC0010BD00BFFC2F0008003000081FB50A22F9
:10050C001E4901A801F0CEFC1D48FFF7A1FE2021D9
:10051C001C4801F077F81C4800F01AFA041E17DD8D
:10052C001A48FFF795FE1A48FFF792FE214601A8DC
:10053C00FFF7E6FD1748FFF78BFE01A8FFF788FED3
:10054C001548FFF785FE1548FFF782FE14480EE0AC
:10055C00B4F1FF3F01D1134809E014F1020F01D1AE
:10056C00114804E014F1030F0CBF10481048FFF7BA
:10057C006FFE0448202101F043F81FBD46200008FF
:10058C00DF220008000C01403C0000201C23000866
:10059C00500400206F2300087923000882230008F0
:1005AC00CB220008A5230008E2230008FC23000846
:1005BC001224000870B586B000F0C4FC1D20012187
:1005CC0001F0BEF900244FF0FF3305A95048ADF8F7
:1005DC0014308DF8174000F0AAFF05A94D4800F023
:1005EC00A6FF05A94C4800F0A2FF01214FF4804062
:1005FC0001F0A6F9182303258DF8173005A94FF43F
:10060C0000734348ADF814308DF8165000F08FFF8E
:10061C0004238DF8173005A94FF480633C48ADF8DE
:10062C00143000F084FF01213C4801F011F8302314
:10063C00ADF8143014230DEB030136488DF8173048
:10064C008DF8165000F073FF1021324800F0D8FFDF
:10065C002021304800F0D4FF10212E4800F0D2FFAA
:10066C004FF4E133019301A90C232D48ADF80E3062
:10067C00ADF80840ADF80A40ADF80C40ADF81040AC
:10068C0001F02EFA0121264801F0AAFA2548FFF7BD
:10069C00DFFD2548FFF7DCFD2448FFF7D9FD244892
:1006AC00FFF7D6FD2148FFF7D3FD2248FFF7D0FD19
:1006BC000FE01B48202101F07FFB48B1184B9B88B1
:1006CC00DBB2662B04D11C48FFF7C2FDFFF774FEAA
:1006DC0001341A4B9C42ECD9194E1A4B32689A428F
:1006EC000FD1FFF7F1FE044658B9174B174A1B6898
:1006FC00174D13602B60306801F09BFB2B689847FB
:10070C00E7E70D48FFF7A4FD0024FFF755FEE0E7EF
:10071C0000080140000C01400010014000013000B5
:10072C000038014032240008462400086D230008DC
:10073C00492400084D240008CB2200083F420F003A
:10074C000030000800500020043000084404002051
:10075C00480400207047FEE7FEE7FEE7FEE770471F
:10076C0070477047704700003A4B82B01A6842F0ED
:10077C0001021A605968384A01EA02025A601A6882
:10078C0022F0847222F480321A601A6822F48022D9
:10079C001A605A6822F4FE025A604FF41F029A60E3
:1007AC000022019200921A6842F480321A60294B9E
:1007BC001A6802F400320092019A01320192009AF6
:1007CC001AB9019AB2F5A06FF1D11B6813F400337A
:1007DC0018BF01230093009B012B34D11F4B1A68C7
:1007EC0042F010021A601A6822F003021A601A68AA
:1007FC0042F002021A60174B5A685A605A685A60E3
:10080C005A6842F480625A605A6822F47C125A6028
:10081C005A6842F4E8125A601A6842F080721A6000
:10082C000C4B1A6812F0007FFAD05A6822F00302BF
:10083C005A605A6842F002025A60064B5B6803F039
:10084C000C03082BF9D1064B4FF000629A6002B0F2
:10085C00704700BF001002400000FFF8002002406B
:10086C0000ED00E0144A154B516801F00C0104290D
:10087C0001D0082902D0124A1A6011E05168506860
:10088C0001F47011890C023110F4803F03D05268CE
:10089C0012F4003F01D00B4A00E0094A51431960A1
:1008AC00054A1968526802F0F00203EB1212127931
:1008BC0031FA02F21A60704700100240000000206A
:1008CC0000127A0000093D0010B50F48FFF7C0FC7C
:1008DC0020210E4800F096FEFFF79EFC43280AD11B
:1008EC000B480C494FF4504200F017FA08B10A4873
:1008FC0002E00A4800E00A48FFF7AAFC034820215E
:10090C00BDE8104000F07CBE6D240008000C0140D6
:10091C0000300008A3240008BA240008E4240008CE
:10092C00FC23000808B5FFF784FC002008BD38B58F
:10093C0004460D4605E02046FFF75FFC013D01280B
:10094C0004D0002DF7D14FF0FF3038BD002038BD5A
:10095C002DE9F04F9C4AADF5846D9C4E002381B07F
:10096C000746CDF818343260994698461C460DF56A
:10097C0082600F304FF48011FFF7D9FF002840F050
:10098C001E819DF81F34042B44D005D8012B1CD09C
:10099C00022B40F014811AE0412B00F0F180612B06
:1009AC0000F0EE80182B40F00A810DF582600F30BC
:1009BC004FF48011FFF7BBFF002840F000819DF839
:1009CC001F34182B40F0FB8028E0802501E04FF409
:1009DC0080658DF800304FF0010A0DE000AA02EBA3
:1009EC000A004FF48011FFF7A2FF002840F0E780C7
:1009FC000AF1010A1FFA8AFA2B1D5345AB46EDDAB0
:100A0C009DF802209DF80130D243D2B2934240F0BF
:100A1C00D68001E0834603E015B107E00620C1E073
:100A2C000620FFF77FFF5C46D846A0E704F0FF02E4
:100A3C00934203D01520FFF775FF9EE0002C61D187
:100A4C009DF80330002B57D022460DF1030102E034
:100A5C008354013101320B785D4813B1B2F5807FBC
:100A6C00F6D10023835403E00DF58160C2540133A9
:100A7C0011F8012F202A01D0102BF5D10DF584622D
:100A8C00D318002503F8185C0DF581600DF5836112
:100A9C00FFF754FBDDF81804B0F5803F08DB182095
:100AAC00FFF740FF1820FFF73DFF4FF0FF3081E0CC
:100ABC00FFF72AFC474B18605D6098460BE0A8884E
:100ACC002A6803FB002000F083FCD9F80430A871DD
:100ADC000133C9F80430D8F80430D8F80020DFF816
:100AEC00F490934203D2B279384D042AE7D0062011
:100AFC00FFF718FF43203BE00620FFF713FFDDF85C
:100B0C00180457E038460DF103012A4601F0CAF9E2
:100B1C00314B4FF000081F6099461DE0D9F80030AA
:100B2C00196800F0C3FBDAF80020D9F8003010681F
:100B3C001968884208D01820FFF7F4FE1820FFF738
:100B4C00F1FE6FF0010035E00432CAF80020224AB1
:100B5C000433136008F10408A84508DA1A4BDDF8D1
:100B6C0018243068D3189842DFF860A0D6D306203A
:100B7C00FFF7D8FE01344FF001094FF00008F6E6FC
:100B8C001820FFF7CFFE1820FFF7CCFE6FF0020005
:100B9C0010E008F10108B8F1050F07DD1820FFF788
:100BAC00C1FE1820FFF7BEFE002003E04320FFF734
:100BBC00B9FEDCE609B00DF5806DBDE8F08FB9F13A
:100BCC00000FE6D1E7E700BFFC2F0008140000205F
:100BDC00500400203C0400204C04002000207047EE
:100BEC00F0B501230370013B04464370FF20A07055
:100BFC0085B0204601E085703B46CD5C9EB225B1A8
:100C0C0001305F1CB3F5807FF5D1E3180025DD7052
:100C1C0001A811680436FFF773FAB6B202E0013589
:100C2C00E254ADB204A94A1912F80C2C73199BB2F8
:100C3C00002AF4D103E00022E25401339BB2822B50
:100C4C00F9D905B0F0BD30B5B3F5806F34BF802451
:100C5C004FF480649C4238BF2346B4F5806F9BB23E
:100C6C0001D1022500E001254A70D2438A700D7033
:100C7C00032204E010F8015B8D54013292B29D1CEA
:100C8C009542F7DAA34208D8033302E01A22CA5479
:100C9C0001339BB2A21C9A42F8DA30BD41F4807148
:100CAC004900400011F4807F18BF013010F4803FE0
:100CBC001CBF80F4805080F0210011F4803FEFD0F5
:100CCC0080B2704770B504464518002003E014F854
:100CDC00011BFFF7E3FFAC4280B2F8D30021FFF712
:100CEC00DDFF0021BDE87040D8E74118002302E089
:100CFC0010F8012B9B188842FAD3D8B2704770B504
:100D0C000E460546002405E015F8010BFFF70AFE18
:100D1C000134A4B2B442F7D370BD2DE9F043ADF564
:100D2C00A26D83B0019205460022885C0DF58263AA
:100D3C00043398540132FF2AF7D103A8194601AAAB
:100D4C00FFF74EFF002403A88321FFF7D8FF802173
:100D5C000DF10F00FFF7B6FF0646000AC0B2FFF711
:100D6C00E1FDF0B2FFF7DEFD0DF5A260043042F2BA
:100D7C001071FFF7DCFD20B99DF81435062B01D15D
:100D8C0003E00134092CDED95BE0092C59D8019C15
:100D9C00012640E0284603A9F2B223464FF0000892
:100DAC00FFF751FF8DF81485B4F5806F34BF8027A1
:100DBC004FF4806703A8F91CFFF7A1FF39460DF12A
:100DCC000F00FFF77FFF8146000AC0B2FFF7AAFDB4
:100DDC005FFA89F0FFF7A6FD0DF5A26004304749D4
:100DEC00FFF7A5FD78B99DF81435062B0BD1BC4245
:100DFC0006D9342E70D00136ED19E41BB6B273E06F
:100E0C00ED19044670E008F10108B8F10A0FCBD1D6
:100E1C005FFA88F063E0002CBCD18DF814450420F7
:100E2C00FFF780FD0DF5A260043042F21071FFF760
:100E3C007EFD18B99DF81435062B59D001340A2CB7
:100E4C00EDD1E0B24BE001238DF80C3006AAFE3355
:100E5C008DF80E308DF814058DF80D000DF10E0384
:100E6C007632002503F8015F9342FAD103A883215F
:100E7C00FFF745FF80210DF10F00FFF723FF04461C
:100E8C00000AC0B2FFF74EFDE0B2FFF74BFD0DF5C7
:100E9C00A260043042F21071FFF749FD20B99DF8B1
:100EAC001435062B27D101E0013524E0092D11D88A
:100EBC000420FFF737FD0DF5A260043042F21071EB
:100ECC00FFF735FD18B99DF81435062B07D0013501
:100EDC00092D03D9E8B202E0FF2000E0002047B062
:100EEC000DF5806DBDE8F083B8F1090F93D98FE74C
:100EFC00092CA8D9A5E7092DB8D9EBE7A0860100E4
:100F0C00034B1A6802F0380240EA02021A6070477A
:100F1C0000200240044B1A6822F008021A601A687A
:100F2C0040EA02021A60704700200240044B1A6823
:100F3C0022F010021A601A6840EA02021A60704726
:100F4C0000200240024B034A5A60034A5A60704721
:100F5C000020024023016745AB89EFCD024B034AC9
:100F6C005A60034A5A6070470020024023016745CB
:100F7C00AB89EFCD024B1A6942F080021A617047BF
:100F8C0000200240024B1A6942F080021A6170473D
:100F9C0000200240014BD8698008704700200240B5
:100FAC00014B186A704700BF00200240024BD86901
:100FBC00C0F34000704700BF00200240024B18688D
:100FCC00C0F34010704700BF00200240044B11B129
:100FDC001A69104302E01A6922EA0000186170478E
:100FEC00002002400128064B03D1D86900F0010013
:100FFC007047DB6818420CBF00200120704700BF0F
:10100C0000200240014BD860704700BF0020024016
:10101C000A4BDA6812F0010F0BD1DA6812F0040FE8
:10102C0009D1D86800F0100000280CBF0420032060
:10103C007047012070470220704700BF002002401B
:10104C000A4BDA6812F0010F0BD1DA6812F0040FB8
:10105C0009D1D86800F0100000280CBF0420032030
:10106C007047012070470220704700BF00200240EB
:10107C0010B50446FFF7E4FF012805D100E0013C60
:10108C00002CFCD1052010BD002C08BF052010BD84
:10109C00F8B5124E124B0446B360124B4FF400508D
:1010AC00B3600D461746FFF7E3FF042815D13369EB
:1010BC0044F0F80443F01003336125430A4B2F43EB
:1010CC005F804FF40050FFF7D3FF052805D032693D
:1010DC0041F6EF7302EA03033361F8BD00200240CE
:1010EC0023016745AB89EFCD00F8FF1F38B50546E6
:1010FC004FF43020FFF7BCFF042838D11C4C1D4B9B
:10110C004FF43020A3601C4BA360236943F02003F1
:10111C002361236943F040032361FFF7A9FF0428EF
:10112C001DD1226941F6DF7302EA030323612369AF
:10113C0043F010032361114B0DB1002200E0A522F6
:10114C001A804FF43020FFF793FF05280FD0084A80
:10115C0041F6EF73116901EA0303136138BD0528E9
:10116C0005D0226941F6DF7302EA0303236138BD1F
:10117C000020024023016745AB89EFCD00F8FF1F2B
:10118C0010B504464FF40050FFF772FF042842D10B
:10119C00214B2249E44399602149E2B299601969D3
:1011AC00FF2A41F01001196107D01E4B4FF400507B
:1011BC001A81FFF75DFF042822D104F47F431B0A38
:1011CC00FF2B07D0174A4FF400505381FFF750FF05
:1011DC00042815D104F47F031B0CFF2B07D0114AF4
:1011EC004FF400509381FFF743FF042808D1240EDD
:1011FC00FF2C08D00B4B4FF40050DC81FFF738FF6D
:10120C00052801D110BD0420034A41F6EF73116982
:10121C0001EA0303136110BD00200240230167455E
:10122C00AB89EFCD00F8FF1F70B504464FF40050AA
:10123C000E46FFF71DFF042815D10B4D0B4B4FF439
:10124C000050AB600A4BAB602B6943F010032B6171
:10125C002680FFF70DFF052805D02A6941F6EF73AC
:10126C0002EA03032B6170BD002002402301674595
:10127C00AB89EFCD70B504464FF400500E46FFF726
:10128C00F7FE04280FD1084D4FF400502B6943F0A2
:10129C0001032B612680FFF7EBFE2A6941F6FE73F2
:1012AC0002EA03032B6170BD0020024073B50023DA
:1012BC0004464FF400500E460193FFF7D9FE042864
:1012CC001BD10E4D4FF400502B6943F001032B61E1
:1012DC00B3B22380FFF7CCFE042808D1023401946A
:1012EC00019B360C1E804FF40050FFF7C1FE2A699B
:1012FC0041F6FE7302EA03032B617CBD0020024021
:10130C0038B5FFF753FE00280CBFA52500254FF478
:10131C003020FFF7ADFE042833D11A4C1A4B4FF492
:10132C003020A360194BA360236943F02003236191
:10133C00236943F040032361FFF79AFE042818D178
:10134C00226941F6DF7302EA0303236123694FF438
:10135C00005043F0100323610D4B1D80FFF788FEF6
:10136C0005280ED0226941F6EF7302EA03032361CC
:10137C0038BD052805D0226941F6EF7302EA030354
:10138C00236138BD0020024023016745AB89EFCDB6
:10139C0000F8FF1F10B54FF43020FFF769FE04284A
:1013AC0012D10A4C4FF43020236943F0040323611B
:1013BC00236943F040032361FFF75AFE226941F68B
:1013CC00FB7302EA0303236110BD00BF002002403F
:1013DC0038B505464FF43020FFF74AFE042813D1E8
:1013EC000A4C4FF43020236943F0020323616561FA
:1013FC00236943F040032361FFF73AFE226941F66B
:10140C00FD7302EA0303236138BD00BF00200240D4
:10141C0010B50446FFF714FE012805D100E0013C8D
:10142C00002CFCD1052010BD002C08BF052010BDE0
:10143C0010B54FF43020FFF7EBFF042812D10A4C03
:10144C004FF43020236943F004032361236943F0F4
:10145C0040032361FFF7DCFF226941F6FB7302EACC
:10146C000303236110BD00BF00200240234B10B5C5
:10147C00984205D10420012100F07AFA042036E0CC
:10148C001F4B984205D10820012100F071FA082069
:10149C002DE01C4B984205D11020012100F068FA78
:1014AC00102024E0184B984205D12020012100F097
:1014BC005FFA20201BE0154B984205D140200121FA
:1014CC0000F056FA402012E0114B984205D18020D2
:1014DC00012100F04DFA802009E00E4B98420BD10F
:1014EC004FF48070012100F043FA4FF4807000211A
:1014FC00BDE8104000F03CBA10BD00BF0008014030
:10150C00000C014000100140001401400018014083
:10151C00001C0140002001400120014610B500F0E4
:10152C0027FA01200021BDE8104000F021BACB7849
:10153C00F0B513F0100F03F00F020E881CBF8B7860
:10154C001A4316F0FF0F1DD00468002301279F409B
:10155C0007EA0605BD4211D19F004FF00F0C0CFAA3
:10156C0007FC12FA07F724EA0C043C43CF78282F27
:10157C0001D1456102E0482F08BF05610133082BFA
:10158C00E4D104600E88FF2E1FD94468002303F1B8
:10159C0008050127AF4007EA0605BD4211D19F009F
:1015AC004FF00F0C0CFA07FC12FA07F724EA0C04A4
:1015BC003C43CF78282F01D1456102E0482F08BF6A
:1015CC0005610133082BE2D14460F0BD4FF0FF33CD
:1015DC00038002238370DB18C37070478368194241
:1015EC000CBF002001207047806880B27047C36830
:1015FC0019420CBF002001207047C06880B27047B0
:10160C0001617047416170470AB1016170474161E6
:10161C007047C160704741F480338361816183619D
:10162C0083698369704710B5054A4FF68073146857
:10163C0041EA001104EA030341EA0303136010BDFD
:10164C0000000140014B1860704700BF1C00204295
:10165C0030B50028174B00F44014B4BFDB695B684D
:10166C00B4F5401F82B207D1124C23F07063656849
:10167C0025F07065656011E010F4801F06D000F451
:10168C007024240C032515FA04F403E0440D240102
:10169C0012FA04F423EA040343F0706319B1410D08
:1016AC0009018A401343034A0028B4BFD361536035
:1016BC0030BD00BF0000014001F0030230B59200C4
:1016CC000F24944010FA02F2074B8908023153F8A8
:1016DC00215025EA040443F8214053F8214042EA02
:1016EC00040443F8214030BD00000140014B186058
:1016FC00704700BFDC0020420D4B1A6842F001021B
:10170C001A6059680B4A01EA02025A601A6822F000
:10171C00847222F480321A601A6822F480221A60D1
:10172C005A6822F4FE025A604FF41F029A60704706
:10173C00001002400000FFF80C4BB0F5803F1A6817
:10174C0022F480321A601A6822F480221A6003D0C4
:10175C00B0F5802F09D104E01A6842F480321A6087
:10176C0070471A6842F4A0221A60704700100240B9
:10177C00034B1A6822F0F80242EAC0021A60704762
:10178C0000100240014B1860704700BF000042423D
:10179C00044B5A6822F47C1240EA02020A435A6053
:1017AC00704700BF00100240014B1860704700BF2B
:1017BC0060004242034B5A6822F0030240EA0202E4
:1017CC005A60704700100240024B586800F00C0041
:1017DC00704700BF00100240034B5A6822F0F00221
:1017EC0040EA02025A60704700100240034B5A68EC
:1017FC0022F4E06240EA02025A6070470010024094
:10180C00034B5A6822F4605242EAC0025A60704795
:10181C0000100240044B11B11A78104302E01A7800
:10182C0022EA00001870704709100240014B186042
:10183C00704700BFD8004242034B5A6822F4404222
:10184C0040EA02025A60704700100240064B002228
:10185C0001281A701A7002D0042804D101E0187003
:10186C00704705221A70704720100240014B186017
:10187C00704700BF80044242024B1A6A40EA0202DF
:10188C001A62704700100240014B1860704700BF8D
:10189C003C04424210B5204B5A6802F00C02042A58
:1018AC0001D0082A02D01D4B036011E05A68596818
:1018BC0002F47012920C023211F4803F03D05B6878
:1018CC0013F4003F01D0164B00E0144B5A43026056
:1018DC00114A144B5168046801F0F0010909595C74
:1018EC0034FA01F14160546804F4E064240A1C5D8C
:1018FC0031FA04F48460546804F46054E40A1C5D06
:10190C00E140C160526802F4404203EB92331B7C0D
:10191C00B1FBF3F1016110BD0010024000127A001E
:10192C0000093D001C000020044B11B15A69104302
:10193C0002E05A6922EA0000586170470010024028
:10194C00044B11B19A69104302E09A6922EA000033
:10195C009861704700100240044B11B1DA691043D2
:10196C0002E0DA6922EA0000D861704700100240F8
:10197C00044B11B1DA68104302E0DA6822EA000085
:10198C00D860704700100240044B11B11A69104323
:10199C0002E01A6922EA0000186170470010024048
:1019AC00014B1860704700BF40044242014B186065
:1019BC00704700BF4C004242014B1870704700BF8B
:1019CC00071002404309012B074A01D1136803E0B9
:1019DC00022B0CBF136A536A00F01F0033FA00F09D
:1019EC0000F00100704700BF0010024007B5002353
:1019FC0001933120FFF7E6FF019B01330193019B1B
:101A0C00B3F5A06F01D00028F3D03120FFF7DAFF37
:101A1C00003818BF01200EBD024B5A6A42F080728A
:101A2C005A62704700100240034B9B6818420CBF6F
:101A3C0000200120704700BF00100240014B1870BD
:101A4C00704700BF0A100240204B10B598420BD1D2
:101A5C0001214FF48040FFF78BFF4FF480400021B1
:101A6C00BDE81040FFF784BF194B984207D14FF4E3
:101A7C0000300121FFF788FF4FF400301FE0154BB9
:101A8C00984207D14FF480200121FFF77DFF4FF4DE
:101A9C00802014E0104B984207D14FF40020012114
:101AAC00FFF772FF4FF4002009E00C4B98420BD16A
:101ABC004FF480100121FFF767FF4FF480100021D5
:101ACC00BDE81040FFF760BF10BD00BF00380140FB
:101ADC000044004000480040004C004000500040D2
:101AEC0030B5038ACA8823F440531B041B0C1343E0
:101AFC0003820D4683890989AA8823F4B05341EAED
:101B0C000202698923F00C030A431B041B0C92B2DA
:101B1C0042EA03038381838AAA8923F440731B045A
:101B2C001B0C87B013430446838201A8FFF7B2FE57
:101B3C00184BA2899C4212B20CBF049B039B002A37
:101B4C004FF019012A6802DA5943520001E0594357
:101B5C0092006423B1FBF2F1B1FBF3F21201100914
:101B6C0003FB1011A08900B2002806DAC90032313B
:101B7C00B1FBF3F303F0070305E009013231B1FBCC
:101B8C00F3F303F00F0343EA020292B2228107B08F
:101B9C0030BD00BF003801404FF4165303600C22D7
:101BAC0000238380C38003814281838170470A882C
:101BBC0010B54C88038A44EA02028C88C98823F445
:101BCC00706322431B040A431B0C92B242EA0303C8
:101BDC00038210BD0023038043808380C380704741
:101BEC0021B183899BB243F4005304E0838923F42D
:101BFC0000531B041B0C83817047CBB210B55B09DF
:101C0C00012401F01F0114FA01F1A34201D10C309F
:101C1C0004E0022B01D1103000E014301AB103683B
:101C2C0043EA010102E0036823EA0101016010BDEF
:101C3C001AB1838A9BB2194303E0838A9BB223EACD
:101C4C00010181827047038A23F00F031B041B0CD4
:101C5C000382038A9BB241EA0303038270478389A0
:101C6C0023F400631B041B0C838183899BB241EA20
:101C7C0003038381704721B183899BB243F0020334
:101C8C0004E0838923F002031B041B0C838170473F
:101C9C00038A23F020031B041B0C0382038A9BB2D0
:101CAC0041EA03030382704721B1038A9BB243F4D8
:101CBC00804304E0038A23F480431B041B0C03823F
:101CCC007047C905C90D818070478088C005C00D5B
:101CDC00704783899BB243F0010383817047038B68
:101CEC00DBB20383038B9BB243EA0123038370476C
:101CFC00038B03F47F430383038B9BB241EA0303FF
:101D0C000383704721B1838A9BB243F0200304E024
:101D1C00838A23F020031B041B0C8382704721B1A0
:101D2C00838A9BB243F0100304E0838A23F01003F0
:101D3C001B041B0C8382704721B1838A9BB243F036
:101D4C00080304E0838A23F008031B041B0C838222
:101D5C00704731B183896FEA43436FEA53439BB2B7
:101D6C0002E083895B045B0C8381704721B1838A19
:101D7C009BB243F4006304E0838A23F400631B04E6
:101D8C001B0C83827047838A23F004031B041B0CF7
:101D9C008382838A9BB241EA03038382704721B119
:101DAC00838A9BB243F0020304E0838A23F002038C
:101DBC001B041B0C83827047038819420CBF002044
:101DCC0001207047C94389B20180704710B5CCB26D
:101DDC000122640901F01F039A40012C01D183896F
:101DEC0003E0022C0CBF038A838A9BB202EA030332
:101DFC00028892B243B1090A012313FA01F111428C
:101E0C000CBF0020012010BD184610BD090A01238B
:101E1C008B40DB439BB20380704700BFEFF309801C
:101E2C000046704780F309887047EFF3088000463E
:101E3C00704780F308887047EFF31280704780F387
:101E4C0011887047EFF31080704780F3108870474B
:101E5C00EFF31380704780F313887047EFF314800F
:101E6C00704780F31488704700BA704740BA7047C7
:101E7C00C0BA704790FAA0F07047D0E84F0FC0B2CC
:101E8C007047D0E85F0F80B2704750E8000F704782
:101E9C00C1E8400F7047C1E8500F704741E800009F
:101EAC0070470000032A2DE9F00109D82AB100235C
:101EBC00CC5CC45401339342FAD1BDE8F0017047B5
:101ECC000B468218014603E02478013301F8014BDC
:101EDC0011F0030F1C46F7D113F003055DD06E42D1
:101EEC00C5F1040CED009B594FEACC0C08E004340E
:101EFC00A7593B4607FA0CF748EA070741F8047B59
:101F0C00571A23FA05F8032FF1DC03E014F8013B10
:101F1C0001F8013B8A42F9D8CFE753F8404C41F81D
:101F2C00404C53F83C4C41F83C4C53F8384C41F87D
:101F3C00384C53F8344C41F8344C53F8304C41F88D
:101F4C00304C53F82C4C41F82C4C53F8284C41F89D
:101F5C00284C53F8244C41F8244C53F8204C41F8AD
:101F6C00204C53F81C4C41F81C4C53F8184C41F8BD
:101F7C00184C53F8144C41F8144C53F8104C41F8CD
:101F8C00104C53F80C4C41F80C4C53F8084C41F8DD
:101F9C00084C53F8044C41F8044C561A1D460C4698
:101FAC00403340313F2EB8DC2B460FE053F8101C69
:101FBC0044F8101C53F80C1C44F80C1C53F8081C67
:101FCC0044F8081C53F8041C44F8041C161B1D464A
:101FDC0010330F2E214604F11004E7DC2B4602E0EF
:101FEC00246841F8044B551A1C46032D03F10403D5
:101FFC00F6DC8FE7002103E00A4B5B5843500431B9
:10200C0009480A4B42189A42F6D3094A02E00023C7
:10201C0042F8043B074B9A42F9D3FEF7A5FBFEF7B7
:10202C00C9FA70470028000800000020300000208A
:10203C003000002050050020FEE72020202020202A
:10204C00202020200008200800436F6D6D616E6415
:10205C0020737472696E672073697A65206F766578
:10206C0072666C6F770D0A00557365722043616E52
:10207C0063656C6C6564200D0A004572726F722C7E
:10208C0020496E70757420616761696E3A200D0A83
:10209C00000D0A57726974652050726F7465637411
:1020AC00696F6E2064697361626C65642E2E2E00FC
:1020BC000D0A2E2E2E616E64206120537973746587
:1020CC006D2052657365742077696C6C2062652095
:1020DC0067656E65726174656420746F2072652D1E
:1020EC006C6F616420746865206E6577206F707406
:1020FC00696F6E206279746573000D0A4572726F98
:10210C00723A20466C617368207772697465207529
:10211C006E70726F74656374696F6E206661696C42
:10212C0065642E2E2E000D0A466C617368206D6559
:10213C006D6F7279206E6F74207772697465207080
:10214C00726F746563746564000D0A3D3D3D3D3DE1
:10215C003D3D3D3D3D3D3D3D3D3D3D3D3D3D3D3DA3
:10216C003D3D3D2048656C70203D3D3D3D3D3D3D38
:10217C003D3D3D3D3D3D3D3D3D3D3D3D3D3D3D3D83
:10218C003D3D3D3D3D0D0A0A002020446F776E6CAD
:10219C006F616420496D61676520546F20746865B8
:1021AC002053544D33324631307820496E74657269
:1021BC006E616C20466C617368202D2D2D2D2D2D9C
:1021CC002D20310D0A0A00202055706C6F6164209F
:1021DC00496D6167652046726F6D20746865205388
:1021EC00544D33324631307820496E7465726E61CD
:1021FC006C20466C617368202D2D2D2D2D2D2D20DE
:10220C00320D0A0A002020457865637574652054E8
:10221C006865204E65772050726F6772616D202D56
:10222C002D2D2D2D2D2D2D2D2D2D2D2D2D2D2D2DD2
:10223C002D2D2D2D2D2D2D2D2D2D2D2D2D20330DE9
:10224C000A0A00202044697361626C652074686519
:10225C002077726974652070726F74656374696F2E
:10226C006E202D2D2D2D2D2D2D2D2D2D2D2D2D2D5E
:10227C002D2D2D2D2D2D2D2D2D2D2D20340D0A0AEE
:10228C00003D3D3D3D3D3D3D3D3D3D3D3D3D3D3DAF
:10229C003D3D3D3D3D3D3D3D3D3D3D3D3D3D3D3D62
:1022AC003D3D3D3D3D3D3D3D3D3D3D3D3D3D3D3D52
:1022BC003D3D3D3D3D3D3D3D3D3D3D0D0A0A000D45
:1022CC000A4F4F42442D466C6173686C6F616465B4
:1022DC00723E000D0A57616974696E6720666F72F1
:1022EC00207468652066696C6520746F20626520B7
:1022FC0073656E74202E2E2E2028707265737320D9
:10230C0027612720746F2061626F7274290A0D0097
:10231C000A0A0D2050726F6772616D6D696E6720CD
:10232C00436F6D706C65746564205375636365737E
:10233C007366756C6C79210A0D2D2D2D2D2D2D2D7F
:10234C002D2D2D2D2D2D2D2D2D2D2D2D2D2D2D2DB1
:10235C002D2D2D2D2D2D2D2D2D0D0A204E616D6524
:10236C003A20000A0D2053697A653A200020427900
:10237C007465730D0A002D2D2D2D2D2D2D2D2D2D2C
:10238C002D2D2D2D2D2D2D2D2D2D2D2D2D2D2D2D71
:10239C002D2D2D2D2D2D0A0D000A0A0D54686520AA
:1023AC00696D6167652073697A6520697320686956
:1023BC0067686572207468616E2074686520616C52
:1023CC006C6F776564207370616365206D656D6FEC
:1023DC007279210A0D000A0A0D56657269666963E5
:1023EC006174696F6E206661696C6564210A0D0009
:1023FC000D0A0A41626F72746564206279207573EC
:10240C0065722E0A0D000A0D4661696C65642074B4
:10241C006F207265636569766520746865206669EE
:10242C006C65210A0D000D0A4F4F42442D466C611C
:10243C0073686C6F6164657220004432003234380A
:10244C00005468752C203136204A756E203230319C
:10245C00312031363A34303A3332202B303230306E
:10246C00000A0A0D53656C656374205265636569D7
:10247C0076652046696C65202E2E2E20287072659C
:10248C00737320616E79206B657920746F206162A3
:10249C006F7274290A0D0055706C6F616465644627
:1024AC006C617368496D6167652E62696E000A0D17
:1024BC004572726F72204F63637572656420776822
:1024CC00696C65205472616E736D697474696E67A2
:1024DC002046696C650A0D000A0D46696C6520542E
:1024EC007261736D6974746564205375636365738D
:0C24FC007366756C6C79200A0D000000FE
:1028000000A24A04000000000000000001020304CE
:1028100006070809FC2F000800040400000000005F
:102820000102030401020304060708090204060862
:0400000508002001CE
:00000001FF
